:0400000007EF00F016
:100008007E8282ED08F0DFEF16F09E0E0001B36FDE
:10001800000E0001B46FBDEF04F0250E0001BA19FF
:10002800D8B406D00001BA5124EC18F0BDEF04F0A2
:10003800000E0001B96F000EB86F000E0001BC6F12
:10004800000EBB6F0ED00001BB8708D00001BB813A
:1000580005D00001BC8702D00001BB8500019C4B84
:100068009D2B9CC0F6FF9DC0F7FF0800F550200AA5
:10007800D8B4ECD7030AD8B4ECD70E0AD8B4E3D76F
:100088001D0AD8B4E9D70001BBA702D00001BB956F
:100098009CC0F6FF9DC0F7FF0800F5509CEC17F0D8
:1000A800D8A041D0000E0001B96F000EB86FB8C0DB
:1000B80090F0B9C091F0000E0001936F0A0E926F94
:1000C80050EC17F090C0B8F091C0B9F0D00E000114
:1000D800A46FFF0E0001A56F9CC0F6FF9DC0F7FF3F
:1000E8000800F5500001A66FA76B0001A45100019C
:1000F800A6270001A5510001A7230001A651000170
:10010800B8270001A7510001B92300019C4B9D2B82
:100118009CC0F6FF9DC0F7FF0800F5509CEC17F057
:10012800D8A01AD0C4D79CC0F6FF9DC0F7FF08001E
:10013800F5502A0AD8A410D0B3C0D9FFB4C0DAFF4A
:10014800DECFB8F0DDCFB9F0020E0001B327000E04
:10015800B42300019C4B9D2B9CC0F6FF9DC0F7FF6C
:100168000800F5502E0AD8A440D00001BC8D00012B
:100178009C4B9D2B9CC0F6FF9DC0F7FF0800F550D7
:100188002A0AD8A410D0B3C0D9FFB4C0DAFFDF5010
:100198000001B76F020E0001B327000EB42300015F
:1001A8009C4B9D2BB9D0000E0001B76F13D09CC09B
:1001B800F6FF9DC0F7FF0800F5CFA4F00001B75186
:1001C8000A0DF3500001A425D00F0001B76F0001FC
:1001D8009C4B9D2B9CC0F6FF9DC0F7FF0800F55077
:1001E8009CEC17F0D8A098D0E2D7000E0001B76FAA
:1001F80093D00001BB8DB5D00001BB8B0001BB8F34
:10020800B0D00001B7510001D8B417D0B7C0A4F0DE
:100218000001A56BA4BFA5070001B1510001A45DB1
:100228000001B2510001A559D8B007D00001B7515B
:100238000001B16FB26BB1BFB2070001B851000144
:10024800B15D0001B9510001B259D8B009D000011F
:10025800B1510001B85F0001B2510001B95B05D08E
:10026800000E0001B96F000EB86F0001BBA704D0E3
:1002780019D0200E24EC18F00001B807D8A0B9074F
:100288000001B829F6E10001B929D8B40BD0F1D79B
:10029800A8C0D9FFA9C0DAFFDF5024EC18F000018C
:1002A800A84BA92B0001B107D8A0B2070001B129BA
:1002B800EFE10001B229D8A4EBD70001BBB704D005
:1002C80058D3200E24EC18F00001B807D8A0B907BD
:1002D8000001B829F6E10001B929D8B44AD3F1D709
:1002E800B3C0D9FFB4C0DAFFDF500001BA6F020E05
:1002F8000001B327000EB423BA0E0001A86F000E48
:100308000001A96F000E0001B26F010EB16F79D71D
:10031800C00E0001BB1325D09CC0F6FF9DC0F7FF9F
:1003280000019C4B9D2B0800F5CFBAF00001BA5193
:10033800000AD8B41200580AD8B45ED73B0AD8B419
:10034800CFD7070AD8B40DD00D0AD8B40AD0060AF8
:10035800D8B44FD71A0AD8B4DBD70D0AD8B44ED7B9
:10036800CBD7C00E0001BB150001A46F000E000121
:10037800BC150001A56F0001A4510001A511D8A466
:1003880019D0B3C0D9FFB4C0DAFFDECFB5F0DDCFE6
:10039800B6F0020E0001B327000EB4230001B6AF79
:1003A80016D0030E0001BB130001B56DB61FD8B0FF
:1003B800B62B0DD0B3C0D9FFB4C0DAFFDECFB5F08D
:1003C800DDCFB6F0020E0001B327000EB423000102
:1003D800B7510001D8A463D00001B5510001B6118E
:1003E800D8A45DD00001B72B5AD0010E0001BA6F16
:1003F800050E0001BA19D8B461D00001BA51020D36
:10040800DC0EF324F66EFD0EF420F76E0900F550AD
:100418000001B55D0900F5500001B659D8A04ED0CD
:100428000001BA2BE5D7010E0001BA6F040E0001D6
:10043800BA19D8B443D00001BA51020DE60EF3241C
:10044800F66EFD0EF420F76E0900F5500001B55D5B
:100458000900F5500001B659D8A030D00001BA2BD8
:10046800E5D7010E0001BA6F060E0001BA19D8B41B
:1004780025D00001BA51020DD00EF324F66EFD0E00
:10048800F420F76E0900F5500001B55D0900F5503C
:100498000001B659D8A012D00001BA2BE5D7000147
:1004A800BB51C00B000AD8B4A0D7400AD8B4D9D7DA
:1004B800C00AD8B4B8D7400AD8B497D70001BA51FF
:1004C800800A0001A46F0001B751800A0001A45DF1
:1004D800D8B003D0B7C0BAF00DD00001B751800A28
:1004E8000001A46F0001BA51800A0001A45DD8A0E0
:1004F800BAC0B7F00001B8510001B911D8B414D08E
:10050800030E0001BB150001A46F000E0001BC150D
:100518000001A56F0001A4510001A511D8B404D0B1
:100528000001B807D8A0B9070001BCAD21D0800EE2
:100538000001B7BF7F0E0001A46F0001B851000190
:10054800B75D0001B951800A0001A459D8B00BD099
:100558000001B7510001B85F000E0001B7BFFF0EE0
:100568000001B95B05D0000E0001B96F000EB86F2D
:10057800C40E0001A46F080E0001A56FBBC0A6F051
:10058800BCC0A7F00001A4510001A6170001A551A5
:100598000001A717400E0001A61910E1080E00017E
:1005A800A719D8A40BD00001B8510001B911D8B4CB
:1005B80036D00001B807D8A0B90731D0C00E000165
:1005C800A46F080E0001A56FBBC0A6F0BCC0A7F0C1
:1005D8000001A4510001A6170001A5510001A717A9
:1005E800800E0001A6191BE1080E0001A719D8A466
:1005F80016D00001B9BF0ED00001B95105E1030EB4
:100608000001B85DD8A006D00001FE0EB827FF0E85
:10061800B92305D0000E0001B96F000EB86F800E27
:100628000001BABF7F0E0001A46F0001B85100019C
:10063800BA5D0001B951800A0001A459D8B00BD0A5
:100648000001BA510001B85F000E0001BABFFF0EE9
:100658000001B95B05D0000E0001B96F000EB86F3C
:100668000001BBA558D0030E0001BB150001A46F03
:10067800000E0001BC150001A56F0001A451000186
:10068800A511D8B404D02D0E24EC18F036D00001F2
:10069800BBA104D0200E24EC18F02FD0C00E00010E
:1006A800A46F080E0001A56FBBC0A6F0BCC0A7F0E0
:1006B8000001A4510001A6170001A5510001A717C8
:1006C800800E0001A61919E1080E0001A719D8A487
:1006D80014D0300E24EC18F00001BBBB05D0000E7E
:1006E8000001AB6F780E04D0000E0001AB6F580EFE
:1006F800AA6F0001AA5124EC18F00001B8510001BA
:10070800B911D8B416D1300E24EC18F00001B8078E
:10071800D8A0B907F2D70001B8510001B911D8B46F
:1007280010D00001BBB70DD0200E24EC18F000014A
:10073800B807D8A0B9070001B8510001B911D8A469
:10074800F3D7030E0001BB150001A46F000E0001D2
:10075800BC150001A56F0001A4510001A511D8B472
:1007680004D02D0E24EC18F006D00001BBA103D054
:10077800200E24EC18F0C00E0001A46F080E000132
:10078800A56FBBC0A6F0BCC0A7F00001A451000132
:10079800A6170001A5510001A717400E0001A619D0
:1007A80009E1080E0001A719D8A404D0300E24ECE2
:1007B80018F0BFD0C00E0001A46F080E0001A56F8D
:1007C800BBC0A6F0BCC0A7F00001A4510001A61749
:1007D8000001A5510001A717800E0001A61904E128
:1007E800080E0001A719D8A4A4D0300E24EC18F0E4
:1007F8000001BBBB05D0000E0001AD6F780E04D020
:10080800000E0001AD6F580EAC6F0001AC5124EC26
:1008180018F08FD00001B751020DDC0EF324F66EEC
:10082800FD0EF420F76E0900F5CF92F00A00F5CF1F
:1008380093F0B5C090F0B6C091F0BBEC14F090C046
:1008480097F091C098F0000E00019A6F0A0E996F08
:1008580067EC15F00001975155D0B5C090F0B6C0BF
:1008680091F00001B751020DE60EF324F66EFD0E6D
:10087800F420F76E0900F5CF92F00A00F5CF93F057
:10088800BBEC14F0000190510F0B0001B06F000198
:10089800BBBB05D0F40E0001AE6FFE0E04D0E30E14
:1008A8000001AE6FFE0E0001AF6F0001B051010DE7
:1008B800AEC0A4F0AFC0A5F0F3500001A427F450D7
:1008C8000001A523A4C0F6FFA5C0F7FF0800F5CFD7
:1008D800BAF02BD0B5C090F0B6C091F00001B75176
:1008E800020DD00EF324F66EFD0EF420F76E09000B
:1008F800F5CF92F00A00F5CF93F0BBEC14F00001AD
:100908009051070B300F0001BA6F0FD00001BB5197
:10091800C00B000AD8B47ED7400AD8B4DBD7C00AC7
:10092800D8B49BD7400AD8B475D70001BA5124EC83
:1009380018F00001B7070001B729D8A4E7D70001CC
:10094800BBA717D00001B9BF14D00001B95104E109
:100958000001B805D8A00DD0200E24EC18F0000135
:10096800B807D8A0B9070001B8510001B911D8A437
:10097800F3D79CC0F6FF9DC0F7FF00019C4B9D2B51
:100988000800F5CFBAF00001BA51D8B4120011EF3F
:1009980000F00F0E1E6E000E1F6EA3D3250E251835
:1009A800D8B404D0255034EC18F09BD3000E246E34
:1009B800000E236E000E276E000E266E09D02686C6
:1009C80005D0268003D0278601D026840D4A0E2A1A
:1009D8000DC0F6FF0EC0F7FF0800F550200AD8B486
:1009E800F0D7030AD8B4EFD70E0AD8B4E8D71D0A4F
:1009F800D8B4EBD726B626940DC0F6FF0EC0F7FF85
:100A08000800F550E9EC17F0D8A033D0000E246E9A
:100A1800000E236E23C001F024C002F0000E046E05
:100A28000A0E036EC4EC17F001C023F002C024F0D4
:100A3800D00E0F6EFF0E106E0DC0F6FF0EC0F7FF42
:100A48000800F550116E126A0F501126105012222C
:100A580011502326125024220D4A0E2A0DC0F6FFEB
:100A68000EC0F7FF0800F550E9EC17F0D8A018D031
:100A7800D1D70DC0F6FF0EC0F7FF0800F5502A0ABF
:100A8800D8A40ED01EC0D9FF1FC0DAFFDECF23F0D6
:100A9800DDCF24F0020E1E26000E1F220D4A0E2A5C
:100AA8000DC0F6FF0EC0F7FF0800F5502E0AD8A4B7
:100AB80036D0278C0D4A0E2A0DC0F6FF0EC0F7FF60
:100AC8000800F5502A0AD8A40DD01EC0D9FF1FC0AF
:100AD800DAFFDF50226E020E1E26000E1F220D4A7C
:100AE8000E2A8CD0000E226E0FD00DC0F6FF0EC05D
:100AF800F7FF0800F5CF0FF022500A0DF3500F242E
:100B0800D00F226E0D4A0E2A0DC0F6FF0EC0F7FF59
:100B18000800F550E9EC17F0D8A070D0E6D7000E21
:100B2800226E6CD0268C8DD0268A268E8AD02250B2
:100B3800D8B410D022C00FF0106A0FBE10061C5097
:100B48000F5C1D501058D8B005D022501C6E1D6A7D
:100B58001CBE1D0623501C5C24501D58D8B005D05F
:100B68001C50235E1D50245A04D0000E246E000E23
:100B7800236E26A604D015D0200E34EC18F02306D8
:100B8800D8A024062328F8E12428D8B40AD0F4D71A
:100B980014C0D9FF15C0DAFFDF5034EC18F0144A3E
:100BA800152A1C06D8A01D061C28F2E11D28D8A469
:100BB800EFD726B604D095D2200E34EC18F02306D1
:100BC800D8A024062328F8E12428D8B48AD2F4D758
:100BD8001EC0D9FF1FC0DAFFDF50256E020E1E2689
:100BE800000E1F22250E146E000E156E000E1D6ECF
:100BF800010E1C6E9CD7C00E261223D00DC0F6FF26
:100C08000EC0F7FF0D4A0E2A0800F5CF25F0255033
:100C1800000AD8B41200580AD8B486D73B0AD8B408
:100C2800D7D7070AD8B40DD00D0AD8B40AD0060A07
:100C3800D8B478D71A0AD8B4DED70D0AD8B475D77D
:100C4800D1D7C00E26140F6E000E2714106E0F5049
:100C58001010D8A415D01EC0D9FF1FC0DAFFDECFF0
:100C680020F0DDCF21F0020E1E26000E1F2221AE3D
:100C780013D0030E2612206C211ED8B0212A0CD0C6
:100C88001EC0D9FF1FC0DAFFDECF20F0DDCF21F074
:100C9800020E1E26000E1F222250D8A44ED020502D
:100CA8002110D8A44AD0222A48D0010E256E050E5C
:100CB8002518D8B450D02550020DDC0EF324F66E5A
:100CC800FD0EF420F76E0900F550205C0900F55080
:100CD8002158D8A040D0252AEAD7010E256E040E47
:100CE8002518D8B438D02550020DE60EF324F66E38
:100CF800FD0EF420F76E0900F550205C0900F55050
:100D08002158D8A028D0252AEAD7010E256E060E2C
:100D18002518D8B420D02550020DD00EF324F66E35
:100D2800FD0EF420F76E0900F550205C0900F5501F
:100D38002158D8A010D0252AEAD72650C00B000A7F
:100D4800D8B4B3D7400AD8B4E0D7C00AD8B4C5D706
:100D5800400AD8B4AAD72550800A0F6E2250800ABC
:100D68000F5CD8B003D022C025F009D02250800AE9
:100D78000F6E2550800A0F5CD8A025C022F02350A2
:100D88002410D8B40DD0030E26140F6E000E2714AD
:100D9800106E0F501010D8B403D02306D8A0240624
:100DA80027AC16D0800E22BE7F0E0F6E2350225C19
:100DB8002450800A0F58D8B007D02250235E000E66
:100DC80022BEFF0E245A04D0000E246E000E236E9D
:100DD800C40E0F6E080E106E26C011F027C012F058
:100DE8000F50111610501216400E11180CE1080E73
:100DF8001218D8A408D023502410D8B428D0230619
:100E0800D8A0240624D0C00E0F6E080E106E26C07F
:100E180011F027C012F00F50111610501216800E44
:100E2800111815E1080E1218D8A411D024BE0BD041
:100E3800245004E1030E235CD8A005D0FE0E23261F
:100E4800FF0E242204D0000E246E000E236E800EA6
:100E580025BE7F0E0F6E2350255C2450800A0F5844
:100E6800D8B007D02550235E000E25BEFF0E245AA9
:100E780004D0000E246E000E236E26A442D0030E6A
:100E880026140F6E000E2714106E0F501010D8B4D1
:100E980004D02D0E34EC18F029D026A004D0200E52
:100EA80034EC18F023D0C00E0F6E080E106E26C05A
:100EB80011F027C012F00F50111610501216800EA4
:100EC800111814E1080E1218D8A410D0300E34EC02
:100ED80018F026BA04D0000E176E780E03D0000E54
:100EE800176E580E166E165034EC18F02350241056
:100EF800D8B4E1D0300E34EC18F02306D8A024067C
:100F0800F5D723502410D8A426B60AD0200E34ECE6
:100F180018F02306D8A0240623502410D8A4F6D706
:100F2800030E26140F6E000E2714106E0F501010AB
:100F3800D8B404D02D0E34EC18F005D026A003D078
:100F4800200E34EC18F0C00E0F6E080E106E26C07E
:100F580011F027C012F00F50111610501216400E43
:100F6800111808E1080E1218D8A404D0300E34EC79
:100F780018F0A1D0C00E0F6E080E106E26C011F02A
:100F880027C012F00F50111610501216800E1118AB
:100F980003E1080E1218D8A48ED0300E34EC18F0E5
:100FA80026BA04D0000E196E780E03D0000E196E02
:100FB800580E186E185034EC18F07DD02250020DDF
:100FC800DC0EF324F66EFD0EF420F76E0900F5CF63
:100FD80003F00A00F5CF04F020C001F021C002F0B0
:100FE80026EC16F001C008F002C009F0000E0B6EE6
:100FF8000A0E0A6E9EEC16F0085049D020C001F087
:1010080021C002F02250020DE60EF324F66EFD0E0A
:10101800F420F76E0900F5CF03F00A00F5CF04F0CD
:1010280026EC16F001500F0B136E26BA04D0F40EFE
:101038001A6EFE0E03D0E30E1A6EFE0E1B6E1350D0
:10104800010D1AC00FF01BC010F0F3500F26F4501A
:1010580010220FC0F6FF10C0F7FF0800F5CF25F0EB
:1010680027D020C001F021C002F02250020DD00E7E
:10107800F324F66EFD0EF420F76E0900F5CF03F0A9
:101088000A00F5CF04F026EC16F00150070B300FDC
:10109800256E0ED02650C00B000AD8B48FD7400A50
:1010A800D8B4DFD7C00AD8B4A9D7400AD8B486D7ED
:1010B800255034EC18F022062228D8A4EBD726B6FF
:1010C80024BE0FD0245003E12304D8A00AD0200E58
:1010D80034EC18F02306D8A0240623502410D8A4F2
:1010E800F6D70DC0F6FF0EC0F7FF0D4A0E2A08000E
:1010F800F5CF25F02550D8B4120050D40600FACF09
:1011080082F0FBCF83F0E9CF84F0EACF85F0E1CF1E
:1011180086F0E2CF87F0D9CF88F0DACF89F0F3CF25
:101128008AF0F4CF8BF0F6CF8CF0F7CF8DF0F8CFB4
:101138008EF0F5CF8FF0F0B0A3D0C3D0000E000131
:10114800D66F000E0001D86F000ED76FB8D0F28AA4
:10115800D58E000ED76E000ED66E33EC15F0CAC0D1
:101168007DF0C9C07CF0010E3AEC18F0020E69D08F
:101178000001D769D869A3D0050E0001D66F000118
:10118800D74BD82B1F0E8118D8A499D0FBD77DC078
:1011980063F0646AEAEC0DF063C073F064C074F045
:1011A80073C001F074C002F0000E046E3C0E036EB2
:1011B800C4EC17F001C080F002C081F07CC063F07D
:1011C800646AEAEC0DF06350000180250001D46FD9
:1011D8006450000181210001D56F77C063F0646A13
:1011E800EAEC0DF063C073F064C074F073C001F0F2
:1011F80074C002F0000E046E3C0E036EC4EC17F0CF
:1012080001C080F002C081F076C063F0646AEAEC45
:101218000DF06350000180250001D06F645000017B
:1012280081210001D16F060E0CD0040E0AD033ECD8
:1012380015F0CAC077F0C9C076F0010E3AEC18F084
:10124800030E0001D66F94D7010E3AEC18F0010E88
:101258000001D66F0001D769D869D59E30D0000E3D
:10126800106E010E0F6EEDEC12F029D0000E106E0C
:10127800B40E0F6EEDEC12F022D043EC13F01FD039
:1012880081500F0AD8B463D7100AD8B475D7300A7A
:10129800D8B47DD7100AD8B4C8D7700AD8B4C7D77D
:1012A800300AD8B4DCD7D00AD8B4E7D7100AD8B4F3
:1012B800DDD7700AD8B4C8D7200AD8B43FD7F09081
:1012C8002ED0F2A412D0D59E33EC15F0CAC077F018
:1012D800C9C076F0010E3AEC18F0030E0001D66F83
:1012E8000001D769D869F2941AD0800E3AEC18F048
:1012F800DF0E0D6EFF0E0E6ECDEC04F0000E756E57
:10130800630E756401D0F1D7210E0001806F760E4F
:10131800E82EFED7802FFCD700F0752AF1D78FC0B2
:10132800F5FF8EC0F8FF8DC0F7FF8CC0F6FF8BC0AD
:10133800F4FF8AC0F3FF89C0DAFF88C0D9FF87C0ED
:10134800E2FF86C0E1FF85C0EAFF84C0E9FF83C0F1
:10135800FBFF82C0FAFF7E92110049504A104B10E1
:10136800D8A407D0000E496E800E4A6E3F0E4B6E11
:101378001200720E016E310E026E440E036E49C0E9
:1013880004F04AC005F04BC006F031EC14F0D8B0B8
:101398000BD0000E796E220E786EFF0E496E7F0E0E
:1013A8004A6E7F0E4B6E120049C001F04AC002F02F
:1013B8004BC003F0490E046E3A0E056EC40E066E5D
:1013C80031EC14F0D8B00BD0000E796E220E786E86
:1013D800000E496E000E4A6E000E4B6E12004BAEA8
:1013E80002D0010E01D0000E516E5150D8B40ED06B
:1013F80049C001F04AC002F04BC003F0D7EC17F027
:1014080001C049F002C04AF003C04BF049C00DF0DA
:101418004AC00EF04BC00FF0AA0E106EB80E116E37
:101428003F0E126EE2EC0EF00DC049F00EC04AF00D
:101438000FC04BF049C041F04AC042F04BC043F0E6
:10144800CFEC0FF041C04CF042C04DF043C04EF01D
:101458004CC028F04DC029F04EC02AF068EC0EF0C0
:1014680028C04FF029C050F049C028F04AC029F0E0
:101478004BC02AF04FC009F050C00AF0FEEC16F03D
:1014880009C02BF00AC02CF00BC02DF0BFEC16F0F1
:1014980028C049F029C04AF02AC04BF049C028F0BA
:1014A8004AC029F04BC02AF0F50E2B6EFD0E2C6EAB
:1014B800000E2E6E090E2D6E14EC11F028C034F0BB
:1014C80029C035F02AC036F04FC037F050C038F088
:1014D8007DEC11F034C049F035C04AF036C04BF00D
:1014E8005150D8B425D049280EE17F0E4A180BE197
:1014F8007F0E4B18D8A407D0000E496E000E4A6E16
:10150800000E4B6E1200000E096E800E0A6E3F0E22
:101518000B6E49C00CF04AC00DF04BC00EF05CECED
:101528000FF009C049F00AC04AF00BC04BF0120096
:1015380049C049F04AC04AF04BC04BF012001EC0E7
:1015480022F0236A246A1D34223601E323802250C4
:10155800276E21C022F0236A246A2034223601E350
:1015680023802250266E2750D8B40BD02650275CF3
:10157800D8B00ED0275000082624226E180E2264F8
:1015880007D01FC01CF020C01DF021C01EF01200A3
:101598002650D8B40BD02750265CD8B00ED0265091
:1015A80000082724226E180E226407D01CC01CF0E5
:1015B8001DC01DF01EC01EF01200060E256E1EBEB8
:1015C800258E21BE258C1D8EFF0E1C16FF0E1D16A6
:1015D800000E1E16208EFF0E1F16FF0E2016000E80
:1015E80021162650275CD8B01BD0D8901F3620363D
:1015F8002136260627502618D8B40DD0250625C032
:1016080022F0070E2216D8B406D0EFD7D8901E3293
:101618001D321C32272A26502718D8B41FD0F6D7D7
:101628002750265CD8B01AD0D8901C361D361E36E6
:10163800270627502618D8B40DD0250625C022F035
:10164800070E2216D8B406D0EFD7D8902132203210
:101658001F32262A26502718D8A4F7D725AE0CD033
:10166800FF0E1C1AFF0E1D1AFF0E1E1A010E1C2655
:10167800000E1D22000E1E2225AC0CD0FF0E1F1AD4
:10168800FF0E201AFF0E211A010E1F26000E20221F
:10169800000E2122000E256E1C501F261D502022F0
:1016A8001E50212221AE0ED0FF0E1F1AFF0E201A47
:1016B800FF0E211A010E1F26000E2022000E2122E5
:1016C800010E256E1FC001F020C002F021C003F0FA
:1016D80027C004F025C005F096EC12F001C01CF0FC
:1016E80002C01DF003C01EF01200000E5E6E5250C4
:1016F80053105410D8A41BD0000E016E000E026EB9
:10170800000E036E55C004F056C005F057C006F031
:1017180031EC14F0D8A004D0000E796E210E786E4A
:10172800000E526E000E536E000E546E120055508D
:1017380056105710D8A407D0000E526E800E536E64
:101748003F0E546E120054AE40D055C028F056C01B
:1017580029F057C02AF068EC0EF028C05FF029C0C5
:1017680060F02AC061F02BC062F05FC009F060C071
:101778000AF061C00BF062C00CF0F8EC15F055509F
:10178800091807E156500A1804E157500B18D8B445
:101798000BD0000E796E210E786E000E526E000E80
:1017A800536E000E546E12005F50010B5E6E52C0F5
:1017B80001F053C002F054C003F0D7EC17F001C099
:1017C80052F002C053F003C054F052C034F053C07A
:1017D80035F054C036F0D8EC0CF034C058F035C0B1
:1017E80059F036C05AF058C00DF059C00EF05AC022
:1017F8000FF055C010F056C011F057C012F0E2ECCF
:101808000EF00DC05BF00EC05CF00FC05DF05BC069
:1018180049F05CC04AF05DC04BF0B1EC09F049C03A
:1018280052F04AC053F04BC054F05E50D8B40FD0B9
:1018380052C001F053C002F054C003F0D7EC17F0C7
:1018480001C052F002C053F003C054F0120052C05D
:1018580052F053C053F054C054F0120083D0800E9D
:101868002CEC18F0270E00019C6FFF0E00019D6FF5
:1018780009EC00F0C00E2CEC18F0160E00019C6F5D
:10188800FF0E00019D6F09EC00F01200800E2CEC99
:1018980018F06B0E00019C6FFF0E00019D6F09ECA4
:1018A80000F0C00E2CEC18F05A0E00019C6FFF0ED1
:1018B80000019D6F09EC00F01200800E2CEC18F06E
:1018C800490E00019C6FFF0E00019D6F09EC00F0AE
:1018D800C00E2CEC18F0380E00019C6FFF0E0001B2
:1018E8009D6F09EC00F01200800E2CEC18F07C0EB5
:1018F80000019C6FFF0E00019D6F09EC00F0C00E07
:101908002CEC18F09E0E00019C6FFF0E00019D6FDD
:1019180009EC00F01200800E2CEC18F08D0E00017E
:101928009C6FFF0E00019D6F09EC00F0C00E2CECBF
:1019380018F0AF0E00019C6FFF0E00019D6F09ECBF
:1019480000F01200800E2CEC18F0ED0E00019C6FD8
:10195800FF0E00019D6FD7C09EF0D8C09FF009EC24
:1019680000F0F0D7D7C090F0D8C091F0000E000179
:10197800936F050E926F98EC13F000019151000AD5
:10198800D8A4E0D700019051000AD8B468D7010A5A
:10199800D8B47CD7030AD8B490D7010AD8B4A4D74E
:1019A800070AD8B4B8D7CED736AE0BD0000E796EAA
:1019B800210E786E000E346E000E356E000E366EF7
:1019C8001200345035103610D8A40BD0000E796EA2
:1019D800220E786E000E346E000E356E000E366ED6
:1019E8001200000E106E000E116E400E126E370EB1
:1019F800046E000E056E34C001F035C002F036C02A
:101A080003F0E9EC13F001C00DF002C00EF003C0C2
:101A18000FF0E2EC0EF00DC01CF00EC01DF00FC070
:101A28001EF0000E1F6E800E206EBF0E216EA3ECFE
:101A38000AF01CC034F01DC035F01EC036F0370661
:101A4800D8A0380634C028F035C029F036C02AF0AE
:101A5800130E2B6EFE0E2C6E000E2E6E080E2D6EC3
:101A680014EC11F028C034F029C035F02AC036F043
:101A7800720E106E310E116E3F0E126E37C009F0E5
:101A880038C00AF0FEEC16F009C00DF00AC00EF0DE
:101A98000BC00FF0E2EC0EF00DC01CF00EC01DF0F4
:101AA8000FC01EF034C01FF035C020F036C021F042
:101AB800A3EC0AF01CC034F01DC035F01EC036F08F
:101AC800120092689368180E946E000E956E000EC0
:101AD800966E000E896E000E8A6E000E8B6E000EDA
:101AE8008C6E000E8D6E000EC26EC168F086F19E7F
:101AF8004FEC16F0100E00019D6F270E9E6F000E22
:101B08009F6F000EA06FC8EC15F06BEC17F0000E7D
:101B1800D76E000ED66ED59CD59AD596D584D5822B
:101B2800D580F28E000E0001D66F2AD01AEC17F07D
:101B38003ED0F8EC17F03BD03CEC12F038D005EC76
:101B480018F035D0ABEC10F032D032EC0CF02FD0CE
:101B5800D4C0BFF0D5C0C0F00001BF1FC01FBF4B2D
:101B6800C02B0001D0510001BF250001BD6F00014D
:101B7800D1510001C0210001BE6F35EC17F017D01C
:101B88000001D651000AD8B4D1D7010AD8B4D1D7A8
:101B9800030AD8B4D1D7010AD8B4D1D7070AD8B420
:101BA800D1D7010AD8B4D1D7030AD8B4D1D7030EF4
:101BB8000001C06F8A0E0001BF6F550EE82EFED7D8
:101BC800BF2FFCD7C02FFAD700D0DAD7000E6E6E21
:101BD800000E6D6E63C071F064C072F0000E706E1E
:101BE800000E6F6E68D00F0E71146B6E6C6A6DC04C
:101BF80009F06EC00AF0FEEC16F009C065F00AC0E4
:101C080066F00BC067F065C055F066C056F067C057
:101C180057F0000E526E200E536E410E546E79EC42
:101C28000BF052C068F053C069F054C06AF068C045
:101C380010F069C011F06AC012F06BC009F06CC0F6
:101C48000AF0FEEC16F009C00DF00AC00EF00BC049
:101C58000FF0E2EC0EF00DC01FF00EC020F00FC028
:101C680021F06FC009F070C00AF0FEEC16F009C050
:101C78001CF00AC01DF00BC01EF0A3EC0AF01CC03B
:101C880028F01DC029F01EC02AF068EC0EF028C00C
:101C98006FF029C070F071C007F072C008F0000E34
:101CA8000A6E100E096E79EC14F007C071F008C0C6
:101CB80072F06D4A6E2A71507210D8A494D76FC012
:101CC80063F070C064F012002AC02CF02D6A2E6AEE
:101CD80029342C3601E32D802C50366E3650D8A48A
:101CE80009D0000E286E000E296E000E2A6E000E16
:101CF8002B6E1200170E2C6E28C02DF029C02EF066
:101D08002AC02FF02C28306E04D0D8902F322E32D3
:101D18002D32302EFAD72D50316E298EFF0E28160F
:101D2800FF0E2916000E2A162850326E2950336EDF
:101D38002A50346E356A8E0E365E36AE16D0365060
:101D4800800A8F0FD8B009D0000E286E000E296EB9
:101D5800000E2A6E000E2B6E1200D89035323432E7
:101D680033323232363EF9D715D0170E36640FD0DB
:101D7800000E286E000E296E000E2A6E000E2B6EC5
:101D88001200D89032363336343635363606365069
:101D9800D8A4F7D73150D8B408D0351E341E331E16
:101DA800326C000E33223422352232C028F033C080
:101DB80029F034C02AF035C02BF012000FC013F000
:101DC800146A156A0E34133601E314801350166E24
:101DD8001650D8A407D0000E0D6E000E0E6E000E21
:101DE8000F6E120012C013F0146A156A11341336FC
:101DF80001E3148013501B6E1B50D8A407D0000EAB
:101E08000D6E000E0E6E000E0F6E12001B507B0F33
:101E180016260FC01BF012501B1A800E1B160E8EB2
:101E2800118EFF0E1016FF0E1116000E1216000E60
:101E3800176E000E186E000E196E070E1A6E0DA0A2
:101E480006D0105017261150182212501922D89077
:101E58000F320E320D32D8901036113612361A2E35
:101E6800EED7090E1A6E0DA006D010501726115085
:101E7800182212501922D8900F320E320D32D890F3
:101E88001932183217321A2EEED717C001F018C0BF
:101E980002F019C003F016C004F01BC005F096EC60
:101EA80012F001C00DF002C00EF003C00FF01200D6
:101EB8000BC00FF0106A116A0A340F3601E3108064
:101EC8000F50166E1650D8A407D0000E096E000EDB
:101ED8000A6E000E0B6E12000EC00FF0106A116A27
:101EE8000D340F3601E310800F50176E1750D8A429
:101EF80007D0000E096E000E0A6E000E0B6E12005F
:101F0800000E136E000E146E000E156E1750890F1A
:101F1800165E0BC017F00E50171A800E17160A8E91
:101F2800FF0E0916FF0E0A16000E0B160D8EFF0E79
:101F38000C16FF0E0D16000E0E16180E126ED89007
:101F48001336143615360C50095C0D500A580E50CD
:101F58000B58D8A007D00C50095E0D500A5A0E50E5
:101F68000B5A1380D89009360A360B36122EE7D74B
:101F780013C001F014C002F015C003F016C004F03D
:101F880017C005F096EC12F001C009F002C00AF083
:101F980003C00BF0120041C001F042C002F043C080
:101FA80003F0470E046E000E056EE9EC13F048AE20
:101FB80010D043AE07D0000E416E800E426EBF0EA9
:101FC800436E1200000E416E000E426E000E436E0C
:101FD8001200485004E1150E475CD8A007D041C054
:101FE80041F042C042F043C043F0120041C028F023
:101FF80042C029F043C02AF068EC0EF028C037F040
:1020080029C038F02AC039F02BC03AF0F7EC14F0A8
:1020180037C044F038C045F039C046F041C001F03F
:1020280042C002F043C003F044C004F045C005F0CC
:1020380046C006F031EC14F0D8B015D044C01CF0FE
:1020480045C01DF046C01EF0000E1F6E800E206EAB
:10205800BF0E216EA3EC0AF01CC041F01DC042F077
:102068001EC043F0120044C041F045C042F046C0D3
:1020780043F012004EEC18F0000E0001926F520E61
:10208800916F40EC18F0000E0001926FB40E916F42
:1020980040EC18F04EEC18F0000E0001926F530E51
:1020A800916F40EC18F0000E00019D6F000E9C6FC0
:1020B80000019DBF08D000019D5146E1040E0001BA
:1020C8009C5DD8B041D0010E85EC17F00001936FEC
:1020D800000193510001956F966B010E85EC17F086
:1020E8000001936F000193510001976F986B010EE7
:1020F80000019B6F000197510001946F936B0001E1
:10210800935100019411D8A408D0000195510009F9
:10211800D8A403D0000E00019B6F9BC099F000016A
:102128009A6BD89000019C35D96E00019D35DA6E06
:10213800C10ED926000EDA2299C0DEFF9AC0DDFF53
:1021480000019C4B9D2BB4D74AEC18F012004EECC2
:1021580018F0000E0001926FD00E916F40EC18F04D
:10216800000E0001926F000E916F40EC18F04AECDF
:1021780018F04EEC18F0000E0001926FD10E916F1E
:1021880040EC18F0000E0001BD6F050E0001BD65A2
:1021980001D010D00001BD51010DC90EF324D96E34
:1021A800000EF420DA6E010E85EC17F0DF6E0001E8
:1021B800BD2BEBD7000E85EC17F00001CF6F4AEC72
:1021C80018F0800E2CEC18F08D0E00019C6FFE0E9E
:1021D80000019D6FCEC09EF000019F6BCDC0A0F0A6
:1021E8000001A16BCFC0A2F00001A36B09EC00F0C5
:1021F800C00E2CEC18F0A40E00019C6FFE0E00011E
:102208009D6FCBC09EF000019F6BCAC0A0F000017B
:10221800A16BC9C0A2F00001A36B09EC00F0120089
:102228002DC001F02EC002F0000E046E030E036EE6
:10223800C4EC17F02BC02FF02CC030F001502F2623
:10224800025030222FC0F6FF30C0F7FF0900F5CF4B
:1022580031F00900F5CF32F00A00F5CF33F03ED067
:1022680031C010F032C011F033C012F028C00DF0A8
:1022780029C00EF02AC00FF0E2EC0EF00DC01CF0E1
:102288000EC01DF00FC01EF0000E046E030E036E8C
:102298002D06D8A02E062DC001F02EC002F0C4ECE9
:1022A80017F02BC02FF02CC030F001502F26025011
:1022B80030222FC0F6FF30C0F7FF0900F5CF1FF01E
:1022C8000900F5CF20F00A00F5CF21F0A3EC0AF0C1
:1022D8001CC031F01DC032F01EC033F02D502E103E
:1022E800D8A4BED731C028F032C029F033C02AF0B4
:1022F8001200345035103610D8A407D0000E346EB2
:10230800000E356E000E366E120036507F0B396E99
:102318003A6AD89039363A36395037263A50382200
:1023280035AE03D0396A392A01D0396A395037268F
:10233800000E382238AE0BD0000E796E220E786E61
:10234800000E346E000E356E000E366E120038BE6A
:1023580015D03804D8A012D0000E796E220E786EEF
:1023680036AE06D0FF0E346E7F0E356EFF0EEDD7FB
:10237800FF0E346E7F0E356E7F0EE7D73834383057
:102388003A6E3730396E36503918800B3918366E38
:1023980037C039F0010E391639323932355039180B
:1023A8007F0B3918356E34C034F035C035F036C07F
:1023B80036F01200000E0001986F000E996F000EA3
:1023C8009A6F000E9B6F0001945100019511000156
:1023D800961100019711D8B442D0010E00019C6FEC
:1023E80008D00001D8909437953796379737000171
:1023F8009C2B000197AFF5D70001D89098379937F3
:102408009A379B37000194510001905D0001955166
:10241800000191590001965100019259000197510C
:1024280000019359D8A012D0000194510001905F87
:10243800000195510001915B000196510001925BEA
:10244800000197510001935B000198810001D89029
:10245800973396339533943300019C2FCDD798C08A
:1024680090F099C091F09AC092F09BC093F012003E
:1024780044D0800E2CEC18F05F0E00019C6FFE0E0D
:1024880000019D6F09EC00F0C00E2CEC18F03EEC3A
:1024980010F0BB0E00019C6FFE0E00019D6FC1C0C5
:1024A8009EF0C2C09FF009EC00F0000E0001D36F4F
:1024B800010ED26F1200800E2CEC18F0470E0001AE
:1024C8009C6FFE0E00019D6F09EC00F0000E0001EC
:1024D800D36F020ED26F1200800E2CEC18F02E0E65
:1024E80000019C6FFE0E00019D6F09EC00F0000ECC
:1024F8000001D36F000ED26F1200D2C0BDF0D3C05E
:10250800BEF00001BE51000AD8A412000001BD515E
:10251800000AD8B4AED7010AD8B4CDD7030AD8A4D4
:102528001200DAD70450D8B405D0015002100310B5
:10253800D8A40CD0000E016E000E026E000E036EC1
:102548001200042AD890033202320132000E01141C
:10255800066E000E0214076EFE0E0314086E065077
:1025680007100810D8B40CD0ECD7042A010E0126A5
:10257800000E0222000E0322D890033202320132EA
:10258800000E0114066E000E0214076EFF0E0314EF
:10259800086E065007100810D8B406D0E6D704060F
:1025A800D89001360236033602BE03D0020E04600C
:1025B800F6D704A0029ED8900432045003120550A6
:1025C800D8A4038E01C001F002C002F003C003F0DA
:1025D80012000FC001F010C002F0000E046E0A0EC7
:1025E800036EC4EC17F001C007F002C008F0000E3B
:1025F8000A6E5A0E096E79EC14F007C013F008C081
:1026080014F0000E166E000E156E165037E1320EDD
:10261800155CD8B012008280000E186E000E176E7E
:1026280006D0530EE82EFED700F0174A182A13508A
:10263800175C14501858D8A0F4D78290000E186E62
:10264800000E176E06D0530EE82EFED700F0174A7C
:10265800182A13C011F014C012F0111E121E114ACC
:10266800122AC80E1126000E12221150175C1250A1
:102678001858D8A0E8D7154A162AC7D7120056EC1A
:1026880018F0000E036E520E026E45EC18F0000EA4
:10269800036EB40E026E45EC18F056EC18F0000EFE
:1026A800036E530E026E45EC18F0000E0E6E000E0F
:1026B8000D6E0EBE06D00E5034E1040E0D5CD8B07F
:1026C80030D0010EB1EC17F0046E0450066E076AA4
:1026D800010EB1EC17F0046E0450086E096A010E81
:1026E8000C6E0850056E046A04500510D8A406D074
:1026F80006500009D8A402D0000E0C6E0CC00AF0D7
:102708000B6AD8900D34D96E0E34DA6EC10ED92604
:10271800000EDA220AC0DEFF0BC0DDFF0D4A0E2ACA
:10272800C8D752EC18F01200000E0001956F000196
:1027380091AF08D00001906D911FD8B0912B010E78
:102748000001956F000193AF05D00001926D931FB2
:10275800D8B0932B0001925100019311D8B426D020
:10276800010E0001946F06D00001D890923793377C
:102778000001942B000193AFF7D70001925100019B
:10278800905D0001935100019159D8A008D0000133
:1027980092510001905F000193510001915B00018B
:1027A800D890933392330001942FE7D700019551C5
:1027B8000001D8B405D00001906D911FD8B0912BBD
:1027C80090C090F091C091F01200015002100310D7
:1027D800D8A40FD004C0D9FF05C0DAFF000EDE6E02
:1027E800000EDD6E000E016E000E026E000E036E0E
:1027F800120003507F0B066E076AD890063607361C
:1028080004C0D9FF05C0DAFF06C0DEFF07C0DDFF40
:1028180002AE03D0066A062A01D0066A065004C032
:10282800D9FF05C0DAFFDE12000EDD1204C0D9FFA1
:1028380005C0DAFF820EDE26FF0EDD22038003824A
:10284800038403860388038A039C029E01C001F067
:1028580002C002F003C003F0120003AE16D001C09C
:1028680007F002C008F003C009F0071E081E091E81
:10287800072A000E08220922000E0724016E000E06
:102888000820026E800E0920036E06AE16D004C022
:1028980007F005C008F006C009F0071E081E091E4B
:1028A800072A000E08220922000E0724046E000ED3
:1028B8000820056E800E0920066E000E011A000E13
:1028C800021A800E031A000E041A000E051A800E52
:1028D800061A0450015C0550025806500358D8B037
:1028E80002D0D8901200D8801200000E0C6E0AAEEA
:1028F80006D0096C0A1ED8B00A2A010E0C6E08AE62
:1029080006D0076C081ED8B0082A010E0C1A000E53
:102918000E6E000E0D6E09500A10D8B41CD0010EB0
:102928000B6E04D0D89009360A360B2A0AAEFAD7AD
:10293800D8900D360E360950075C0A500858D8A0B2
:1029480005D00950075E0A50085A0D80D8900A32FF
:1029580009320B2EEDD70C50D8B404D00D6C0E1ED6
:10296800D8B00E2A0DC007F00EC008F01200000EF5
:102978000001956F000E946F0001925100019311B0
:10298800D8B42CD0010E0001966F06D00001D89063
:10299800923793370001962B000193AFF7D70001C8
:1029A800D89094379537000192510001905D00014D
:1029B800935100019159D8A00AD000019251000109
:1029C800905F000193510001915B00019481000127
:1029D800D890933392330001962FE1D794C090F0AA
:1029E80095C091F01200000E406E8E0E3F6E3AAE0A
:1029F80011D03A1E391E381E376C000E3822392283
:102A08003A22010E406E06D0D8903A323932383226
:102A180037323F2A000E37143B6E000E38143C6ED6
:102A2800000E39143D6EFF0E3A143E6E3B503C10BA
:102A38003D103E10D8A4E8D737C001F038C002F0E6
:102A480039C003F03FC004F040C005F096EC12F026
:102A580001C037F002C038F003C039F0120056EC5C
:102A680018F0000E036ED00E026E45EC18F0000E42
:102A7800036E000E026E45EC18F052EC18F056EC9E
:102A880018F0000E036ED10E026E45EC18F0000E21
:102A9800046E050E046401D00ED00450010DC90E59
:102AA800F324D96E000EF420DA6E010EB1EC17F0A3
:102AB800DF6E042AEED7000EB1EC17F00001CF6FDD
:102AC80052EC18F012000001995100019A11D8B483
:102AD80026D0010E00019B6F06D00001D8909937CF
:102AE8009A3700019B2B00019AAFF7D70001995143
:102AF8000001975D00019A5100019859D8A008D0AB
:102B0800000199510001975F00019A510001985BFB
:102B18000001D8909A33993300019B2FE7D797C0CB
:102B280097F098C098F012000001916F0001915140
:102B3800F00B0001906F8C500F0B8C6E00019051C0
:102B48008C108C6E8C96190EE82EFED78C86190E7A
:102B5800E82EFED700019139F00B0001916F0001BA
:102B68009151F00B0001906F8C500F0B8C6E00018F
:102B780090518C108C6E8C96190EE82EFED78C8690
:102B8800190EE82EFED71200000EC76E280EC66E6C
:102B9800000EC56E800E0001906F960E916F980E14
:102BA800926F000E936F9DC0A1F09EC0A2F09FC0CF
:102BB800A3F0A0C0A4F0020ED8900001A137A2375C
:102BC800A337A437E82EF8D7A1C094F0A2C095F097
:102BD800A3C096F0A4C097F0DEEC11F000019005B8
:102BE800C86E9486948812008E0E116E06D0D89006
:102BF8000C320B320A320932112A000E09140D6EFA
:102C0800000E0A140E6E000E0B140F6EFF0E0C143D
:102C1800106E0D500E100F101010D8A4E8D709C070
:102C280001F00AC002F00BC003F011C004F0000E5E
:102C3800056E96EC12F001C009F002C00AF003C05C
:102C48000BF01200000E066E000E056E0350041005
:102C5800D8B41CD0010E076E04D0D89003360436C1
:102C6800072A04AEFAD7D890053606360350015C19
:102C780004500258D8A005D00350015E0450025AEF
:102C88000580D89004320332072EEDD705C001F035
:102C980006C002F01200310E0001936FB20EE82E4A
:102CA800FED7932FFCD700F0330E2CEC18F0330E20
:102CB8002CEC18F0320E2CEC18F0280E2CEC18F036
:102CC8000F0E2CEC18F0060E2CEC18F0010E2CEC64
:102CD80018F0310E0001936FB20EE82EFED7932F35
:102CE800FCD700F01200026E0250F00B016E8C50FF
:102CF8000F0B8C6E01508C108C6E8C96190EE82E72
:102D0800FED78C86190EE82EFED70238F00B026E1D
:102D18000250F00B016E8C500F0B8C6E01508C1012
:102D28008C6E8C96190EE82EFED78C86190EE82E1E
:102D3800FED712000A500B10D8B418D0010E0C6E32
:102D480004D0D8900A360B360C2A0BAEFAD70A50A4
:102D5800085C0B500958D8A004D00A50085E0B50E4
:102D6800095AD8900B320A320C2EF1D708C008F055
:102D780009C009F012002B502C102D10D8B406D021
:102D8800000E2B1A000E2C1A800E2D1A28C01CF0CB
:102D980029C01DF02AC01EF02BC01FF02CC020F047
:102DA8002DC021F0A3EC0AF01CC028F01DC029F0AA
:102DB8001EC02AF01200B40EF66E300EF76E000E2A
:102DC800F86E0900F5CFD7F00900F5CFD8F000EE7E
:102DD800C1F0160EEE6AE806FDE100EE76F0080E88
:102DE800EE6AE806FDE17E907E92000EF86E000124
:102DF80065EF0DF0000E0C6E0AAE06D0096C0A1EC7
:102E0800D8B00A2A010E0C6E09C001F00AC002F0FF
:102E1800036A8E0E046E0CC005F096EC12F001C029
:102E280009F002C00AF003C00BF01200800E2CEC6F
:102E380018F0050E00019C6FFF0E00019D6F09EC54
:102E480000F0C00E2CEC18F0F70E00019C6FFF0E7E
:102E580000019D6F81CF9EF000019F6B09EC00F08F
:102E68001200800E2CEC18F0760E00019C6FFE0EFE
:102E780000019D6F09EC00F0C00E2CEC18F0D10E8B
:102E880000019C6FFE0E00019D6FBDC09EF0BEC08C
:102E98009FF009EC00F0120000019051000192032C
:102EA800F3CF94F0F4CF95F0000190510001930313
:102EB800F350000195270001915100019203F3504E
:102EC8000001952794C090F095C091F012004EEC47
:102ED80018F0000E0001926F520E916F40EC18F03E
:102EE800000E0001926F800E916F40EC18F0000EFA
:102EF8000001926F030E916F40EC18F04AEC18F045
:102F080012000001916F11EC18F0C58611EC18F051
:102F1800C9CF92F011EC18F0000191510001D8A42A
:102F280002D0C58A01D0C59AC58800019251120005
:102F38000001926F000E0001916F3A0E000192613C
:102F480007D02F0E0001926503D0010E0001916F8A
:102F580091C090F0000190311200026E1BEC18F045
:102F6800C5861BEC18F0C9CF03F01BEC18F0025013
:102F7800D8A402D0C58A01D0C59AC58803501200CA
:102F880001500302F3CF05F0F4CF06F0015004021C
:102F9800F350062602500302F350062605C001F03E
:102FA80006C002F01200015002100310D8B406D077
:102FB800000E011A000E021A800E031A01C001F059
:102FC80002C002F003C003F01200036E000E026E8E
:102FD8003A0E036005D02F0E036402D0010E026E74
:102FE80002C001F001301200800E2CEC18F0D00E57
:102FF80000019C6FFF0E00019D6F09EC00F0F29E2E
:10300800FFD7800E2CEC18F0C00E00019C6FFF0E4D
:1030180000019D6F09EC00F01200C7B4FED7C5CFC0
:1030280090F01F0E00019017D8B41200F6D7C7B45D
:10303800FED7C5CF01F01F0E0116D8B41200F7D77E
:103048000001926F8C840001925198EC15F01200E7
:103058000001926F8C940001925198EC15F01200C7
:10306800036E8C84035077EC16F01200036E8C9478
:10307800035077EC16F0120011EC18F091C0C9FF5C
:1030880012001BEC18F002C0C9FF120011EC18F076
:10309800C584120011EC18F0C58012001BEC18F062
:0E30A800C58412001BEC18F0C5801200FFFF5B
:10FDBE00003132334134353642373839432A302315
:10FDCE004400010008004000000200100080010005
:10FDDE000A006400E8031027010010000001001063
:10FDEE005035210805021700803F72313FFE753EE7
:10FDFE0058633D951D3CC5AE3A79213994803793B1
:10FE0E00A73556153400000000803FF0FFBEE2A972
:10FE1E003E8376BEAE2B3E3CC3BDD2133D78D3BBE4
:10FE2E0052756E6E696E677E7E7E202020202020A9
:10FE3E0020202020202020200052756E6E696E67D3
:10FE4E007E7E2020202020202020202020202020E8
:10FE5E000052756E6E696E677E2020202020202055
:10FE6E002020202020202000546F74616C204F70C1
:10FE7E0065726174696F6E2020202020202000445E
:10FE8E006174653A20253032782F253032782F254F
:10FE9E0030327820200054696D653A202530327852
:10FEAE003A253032783A25303278202000433A20F5
:10FEBE0025642020202020202020202020202020EB
:10FECE0020200054696D653A20256420732020207F
:10FEDE002020202000303132333435363738394146
:10FEEE0042434445460030313233343536373839A3
:10FEFE00616263646566007374616E64627920206A
:10FF0E002020202020202000546F74616C3A203174
:10FF1E00302020202020202000426F74746C652039
:10FF2E00436F756E742020202000594F502D434191
:10FF3E00502D4C424C3A2030202000594F502D432A
:10FF4E0041502B4C424C3A2031202000594F502B1F
:10FF5E004341502D4C424C3A2031202000594F50F5
:10FF6E002B4341502B4C424C3A203320200045531A
:10FF7E004B412B4341502B4C424C3A2031200045F3
:10FF8E00534B412D4341502B4C424C3A20312000D3
:10FF9E0045534B412B4341502D4C424C3A2031207E
:10FFAE000045534B412D4341502D4C424C3A20328B
:10FFBE0020004F7065726174696F6E20446F6E65BC
:10FFCE002100454D455247454E43592053544F50FD
:10FFDE000062616420696E7465727275707400459A
:10FFEE0052524F523A20256400504F5254423A20FA
:02FFFE00000001
:020000040020DA
:08000000FFFFFFFFFFFFFFFF00
:020000040030CA
:0E000000FF021F1EFF8381FF0FC00FE00F40A5
:00000001FF
