:0400000007EF00F016
:0A0008005082F6ED0BF090EF0EF0C1
:10100000003132334134353642373839432A3023C0
:10101000440001000A006400E803102701001000EA
:101020000001001050352108050217253032782FB5
:10103000253032782F2530327820202020202020A3
:101040002000253032783A253032783A253032780F
:10105000202020202020202000303132333435362B
:101060003738396162636465660062616420696E65
:101070007465727275707400504F5254423A202554
:0B10800064007374616E64627900000C
:10108C003B0E0001816F000E0001826FAFD1250E67
:10109C0000018919D8B405D000018951A6EC0EF0D5
:1010AC00A5D1000E0001886F000E876F000E0001A5
:1010BC00866F04D000018685394A3A2A39C0F6FF7A
:1010CC003AC0F7FF0800F550300AD8B4F3D739C04E
:1010DC00F6FF3AC0F7FF0800F55072EC0EF0D8A0FE
:1010EC0039D0000E0001886F000E876F87C02DF07D
:1010FC0088C02EF0000E306E0A0E2F6E39EC0EF0FA
:10110C002DC087F02EC088F0D00E416EFF0E426EBF
:10111C0039C0F6FF3AC0F7FF0800F550436E446A39
:10112C0041504326425044224350000187274450EB
:10113C0000018823394A3A2A39C0F6FF3AC0F7FF32
:10114C000800F55072EC0EF0D8A004D0CFD70001F7
:10115C00868F18D039C0F6FF3AC0F7FF394A3A2AC1
:10116C000800F5CF89F000018951000AD8B41200AB
:10117C00640AD8B407D00D0AD8B404D0110AD8B474
:10118C00E6D734D1000186BF19D081C0D9FF82C007
:10119C00DAFFDECF84F0DDCF85F0020E000181276F
:1011AC00000E8223000185AF53D0030E000186137D
:1011BC000001846D851FD8B0852B4AD081C0D9FF22
:1011CC0082C0DAFFDECF84F0DDCF85F0020E0001A5
:1011DC008127000E82233CD0010E0001896F050E81
:1011EC0000018919D8B43DD000018951020D120EAD
:1011FC00F324F66E100EF420F76E0900F550000182
:10120C00845D0900F55000018559D8A02AD0000151
:10121C00892BE5D7010E0001896F040E0001891995
:10122C00D8B41FD000018951020D1C0EF324F66EA8
:10123C00100EF420F76E0900F5500001845D0900D2
:10124C00F55000018559D8A00CD00001892BE5D7A9
:10125C0000018651800B000AD8B4BED7800AD8B4DE
:10126C00D9D70001875100018811D8B40AD086C0A3
:10127C0041F0030E4116D8B404D000018707D8A062
:10128C008807800E000189BF7F0E416E00018751D7
:10129C000001895D00018851800A4158D8B00BD0FB
:1012AC00000189510001875F000E000189BFFF0E0C
:1012BC000001885B05D0000E0001886F000E876F5F
:1012CC00000186A517D086C041F0030E4116D8B494
:1012DC0003D02D0EA6EC0EF00001875100018811F1
:1012EC00D8B424D0300EA6EC0EF000018707D8A09D
:1012FC008807F2D70001875100018811D8B40DD0AE
:10130C00200EA6EC0EF000018707D8A0880700017C
:10131C00875100018811D8A4F3D786C041F0030E81
:10132C004116D8B403D02D0EA6EC0EF089C083F074
:10133C0057D000018351020D120EF324F66E100EDD
:10134C00F420F76E0900F5CF2FF00A00F5CF30F03E
:10135C0084C02DF085C02EF009EC0DF02DC034F0BA
:10136C002EC035F0000E376E0A0E366EF7EC0DF00F
:10137C003450300F0001896F2FD084C02DF085C000
:10138C002EF000018351020D1C0EF324F66E100E8C
:10139C00F420F76E0900F5CF2FF00A00F5CF30F0EE
:1013AC0009EC0DF02D500F0B0001806F00018051E6
:1013BC00010D590EF324F66E100EF420F76E080092
:1013CC00F5CF89F009D000018651800B000AD8B402
:1013DC00B0D7800AD8B4D1D700018951A6EC0EF051
:1013EC000001830700018329D8A4EDD739C0F6FF8B
:1013FC003AC0F7FF394A3A2A0800F5CF89F00001C4
:10140C008951D8B4120043D60F0E146E000E156E0F
:10141C0074D1250E1C18D8B404D01C50B2EC0EF0AC
:10142C006CD1000E1B6E000E1A6E000E196E03D0DE
:10143C0019840D4A0E2A0DC0F6FF0EC0F7FF0800E6
:10144C00F550300AD8B4F4D70DC0F6FF0EC0F7FF34
:10145C000800F55081EC0EF0D8A035D0000E1B6EB4
:10146C00000E1A6E1AC001F01BC002F0000E046EC2
:10147C000A0E036E5FEC0EF001C01AF002C01BF0F6
:10148C00D00E0F6EFF0E106E0DC0F6FF0EC0F7FFE4
:10149C000800F550116E126A0F50112610501222CE
:1014AC0011501A2612501B220D4A0E2A0DC0F6FF9F
:1014BC000EC0F7FF0800F55081EC0EF0D8A003D059
:1014CC00D1D7198E17D00DC0F6FF0EC0F7FF0D4AFD
:1014DC000E2A0800F5CF1CF01C50000AD8B41200DC
:1014EC00640AD8B407D00D0AD8B404D0110AD8B401
:1014FC00E8D703D119BE15D014C0D9FF15C0DAFF37
:10150C00DECF17F0DDCF18F0020E1426000E1522D8
:10151C0018AE44D0030E1912176C181ED8B0182A26
:10152C003DD014C0D9FF15C0DAFFDECF17F0DDCFE8
:10153C0018F0020E1426000E152230D0010E1C6E6F
:10154C00050E1C18D8B432D01C50020D120EF32408
:10155C00F66E100EF420F76E0900F550175C0900BA
:10156C00F5501858D8A022D01C2AEAD7010E1C6EB0
:10157C00040E1C18D8B41AD01C50020D1C0EF324E7
:10158C00F66E100EF420F76E0900F550175C09008A
:10159C00F5501858D8A00AD01C2AEAD71950800B3D
:1015AC00000AD8B4CBD7800AD8B4E0D71A501B1095
:1015BC00D8B409D019C00FF0030E0F16D8B403D04D
:1015CC001A06D8A01B06800E1CBE7F0E0F6E1A507A
:1015DC001C5C1B50800A0F58D8B007D01C501A5EE8
:1015EC00000E1CBEFF0E1B5A04D0000E1B6E000E0C
:1015FC001A6E19A414D019C00FF0030E0F16D8B41C
:10160C0003D02D0EB2EC0EF01A501B10D8B41ED015
:10161C00300EB2EC0EF01A06D8A01B06F5D71A50F5
:10162C001B10D8B40AD0200EB2EC0EF01A06D8A0BB
:10163C001B061A501B10D8A4F6D719C00FF0030EB6
:10164C000F16D8B403D02D0EB2EC0EF01CC016F051
:10165C0050D01650020D120EF324F66E100EF4201C
:10166C00F76E0900F5CF03F00A00F5CF04F017C0B0
:10167C0001F018C002F032EC0DF001C008F002C00D
:10168C0009F0000E0B6E0A0E0A6E18EC0EF00850E4
:10169C00300F1C6E2BD017C001F018C002F0165082
:1016AC00020D1C0EF324F66E100EF420F76E0900DA
:1016BC00F5CF03F00A00F5CF04F032EC0DF0015039
:1016CC000F0B136E1350010D590EF324F66E100E02
:1016DC00F420F76E0800F5CF1CF008D01950800BE1
:1016EC00000AD8B4B6D7800AD8B4D5D71C50B2ECFF
:1016FC000EF016061628D8A4F1D70DC0F6FF0EC0B2
:10170C00F7FF0D4A0E2A0800F5CF1CF01C50D8B478
:10171C0012007FD6C7EC0EF0000E2F6ED00E2E6E80
:10172C00BEEC0EF0000E2F6E000E2E6EBEEC0EF008
:10173C00C3EC0EF0C7EC0EF0000E2F6ED10E2E6E19
:10174C00BEEC0EF0000E476E050E476401D00ED0B5
:10175C004750010D480EF324D96E000EF420DA6EBA
:10176C00010E4CEC0EF0DF6E472AEED7000E4CEC5F
:10177C000EF04E6EC3EC0EF0800EACEC0EF02B0E99
:10178C00396E100E3A6E4DC03BF03C6A4CC03DF0C9
:10179C003E6A4EC03FF0406A46EC08F0C00EACEC1E
:1017AC000EF0420E396E100E3A6E4AC03BF03C6A97
:1017BC0049C03DF03E6A48C03FF0406A46EC08F034
:1017CC00000E466E630E466401D01200210E456E6B
:1017DC00760EE82EFED7452EFCD700D0462AF2D73F
:1017EC000600FACF1EF0FBCF1FF0E9CF20F0EACFB6
:1017FC0021F0E1CF22F0E2CF23F0D9CF24F0DACFE1
:10180C0025F0F3CF26F0F4CF27F0F6CF28F0F7CF62
:10181C0029F0F8CF2AF0F5CF2BF0F0B006D00DD090
:10182C00000E01D0010E4F6E21D081500F0AD8B49A
:10183C00F7D7300AD8B4F6D719D0800EB8EC0EF022
:10184C006A0E0D6E100E0E6E0AEC0AF0000E2C6E67
:10185C00630E2C6401D0F1D7210E1D6E760EE82E8E
:10186C00FED71D2EFCD700D02C2AF2D7F0902BC01F
:10187C00F5FF2AC0F8FF29C0F7FF28C0F6FF27C0E4
:10188C00F4FF26C0F3FF25C0DAFF24C0D9FF23C024
:10189C00E2FF22C0E1FF21C0EAFF20C0E9FF1FC028
:1018AC00FBFF1EC0FAFF50921100000E356E000EA9
:1018BC00366E000E376E000E386E3150321033100B
:1018CC003410D8B42AD0010E396E06D0D8903136E7
:1018DC00323633363436392A34AEF8D7D8903536DA
:1018EC0036363736383631502D5C32502E58335010
:1018FC002F5834503058D8A009D031502D5E32506A
:10190C002E5A33502F5A3450305A3580D8903432A6
:10191C00333232323132392EE1D735C02DF036C068
:10192C002EF037C02FF038C030F012009268936858
:10193C00000E946E000E956E000E966E000E896E63
:10194C00000E8A6E000E8B6E000E8C6E000E8D6E6D
:10195C00000EC26EC168F086F19ED1EC0DF0100E37
:10196C003A6E270E3B6E000E3C6E000E3D6EDCECAC
:10197C000CF0F28E000E4F6E0BD05BEC0DF008D01D
:10198C0090EC0BF005D0CCEC0EF002D0CBEC0EF0C2
:10199C004F50000AD8B4F1D7010AD8B4F1D7030AD2
:1019AC00D8B4F1D7010AD8B4F1D7F2D7000EC76E6C
:1019BC00280EC66E000EC56E800E2D6E960E2E6E07
:1019CC00980E2F6E000E306E3AC03EF03BC03FF0CA
:1019DC003CC040F03DC041F0020ED8903E363F3640
:1019EC0040364136E82EF9D73EC031F03FC032F0D8
:1019FC0040C033F041C034F05BEC0CF02D04C86EE9
:101A0C00948694881200000E336E000E326E2F50A6
:101A1C003010D8B41CD0010E316E04D0D8902F36B3
:101A2C003036312A30AEFAD7D890323633362F5082
:101A3C002D5C30502E58D8A005D02F502D5E305034
:101A4C002E5A3280D89030322F32312EEDD732C010
:101A5C002DF033C02EF01200000E066E000E056E37
:101A6C0003500410D8B41CD0010E076E04D0D890CB
:101A7C0003360436072A04AEFAD7D8900536063654
:101A8C000350015C04500258D8A005D00350015EED
:101A9C000450025A0580D89004320332072EEDD739
:101AAC0005C001F006C002F01200800EACEC0EF086
:101ABC00820E396E100E3A6E46EC08F0C00EACEC8D
:101ACC000EF0780E396E100E3A6E81CF45F0453A15
:101ADC000F0E45160F0E451645503B6E3C6A46ECF4
:101AEC0008F0040E466ECF0E456E020EE82EFED7A1
:101AFC00452EFCD7462EFAD712002E6E2E50F00B28
:101B0C002D6E8C500F0B8C6E2D508C108C6E8C9609
:101B1C00190EE82EFED78C86190EE82EFED72E381D
:101B2C00F00B2E6E2E50F00B2D6E8C500F0B8C6E0E
:101B3C002D508C108C6E8C96190EE82EFED78C8640
:101B4C00190EE82EFED71200026E0250F00B016E39
:101B5C008C500F0B8C6E01508C108C6E8C96190E59
:101B6C00E82EFED78C86190EE82EFED70238F00B25
:101B7C00026E0250F00B016E8C500F0B8C6E0150EC
:101B8C008C108C6E8C96190EE82EFED78C86190E46
:101B9C00E82EFED71200310E306EB20EE82EFED7B4
:101BAC00302EFCD700D0330EACEC0EF0330EACEC78
:101BBC000EF0320EACEC0EF0280EACEC0EF00F0E5C
:101BCC00ACEC0EF0060EACEC0EF0010EACEC0EF024
:101BDC00310E306EB20EE82EFED7302EFCD700D070
:101BEC00120036503710D8B418D0010E386E04D00D
:101BFC00D89036363736382A37AEFAD73650345C6A
:101C0C0037503558D8A004D03650345E3750355A3A
:101C1C00D89037323632382EF1D734C034F035C044
:101C2C0035F012000A500B10D8B418D0010E0C6EFF
:101C3C0004D0D8900A360B360C2A0BAEFAD70A50C1
:101C4C00085C0B500958D8A004D00A50085E0B5001
:101C5C00095AD8900B320A320C2EF1D708C008F072
:101C6C0009C009F012002D502F02F3CF31F0F4CF40
:101C7C0032F02D503002F35032262E502F02F350FA
:101C8C00322631C02DF032C02EF012002E6E9DEC9B
:101C9C000EF0C5869DEC0EF0C9CF2FF09DEC0EF02A
:101CAC002E50D8A402D0C58A01D0C59AC5882F5011
:101CBC00120001500302F3CF05F0F4CF06F00150EF
:101CCC000402F350062602500302F350062605C008
:101CDC0001F006C002F012002F6E000E2E6E3A0EAE
:101CEC002F6005D02F0E2F6402D0010E2E6E2EC049
:101CFC002DF02D301200036E000E026E3A0E0360B2
:101D0C0005D02F0E036402D0010E026E02C001F04A
:101D1C000130120000EE48F0080EEE6AE806FDE114
:101D2C0050905092000EF86E00019CEF0CF0C7B46E
:101D3C00FED7C5CF2DF01F0E2D16D8B41200F7D735
:101D4C002F6E8C842F5083EC0DF012002F6E8C9420
:101D5C002F5083EC0DF01200036E8C840350AAEC10
:101D6C000DF01200036E8C940350AAEC0DF01200CF
:101D7C009DEC0EF02EC0C9FF12009DEC0EF0C58438
:0E1D8C0012009DEC0EF0C58012001200120035
:020000040020DA
:08000000FFFFFFFFFFFFFFFF00
:020000040030CA
:0E000000FF021F1EFF8381FF0FC00FE00F40A5
:00000001FF
