:0400000007EF00F016
:100008007E8209ED02F050EF17F0000E01010B6F30
:10001800000E0A6F01010BBF08D001010B5129E145
:10002800040E01010A5DD8B024D0D89001010A3528
:10003800D96E01010B35DA6E8A0ED926000EDA2246
:10004800D89001010A35E16E01010B35E26E920E7E
:10005800E126000EE222DECFE6FFDDCFE5FF01015B
:100068000A4B0B2B01010BBFE0D701010B5101E13A
:10007800D7D7F29ECAEC0BF000018BBF2BD1000141
:100088008B5105E1170E00018A5DD8A023D1000E1F
:100098000001AE6F010EAD6F000E0001B26F000ED1
:1000A800B16F00018BBF0DD02D0E00018A5D010ECE
:1000B80000018B59D8A005D0000E0001B66F010EC3
:1000C800B56F00018BBF83D000018B5105E11F0E76
:1000D80000018A5DD8A07BD00001B3510001B411A2
:1000E800D8A470D0000E0001DD6FC00E0001DE6FD5
:1000F8003F0E0001DF6F90C0D6F091C0D7F0EDEC55
:1001080016F0D6C0DAF0D7C0DBF0D8C0DCF0FBECD4
:1001180009F0DAC000F1DBC001F1DCC002F18CC0EB
:10012800D6F08DC0D7F0EDEC16F0D6C003F1D7C0ED
:1001380004F1D8C005F156EC11F00101D8B005D092
:10014800000E0001AA6F010E37D0000E0001DD6F0E
:10015800400E0001DE6F3F0E0001DF6F90C0D6F049
:1001680091C0D7F0EDEC16F0D6C0DAF0D7C0DBF0CE
:10017800D8C0DCF0FBEC09F0DAC000F1DBC001F11B
:10018800DCC002F18CC0D6F08DC0D7F0EDEC16F0D3
:10019800D6C003F1D7C004F1D8C005F156EC11F070
:1001A8000101D8A005D0000E0001AA6F020E04D0EC
:1001B800000E0001AA6F000EA96F000E0001B46FB7
:1001C800010EB36F000E0001B06F010E81D0000167
:1001D8008BBF08D000018B5104E11E0E00018A5D1F
:1001E800D8B008D10001AF510001B011D8B402D184
:1001F800000E0001DD6FC00E0001DE6F3F0E000132
:10020800DF6F98C0D6F099C0D7F0EDEC16F0D6C0E5
:10021800DAF0D7C0DBF0D8C0DCF0FBEC09F0DAC0CC
:1002280000F1DBC001F1DCC002F194C0D6F095C04A
:10023800D7F0EDEC16F0D6C003F1D7C004F1D8C062
:1002480005F156EC11F00101D8B005D0000E0001FF
:10025800A86F010E32D0000E0001DD6F400E0001C4
:10026800DE6F3F0E0001DF6F98C0D6F099C0D7F05F
:10027800EDEC16F0D6C0DAF0D7C0DBF0D8C0DCF071
:10028800FBEC09F0DAC000F1DBC001F1DCC002F1DF
:1002980094C0D6F095C0D7F0EDEC16F0D6C003F1B7
:1002A800D7C004F1D8C005F156EC11F00101D8A06F
:1002B80006D0000E0001A86F020EA76F05D0000E31
:1002C8000001AA6F000EA96F000E0001B06F000EAA
:1002D800AF6F90D00001AD510001AE11D8B48AD0F3
:1002E8000001B14BB22B0001B2BF84D00001B25162
:1002F80005E1080E0001B15DD8A07CD00001804B5B
:10030800812B000ED76E000ED66E0001A9050001E4
:10031800AA11D8B406D00001A7050001A811D8A4D5
:100328000BD00001824B832B000E0001CF6F080E0B
:10033800CE6F26EC13F034D0020E0001A91900018B
:10034800AA11D8B407D0020E0001A7190001A811FC
:10035800D8A40BD00001864B872B000E0001CF6F6D
:10036800080ECE6FD2EC12F01BD00001B55100017F
:10037800B611D8B40BD00001844B852B000E0001B8
:10038800CF6F120ECE6F26EC13F00AD00001884B07
:10039800892B000E0001CF6F120ECE6FD2EC12F037
:1003A800000E0001AE6F000EAD6F000E0001B06FC1
:1003B800000EAF6F000E0001B46F000EB36F000E99
:1003C8000001B66F000EB56F800E6CEC18F0C00E11
:1003D8006CEC18F0D40E0001DA6FFF0E0001DB6F31
:1003E800A9C0DCF0AAC0DDF0A7C0DEF0A8C0DFF02D
:1003F800F5EC03F0F28E0A0E0001EC6FBC0EE82E4D
:10040800FED7EC2FFCD700F012000600FACFC0F0A0
:10041800FBCFC1F0E9CFC2F0EACFC3F0E1CFC4F01F
:10042800E2CFC5F0D9CFC6F0DACFC7F0F3CFC8F026
:10043800F4CFC9F0F6CFCAF0F7CFCBF0F8CFCCF0B5
:10044800F5CFCDF0F0B009D134D18984F28AD58EB8
:10045800000ED76E000ED66E57EC15F09BC07BF0E1
:100468009AC07AF0000E0001816F000E806F000EB6
:100478000001836F000E826F000E0001856F000E71
:10048800846F000E0001876F000E866F000E00015A
:10049800896F000E886F010E7AEC18F0020E0001C9
:1004A800BF6F450E0001BE6FA90EE82EFED7BE2F06
:1004B800FCD7BF2FFAD700D0800E7AEC18F0E80EE0
:1004C8000D6EFF0E0E6EE0EC05F00001ED69EE69B1
:1004D800020EB2D00001ED4BEE2B050E0001BD6FF0
:1004E8001F0E8118D8A4E3D0FBD77CC0BEF07DC016
:1004F800BFF00001BE1FBF1FBE4BBF2B78500001CD
:10050800BE250001B96F79500001BF210001BA6F03
:100518000001ED69EE69060E8FD00001ED69EE6904
:10052800040E8AD08994F29AD59E57EC15F09BC098
:1005380077F09AC076F07BC063F0646AD6EC0CF072
:1005480063C074F064C075F074C001F075C002F047
:10055800000E046E3C0E036E00EC18F001C0BEF0F5
:1005680002C0BFF07AC063F0646AD6EC0CF0635046
:100578000001BE257C6E64500001BF217D6E77C0EE
:1005880063F0646AD6EC0CF063C074F064C075F074
:1005980074C001F075C002F0000E046E3C0E036ECC
:1005A80000EC18F001C0BEF002C0BFF076C063F0E6
:1005B800646AD6EC0CF063500001BE25786E645076
:1005C8000001BF21796E010E7AEC18F00001ED6987
:1005D800EE69030E31D084EC10F0800E7AEC18F03E
:1005E800B20E0D6EFE0E0E6E8AC00FF08BC010F0AC
:1005F8008CC011F08DC012F0E0EC05F0C00E7AEC62
:1006080018F09A0E0D6EFE0E0E6E8EC00FF08FC093
:1006180010F090C011F091C012F0E0EC05F047D056
:100628008994F29ED59E010E7AEC18F0010E04D042
:100638000001ED69EE69000E0001BD6F38D0000EB3
:10064800026E080E016E5BEC14F031D0000E026EE3
:10065800120E016E5BEC14F02AD081380F0B0001EA
:10066800BE6FBF6B0001BF51000AD8A420D00001A3
:10067800BE51000AD8B4E9D6010AD8B42BD7030A68
:10068800D8B433D7010AD8B448D7070AD8B44AD758
:10069800010AD8B4A0D7020AD8B4D1D70C0AD8B462
:1006A800D5D7070AD8B4BCD7020AD8B4C1D7F090B6
:1006B8007AD0F2A45ED08994D59E57EC15F09BC0F1
:1006C80077F09AC076F07BC063F0646AD6EC0CF0E1
:1006D80063C074F064C075F074C001F075C002F0B6
:1006E800000E046E3C0E036E00EC18F001C0BEF064
:1006F80002C0BFF07AC063F0646AD6EC0CF06350B5
:100708000001BE257C6E64500001BF217D6E77C05C
:1007180063F0646AD6EC0CF063C074F064C075F0E2
:1007280074C001F075C002F0000E046E3C0E036E3A
:1007380000EC18F001C0BEF002C0BFF076C063F054
:10074800646AD6EC0CF063500001BE25786E6450E4
:100758000001BF21796E030E0001BD6F0001ED6934
:10076800EE69F294F80E0D6EFF0E0E6EE0EC05F0D9
:100778001AD0800E7AEC18F0C70E0D6EFF0E0E6EB2
:10078800E0EC05F0000E736E630E736401D0F1D7D0
:10079800210E0001BE6F760EE82EFED7BE2FFCD7C5
:1007A80000F0732AF1D7CDC0F5FFCCC0F8FFCBC05D
:1007B800F7FFCAC0F6FFC9C0F4FFC8C0F3FFC7C03F
:1007C800DAFFC6C0D9FFC5C0E2FFC4C0E1FFC3C09D
:1007D800EAFFC2C0E9FFC1C0FBFFC0C0FAFF7E92BA
:1007E8001100DC0E0101016F000E0101026FD5D16D
:1007F800250E01010919D8B405D00101095164EC8D
:1008080018F0CBD1000E0101086F000E076F000E23
:100818000101066F05D0010106850001DA4BDB2BCB
:10082800DAC0F6FFDBC0F7FF0800F550300AD8B48D
:10083800F2D7DAC0F6FFDBC0F7FF0800F550D8ECB6
:1008480017F0D8A048D0000E0101086F000E076FFE
:1008580007C1CEF008C1CFF0000E0001D16F0A0E1B
:10086800D06FA6EC17F0CEC007F1CFC008F1D00EBC
:100878000001E26FFF0E0001E36FDAC0F6FFDBC094
:10088800F7FF0800F5500001E46FE56B0001E25145
:100898000001E4270001E3510001E5230001E451D0
:1008A800010107270001E551010108230001DA4B86
:1008B800DB2BDAC0F6FFDBC0F7FF0800F550D8ECF9
:1008C80017F0D8A008D0C4D70101068F20D0C00ED9
:1008D800010106131CD0DAC0F6FFDBC0F7FF0001E8
:1008E800DA4BDB2B0800F5CF09F101010951000AA9
:1008F800D8B41200640AD8B40AD00D0AD8B407D004
:100908001C0AD8B4E4D70D0AD8B4DED746D106C13C
:10091800E2F0C00E0001E217D8A419D001C1D9FF36
:1009280002C1DAFFDECF04F1DDCF05F1020E0101CD
:100938000127000E0223010105AF53D0030E010168
:1009480006130101046D051FD8B0052B4AD001C15B
:10095800D9FF02C1DAFFDECF04F1DDCF05F1020EC7
:1009680001010127000E02233CD0010E0101096F8D
:10097800050E01010919D8B440D001010951020D31
:10098800480EF324F66EFE0EF420F76E0900F550BB
:100998000101045D0900F55001010559D8A02DD0C9
:1009A8000101092BE5D7010E0101096F040E0101B0
:1009B8000919D8B422D001010951020D520EF324AD
:1009C800F66EFE0EF420F76E0900F5500101045D85
:1009D8000900F55001010559D8A00FD00101092BD4
:1009E800E5D701010651C00B000AD8B4BED7800A6A
:1009F800D8B4D9D7400AD8B4B8D7010107510101F2
:100A08000811D8B40BD006C1E2F0030E0001E217BA
:100A1800D8B404D001010707D8A00807800E010147
:100A280009BF7F0E0001E26F010107510101095D55
:100A380001010851800A0001E259D8B00BD0010128
:100A480009510101075F000E010109BFFF0E0101F5
:100A5800085B05D0000E0101086F000E076F010149
:100A680006A518D006C1E2F0030E0001E217D8B4BB
:100A780003D02D0E64EC18F0010107510101081193
:100A8800D8B425D0300E64EC18F001010707D8A0BF
:100A98000807F2D70101075101010811D8B40DD098
:100AA800200E64EC18F001010707D8A0080701011F
:100AB800075101010811D8A4F3D706C1E2F0030ECB
:100AC8000001E217D8B403D02D0E64EC18F009C168
:100AD80003F15DD001010351020D480EF324F66EB7
:100AE800FE0EF420F76E0900F5CFD0F00A00F5CF1E
:100AF800D1F004C1CEF005C1CFF0DFEC14F0CEC0C8
:100B0800D5F0CFC0D6F0000E0001D86F0A0ED76F0F
:100B18008BEC15F00001D551300F0101096F33D06E
:100B280004C1CEF005C1CFF001010351020D520EF0
:100B3800F324F66EFE0EF420F76E0900F5CFD0F020
:100B48000A00F5CFD1F0DFEC14F00001CE510F0B05
:100B58000101006F01010051010D210EF324F66E11
:100B6800FF0EF420F76E0800F5CF09F10CD0010153
:100B78000651C00B000AD8B4ADD7800AD8B4D0D774
:100B8800400AD8B4A7D70101095164EC18F0010153
:100B9800030701010329D8A4EAD7DAC0F6FFDBC0AE
:100BA800F7FF0001DA4BDB2B0800F5CF09F1010153
:100BB8000951D8B412001CD60F0E186E000E196E0B
:100BC80084D1250E2018D8B404D0205074EC18F025
:100BD8007CD1000E1F6E000E1E6E000E1D6E03D01F
:100BE8001D840D4A0E2A0DC0F6FF0EC0F7FF08003F
:100BF800F550300AD8B4F4D70DC0F6FF0EC0F7FF91
:100C08000800F55036EC18F0D8A038D0000E1F6E4A
:100C1800000E1E6E1EC001F01FC002F0000E046E12
:100C28000A0E036E00EC18F001C01EF002C01FF09F
:100C3800D00E136EFF0E146E0DC0F6FF0EC0F7FF38
:100C48000800F550156E166A135015261450162212
:100C580015501E2616501F220D4A0E2A0DC0F6FFEB
:100C68000EC0F7FF0800F55036EC18F0D8A006D0F3
:100C7800D1D71D8E1DD0C00E1D121AD00DC0F6FF83
:100C88000EC0F7FF0D4A0E2A0800F5CF20F02050BD
:100C9800000AD8B41200640AD8B40AD00D0AD8B42D
:100CA80007D01C0AD8B4E7D70D0AD8B4E2D70DD1BB
:100CB8001DC013F0C00E1316D8A415D018C0D9FF44
:100CC80019C0DAFFDECF1BF0DDCF1CF0020E1826AC
:100CD800000E19221CAE44D0030E1D121B6C1C1EE4
:100CE800D8B01C2A3DD018C0D9FF19C0DAFFDECF12
:100CF8001BF0DDCF1CF0020E1826000E192230D092
:100D0800010E206E050E2018D8B435D02050020DE3
:100D1800480EF324F66EFE0EF420F76E0900F55027
:100D28001B5C0900F5501C58D8A025D0202AEAD70A
:100D3800010E206E040E2018D8B41DD02050020DCC
:100D4800520EF324F66EFE0EF420F76E0900F550ED
:100D58001B5C0900F5501C58D8A00DD0202AEAD7F2
:100D68001D50C00B000AD8B4CBD7800AD8B4E0D73E
:100D7800400AD8B4C5D71E501F10D8B409D01DC01A
:100D880013F0030E1316D8B403D01E06D8A01F06FE
:100D9800800E20BE7F0E136E1E50205C1F50800AEE
:100DA8001358D8B007D020501E5E000E20BEFF0E8C
:100DB8001F5A04D0000E1F6E000E1E6E1DA414D004
:100DC8001DC013F0030E1316D8B403D02D0E74EC07
:100DD80018F01E501F10D8B41ED0300E74EC18F046
:100DE8001E06D8A01F06F5D71E501F10D8B40AD06B
:100DF800200E74EC18F01E06D8A01F061E501F10F7
:100E0800D8A4F6D71DC013F0030E1316D8B403D018
:100E18002D0E74EC18F020C01AF053D01A50020DA1
:100E2800480EF324F66EFE0EF420F76E0900F5CF97
:100E380003F00A00F5CF04F01BC001F01CC002F05B
:100E480075EC16F001C008F002C009F0000E0B6E38
:100E58000A0E0A6E0FEC17F00850300F206E2ED0D5
:100E68001BC001F01CC002F01A50020D520EF324F0
:100E7800F66EFE0EF420F76E0900F5CF03F00A00B7
:100E8800F5CF04F075EC16F001500F0B176E1750E4
:100E9800010D210EF324F66EFF0EF420F76E080004
:100EA800F5CF20F00BD01D50C00B000AD8B4B6D730
:100EB800800AD8B4D5D7400AD8B4B0D7205074EC3B
:100EC80018F01A061A28D8A4EED70DC0F6FF0EC0DF
:100ED800F7FF0D4A0E2A0800F5CF20F02050D8B4AD
:100EE80012006FD649504A104B10D8A407D0000EF4
:100EF800496E800E4A6E3F0E4B6E1200720E016EE6
:100F0800310E026E440E036E49C004F04AC005F06B
:100F18004BC006F0CBEC13F0D8B00CD0000E00019B
:100F2800AC6F220EAB6FFF0E496E7F0E4A6E7F0EBE
:100F38004B6E120049C001F04AC002F04BC003F0EA
:100F4800490E046E3A0E056EC40E066ECBEC13F015
:100F5800D8B00CD0000E0001AC6F220EAB6F000EA3
:100F6800496E000E4A6E000E4B6E12004BAE02D058
:100F7800010E01D0000E516E5150D8B40ED049C0A8
:100F880001F04AC002F04BC003F013EC18F001C0A6
:100F980049F002C04AF003C04BF049C00DF04AC006
:100FA8000EF04BC00FF0AA0E106EB80E116E3F0E69
:100FB800126ECEEC0DF00DC049F00EC04AF00FC015
:100FC8004BF049C041F04AC042F04BC043F0A8EC96
:100FD8000FF041C04CF042C04DF043C04EF04CC041
:100FE80028F04DC029F04EC02AF054EC0DF028C06E
:100FF8004FF029C050F049C028F04AC029F04BC032
:101008002AF04FC009F050C00AF06FEC17F009C081
:101018002BF00AC02CF00BC02DF030EC17F028C0D4
:1010280049F029C04AF02AC04BF049C028F04AC00C
:1010380029F04BC02AF0610E2B6EFE0E2C6E000EAE
:101048002E6E090E2D6EEDEC10F028C034F029C07C
:1010580035F02AC036F04FC037F050C038F0BAEC3F
:1010680011F034C049F035C04AF036C04BF0515049
:10107800D8B425D049280EE17F0E4A180BE17F0E1F
:101088004B18D8A407D0000E496E000E4A6E000E09
:101098004B6E1200000E096E800E0A6E3F0E0B6E2C
:1010A80049C00CF04AC00DF04BC00EF035EC0FF003
:1010B80009C049F00AC04AF00BC04BF0120049C001
:1010C80049F04AC04AF04BC04BF012001EC022F053
:1010D800236A246A1D34223601E323802250276EB6
:1010E80021C022F0236A246A2034223601E32380B7
:1010F8002250266E2750D8B40BD02650275CD8B083
:101108000ED0275000082624226E180E226407D01D
:101118001FC01CF020C01DF021C01EF01200265078
:10112800D8B40BD02750265CD8B00ED02650000873
:101138002724226E180E226407D01CC01CF01DC084
:101148001DF01EC01EF01200060E256E1EBE258E56
:1011580021BE258C1D8EFF0E1C16FF0E1D16000EBF
:101168001E16208EFF0E1F16FF0E2016000E2116CB
:101178002650275CD8B01BD0D8901F362036213691
:10118800260627502618D8B40DD0250625C022F0EB
:10119800070E2216D8B406D0EFD7D8901E321D32CB
:1011A8001C32272A26502718D8B41FD0F6D7275024
:1011B800265CD8B01AD0D8901C361D361E362706A5
:1011C80027502618D8B40DD0250625C022F0070EC2
:1011D8002216D8B406D0EFD7D890213220321F3249
:1011E800262A26502718D8A4F7D725AE0CD0FF0EEC
:1011F8001C1AFF0E1D1AFF0E1E1A010E1C26000EC9
:101208001D22000E1E2225AC0CD0FF0E1F1AFF0E49
:10121800201AFF0E211A010E1F26000E2022000E92
:101228002122000E256E1C501F261D5020221E5004
:10123800212221AE0ED0FF0E1F1AFF0E201AFF0E1C
:10124800211A010E1F26000E2022000E2122010E57
:10125800256E1FC001F020C002F021C003F027C096
:1012680004F025C005F07BEC12F001C01CF002C0B0
:101278001DF003C01EF01200000E5E6E5250531097
:101288005410D8A41CD0000E016E000E026E000E81
:10129800036E55C004F056C005F057C006F0CBECFD
:1012A80013F0D8A005D0000E0001AC6F210EAB6F73
:1012B800000E526E000E536E000E546E1200555002
:1012C80056105710D8A407D0000E526E800E536ED9
:1012D8003F0E546E120054AE41D055C028F056C08F
:1012E80029F057C02AF054EC0DF028C05FF029C04F
:1012F80060F02AC061F02BC062F05FC009F060C0E6
:101308000AF061C00BF062C00CF01CEC16F05550EE
:10131800091807E156500A1804E157500B18D8B4B9
:101328000CD0000E0001AC6F210EAB6F000E526E98
:10133800000E536E000E546E12005F50010B5E6E6D
:1013480052C001F053C002F054C003F013EC18F07F
:1013580001C052F002C053F003C054F052C034F040
:1013680053C035F054C036F03BEC0BF034C058F0A5
:1013780035C059F036C05AF058C00DF059C00EF0BB
:101388005AC00FF055C010F056C011F057C012F0F7
:10139800CEEC0DF00DC05BF00EC05CF00FC05DF040
:1013A8005BC049F05CC04AF05DC04BF076EC07F0DA
:1013B80049C052F04AC053F04BC054F05E50D8B404
:1013C8000FD052C001F053C002F054C003F013EC28
:1013D80018F001C052F002C053F003C054F01200DC
:1013E80052C052F053C053F054C054F01200DCC045
:1013F800E0F00001E16BE26B0001DB350001E03752
:1014080001E3E1810001E0510001E36F0001E351D4
:10141800D8A40AD0000E0001DA6F000E0001DB6FBD
:10142800000E0001DC6F1200DFC0E0F00001E16B8C
:10143800E26B0001DE350001E03701E3E1810001E4
:10144800E0510001E86F0001E851D8A40AD0000E6D
:101458000001DA6F000E0001DB6F000E0001DC6F87
:1014680012000001E8517B0F0001E327DCC0E8F01F
:101478000001DF510001E81B800E0001E8170001A0
:10148800DB8F0001DE8FFF0E0001DD17FF0E00016C
:10149800DE17000E0001DF17000E0001E46F000EDA
:1014A8000001E56F000E0001E66F070E0001E76F0F
:1014B8000001DAA10CD00001DD510001E427000190
:1014C800DE510001E5230001DF510001E6230001A0
:1014D800D890DC33DB33DA330001D890DD37DE37E0
:1014E800DF370001E72FE4D7090E0001E76F00019D
:1014F800DAA10CD00001DD510001E4270001DE5122
:101508000001E5230001DF510001E6230001D89026
:10151800DC33DB33DA330001D890E633E533E433E8
:101528000001E72FE4D7E4C0CEF0E5C0CFF0E6C075
:10153800D0F0E3C0D1F0E8C0D2F050EC0CF0CEC04F
:10154800DAF0CFC0DBF0D0C0DCF0120065D0800E3E
:101558006CEC18F0430E0001DA6FFF0E0001DB6F30
:10156800F5EC03F0C00E6CEC18F0320E0001DA6FE7
:10157800FF0E0001DB6F80C0DCF081C0DDF0F5EC10
:1015880003F066D0800E6CEC18F0540E0001DA6F90
:10159800FF0E0001DB6F82C0DCF083C0DDF0F5ECEC
:1015A80003F0C00E6CEC18F0650E0001DA6FFF0E48
:1015B8000001DB6F84C0DCF085C0DDF0F5EC03F0E2
:1015C80047D0800E6CEC18F0760E0001DA6FFF0E33
:1015D8000001DB6F86C0DCF087C0DDF0F5EC03F0BE
:1015E800C00E6CEC18F0870E0001DA6FFF0E0001D8
:1015F800DB6F88C0DCF089C0DDF0F5EC03F028D0A3
:10160800800E6CEC18F0A80E0001DA6FFF0E0001D6
:10161800DB6FF5EC03F0F4D7EDC0CEF0EEC0CFF001
:10162800000E0001D16F030ED06F7AEC13F00001A9
:10163800CF51000AD8A4E4D70001CE51000AD8B48B
:1016480086D7010AD8B49ED7030AD8B4BAD7D8D750
:10165800020E0001E76F450E0001E66FA90EE82EA5
:10166800FED7E62FFCD7E72FFAD700D0120036AE08
:101678000CD0000E0001AC6F210EAB6F000E346E63
:10168800000E356E000E366E1200345035103610CE
:10169800D8A40CD0000E0001AC6F220EAB6F000E68
:1016A800346E000E356E000E366E1200000E106E8F
:1016B800000E116E400E126E370E046E000E056E8F
:1016C80034C001F035C002F036C003F013EC14F05A
:1016D80001C00DF002C00EF003C00FF0CEEC0DF00B
:1016E8000DC01CF00EC01DF00FC01EF0000E1F6EC6
:1016F800800E206EBF0E216E6AEC08F01CC034F01C
:101708001DC035F01EC036F03706D8A0380634C0E4
:1017180028F035C029F036C02AF07F0E2B6EFE0E59
:101728002C6E000E2E6E080E2D6EEDEC10F028C0FB
:1017380034F029C035F02AC036F0720E106E310E22
:10174800116E3F0E126E37C009F038C00AF06FEC08
:1017580017F009C00DF00AC00EF00BC00FF0CEEC68
:101768000DF00DC01CF00EC01DF00FC01EF034C0EF
:101778001FF035C020F036C021F06AEC08F01CC01C
:1017880034F01DC035F01EC036F012008EEC18F093
:10179800000E0001D06F530ECF6F80EC18F0000ED2
:1017A8000001DE6F000EDD6F0001DEBF08D0000112
:1017B800DE5121E1030E0001DD5DD8B01CD0D50E4D
:1017C8000001DD25D96E000E0001DE21DA6E010E62
:1017D800C1EC17F0DF6ED90E0001DD25D96E000EC1
:1017E8000001DE21DA6E010EC1EC17F0DF6E000198
:1017F800DD4BDE2BD9D7010EC1EC17F00001D86FF5
:10180800000EC1EC17F00001DC6F8AEC18F0000E36
:101818000001DE6F000EDD6F0001DEBF08D00001A1
:10182800DE5139E1040E0001DD5DD8B01200D90E99
:101838000001DD25D96E000E0001DE21DA6EDF50D1
:101848000001D16F0001D1510001D36FD26BD50EC9
:101858000001DD25D96E000E0001DE21DA6EDF50B1
:101868000001D46F0001D4510001D213000ED3132C
:10187800D8900001DD35D96E0001DE35DA6E8A0EAA
:10188800D926000EDA22D2C0DEFFD3C0DDFF000168
:10189800DD4BDE2BC1D712000001D1510001D8B4B5
:1018A80008D00001CE510001CF110001D011D8A4F9
:1018B80011D0000E0001CE6F000E0001CF6F000E98
:1018C8000001D06F12000001D12B0001D890D03355
:1018D800CF33CE33000E0001CE150001D36F000EBA
:1018E8000001CF150001D46FFE0E0001D0150001D4
:1018F800D56F0001D3510001D4110001D511D8B41E
:1019080011D0E1D70001D12B010E0001CE27000E26
:101918000001CF23000E0001D0230001D890D0335E
:10192800CF33CE33000E0001CE150001D36F000E69
:101938000001CF150001D46FFF0E0001D015000182
:10194800D56F0001D3510001D4110001D511D8B4CD
:1019580008D0D8D70001D1070001D890CE37CF37AB
:10196800D0370001CFBF04D0020E0001D161F2D7F9
:101978000001D1B102D00001CF9F0001D890D1332E
:101988000001D1510001D0130001D2510001D8B497
:1019980002D00001D08FCEC0CEF0CFC0CFF0D0C0E3
:1019A800D0F01200000E6E6E000E6D6E63C071F006
:1019B80064C072F0000E706E000E6F6E68D00F0E6D
:1019C80071146B6E6C6A6DC009F06EC00AF06FEC32
:1019D80017F009C065F00AC066F00BC067F065C073
:1019E80055F066C056F067C057F0000E526E200ED4
:1019F800536E410E546E40EC09F052C068F053C06B
:101A080069F054C06AF068C010F069C011F06AC08B
:101A180012F06BC009F06CC00AF06FEC17F009C047
:101A28000DF00AC00EF00BC00FF0CEEC0DF00DC09B
:101A38001FF00EC020F00FC021F06FC009F070C079
:101A48000AF06FEC17F009C01CF00AC01DF00BC0BB
:101A58001EF06AEC08F01CC028F01DC029F01EC05A
:101A68002AF054EC0DF028C06FF029C070F071C056
:101A780001F072C002F0000E046E100E036E9DECB1
:101A880014F001C071F002C072F06D4A6E2A7150F4
:101A98007210D8A494D76FC063F070C064F01200BD
:101AA8002AC02CF02D6A2E6A29342C3601E32D80A9
:101AB8002C50366E3650D8A409D0000E286E000E71
:101AC800296E000E2A6E000E2B6E1200170E2C6E59
:101AD80028C02DF029C02EF02AC02FF02C28306EF7
:101AE80004D0D8902F322E322D32302EFAD72D50E6
:101AF800316E298EFF0E2816FF0E2916000E2A16A3
:101B08002850326E2950336E2A50346E356A8E0E44
:101B1800365E36AE16D03650800A8F0FD8B009D050
:101B2800000E286E000E296E000E2A6E000E2B6E17
:101B38001200D8903532343233323232363EF9D749
:101B480015D0170E36640FD0000E286E000E296EC1
:101B5800000E2A6E000E2B6E1200D89032363336E5
:101B68003436353636063650D8A4F7D73150D8B47F
:101B780008D0351E341E331E326C000E3322342238
:101B8800352232C028F033C029F034C02AF035C0DD
:101B98002BF012000FC013F0146A156A0E341336B6
:101BA80001E314801350166E1650D8A407D0000E07
:101BB8000D6E000E0E6E000E0F6E120012C013F0A6
:101BC800146A156A1134133601E3148013501B6E1E
:101BD8001B50D8A407D0000E0D6E000E0E6E000E1E
:101BE8000F6E12001B507B0F16260FC01BF01250F1
:101BF8001B1A800E1B160E8E118EFF0E1016FF0E6E
:101C08001116000E1216000E176E000E186E000E3A
:101C1800196E070E1A6E0DA006D010501726115017
:101C2800182212501922D8900F320E320D32D89045
:101C38001036113612361A2EEED7090E1A6E0DA06E
:101C480006D0105017261150182212501922D89079
:101C58000F320E320D32D8901932183217321A2E2E
:101C6800EED717C001F018C002F019C003F016C073
:101C780004F01BC005F07BEC12F001C00DF002C0AF
:101C88000EF003C00FF012008EEC18F0000E0001E9
:101C9800D06FD00ECF6F80EC18F0000E0001D06F1F
:101CA800000ECF6F80EC18F08AEC18F08EEC18F06C
:101CB800000E0001D06FD10ECF6F80EC18F0000E2F
:101CC8000001E86F050E0001E86501D010D00001A1
:101CD800E851010D9A0EF324D96E000EF420DA6E45
:101CE800010EC1EC17F0DF6E0001E82BEBD7000EF8
:101CF800C1EC17F00001A06F8AEC18F0800E6CECB4
:101D080018F0E10E0001DA6FFE0E0001DB6F9FC0D4
:101D1800DCF00001DD6B9EC0DEF00001DF6BA0C0CF
:101D2800E0F00001E16BF5EC03F0C00E6CEC18F08C
:101D3800F80E0001DA6FFE0E0001DB6F9CC0DCF0CC
:101D48000001DD6B9BC0DEF00001DF6B9AC0E0F0A4
:101D58000001E16BF5EC03F0020E0001E76F450EA0
:101D68000001E66FA90EE82EFED7E62FFCD7E72F75
:101D7800FAD700D01200FB0E926E9368000E946E94
:101D8800000E956E000E966E000E896E000E8A6E1D
:101D9800000E8B6E000E8C6E000E8D6E000EC26EE5
:101DA800C168F28EF086F298F098F19E9EEC16F0DB
:101DB800100E0001DB6F270EDC6F000EDD6F000ECA
:101DC800DE6FECEC15F017EC10F08EEC18F0000E4E
:101DD8000001D06F520ECF6F80EC18F0000E00019A
:101DE800D06FB40ECF6F80EC18F08AEC18F0000EAC
:101DF800D76E000ED66ED59CD59AD596D584D58249
:101E0800D580000E0001BD6F14D04AEC16F011D039
:101E180025EC18F00ED009EC00F00BD045EC18F0CA
:101E280008D048EC0EF005D0AAEC0AF002D08BECF2
:101E380017F00001BD51000AD8B4E7D7010AD8B499
:101E4800E7D7030AD8B4E7D7010AD8B4E7D7070A0F
:101E5800D8B4E7D7010AD8B4E7D7030AD8B4E7D784
:101E6800E8D70BC00FF0106A116A0A340F3601E385
:101E780010800F50166E1650D8A407D0000E096EA9
:101E8800000E0A6E000E0B6E12000EC00FF0106AE4
:101E9800116A0D340F3601E310800F50176E17507A
:101EA800D8A407D0000E096E000E0A6E000E0B6E45
:101EB8001200000E136E000E146E000E156E1750F1
:101EC800890F165E0BC017F00E50171A800E1716E2
:101ED8000A8EFF0E0916FF0E0A16000E0B160D8E3F
:101EE800FF0E0C16FF0E0D16000E0E16180E126EB3
:101EF800D8901336143615360C50095C0D500A5814
:101F08000E500B58D8A007D00C50095E0D500A5A35
:101F18000E500B5A1380D89009360A360B36122EFB
:101F2800E7D713C001F014C002F015C003F016C0C3
:101F380004F017C005F07BEC12F001C009F002C0F4
:101F48000AF003C00BF0120041C001F042C002F0D9
:101F580043C003F0470E046E000E056E13EC14F038
:101F680048AE10D043AE07D0000E416E800E426ED0
:101F7800BF0E436E1200000E416E000E426E000E40
:101F8800436E1200485004E1150E475CD8A007D0F4
:101F980041C041F042C042F043C043F0120041C08A
:101FA80028F042C029F043C02AF054EC0DF028C0B4
:101FB80037F029C038F02AC039F02BC03AF01BECB2
:101FC80015F037C044F038C045F039C046F041C07C
:101FD80001F042C002F043C003F044C004F045C021
:101FE80005F046C006F0CBEC13F0D8B015D044C0CD
:101FF8001CF045C01DF046C01EF0000E1F6E800E7E
:10200800206EBF0E216E6AEC08F01CC041F01DC0A6
:1020180042F01EC043F0120044C041F045C042F0F7
:1020280046C043F012008EEC18F0000E0001D06F8D
:10203800520ECF6F80EC18F0000E0001D06F800EAA
:10204800CF6F80EC18F0000E0001D06F010ECF6F3B
:1020580080EC18F08AEC18F00A0E0001D16FBC0E63
:10206800E82EFED7D12FFCD700F08EEC18F0000E2A
:102078000001D06F520ECF6F80EC18F0000E0001F7
:10208800D06F800ECF6F80EC18F0000E0001D06F7B
:10209800030ECF6F80EC18F08AEC18F08EEC18F075
:1020A800000E0001D06F520ECF6F80EC18F0000EBA
:1020B8000001D06F8F0ECF6F80EC18F0000E00017A
:1020C800D06F020ECF6F80EC18F08AEC18F08EEC0F
:1020D80018F0000E0001D06F520ECF6F80EC18F090
:1020E800000E0001D06F810ECF6F80EC18F0000E4B
:1020F8000001D06FCF6980EC18F08AEC18F012005C
:1021080096EC18F0000E036E530E026E85EC18F074
:10211800000E116E000E106E11BE06D011501BE19C
:10212800030E105CD8B017D0080E1024D96E000E1C
:102138001120DA6E010EEDEC17F0DF6E0C0E102494
:10214800D96E000E1120DA6E010EEDEC17F0DF6E7D
:10215800104A112AE1D7010EEDEC17F00B6E000EB4
:10216800EDEC17F00F6E92EC18F0000E116E000EE9
:10217800106E11BE06D011502BE1040E105CD8B0C1
:1021880012000C0E1024D96E000E1120DA6EDF50EA
:10219800046E0450066E056A080E1024D96E000EEF
:1021A8001120DA6EDF50076E07500512000E061276
:1021B800D8901034D96E1134DA6E8A0ED926000EF2
:1021C800DA2205C0DEFF06C0DDFF104A112AD1D78A
:1021D80012002DC001F02EC002F0000E046E030E96
:1021E800036E00EC18F02BC02FF02CC030F001501B
:1021F8002F26025030222FC0F6FF30C0F7FF09000B
:10220800F5CF31F00900F5CF32F00A00F5CF33F001
:102218003ED031C010F032C011F033C012F028C0E7
:102228000DF029C00EF02AC00FF0CEEC0DF00DC055
:102238001CF00EC01DF00FC01EF0000E046E030E41
:10224800036E2D06D8A02E062DC001F02EC002F078
:1022580000EC18F02BC02FF02CC030F001502F26C6
:10226800025030222FC0F6FF30C0F7FF0900F5CF2B
:102278001FF00900F5CF20F00A00F5CF21F06AEC35
:1022880008F01CC031F01DC032F01EC033F02D50D4
:102298002E10D8A4BED731C028F032C029F033C0E0
:1022A8002AF01200010102AF1DD000C1E9F001C1FE
:1022B800EAF002C1EBF00001E91FEA1FEB1FE92B6E
:1022C800000EEA23EB23000E0001E9250101006F4F
:1022D800000E0001EA210101016F800E0001EB21CF
:1022E8000101026F010105AF1DD003C1E9F004C16E
:1022F800EAF005C1EBF00001E91FEA1FEB1FE92B2B
:10230800000EEA23EB23000E0001E9250101036F0B
:10231800000E0001EA210101046F800E0001EB218B
:102328000101056F000E0101001B000E0101011BD8
:10233800800E0101021B000E0101031B000E0101AA
:10234800041B800E0101051B010103510101005D01
:10235800010104510101015901010551010102590D
:10236800D8B002D0D8901200D8801200345035105E
:102378003610D8A407D0000E346E000E356E000E4D
:10238800366E120036507F0B396E3A6AD89039365D
:102398003A36395037263A50382235AE03D0396AA2
:1023A800392A01D0396A39503726000E382238AE1A
:1023B8000CD0000E0001AC6F220EAB6F000E346E15
:1023C800000E356E000E366E120038BE16D0380478
:1023D800D8A013D0000E0001AC6F220EAB6F36AE42
:1023E80006D0FF0E346E7F0E356EFF0EECD7FF0E53
:1023F800346E7F0E356E7F0EE6D7383438303A6E3D
:102408003730396E36503918800B3918366E37C068
:1024180039F0010E391639323932355039187F0BF7
:102428003918356E34C034F035C035F036C036F062
:102438001200000E0001D66F000ED76F000ED86F85
:10244800000ED96F0001D2510001D3110001D4113F
:102458000001D511D8B442D0010E0001DA6F08D0BE
:102468000001D890D237D337D437D5370001DA2BCB
:102478000001D5AFF5D70001D890D637D737D83770
:10248800D9370001D2510001CE5D0001D3510001BE
:10249800CF590001D4510001D0590001D551000194
:1024A800D159D8A012D00001D2510001CE5F00014D
:1024B800D3510001CF5B0001D4510001D05B000172
:1024C800D5510001D15B0001D6810001D890D533E8
:1024D800D433D333D2330001DA2FCDD7D6C0CEF0E0
:1024E800D7C0CFF0D8C0D0F0D9C0D1F01200045076
:1024F800D8B405D0015002100310D8A40CD0000E97
:10250800016E000E026E000E036E1200042AD890AF
:10251800033202320132000E0114066E000E02145C
:10252800076EFE0E0314086E065007100810D8B484
:102538000CD0ECD7042A010E0126000E0222000E50
:102548000322D890033202320132000E0114066EC3
:10255800000E0214076EFF0E0314086E06500710D3
:102568000810D8B406D0E6D70406D890013602364B
:10257800033602BE03D0020E0460F6D704A0029E02
:10258800D8900432045003120550D8A4038E01C019
:1025980001F002C002F003C003F01200CEC0D2F076
:1025A800CFC0D3F0000E0001D56F000ED46F00012C
:1025B800D55147E10A0E0001D45DD8B012008B82D4
:1025C800000E0001D76F000ED66F07D0530EE82E0D
:1025D800FED700F00001D64BD72B0001D2510001E5
:1025E800D65D0001D3510001D759D8A0EFD78B92FF
:1025F800000E0001D76F000ED66F07D0530EE82EDD
:10260800FED700F00001D64BD72BD2C0D0F0D3C0F4
:10261800D1F00001D01FD11FD04BD12BC80E000123
:10262800D027000ED1230001D0510001D65D000152
:10263800D1510001D759D8A0E1D70001D44BD52BEF
:10264800B6D71200CEC0D2F0CFC0D3F0000E000132
:10265800D56F000ED46F0001D55147E10A0E000175
:10266800D45DD8B012008B80000E0001D76F000E29
:10267800D66F07D0530EE82EFED700F00001D64BD8
:10268800D72B0001D2510001D65D0001D3510001C2
:10269800D759D8A0EFD78B90000E0001D76F000E46
:1026A800D66F07D0530EE82EFED700F00001D64BA8
:1026B800D72BD2C0D0F0D3C0D1F00001D01FD11F8A
:1026C800D04BD12BC80E0001D027000ED12300011A
:1026D800D0510001D65D0001D1510001D759D8A0D1
:1026E800E1D70001D44BD52BB6D71200000E00015C
:1026F800D36F0001CFAF08D00001CE6DCF1FD8B087
:10270800CF2B010E0001D36F0001D1AF05D000011E
:10271800D06DD11FD8B0D12B0001D0510001D111FB
:10272800D8B426D0010E0001D26F06D00001D8908F
:10273800D037D1370001D22B0001D1AFF7D7000134
:10274800D0510001CE5D0001D1510001CF59D8A070
:1027580008D00001D0510001CE5F0001D151000125
:10276800CF5B0001D890D133D0330001D22FE7D707
:102778000001D3510001D8B405D00001CE6DCF1FA0
:10278800D8B0CF2BCEC0CEF0CFC0CFF0120003AE62
:1027980016D001C007F002C008F003C009F0071EF8
:1027A800081E091E072A000E08220922000E072407
:1027B800016E000E0820026E800E0920036E06AE20
:1027C80016D004C007F005C008F006C009F0071EBF
:1027D800081E091E072A000E08220922000E0724D7
:1027E800046E000E0820056E800E0920066E000E8D
:1027F800011A000E021A800E031A000E041A000EA7
:10280800051A800E061A0450015C0550025806503D
:102818000358D8B002D0D8901200D88012000150C6
:1028280002100310D8A40FD004C0D9FF05C0DAFFE6
:10283800000EDE6E000EDD6E000E016E000E026EE2
:10284800000E036E120003507F0B066E076AD890C5
:102858000636073604C0D9FF05C0DAFF06C0DEFF1A
:1028680007C0DDFF02AE03D0066A062A01D0066A59
:10287800065004C0D9FF05C0DAFFDE12000EDD12D3
:1028880004C0D9FF05C0DAFF820EDE26FF0EDD2266
:1028980003800382038403860388038A039C029EC1
:1028A80001C001F002C002F003C003F0120001C031
:1028B80005F002C006F0000E086E000E076E085004
:1028C80037E10A0E075CD8B012008B82000E0A6E40
:1028D800000E096E06D0530EE82EFED700F0094A06
:1028E8000A2A0550095C06500A58D8A0F4D78B92DA
:1028F800000E0A6E000E096E06D0530EE82EFED7A3
:1029080000F0094A0A2A05C003F006C004F0031EB5
:10291800041E034A042AC80E0326000E042203508C
:10292800095C04500A58D8A0E8D7074A082AC7D72C
:102938001200000E066E04AE06D0036C041ED8B05A
:10294800042A010E066E02AE06D0016C021ED8B033
:10295800022A010E061A000E086E000E076E0350BA
:102968000410D8B41CD0010E056E04D0D8900336DC
:102978000436052A04AEFAD7D8900736083603502D
:10298800015C04500258D8A005D00350015E0450E1
:10299800025A0780D89004320332052EEDD706502C
:1029A800D8B404D0076C081ED8B0082A07C001F0B4
:1029B80008C002F01200000E0001D46F000ED36FA1
:1029C8000001D0510001D111D8B42CD0010E000162
:1029D800D26F06D00001D890D037D1370001D22B62
:1029E8000001D1AFF7D70001D890D337D437000111
:1029F800D0510001CE5D0001D1510001CF59D8A0BE
:102A08000AD00001D0510001CE5F0001D151000170
:102A1800CF5B0001D3810001D890D133D0330001BE
:102A2800D22FE1D7D3C0CEF0D4C0CFF01200000E21
:102A3800406E8E0E3F6E3AAE11D03A1E391E381EC9
:102A4800376C000E382239223A22010E406E06D029
:102A5800D8903A323932383237323F2A000E37149A
:102A68003B6E000E38143C6E000E39143D6EFF0E9E
:102A78003A143E6E3B503C103D103E10D8A4E8D7A7
:102A880037C001F038C002F039C003F03FC004F08D
:102A980040C005F07BEC12F001C037F002C038F0FE
:102AA80003C039F0120096EC18F0000E036ED00E39
:102AB800026E85EC18F0000E036E000E026E85ECB7
:102AC80018F092EC18F096EC18F0000E036ED10E88
:102AD800026E85EC18F0000E046E050E046401D039
:102AE8000ED00450010D9A0EF324D96E000EF42076
:102AF800DA6E010EEDEC17F0DF6E042AEED7000E49
:102B0800EDEC17F00001A06F92EC18F01200000134
:102B1800D7510001D811D8B426D0010E0001D96FC1
:102B280006D00001D890D737D8370001D92B00013B
:102B3800D8AFF7D70001D7510001D55D0001D851B2
:102B48000001D659D8A008D00001D7510001D55F9F
:102B58000001D8510001D65B0001D890D833D73393
:102B68000001D92FE7D7D5C0D5F0D6C0D6F01200CE
:102B78000001CF6F0001CF51F00B0001CE6F8C50D8
:102B88000F0B8C6E0001CE518C108C6E8C96190E2A
:102B9800E82EFED78C86190EE82EFED70001CF3915
:102BA800F00B0001CF6F0001CF51F00B0001CE6F89
:102BB8008C500F0B8C6E0001CE518C108C6E8C9645
:102BC800190EE82EFED78C86190EE82EFED71200B5
:102BD800000EC76E280EC66E000EC56E800E000170
:102BE800CE6F960ECF6F980ED06F000ED16FDBC0F0
:102BF800DFF0DCC0E0F0DDC0E1F0DEC0E2F0020EA4
:102C0800D8900001DF37E037E137E237E82EF8D710
:102C1800DFC0D2F0E0C0D3F0E1C0D4F0E2C0D5F01C
:102C28001DEC12F00001CE05C86E9486948812003F
:102C38008E0E116E06D0D8900C320B320A32093241
:102C4800112A000E09140D6E000E0A140E6E000EE5
:102C58000B140F6EFF0E0C14106E0D500E100F108B
:102C68001010D8A4E8D709C001F00AC002F00BC0C0
:102C780003F011C004F0000E056E7BEC12F001C0E9
:102C880009F002C00AF003C00BF01200800E6CECD1
:102C980018F0F00E0001DA6FFF0E0001DB6FF5ECA3
:102CA80003F0C00E6CEC18F0CAEC0BF0DF0E00015C
:102CB800DA6FFF0E0001DB6F8AC0DCF08BC0DDF03D
:102CC800F5EC03F0070E0001E76F580E0001E66F00
:102CD800590EE82EFED7E62FFCD7E72FFAD700D0FB
:102CE8001200000E066E000E056E03500410D8B4D4
:102CF8001CD0010E076E04D0D89003360436072A7C
:102D080004AEFAD7D890053606360350015C045055
:102D18000258D8A005D00350015E0450025A05801D
:102D2800D89004320332072EEDD705C001F006C053
:102D380002F01200310E0001D16FB20EE82EFED75C
:102D4800D12FFCD700F0330E6CEC18F0330E6CEC7E
:102D580018F0320E6CEC18F0280E6CEC18F00F0E10
:102D68006CEC18F0060E6CEC18F0010E6CEC18F018
:102D7800310E0001D16FB20EE82EFED7D12FFCD74D
:102D880000F01200026E0250F00B016E8C500F0B17
:102D98008C6E01508C108C6E8C96190EE82EFED716
:102DA8008C86190EE82EFED70238F00B026E025000
:102DB800F00B016E8C500F0B8C6E01508C108C6ECA
:102DC8008C96190EE82EFED78C86190EE82EFED7A3
:102DD8001200000E0001D96F0001D7AF08D0000122
:102DE800D66DD71FD8B0D72B010E0001D96FD6C02A
:102DF800CEF0D7C0CFF00001D06B8E0E0001D16F9E
:102E0800D9C0D2F050EC0CF0CEC0D6F0CFC0D7F07D
:102E1800D0C0D8F012000A500B10D8B418D0010E48
:102E28000C6E04D0D8900A360B360C2A0BAEFAD7A3
:102E38000A50085C0B500958D8A004D00A50085E04
:102E48000B50095AD8900B320A320C2EF1D708C011
:102E580008F009C009F012002B502C102D10D8B41E
:102E680006D0000E2B1A000E2C1A800E2D1A28C020
:102E78001CF029C01DF02AC01EF02BC01FF02CC06A
:102E880020F02DC021F06AEC08F01CC028F01DC00D
:102E980029F01EC02AF01200340EF66E310EF76EBD
:102EA800000EF86E0900F5CFEDF00900F5CFEEF051
:102EB80000EE80F03E0EEE6AE806FDE100EE76F0E8
:102EC800080EEE6AE806FDE17E907E92000EF86E2E
:102ED8000001BFEF0EF0000E0C6E0AAE06D0096CB2
:102EE8000A1ED8B00A2A010E0C6E09C001F00AC0E9
:102EF80002F0036A8E0E046E0CC005F07BEC12F033
:102F080001C009F002C00AF003C00BF01200800EE5
:102F18006CEC18F0CA0E0001DA6FFE0E0001DB6FD0
:102F2800F5EC03F0C00E6CEC18F00F0E0001DA6F30
:102F3800FF0E0001DB6FB9C0DCF0BAC0DDF0F5ECC4
:102F480003F012000001CE510001D003F3CFD2F0FC
:102F5800F4CFD3F00001CE510001D103F3500001AA
:102F6800D3270001CF510001D003F3500001D3272C
:102F7800D2C0CEF0D3C0CFF012000001CF6F51EC19
:102F880018F0C58651EC18F0C9CFD0F051EC18F004
:102F98000001CF510001D8A402D0C58A01D0C59A3A
:102FA800C5880001D05112000001D06F000E000149
:102FB800CF6F3A0E0001D06107D02F0E0001D06507
:102FC80003D0010E0001CF6FCFC0CEF00001CE318B
:102FD8001200026E5BEC18F0C5865BEC18F0C9CFE6
:102FE80003F05BEC18F00250D8A402D0C58A01D0D7
:102FF800C59AC5880350120001500302F3CF05F0AB
:10300800F4CF06F001500402F350062602500302E2
:10301800F350062605C001F006C002F01200015068
:1030280002100310D8B406D0000E011A000E021ABE
:10303800800E031A01C001F002C002F003C003F0C1
:103048001200F29E8094010E6CEC18F0800E6CEC6D
:1030580018F0B80E0001DA6FFF0E0001DB6FF5EC17
:1030680003F0FFD7036E000E026E3A0E036005D020
:103078002F0E036402D0010E026E02C001F001306F
:103088001200800E6CEC18F0980E0001DA6FFF0E3B
:103098000001DB6FF5EC03F01200C7B4FED7C5CF13
:1030A800CEF01F0E0001CE17D8B41200F6D7C7B461
:1030B800FED7C5CF01F01F0E0116D8B41200F7D7FE
:1030C8000001D06F8C840001D051BCEC15F01200C7
:1030D8000001D06F8C940001D051BCEC15F01200A7
:1030E800036E8C840350C6EC16F01200036E8C94A9
:1030F8000350C6EC16F0120051EC18F0CFC0C9FF0F
:1031080012005BEC18F002C0C9FF120051EC18F075
:10311800C584120051EC18F0C58012005BEC18F061
:0E312800C58412005BEC18F0C5801200FFFF9A
:10FE3600003132334134353642373839432A30239C
:10FE4600440001000A006400E803102701001000C6
:10FE5600000100105035210805021700803F72315D
:10FE66003FFE753E58633D951D3CC5AE3A79213936
:10FE760094803793A73556153400000000803FF074
:10FE8600FFBEE2A93E8376BEAE2B3E3CC3BDD21377
:10FE96003D78D3BB4725752042257520202020209C
:10FEA60020202020202020202020200043257520EF
:10FEB60052257520202020202020202020202020B0
:10FEC60020202000546F74616C204F70657261743D
:10FED600696F6E2020202020202000446174653A3E
:10FEE60020253032782F253032782F253032782071
:10FEF600200054696D653A20253032783A25303233
:10FF0600783A2530327820200054696D653A2025EC
:10FF1600642073202020202020200030313233340A
:10FF2600353637383961626364656600546F7461CB
:10FF36006C3A2025642020202020202000426F7467
:10FF4600746C6520436F756E742020202000594F15
:10FF56005020572F204341503A2025642020005935
:10FF66004F50204E4F204341503A20256420200018
:10FF760045534B4120572F204341503A20256420BA
:10FF86000045534B41204E4F204341503A202564B3
:10FF960020004F7065726174696F6E20446F6E65E4
:10FFA60021004552523A204241442042544C434E8D
:10FFB6005400454D455247454E43592053544F50E2
:10FFC600004552523A2042414420495352002020D3
:10FFD600202025642C202564002564202020202054
:10FFE600200072756E6E696E67007374616E64626E
:0AFFF6007900646562756731000050
:020000040020DA
:08000000FFFFFFFFFFFFFFFF00
:020000040030CA
:0E000000FF021F1EFF8381FF0FC00FE00F40A5
:00000001FF
