:0400000007EF00F016
:100008005382E0ED03F004EF07F03B0E0001816F2F
:10001800000E0001826FAFD1250E00018919D8B4F6
:1000280005D000018951B0EC07F0A5D1000E000100
:10003800886F000E876F000E0001866F04D00001E4
:100048008685394A3A2A39C0F6FF3AC0F7FF0800D0
:10005800F550300AD8B4F3D739C0F6FF3AC0F7FFE5
:100068000800F5507FEC07F0D8A039D0000E000149
:10007800886F000E876F87C02DF088C02EF0000EA5
:10008800306E0A0E2F6E59EC07F02DC087F02EC087
:1000980088F0D00E416EFF0E426E39C0F6FF3AC0AE
:1000A800F7FF0800F550436E446A4150432642501A
:1000B8004422435000018727445000018823394ACD
:1000C8003A2A39C0F6FF3AC0F7FF0800F5507FEC2E
:1000D80007F0D8A004D0CFD70001868F18D039C038
:1000E800F6FF3AC0F7FF394A3A2A0800F5CF89F0F7
:1000F80000018951000AD8B41200640AD8B407D0A4
:100108000D0AD8B404D0110AD8B4E6D734D1000106
:1001180086BF19D081C0D9FF82C0DAFFDECF84F054
:10012800DDCF85F0020E00018127000E8223000139
:1001380085AF53D0030E000186130001846D851F1F
:10014800D8B0852B4AD081C0D9FF82C0DAFFDECF74
:1001580084F0DDCF85F0020E00018127000E822396
:100168003CD0010E0001896F050E00018919D8B431
:100178003DD000018951020D3C0EF324F66EFE0EAF
:10018800F420F76E0900F5500001845D0900F55070
:1001980000018559D8A02AD00001892BE5D7010E86
:1001A8000001896F040E00018919D8B41FD000011D
:1001B8008951020D460EF324F66EFE0EF420F76EFA
:1001C8000900F5500001845D0900F55000018559CA
:1001D800D8A00CD00001892BE5D700018651800BEF
:1001E800000AD8B4BED7800AD8B4D9D7000187513D
:1001F80000018811D8B40AD086C041F0030E411618
:10020800D8B404D000018707D8A08807800E000161
:1002180089BF7F0E416E000187510001895D000191
:100228008851800A4158D8B00BD00001895100018B
:10023800875F000E000189BFFF0E0001885B05D0B3
:10024800000E0001886F000E876F000186A517D089
:1002580086C041F0030E4116D8B403D02D0EB0EC81
:1002680007F00001875100018811D8B424D0300E5E
:10027800B0EC07F000018707D8A08807F2D7000183
:10028800875100018811D8B40DD0200EB0EC07F0CA
:1002980000018707D8A0880700018751000188114D
:1002A800D8A4F3D786C041F0030E4116D8B403D0C2
:1002B8002D0EB0EC07F089C083F057D000018351B0
:1002C800020D3C0EF324F66EFE0EF420F76E0900C4
:1002D800F5CF2FF00A00F5CF30F084C02DF085C09F
:1002E8002EF0FCEC05F02DC034F02EC035F0000ED9
:1002F800376E0A0E366EC2EC06F03450300F00012D
:10030800896F2FD084C02DF085C02EF00001835155
:10031800020D460EF324F66EFE0EF420F76E090069
:10032800F5CF2FF00A00F5CF30F0FCEC05F02D509A
:100338000F0B0001806F00018051010DF90EF324AD
:10034800F66EFE0EF420F76E0800F5CF89F009D09E
:1003580000018651800B000AD8B4B0D7800AD8B4FF
:10036800D1D700018951B0EC07F0000183070001E3
:100378008329D8A4EDD739C0F6FF3AC0F7FF394A28
:100388003A2A0800F5CF89F000018951D8B4120043
:1003980043D60F0E146E000E156E74D1250E1C1860
:1003A800D8B404D01C50BCEC07F06CD1000E1B6E06
:1003B800000E1A6E000E196E03D019840D4A0E2A0B
:1003C8000DC0F6FF0EC0F7FF0800F550300AD8B48C
:1003D800F4D70DC0F6FF0EC0F7FF0800F5508EECFD
:1003E80007F0D8A035D0000E1B6E000E1A6E1AC08A
:1003F80001F01BC002F0000E046E0A0E036E6CECD6
:1004080007F001C01AF002C01BF0D00E0F6EFF0EED
:10041800106E0DC0F6FF0EC0F7FF0800F550116E04
:10042800126A0F5011261050122211501A2612501B
:100438001B220D4A0E2A0DC0F6FF0EC0F7FF08005A
:10044800F5508EEC07F0D8A003D0D1D7198E17D06D
:100458000DC0F6FF0EC0F7FF0D4A0E2A0800F5CFB3
:100468001CF01C50000AD8B41200640AD8B407D093
:100478000D0AD8B404D0110AD8B4E8D703D119BEEC
:1004880015D014C0D9FF15C0DAFFDECF17F0DDCFC5
:1004980018F0020E1426000E152218AE44D0030ED2
:1004A8001912176C181ED8B0182A3DD014C0D9FFDD
:1004B80015C0DAFFDECF17F0DDCF18F0020E1426D4
:1004C800000E152230D0010E1C6E050E1C18D8B473
:1004D80032D01C50020D3C0EF324F66EFE0EF420B2
:1004E800F76E0900F550175C0900F5501858D8A0A8
:1004F80022D01C2AEAD7010E1C6E040E1C18D8B490
:100508001AD01C50020D460EF324F66EFE0EF4208F
:10051800F76E0900F550175C0900F5501858D8A077
:100528000AD01C2AEAD71950800B000AD8B4CBD7B6
:10053800800AD8B4E0D71A501B10D8B409D019C013
:100548000FF0030E0F16D8B403D01A06D8A01B0656
:10055800800E1CBE7F0E0F6E1A501C5C1B50800A4A
:100568000F58D8B007D01C501A5E000E1CBEFF0EE4
:100578001B5A04D0000E1B6E000E1A6E19A414D05C
:1005880019C00FF0030E0F16D8B403D02D0EBCEC13
:1005980007F01A501B10D8B41ED0300EBCEC07F070
:1005A8001A06D8A01B06F5D71A501B10D8B40AD0C3
:1005B800200EBCEC07F01A06D8A01B061A501B1018
:1005C800D8A4F6D719C00FF0030E0F16D8B403D06D
:1005D8002D0EBCEC07F01CC016F050D01650020DC2
:1005E8003C0EF324F66EFE0EF420F76E0900F5CFEC
:1005F80003F00A00F5CF04F017C001F018C002F0AC
:1006080025EC06F001C008F002C009F0000E0B6EE0
:100618000A0E0A6EE3EC06F00850300F1C6E2BD061
:1006280017C001F018C002F01650020D460EF32450
:10063800F66EFE0EF420F76E0900F5CF03F00A00FF
:10064800F5CF04F025EC06F001500F0B136E135094
:10065800010DF90EF324F66EFE0EF420F76E080075
:10066800F5CF1CF008D01950800B000AD8B4B6D7C3
:10067800800AD8B4D5D71C50BCEC07F0160616284B
:10068800D8A4F1D70DC0F6FF0EC0F7FF0D4A0E2A09
:100698000800F5CF1CF01C50D8B412007FD66DD0DE
:1006A800800EB6EC07F03D0E396EFF0E3A6E09EC7F
:1006B80000F0C00EB6EC07F01B0E396EFF0E3A6E56
:1006C80009EC00F01200800EB6EC07F0810E396ECE
:1006D800FF0E3A6E09EC00F0C00EB6EC07F0700E93
:1006E800396EFF0E3A6E09EC00F01200800EB6EC7F
:1006F80007F05F0E396EFF0E3A6E09EC00F0C00E7F
:10070800B6EC07F04E0E396EFF0E3A6E09EC00F0AB
:100718001200800EB6EC07F0920E396EFF0E3A6E9C
:1007280009EC00F0C00EB6EC07F0B40E396EFF0EFF
:100738003A6E09EC00F01200800EB6EC07F0A30E3A
:10074800396EFF0E3A6E09EC00F0C00EB6EC07F0F9
:10075800C50E396EFF0E3A6E09EC00F01200800EDD
:10076800B6EC07F0F40E396EFF0E3A6E51C03BF04E
:1007780052C03CF009EC00F0F2D751C02DF052C045
:100788002EF0000E306E050E2F6E97EC05F02E50F1
:10079800000AD8A4E4D72D50000AD8B481D7010A9A
:1007A800D8B491D7030AD8B4A1D7010AD8B4B1D71D
:1007B800070AD8B4C1D7D3D70600FACF1EF0FBCFAB
:1007C8001FF0E9CF20F0EACF21F0E1CF22F0E2CF0D
:1007D80023F0D9CF24F0DACF25F0F3CF26F0F4CFE9
:1007E80027F0F6CF28F0F7CF29F0F8CF2AF0F5CF89
:1007F8002BF0F0B01BD02ED0000E16D0010EC2EC9C
:1008080007F0010E11D0040E506E514A522A1F0EE5
:100818008118D8A438D0FBD7050E06D0030E04D013
:10082800010EC2EC07F0020E506E2DD081500F0A57
:10083800D8B4E4D7100AD8B4E6D7300AD8B4ECD77D
:10084800100AD8B4EBD7700AD8B4EAD7A00AD8B43B
:10085800D3D719D0800EC2EC07F0E60E0D6EFF0E4E
:100868000E6ECDEC01F0000E2C6E630E2C6401D0E0
:10087800F1D7210E1D6E760EE82EFED71D2EFCD761
:1008880000D02C2AF2D7F0902BC0F5FF2AC0F8FF31
:1008980029C0F7FF28C0F6FF27C0F4FF26C0F3FFE2
:1008A80025C0DAFF24C0D9FF23C0E2FF22C0E1FF40
:1008B80021C0EAFF20C0E9FF1FC0FBFF1EC0FAFFEE
:1008C8005392110092689368000E946E000E956E14
:1008D800000E966E000E896E000E8A6E000E8B6EEC
:1008E800000E8C6E000E8D6E000EC26EC168F08612
:1008F800F19E9CEC06F0100E3A6E270E3B6E000E31
:100908003C6E000E3D6ECFEC05F0F28E000E506E80
:1009180012D01DEC07F022D059EC05F01FD09DEC49
:1009280007F01CD0C1EC04F019D053EC03F016D03A
:1009380046EC07F013D05050000AD8B4EAD7010AA1
:10094800D8B4EAD7030AD8B4EAD7010AD8B4EAD7A0
:10095800070AD8B4EAD7010AD8B4EAD7030E0001C7
:100968008B6F8A0E00018A6F550EE82EFED78A2FEC
:10097800FCD78B2FFAD700D0DED7D1EC07F0000ECA
:100988002F6ED00E2E6EC8EC07F0000E2F6E000EE4
:100998002E6EC8EC07F0CDEC07F0D1EC07F0000E96
:1009A8002F6ED10E2E6EC8EC07F0000E456E050EA8
:1009B800456401D00ED04550010D470EF324D96E81
:1009C800000EF420DA6E010E33EC07F0DF6E452AD4
:1009D800EED7000E33EC07F04D6ECDEC07F0800E2D
:1009E800B6EC07F0CB0E396EFE0E3A6E4CC03BF0FB
:1009F8003C6A4BC03DF03E6A4DC03FF0406A09EC8E
:100A080000F0C00EB6EC07F0E20E396EFE0E3A6E3C
:100A180049C03BF03C6A48C03DF03E6A47C03FF0E1
:100A2800406A09EC00F01200000E356E000E366EBA
:100A3800000E376E000E386E3150321033103410FD
:100A4800D8B42AD0010E396E06D0D8903136323655
:100A580033363436392A34AEF8D7D8903536363668
:100A68003736383631502D5C32502E5833502F5887
:100A780034503058D8A009D031502D5E32502E5AFB
:100A880033502F5A3450305A3580D890343233325C
:100A980032323132392EE1D735C02DF036C02EF042
:100AA80037C02FF038C030F012002AD0800EB6ECD4
:100AB80007F0860E396EFE0E3A6E09EC00F0000E55
:100AC8004F6E010E4E6E1200800EB6EC07F06E0EE1
:100AD800396EFE0E3A6E09EC00F0000E4F6E020EF3
:100AE8004E6E1200800EB6EC07F0550E396EFE0EF3
:100AF8003A6E09EC00F0000E4F6E000E4E6E1200BA
:100B08004EC045F04FC046F04650000AD8A4120027
:100B18004550000AD8B4CAD7010AD8B4D5D7030AB1
:100B2800D8A41200DFD7000E326E2EAE06D02D6C80
:100B38002E1ED8B02E2A010E326E30AE04D02F6C85
:100B4800301ED8B0302A2F503010D8B418D0010E2B
:100B5800316E04D0D8902F363036312A30AEFAD7DD
:100B68002F502D5C30502E58D8A004D02F502D5E19
:100B780030502E5AD89030322F32312EF1D7325091
:100B8800D8B404D02D6C2E1ED8B02E2A2DC02DF02E
:100B98002EC02EF01200000EC76E280EC66E000E74
:100BA800C56E800E2D6E960E2E6E980E2F6E000E50
:100BB800306E3AC03EF03BC03FF03CC040F03DC014
:100BC80041F0020ED8903E363F3640364136E82E88
:100BD800F9D73EC031F03FC032F040C033F041C0D9
:100BE80034F018EC05F02D04C86E94869488120031
:100BF800000E336E000E326E2F503010D8B41CD059
:100C0800010E316E04D0D8902F363036312A30AEEE
:100C1800FAD7D890323633362F502D5C30502E58B4
:100C2800D8A005D02F502D5E30502E5A3280D89043
:100C380030322F32312EEDD732C02DF033C02EF0A6
:100C48001200000E066E000E056E03500410D8B494
:100C58001CD0010E076E04D0D89003360436072A3C
:100C680004AEFAD7D890053606360350015C045016
:100C78000258D8A005D00350015E0450025A0580DE
:100C8800D89004320332072EEDD705C001F006C014
:100C980002F012002E6E2E50F00B2D6E8C500F0BA2
:100CA8008C6E2D508C108C6E8C96190EE82EFED7FB
:100CB8008C86190EE82EFED72E38F00B2E6E2E508D
:100CC800F00B2D6E8C500F0B8C6E2D508C108C6E83
:100CD8008C96190EE82EFED78C86190EE82EFED7B4
:100CE8001200026E0250F00B016E8C500F0B8C6ECE
:100CF80001508C108C6E8C96190EE82EFED78C86BF
:100D0800190EE82EFED70238F00B026E0250F00BD7
:100D1800016E8C500F0B8C6E01508C108C6E8C9663
:100D2800190EE82EFED78C86190EE82EFED7120073
:100D3800310E306EB20EE82EFED7302EFCD700D022
:100D4800330EB6EC07F0330EB6EC07F0320EB6EC05
:100D580007F0280EB6EC07F00F0EB6EC07F0060EFB
:100D6800B6EC07F0010EB6EC07F0310E306EB20E9D
:100D7800E82EFED7302EFCD700D0120036503710A0
:100D8800D8B418D0010E386E04D0D890363637361D
:100D9800382A37AEFAD73650345C37503558D8A091
:100DA80004D03650345E3750355AD8903732363200
:100DB800382EF1D734C034F035C035F012000A505F
:100DC8000B10D8B418D0010E0C6E04D0D8900A3687
:100DD8000B360C2A0BAEFAD70A50085C0B50095890
:100DE800D8A004D00A50085E0B50095AD8900B328C
:100DF8000A320C2EF1D708C008F009C009F0120019
:100E0800AA0EF66E0F0EF76E000EF86E0900F5CFFB
:100E180051F00900F5CF52F000EE47F00A0EEE6AE5
:100E2800E806FDE153905392000EF86E000166EF5C
:100E380004F0800EB6EC07F00A0E396EFF0E3A6E1B
:100E480009EC00F0C00EB6EC07F02C0E396EFF0E60
:100E58003A6E81CF3BF03C6A09EC00F012002E6E2E
:100E6800A7EC07F0C586A7EC07F0C9CF2FF0A7ECD1
:100E780007F02E50D8A402D0C58A01D0C59AC588DB
:100E88002F501200800EB6EC07F0B40E396EFE0E2D
:100E98003A6E09EC00F0C00EB6EC07F09D0E396E04
:100EA800FE0E3A6E09EC00F012002D502F02F3CF1F
:100EB80031F0F4CF32F02D503002F35032262E505C
:100EC8002F02F350322631C02DF032C02EF012001E
:100ED80001500302F3CF05F0F4CF06F001500402ED
:100EE800F350062602500302F350062605C001F00F
:100EF80006C002F012002F6E000E2E6E3A0E2F6002
:100F080005D02F0E2F6402D0010E2E6E2EC02DF0AC
:100F18002D301200036E000E026E3A0E036005D0EB
:100F28002F0E036402D0010E026E02C001F00130E0
:100F38001200800EB6EC07F0D60E396EFF0E3A6E30
:100F480009EC00F01200C7B4FED7C5CF2DF01F0E74
:100F58002D16D8B41200F7D72F6E8C842F504EEC74
:100F680006F012002F6E8C942F504EEC06F01200F3
:100F7800036E8C84035075EC06F01200036E8C949B
:100F8800035075EC06F01200A7EC07F02EC0C9FF5D
:100F98001200A7EC07F0C5841200A7EC07F0C58083
:040FA8001200FFFF35
:10FE2A00003132334134353642373839432A3023A8
:10FE3A00440001000A006400E803102701001000D2
:10FE4A00000100105035210805021752756E6E69BF
:10FE5A006E677E7E7E2020202020202020202020E9
:10FE6A002020200052756E6E696E677E7E202020EB
:10FE7A0020202020202020202020200052756E6E75
:10FE8A00696E677E2020202020202020202020202C
:10FE9A0020200054696D653A2039327320202020D1
:10FEAA0020202020202020202000546F74616C2004
:10FEBA004F7065726174696F6E20202020202020A7
:10FECA0000446174653A20253032782F2530327823
:10FEDA002F2530327820200054696D653A2025306C
:10FEEA0032783A253032783A25303278202000307C
:10FEFA0031323334353637383961626364656600C6
:10FF0A007374616E646279202020202020202020D2
:10FF1A0000546F74616C3A20313020202020202058
:10FF2A002000504F5254423A20256420202020209D
:10FF3A00202000426F74746C6520436F756E7420C4
:10FF4A0020202000594F502D4341502D4C424C3A0D
:10FF5A002030202000594F502D4341502B4C424C09
:10FF6A003A2031202000594F502B4341502D4C420A
:10FF7A004C3A2031202000594F502B4341502B4CF2
:10FF8A00424C3A203320200045534B412B434150E9
:10FF9A002B4C424C3A2031200045534B412D4341D2
:10FFAA00502B4C424C3A2031200045534B412B43B5
:10FFBA0041502D4C424C3A2031200045534B412DA3
:10FFCA004341502D4C424C3A203220004F7065720A
:10FFDA006174696F6E20446F6E65210062616420EE
:10FFEA00696E74657272757074004552524F523A56
:05FFFA00202564000059
:020000040020DA
:08000000FFFFFFFFFFFFFFFF00
:020000040030CA
:0E000000FF021F1EFF8381FF0FC00FE00F40A5
:00000001FF
