:0400000007EF00F016
:100008007E8209ED00F00FEF15F00600FACFC6F07A
:10001800FBCFC7F0E9CFC8F0EACFC9F0E1CFCAF00B
:10002800E2CFCBF0D9CFCCF0DACFCDF0F3CFCEF012
:10003800F4CFCFF0F6CFD0F0F7CFD1F0F8CFD2F0A1
:10004800F5CFD3F0F0B0C4D0E1D00001EE69EF698C
:10005800000EADD08984F288F088F28AD58E000E21
:10006800D76E000ED66E63EC13F09FC07BF09EC077
:100078007AF0000E776E000E766E76C0A5F077C027
:10008800A6F0010E6EEC16F00001EE69EF69020EA3
:100098008ED00001EE4BEF2B050E0001C36F1F0E33
:1000A8008118D8A4B1D0FBD77CC0C4F07DC0C5F0FE
:1000B8000001C41FC51FC44BC52B0001B15100016D
:1000C800C4250001B76F0001B2510001C52100012C
:1000D800B86F0001EE69EF69060E69D00001EE699C
:1000E800EF69040E64D08994F298F098F29AD59E3C
:1000F80063EC13F09FC079F09EC078F07BC063F08A
:10010800646A3CEC0BF063C074F064C075F074C0B2
:1001180001F075C002F0000E046E3C0E036EF4ECA4
:1001280015F001C0C4F002C0C5F07AC063F0646A7B
:100138003CEC0BF063500001C4257C6E6450000158
:10014800C5217D6E79C063F0646A3CEC0BF063C036
:1001580074F064C075F074C001F075C002F0000E50
:10016800046E3C0E036EF4EC15F001C0C4F002C03E
:10017800C5F078C063F0646A3CEC0BF06350000192
:10018800C4250001B16F64500001C5210001B26FA0
:10019800010E6EEC16F00001EE69EF69030E07D050
:1001A8008994F29ED59E010E6EEC16F0010E0001A8
:1001B800C36F2AD0000E106E000E0F6E17EC11F0F0
:1001C80023D0000E106E780E0F6E17EC11F01CD0B5
:1001D80081500F0AD8B43ED7100AD8B45AD7300A7B
:1001E800D8B462D7100AD8B479D7700AD8B47BD7F4
:1001F800300AD8B4DFD7C00AD8B4E3D7700AD8B465
:10020800CFD7200AD8B421D7F09047D2F2A20DD187
:1002180080A609D103EC0EF0000197BF34D0110E6F
:100228000001965D270E00019759D8A02CD0000137
:1002380099BF29D0110E0001985D270E0001995928
:10024800D8A021D000019BBF1ED0110E00019A5DDD
:10025800270E00019B59D8A016D000019DBF13D0CE
:10026800110E00019C5D270E00019D59D8A00BD0EE
:10027800D8907634D96E7734DA6E800ED926000E8F
:10028800DA22020EA4D0000197BF08D0B80E0001F0
:10029800965D0B0E00019759D8B02CD0000199BF7C
:1002A80008D04C0E0001985D040E00019959D8B091
:1002B80021D000019BBF08D04C0E00019A5D040EAE
:1002C80000019B59D8B016D000019DBF08D0B00ED0
:1002D80000019C5D040E00019D59D8B00BD0D89048
:1002E8007634D96E7734DA6E800ED926000EDA228B
:1002F800040E6DD0000197BF08D0500E0001965D26
:10030800140E00019759D8B02CD0000199BF08D01D
:10031800800E0001985D0C0E00019959D8B021D0CB
:1003280000019DBF08D0780E00019C5D050E0001FC
:100338009D59D8B016D000019DBF08D0140E0001F9
:100348009C5D050E00019D59D8B00BD0D89076342D
:10035800D96E7734DA6E800ED926000EDA22000EB6
:1003680036D0000197BF36D0110E0001965D270EDA
:1003780000019759D8A02ED0000199BF2BD0110E9B
:100388000001985D0E0E00019959D8A023D00001F4
:100398009BBF20D03D0E00019A5D0F0E00019B59B6
:1003A800D8A018D000019DBF15D0490E00019C5D52
:1003B8000D0E00019D59D8A00DD0D8907634D96E75
:1003C8007734DA6E800ED926000EDA22060EDE6E3B
:1003D800000EDD6E020E0001C56FE70E0001C46F4E
:1003E800000EE82EFED7C42FFCD7C52FFAD700F091
:1003F80003EC0EF0000197BF14D0E90E0001965DE2
:10040800030E00019759D8A00CD0D8907634D96E35
:100418007734DA6E800ED926000EDA22DE2A000E34
:10042800DD22764A772AF29238D1F0A2BDD080A890
:10043800B9D0D8900001A535D96E0001A635DA6E7D
:10044800800ED926000EDA22DECFB3F0DDCFB4F06D
:100458000001A54BA62B0001B94BBA2B80D0000E8A
:10046800106E000E0F6E17EC11F0000E106E000EDD
:100478000F6E63EC10F00001BF4BC02B93D0000E41
:10048800106E000E0F6E17EC11F0000E106E000EBD
:100498000F6E63EC10F00001BD4BBE2B83D0000E35
:1004A800106E000E0F6E17EC11F0000E106E780E25
:1004B8000F6E63EC10F00001C14BC22B73D0000E1D
:1004C800106E000E0F6E17EC11F0000E106E780E05
:1004D8000F6E63EC10F00001BB4BBC2B63D0000E19
:1004E800106E780E0F6E17EC11F0000E106E000EE5
:1004F8000F6EBDEC10F00001AD4BAE2B53D0000ECB
:10050800106E780E0F6E17EC11F0000E106E000EC4
:100518000F6EBDEC10F00001AB4BAC2B43D0000EBE
:10052800106E780E0F6E17EC11F0000E106E780E2C
:100538000F6EBDEC10F00001AF4BB02B33D0000EA6
:10054800106E780E0F6E17EC11F0000E106E780E0C
:100558000F6EBDEC10F00001A94BAA2B23D0B3C03D
:10056800C4F0B4C0C5F00001C551000AD8A41AD01F
:100578000001C451000AD8B472D7010AD8B47FD791
:10058800030AD8B48CD7010AD8B499D7070AD8B4C3
:10059800A6D7010AD8B4B3D7030AD8B4C0D7010A7A
:1005A800D8B4CDD7F09279D0F2A45DD08994D59EF5
:1005B80063EC13F09FC079F09EC078F07BC063F0C5
:1005C800646A3CEC0BF063C074F064C075F074C0EE
:1005D80001F075C002F0000E046E3C0E036EF4ECE0
:1005E80015F001C0C4F002C0C5F07AC063F0646AB7
:1005F8003CEC0BF063500001C4257C6E6450000194
:10060800C5217D6E79C063F0646A3CEC0BF063C071
:1006180074F064C075F074C001F075C002F0000E8B
:10062800046E3C0E036EF4EC15F001C0C4F002C079
:10063800C5F078C063F0646A3CEC0BF063500001CD
:10064800C4250001B16F64500001C5210001B26FDB
:10065800010E6EEC16F0030E0001C36F0001EE6987
:10066800EF69F2941AD0800E6EEC16F0DC0E0D6E67
:10067800FF0E0E6E49EC05F0000E736E630E736488
:1006880001D0F1D7210E0001C46F760EE82EFED7F7
:10069800C42FFCD700F0732AF1D7D3C0F5FFD2C01E
:1006A800F8FFD1C0F7FFD0C0F6FFCFC0F4FFCEC02F
:1006B800F3FFCDC0DAFFCCC0D9FFCBC0E2FFCAC080
:1006C800E1FFC9C0EAFFC8C0E9FFC7C0FBFFC6C059
:1006D800FAFF7E921100E20E0101016F000E010186
:1006E800026FC4D1250E01010919D8B405D0010142
:1006F800095158EC16F0BAD1000E0101086F000E2E
:10070800076F000E0101066F05D001010685000183
:10071800E04BE12BE0C0F6FFE1C0F7FF0800F55021
:10072800300AD8B4F2D7E0C0F6FFE1C0F7FF0800FE
:10073800F550CCEC15F0D8A044D0000E0101086F9C
:10074800000E076F07C1D4F008C1D5F0000E0001F4
:10075800D76F0A0ED66F80EC15F0D4C007F1D5C05C
:1007680008F1D00E0001E86FFF0E0001E96FE0C04C
:10077800F6FFE1C0F7FF0800F5500001EA6FEB6BE8
:100788000001E8510001EA270001E9510001EB23CB
:100798000001EA51010107270001EB51010108237B
:1007A8000001E04BE12BE0C0F6FFE1C0F7FF0800D5
:1007B800F550CCEC15F0D8A004D0C4D70101068FB1
:1007C80019D0E0C0F6FFE1C0F7FF0001E04BE12BD4
:1007D8000800F5CF09F101010951000AD8B4120047
:1007E800640AD8B407D00D0AD8B404D0110AD8B412
:1007F800E5D73CD1010106BF19D001C1D9FF02C11B
:10080800DAFFDECF04F1DDCF05F1020E0101012789
:10081800000E0223010105AF53D0030E0101061398
:100828000101046D051FD8B0052B4AD001C1D9FFBD
:1008380002C1DAFFDECF04F1DDCF05F1020E0101BE
:100848000127000E02233CD0010E0101096F050E9D
:1008580001010919D8B43DD001010951020DDC0E7E
:10086800F324F66EFD0EF420F76E0900F550010131
:10087800045D0900F55001010559D8A02AD00101ED
:10088800092BE5D7010E0101096F040E01010919B1
:10089800D8B41FD001010951020DE60EF324F66EFB
:1008A800FD0EF420F76E0900F5500101045D090002
:1008B800F55001010559D8A00CD00101092BE5D745
:1008C80001010651800B000AD8B4BED7800AD8B4FB
:1008D800D9D70101075101010811D8B40BD006C1BD
:1008E800E8F0030E0001E817D8B404D001010707A7
:1008F800D8A00807800E010109BF7F0E0001E86F2C
:10090800010107510101095D01010851800A000137
:10091800E859D8B00BD0010109510101075F000E59
:10092800010109BFFF0E0101085B05D0000E01019E
:10093800086F000E076F010106A518D006C1E8F080
:10094800030E0001E817D8B403D02D0E58EC16F0AA
:100958000101075101010811D8B425D0300E58EC17
:1009680016F001010707D8A00807F2D701010751BF
:1009780001010811D8B40DD0200E58EC16F0010171
:100988000707D8A008070101075101010811D8A4D9
:10099800F3D706C1E8F0030E0001E817D8B403D076
:1009A8002D0E58EC16F009C103F15AD0010103517C
:1009B800020DDC0EF324F66EFD0EF420F76E09002E
:1009C800F5CFD6F00A00F5CFD7F004C1D4F005C1B1
:1009D800D5F0EBEC12F0D4C0DBF0D5C0DCF0000EA3
:1009E8000001DE6F0A0EDD6F97EC13F00001DB519A
:1009F800300F0101096F30D004C1D4F005C1D5F022
:100A080001010351020DE60EF324F66EFD0EF420EB
:100A1800F76E0900F5CFD6F00A00F5CFD7F0EBEC6A
:100A280012F00001D4510F0B0101006F01010051B8
:100A3800010D790EF324F66EFF0EF420F76E080010
:100A4800F5CF09F109D001010651800B000AD8B48D
:100A5800ADD7800AD8B4D0D70101095158EC16F0A7
:100A68000101030701010329D8A4EDD7E0C0F6FF6F
:100A7800E1C0F7FF0001E04BE12B0800F5CF09F1D9
:100A880001010951D8B412002DD60F0E146E000EB4
:100A9800156E74D1250E1C18D8B404D01C5068ECFF
:100AA80016F06CD1000E1B6E000E1A6E000E196E39
:100AB80003D019840D4A0E2A0DC0F6FF0EC0F7FFA9
:100AC8000800F550300AD8B4F4D70DC0F6FF0EC0B0
:100AD800F7FF0800F5502AEC16F0D8A035D0000E24
:100AE8001B6E000E1A6E1AC001F01BC002F0000E39
:100AF800046E0A0E036EF4EC15F001C01AF002C081
:100B08001BF0D00E0F6EFF0E106E0DC0F6FF0EC05C
:100B1800F7FF0800F550116E126A0F501126105099
:100B2800122211501A2612501B220D4A0E2A0DC0ED
:100B3800F6FF0EC0F7FF0800F5502AEC16F0D8A013
:100B480003D0D1D7198E17D00DC0F6FF0EC0F7FF0E
:100B58000D4A0E2A0800F5CF1CF01C50000AD8B424
:100B68001200640AD8B407D00D0AD8B404D0110A08
:100B7800D8B4E8D703D119BE15D014C0D9FF15C011
:100B8800DAFFDECF17F0DDCF18F0020E1426000EC4
:100B9800152218AE44D0030E1912176C181ED8B0BF
:100BA800182A3DD014C0D9FF15C0DAFFDECF17F0E0
:100BB800DDCF18F0020E1426000E152230D0010EDB
:100BC8001C6E050E1C18D8B432D01C50020DDC0E59
:100BD800F324F66EFD0EF420F76E0900F550175C4D
:100BE8000900F5501858D8A022D01C2AEAD7010EBF
:100BF8001C6E040E1C18D8B41AD01C50020DE60E38
:100C0800F324F66EFD0EF420F76E0900F550175C1C
:100C18000900F5501858D8A00AD01C2AEAD719504C
:100C2800800B000AD8B4CBD7800AD8B4E0D71A50C2
:100C38001B10D8B409D019C00FF0030E0F16D8B482
:100C480003D01A06D8A01B06800E1CBE7F0E0F6E9E
:100C58001A501C5C1B50800A0F58D8B007D01C5083
:100C68001A5E000E1CBEFF0E1B5A04D0000E1B6E2F
:100C7800000E1A6E19A414D019C00FF0030E0F1627
:100C8800D8B403D02D0E68EC16F01A501B10D8B447
:100C98001ED0300E68EC16F01A06D8A01B06F5D741
:100CA8001A501B10D8B40AD0200E68EC16F01A0699
:100CB800D8A01B061A501B10D8A4F6D719C00FF0DD
:100CC800030E0F16D8B403D02D0E68EC16F01CC016
:100CD80016F050D01650020DDC0EF324F66EFD0E01
:100CE800F420F76E0900F5CF03F00A00F5CF04F001
:100CF80017C001F018C002F056EC14F001C008F05B
:100D080002C009F0000E0B6E0A0E0A6ECEEC14F04B
:100D18000850300F1C6E2BD017C001F018C002F01D
:100D28001650020DE60EF324F66EFD0EF420F76E53
:100D38000900F5CF03F00A00F5CF04F056EC14F0E3
:100D480001500F0B136E1350010D790EF324F66E3C
:100D5800FF0EF420F76E0800F5CF1CF008D01950EC
:100D6800800B000AD8B4B6D7800AD8B4D5D71C509F
:100D780068EC16F016061628D8A4F1D70DC0F6FFB1
:100D88000EC0F7FF0D4A0E2A0800F5CF1CF01C50C4
:100D9800D8B412007FD649504A104B10D8A407D0B7
:100DA800000E496E800E4A6E3F0E4B6E1200720E98
:100DB800016E310E026E440E036E49C004F04AC043
:100DC80005F04BC006F061EC12F0D8B00CD0000E64
:100DD8000001A86F220EA76FFF0E496E7F0E4A6EA4
:100DE8007F0E4B6E120049C001F04AC002F04BC0A2
:100DF80003F0490E046E3A0E056EC40E066E61ECE1
:100E080012F0D8B00CD0000E0001A86F220EA76F08
:100E1800000E496E000E4A6E000E4B6E12004BAE6D
:100E280002D0010E01D0000E516E5150D8B40ED030
:100E380049C001F04AC002F04BC003F007EC16F0BD
:100E480001C049F002C04AF003C04BF049C00DF0A0
:100E58004AC00EF04BC00FF0AA0E106EB80E116EFD
:100E68003F0E126E34EC0CF00DC049F00EC04AF083
:100E78000FC04BF049C041F04AC042F04BC043F0AC
:100E880094EC0DF041C04CF042C04DF043C04EF020
:100E98004CC028F04DC029F04EC02AF0BAEC0BF037
:100EA80028C04FF029C050F049C028F04AC029F0A6
:100EB8004BC02AF04FC009F050C00AF02EEC15F0D4
:100EC80009C02BF00AC02CF00BC02DF0EFEC14F089
:100ED80028C049F029C04AF02AC04BF049C028F080
:100EE8004AC029F04BC02AF0F50E2B6EFD0E2C6E71
:100EF800000E2E6E090E2D6ED9EC0EF028C034F0BF
:100F080029C035F02AC036F04FC037F050C038F04D
:100F180042EC0FF034C049F035C04AF036C04BF00F
:100F28005150D8B425D049280EE17F0E4A180BE15C
:100F38007F0E4B18D8A407D0000E496E000E4A6EDB
:100F4800000E4B6E1200000E096E800E0A6E3F0EE8
:100F58000B6E49C00CF04AC00DF04BC00EF021ECEE
:100F68000DF009C049F00AC04AF00BC04BF012005E
:100F780049C049F04AC04AF04BC04BF012001EC0AD
:100F880022F0236A246A1D34223601E3238022508A
:100F9800276E21C022F0236A246A2034223601E316
:100FA80023802250266E2750D8B40BD02650275CB9
:100FB800D8B00ED0275000082624226E180E2264BE
:100FC80007D01FC01CF020C01DF021C01EF0120069
:100FD8002650D8B40BD02750265CD8B00ED0265057
:100FE80000082724226E180E226407D01CC01CF0AB
:100FF8001DC01DF01EC01EF01200060E256E1EBE7E
:10100800258E21BE258C1D8EFF0E1C16FF0E1D166B
:10101800000E1E16208EFF0E1F16FF0E2016000E45
:1010280021162650275CD8B01BD0D8901F36203602
:101038002136260627502618D8B40DD0250625C0F7
:1010480022F0070E2216D8B406D0EFD7D8901E3259
:101058001D321C32272A26502718D8B41FD0F6D79D
:101068002750265CD8B01AD0D8901C361D361E36AC
:10107800270627502618D8B40DD0250625C022F0FB
:10108800070E2216D8B406D0EFD7D89021322032D6
:101098001F32262A26502718D8A4F7D725AE0CD0F9
:1010A800FF0E1C1AFF0E1D1AFF0E1E1A010E1C261B
:1010B800000E1D22000E1E2225AC0CD0FF0E1F1A9A
:1010C800FF0E201AFF0E211A010E1F26000E2022E5
:1010D800000E2122000E256E1C501F261D502022B6
:1010E8001E50212221AE0ED0FF0E1F1AFF0E201A0D
:1010F800FF0E211A010E1F26000E2022000E2122AB
:10110800010E256E1FC001F020C002F021C003F0BF
:1011180027C004F025C005F071EC11F001C01CF0E7
:1011280002C01DF003C01EF01200A7D0800E60ECB4
:1011380016F0AC0E0001E06FFF0E0001E16F6FECDE
:1011480003F0C00E60EC16F09B0E0001E06FFF0E7E
:101158000001E16FB9C0E2F0BAC0E3F06FEC03F050
:101168001200800E60EC16F0E90E0001E06FFE0E32
:101178000001E16FBFC0E2F0C0C0E3F06FEC03F024
:10118800C00E60EC16F00D0E0001E06FFF0E0001BE
:10119800E16FBDC0E2F0BEC0E3F06FEC03F01200F7
:1011A800800E60EC16F0FB0E0001E06FFE0E0001F1
:1011B800E16FC1C0E2F0C2C0E3F06FEC03F0C00E13
:1011C80060EC16F01F0E0001E06FFF0E0001E16FEA
:1011D800BBC0E2F0BCC0E3F06FEC03F01200800E7D
:1011E80060EC16F0310E0001E06FFF0E0001E16FB8
:1011F800ADC0E2F0AEC0E3F06FEC03F0C00E60ECFF
:1012080016F0550E0001E06FFF0E0001E16FABC054
:10121800E2F0ACC0E3F06FEC03F01200800E60EC7B
:1012280016F0430E0001E06FFF0E0001E16FAFC042
:10123800E2F0B0C0E3F06FEC03F0C00E60EC16F023
:10124800670E0001E06FFF0E0001E16FA9C0E2F038
:10125800AAC0E3F06FEC03F01200800E60EC16F009
:10126800F40E0001E06FFF0E0001E16FEEC0E2F046
:10127800EFC0E3F06FEC03F0F0D7EEC0D4F0EFC0AE
:10128800D5F0000E0001D76F050ED66FC8EC11F02F
:101298000001D551000AD8A4E0D70001D451000AB2
:1012A800D8B444D7010AD8B45CD7030AD8B478D7DD
:1012B800010AD8B494D7070AD8B4B0D7CED7000E4D
:1012C8005E6E525053105410D8A41CD0000E016EFC
:1012D800000E026E000E036E55C004F056C005F0F5
:1012E80057C006F061EC12F0D8A005D0000E00013E
:1012F800A86F210EA76F000E526E000E536E000EDF
:10130800546E1200555056105710D8A407D0000E2E
:10131800526E800E536E3F0E546E120054AE41D082
:1013280055C028F056C029F057C02AF0BAEC0BF087
:1013380028C05FF029C060F02AC061F02BC062F0BD
:101348005FC009F060C00AF061C00BF062C00CF029
:1013580028EC14F05550091807E156500A1804E112
:1013680057500B18D8B40CD0000E0001A86F210EEE
:10137800A76F000E526E000E536E000E546E1200D0
:101388005F50010B5E6E52C001F053C002F054C0B2
:1013980003F007EC16F001C052F002C053F003C08E
:1013A80054F052C034F053C035F054C036F0ADECB0
:1013B8000AF034C058F035C059F036C05AF058C059
:1013C8000DF059C00EF05AC00FF055C010F056C0BD
:1013D80011F057C012F034EC0CF00DC05BF00EC0E9
:1013E8005CF00FC05DF05BC049F05CC04AF05DC0C6
:1013F8004BF0CFEC06F049C052F04AC053F04BC056
:1014080054F05E50D8B40FD052C001F053C002F06F
:1014180054C003F007EC16F001C052F002C053F0BC
:1014280003C054F0120052C052F053C053F054C0DD
:1014380054F0120082EC16F0000E0001D66F520E26
:10144800D56F74EC16F0000E0001D66FB40ED56F90
:1014580074EC16F082EC16F0000E0001D66F530EF5
:10146800D56F74EC16F0000E0001E06F000EDF6F10
:101478000001E0BF08D00001E0513EE1030E000189
:10148800DF5DD8B039D0010EB5EC15F00001D76F8B
:101498000001D7510001D96FDA6B010EB5EC15F0D8
:1014A8000001D76F0001D7510001DB6FDC6B000131
:1014B800D951DBC0D7F0DCC0D8F0D7C0D8F00001D4
:1014C800D76B0001D7110001DD6F0001D851000171
:1014D800DE6FD8900001DF35D96E0001E035DA6E95
:1014E800960ED926000EDA22DDC0DEFFDEC0DDFF53
:1014F8000001DF4BE02BBCD7010EB5EC15F0000165
:10150800D76F0001D7510001D96FDA6B000EB5EC27
:1015180015F00001D76F0001D7510001DB6FDC6BBC
:101528000001D951DBC0D7F0DCC0D8F0D7C0D8F063
:101538000001D76B0001D7110001DD6F0001D85100
:101548000001DE6FDDC09CF0DEC09DF07EEC16F081
:10155800120036AE0CD0000E0001A86F210EA76F46
:10156800000E346E000E356E000E366E12003450CA
:1015780035103610D8A40CD0000E0001A86F220E2A
:10158800A76F000E346E000E356E000E366E120018
:10159800000E106E000E116E400E126E370E046EA5
:1015A800000E056E34C001F035C002F036C003F0FD
:1015B80019EC12F001C00DF002C00EF003C00FF0DC
:1015C80034EC0CF00DC01CF00EC01DF00FC01EF066
:1015D800000E1F6E800E206EBF0E216EC3EC07F04A
:1015E8001CC034F01DC035F01EC036F03706D8A038
:1015F800380634C028F035C029F036C02AF0130E5A
:101608002B6EFE0E2C6E000E2E6E080E2D6ED9EC73
:101618000EF028C034F029C035F02AC036F0720E1A
:10162800106E310E116E3F0E126E37C009F038C0C1
:101638000AF02EEC15F009C00DF00AC00EF00BC030
:101648000FF034EC0CF00DC01CF00EC01DF00FC0F4
:101658001EF034C01FF035C020F036C021F0C3ECB6
:1016680007F01CC034F01DC035F01EC036F0120063
:10167800000E6E6E000E6D6E63C071F064C072F085
:10168800000E706E000E6F6E68D00F0E71146B6EC8
:101698006C6A6DC009F06EC00AF02EEC15F009C036
:1016A80065F00AC066F00BC067F065C055F066C00B
:1016B80056F067C057F0000E526E200E536E410E62
:1016C800546E63EC09F052C068F053C069F054C01E
:1016D8006AF068C010F069C011F06AC012F06BC0FF
:1016E80009F06CC00AF02EEC15F009C00DF00AC024
:1016F8000EF00BC00FF034EC0CF00DC01FF00EC054
:1017080020F00FC021F06FC009F070C00AF02EEC75
:1017180015F009C01CF00AC01DF00BC01EF0C3EC88
:1017280007F01CC028F01DC029F01EC02AF0BAEC32
:101738000BF028C06FF029C070F071C007F072C0BC
:1017480008F0000E0A6E100E096EA9EC12F007C020
:1017580071F008C072F06D4A6E2A71507210D8A4E8
:1017680094D76FC063F070C064F012002AC02CF0E8
:101778002D6A2E6A29342C3601E32D802C50366EC2
:101788003650D8A409D0000E286E000E296E000E1F
:101798002A6E000E2B6E1200170E2C6E28C02DF02C
:1017A80029C02EF02AC02FF02C28306E04D0D890F3
:1017B8002F322E322D32302EFAD72D50316E298EFF
:1017C800FF0E2816FF0E2916000E2A162850326E14
:1017D8002950336E2A50346E356A8E0E365E36AE18
:1017E80016D03650800A8F0FD8B009D0000E286E58
:1017F800000E296E000E2A6E000E2B6E1200D89075
:101808003532343233323232363EF9D715D0170EEC
:1018180036640FD0000E286E000E296E000E2A6E58
:10182800000E2B6E1200D8903236333634363536E9
:1018380036063650D8A4F7D73150D8B408D0351E5C
:10184800341E331E326C000E33223422352232C04D
:1018580028F033C029F034C02AF035C02BF012002C
:101868000FC013F0146A156A0E34133601E314809E
:101878001350166E1650D8A407D0000E0D6E000E29
:101888000E6E000E0F6E120012C013F0146A156A65
:101898001134133601E3148013501B6E1B50D8A467
:1018A80007D0000E0D6E000E0E6E000E0F6E1200A9
:1018B8001B507B0F16260FC01BF012501B1A800EF0
:1018C8001B160E8E118EFF0E1016FF0E1116000E2F
:1018D8001216000E176E000E186E000E196E070E07
:1018E8001A6E0DA006D0105017261150182212504B
:1018F8001922D8900F320E320D32D8901036113688
:1019080012361A2EEED7090E1A6E0DA006D01050F8
:1019180017261150182212501922D8900F320E3261
:101928000D32D8901932183217321A2EEED717C046
:1019380001F018C002F019C003F016C004F01BC073
:1019480005F071EC11F001C00DF002C00EF003C0FB
:101958000FF01200FB0E926E9368000E946E000E4C
:10196800956E000E966E000E896E000E8A6E000E41
:101978008B6E000E8C6E000E8D6E000EC26EC168EE
:10198800F28EF086F298F098F19E7FEC14F0100E2B
:101998000001E16F270EE26F000EE36F000EE46FA7
:1019A800F8EC13F09BEC15F0000ED76E000ED66E17
:1019B800D59CD59AD596D584D582D580000E0001C0
:1019C800C36F15D04AEC15F029D019EC16F026D0C3
:1019D800A5EC0FF023D039EC16F020D070EC0EF007
:1019E8001DD099EC08F01AD065EC15F017D000015D
:1019F800C351000AD8B4E6D7010AD8B4E6D7030A17
:101A0800D8B4E6D7010AD8B4E6D7070AD8B4E6D7D7
:101A1800010AD8B4E6D7030AD8B4E6D7030E010101
:101A28000B6F8A0E01010A6F550EE82EFED70A2F9A
:101A3800FCD70B2FFAD700D0DAD70BC00FF0106AFB
:101A4800116A0A340F3601E310800F50166E1650D3
:101A5800D8A407D0000E096E000E0A6E000E0B6E99
:101A680012000EC00FF0106A116A0D340F3601E330
:101A780010800F50176E1750D8A407D0000E096EAB
:101A8800000E0A6E000E0B6E1200000E136E000E92
:101A9800146E000E156E1750890F165E0BC017F0E6
:101AA8000E50171A800E17160A8EFF0E0916FF0E13
:101AB8000A16000E0B160D8EFF0E0C16FF0E0D16D5
:101AC800000E0E16180E126ED890133614361536F0
:101AD8000C50095C0D500A580E500B58D8A007D06E
:101AE8000C50095E0D500A5A0E500B5A1380D890AC
:101AF80009360A360B36122EE7D713C001F014C088
:101B080002F015C003F016C004F017C005F071EC20
:101B180011F001C009F002C00AF003C00BF0120076
:101B280041C001F042C002F043C003F0470E046E0A
:101B3800000E056E19EC12F048AE10D043AE07D077
:101B4800000E416E800E426EBF0E436E1200000EF4
:101B5800416E000E426E000E436E1200485004E1C2
:101B6800150E475CD8A007D041C041F042C042F0F2
:101B780043C043F0120041C028F042C029F043C0DE
:101B88002AF0BAEC0BF028C037F029C038F02AC088
:101B980039F02BC03AF027EC13F037C044F038C0C6
:101BA80045F039C046F041C001F042C002F043C0E0
:101BB80003F044C004F045C005F046C006F061ECEF
:101BC80012F0D8B015D044C01CF045C01DF046C076
:101BD8001EF0000E1F6E800E206EBF0E216EC3EC2D
:101BE80007F01CC041F01DC042F01EC043F01200B7
:101BF80044C041F045C042F046C043F012008AECB0
:101C080016F0000E036E520E026E79EC16F0000EFE
:101C1800036EB40E026E79EC16F08AEC16F0000E24
:101C2800036E530E026E79EC16F0000E0D6E000E68
:101C38000C6E0DBE06D00D502EE1030E0C5CD8B014
:101C48002AD0010EE1EC15F0046E0450066E076A06
:101C5800010EE1EC15F0046E0450086E096A065096
:101C680008C004F009C005F004C005F0046A0410B7
:101C78000A6E05500B6ED8900C34D96E0D34DA6E9E
:101C8800960ED926000EDA220AC0DEFF0BC0DDFF51
:101C98000C4A0D2ACED7010EE1EC15F0046E045063
:101CA800066E076A000EE1EC15F0046E0450086E2B
:101CB800096A065008C004F009C005F004C005F020
:101CC800046A04100A6E05500B6E0AC09CF00BC023
:101CD8009DF086EC16F0120082EC16F0000E000162
:101CE800D66FD00ED56F74EC16F0000E0001D66FCB
:101CF800000ED56F74EC16F07EEC16F082EC16F040
:101D0800000E0001D66FD10ED56F74EC16F0000EE0
:101D18000001EC6F050E0001EC6501D010D0000148
:101D2800EC51010D9E0EF324D96E000EF420DA6EEC
:101D3800010EB5EC15F0DF6E0001EC2BEBD7000EB1
:101D4800B5EC15F00001A46F7EEC16F0800E60EC87
:101D580016F0A90E0001E06FFE0E0001E16FA3C0AE
:101D6800E2F00001E36BA2C0E4F00001E56BA4C05F
:101D7800E6F00001E76B6FEC03F0C00E60EC16F0C4
:101D8800C00E0001E06FFE0E0001E16FA0C0E2F09E
:101D98000001E36B9FC0E4F00001E56B9EC0E6F034
:101DA8000001E76B6FEC03F012002DC001F02EC0AC
:101DB80002F0000E046E030E036EF4EC15F02BC057
:101DC8002FF02CC030F001502F26025030222FC0A7
:101DD800F6FF30C0F7FF0900F5CF31F00900F5CF65
:101DE80032F00A00F5CF33F03ED031C010F032C0E7
:101DF80011F033C012F028C00DF029C00EF02AC02F
:101E08000FF034EC0CF00DC01CF00EC01DF00FC02C
:101E18001EF0000E046E030E036E2D06D8A02E06CB
:101E28002DC001F02EC002F0F4EC15F02BC02FF0FD
:101E38002CC030F001502F26025030222FC0F6FF60
:101E480030C0F7FF0900F5CF1FF00900F5CF20F0EB
:101E58000A00F5CF21F0C3EC07F01CC031F01DC01B
:101E680032F01EC033F02D502E10D8A4BED731C08A
:101E780028F032C029F033C02AF01200345035104F
:101E88003610D8A407D0000E346E000E356E000E42
:101E9800366E120036507F0B396E3A6AD890393652
:101EA8003A36395037263A50382235AE03D0396A97
:101EB800392A01D0396A39503726000E382238AE0F
:101EC8000CD0000E0001A86F220EA76F000E346E12
:101ED800000E356E000E366E120038BE16D038046D
:101EE800D8A013D0000E0001A86F220EA76F36AE3F
:101EF80006D0FF0E346E7F0E356EFF0EECD7FF0E48
:101F0800346E7F0E356E7F0EE6D7383438303A6E31
:101F18003730396E36503918800B3918366E37C05D
:101F280039F0010E391639323932355039187F0BEC
:101F38003918356E34C034F035C035F036C036F057
:101F4800120031D0800E60EC16F07B0E0001E06FBD
:101F5800FE0E0001E16F6FEC03F0000E0001B66F9A
:101F6800010E1FD0800E60EC16F0630E0001E06FCA
:101F7800FE0E0001E16F6FEC03F0000E0001B66F7A
:101F8800020E0FD0800E60EC16F04A0E0001E06FD2
:101F9800FE0E0001E16F6FEC03F0000E0001B66F5A
:101FA800000EB56F14D0B5C0ECF0B6C0EDF000016E
:101FB800ED51000AD8A40BD00001EC51000AD8B4A6
:101FC800C1D7010AD8B4CED7030AD8B4DBD7C00E1C
:101FD80060EC16F01EEC0AF02E0E0001E06FFE0E0B
:101FE8000001E16F98C0E2F099C0E3F09AC0E4F014
:101FF8009BC0E5F09CC0E6F09DC0E7F06FEC03F0F5
:102008001200000E0001DC6F000EDD6F000EDE6FA7
:10201800000EDF6F0001D8510001D9110001DA115B
:102028000001DB11D8B442D0010E0001E06F08D0E6
:102038000001D890D837D937DA37DB370001E02BE1
:102048000001DBAFF5D70001D890DC37DD37DE378C
:10205800DF370001D8510001D45D0001D9510001DA
:10206800D5590001DA510001D6590001DB510001B0
:10207800D759D8A012D00001D8510001D45F00016F
:10208800D9510001D55B0001DA510001D65B00018E
:10209800DB510001D75B0001DC810001D890DB3304
:1020A800DA33D933D8330001E02FCDD7DCC0D4F0F0
:1020B800DDC0D5F0DEC0D6F0DFC0D7F012005A0E72
:1020C8000F24016E000E1020026E000E046E050E25
:1020D800036EF4EC15F001C007F002C008F0000E22
:1020E8000A6E5A0E096EA9EC12F00A0E0724136E36
:1020F800000E0820146E000E166E000E156E165097
:1021080037E1320E155CD8B012008B84000E186EC1
:10211800000E176E06D0530EE82EFED700F0174AB1
:10212800182A1350175C14501858D8A0F4D78B9459
:10213800000E186E000E176E06D0530EE82EFED74E
:1021480000F0174A182A13C011F014C012F0111E1B
:10215800121E114A122AC80E1126000E1222115000
:10216800175C12501858D8A0E8D7154A162AC7D7AE
:1021780012005A0E0F24016E000E1020026E000E7F
:10218800046E050E036EF4EC15F001C007F002C0F2
:1021980008F0000E0A6E5A0E096EA9EC12F00A0E2B
:1021A8000724136E000E0820146E000E166E000E23
:1021B800156E165037E1320E155CD8B012008B82BE
:1021C800000E186E000E176E06D0530EE82EFED7BE
:1021D80000F0174A182A1350175C14501858D8A042
:1021E800F4D78B92000E186E000E176E06D0530EA1
:1021F800E82EFED700F0174A182A13C011F014C0B1
:1022080012F0111E121E114A122AC80E1126000EB3
:1022180012221150175C12501858D8A0E8D7154A46
:10222800162AC7D712005A0E0F24016E000E10206E
:10223800026E000E046E050E036EF4EC15F001C07C
:1022480007F002C008F0000E0A6E5A0E096EA9ECDB
:1022580012F00A0E0724136E000E0820146E000EEA
:10226800166E000E156E165037E1320E155CD8B09A
:1022780012008B80000E186E000E176E06D0530EDB
:10228800E82EFED700F0174A182A1350175C14508E
:102298001858D8A0F4D78B90000E186E000E176E41
:1022A80006D0530EE82EFED700F0174A182A13C09E
:1022B80011F014C012F0111E121E114A122AC80E73
:1022C8001126000E12221150175C12501858D8A06F
:1022D800E8D7154A162AC7D712000450D8B405D033
:1022E800015002100310D8A40CD0000E016E000E8D
:1022F800026E000E036E1200042AD89003320232D6
:102308000132000E0114066E000E0214076EFE0E56
:102318000314086E065007100810D8B40CD0ECD778
:10232800042A010E0126000E0222000E0322D89074
:10233800033202320132000E0114066E000E02143E
:10234800076EFF0E0314086E065007100810D8B465
:1023580006D0E6D70406D89001360236033602BE08
:1023680003D0020E0460F6D704A0029ED89004326F
:10237800045003120550D8A4038E01C001F002C016
:1023880002F003C003F01200000E0001D96F000133
:10239800D5AF08D00001D46DD51FD8B0D52B010E0C
:1023A8000001D96F0001D7AF05D00001D66DD71F46
:1023B800D8B0D72B0001D6510001D711D8B426D0F8
:1023C800010E0001D86F06D00001D890D637D73754
:1023D8000001D82B0001D7AFF7D70001D651000173
:1023E800D45D0001D7510001D559D8A008D000010B
:1023F800D6510001D45F0001D7510001D55B00011F
:10240800D890D733D6330001D82FE7D70001D95158
:102418000001D8B405D00001D46DD51FD8B0D52B94
:10242800D4C0D4F0D5C0D5F012000150021003106A
:10243800D8A40FD004C0D9FF05C0DAFF000EDE6EA5
:10244800000EDD6E000E016E000E026E000E036EB1
:10245800120003507F0B066E076AD89006360736BF
:1024680004C0D9FF05C0DAFF06C0DEFF07C0DDFFE4
:1024780002AE03D0066A062A01D0066A065004C0D6
:10248800D9FF05C0DAFFDE12000EDD1204C0D9FF45
:1024980005C0DAFF820EDE26FF0EDD2203800382EE
:1024A800038403860388038A039C029E01C001F00B
:1024B80002C002F003C003F0120003AE16D001C040
:1024C80007F002C008F003C009F0071E081E091E25
:1024D800072A000E08220922000E0724016E000EAA
:1024E8000820026E800E0920036E06AE16D004C0C6
:1024F80007F005C008F006C009F0071E081E091EEF
:10250800072A000E08220922000E0724046E000E76
:102518000820056E800E0920066E000E011A000EB6
:10252800021A800E031A000E041A000E051A800EF5
:10253800061A0450015C0550025806500358D8B0DA
:1025480002D0D8901200D8801200000E0C6E0AAE8D
:1025580006D0096C0A1ED8B00A2A010E0C6E08AE05
:1025680006D0076C081ED8B0082A010E0C1A000EF7
:102578000E6E000E0D6E09500A10D8B41CD0010E54
:102588000B6E04D0D89009360A360B2A0AAEFAD751
:10259800D8900D360E360950075C0A500858D8A056
:1025A80005D00950075E0A50085A0D80D8900A32A3
:1025B80009320B2EEDD70C50D8B404D00D6C0E1E7A
:1025C800D8B00E2A0DC007F00EC008F01200000E99
:1025D8000001DA6F000ED96F0001D6510001D71142
:1025E800D8B42CD0010E0001D86F06D00001D890C5
:1025F800D637D7370001D82B0001D7AFF7D700015E
:10260800D890D937DA370001D6510001D45D0001DE
:10261800D7510001D559D8A00AD00001D6510001E0
:10262800D45F0001D7510001D55B0001D9810001B9
:10263800D890D733D6330001D82FE1D7D9C0D4F0FA
:10264800DAC0D5F01200000E406E8E0E3F6E3AAE24
:1026580011D03A1E391E381E376C000E3822392226
:102668003A22010E406E06D0D8903A3239323832CA
:1026780037323F2A000E37143B6E000E38143C6E7A
:10268800000E39143D6EFF0E3A143E6E3B503C105E
:102698003D103E10D8A4E8D737C001F038C002F08A
:1026A80039C003F03FC004F040C005F071EC11F0F0
:1026B80001C037F002C038F003C039F012008AECCC
:1026C80016F0000E036ED00E026E79EC16F0000EB6
:1026D800036E000E026E79EC16F086EC16F08AECAA
:1026E80016F0000E036ED10E026E79EC16F0000E95
:1026F800046E050E046401D00ED00450010D9E0E28
:10270800F324D96E000EF420DA6E010EE1EC15F018
:10271800DF6E042AEED7000EE1EC15F00001A46F7D
:1027280086EC16F012000001DD510001DE11D8B46C
:1027380026D0010E0001DF6F06D00001D890DD37EA
:10274800DE370001DF2B0001DEAFF7D70001DD51D6
:102758000001DB5D0001DE510001DC59D8A008D082
:102768000001DD510001DB5F0001DE510001DC5B8F
:102778000001D890DE33DD330001DF2FE7D7DBC05F
:10278800DBF0DCC0DCF012000001D56F0001D55190
:10279800F00B0001D46F8C500F0B8C6E0001D451DC
:1027A8008C108C6E8C96190EE82EFED78C86190E1E
:1027B800E82EFED70001D539F00B0001D56F0001D6
:1027C800D551F00B0001D46F8C500F0B8C6E0001AB
:1027D800D4518C108C6E8C96190EE82EFED78C86F0
:1027E800190EE82EFED71200000EC76E280EC66E10
:1027F800000EC56E800E0001D46F960ED56F980E30
:10280800D66F000ED76FE1C0E5F0E2C0E6F0E3C096
:10281800E7F0E4C0E8F0020ED8900001E537E637AB
:10282800E737E837E82EF8D7E5C0D8F0E6C0D9F0A2
:10283800E7C0DAF0E8C0DBF005EC10F00001D405E1
:10284800C86E9486948812008E0E116E06D0D890A9
:102858000C320B320A320932112A000E09140D6E9D
:10286800000E0A140E6E000E0B140F6EFF0E0C14E1
:10287800106E0D500E100F101010D8A4E8D709C014
:1028880001F00AC002F00BC003F011C004F0000E02
:10289800056E71EC11F001C009F002C00AF003C026
:1028A8000BF01200000E066E000E056E03500410A9
:1028B800D8B41CD0010E076E04D0D8900336043665
:1028C800072A04AEFAD7D890053606360350015CBD
:1028D80004500258D8A005D00350015E0450025A93
:1028E8000580D89004320332072EEDD705C001F0D9
:1028F80006C002F01200310E0001D76FB20EE82EAA
:10290800FED7D72FFCD700F0330E60EC16F0330E4D
:1029180060EC16F0320E60EC16F0280E60EC16F043
:102928000F0E60EC16F0060E60EC16F0010E60EC6F
:1029380016F0310E0001D76FB20EE82EFED7D72F52
:10294800FCD700F01200026E0250F00B016E8C50A2
:102958000F0B8C6E01508C108C6E8C96190EE82E15
:10296800FED78C86190EE82EFED70238F00B026EC1
:102978000250F00B016E8C500F0B8C6E01508C10B6
:102988008C6E8C96190EE82EFED78C86190EE82EC2
:10299800FED712000A500B10D8B418D0010E0C6ED6
:1029A80004D0D8900A360B360C2A0BAEFAD70A5048
:1029B800085C0B500958D8A004D00A50085E0B5088
:1029C800095AD8900B320A320C2EF1D708C008F0F9
:1029D80009C009F012002B502C102D10D8B406D0C5
:1029E800000E2B1A000E2C1A800E2D1A28C01CF06F
:1029F80029C01DF02AC01EF02BC01FF02CC020F0EB
:102A08002DC021F0C3EC07F01CC028F01DC029F030
:102A18001EC02AF012001C0EF66E2D0EF76E000E68
:102A2800F86E0900F5CFEEF00900F5CFEFF000EEF3
:102A380080F0440EEE6AE806FDE100EE76F0080E3E
:102A4800EE6AE806FDE17E907E92000EF86E0001C7
:102A5800AEEF0CF0000E0C6E0AAE06D0096C0A1E22
:102A6800D8B00A2A010E0C6E09C001F00AC002F0A3
:102A7800036A8E0E046E0CC005F071EC11F001C0F3
:102A880009F002C00AF003C00BF01200800E60ECDF
:102A980016F08A0E0001E06FFF0E0001E16F6FEC87
:102AA80003F0C00E60EC16F0EA0E0001E06FFF0EB6
:102AB8000001E16F81CFE2F00001E36B6FEC03F0FE
:102AC8001200800E60EC16F0920E0001E06FFE0E10
:102AD8000001E16F6FEC03F0C00E60EC16F0D70E4A
:102AE8000001E06FFE0E0001E16FB7C0E2F0B8C070
:102AF800E3F06FEC03F012000001D4510001D6039B
:102B0800F3CFD8F0F4CFD9F00001D4510001D703A6
:102B1800F3500001D9270001D5510001D603F35025
:102B28000001D927D8C0D4F0D9C0D5F0120082EC62
:102B380016F0000E0001D66F520ED56F74EC16F029
:102B4800000E0001D66F800ED56F74EC16F0000EE3
:102B58000001D66F030ED56F74EC16F07EEC16F0FC
:102B680012000001D56F45EC16F0C58645EC16F04D
:102B7800C9CFD6F045EC16F00001D5510001D8A414
:102B880002D0C58A01D0C59AC5880001D651120065
:102B98000001D66F000E0001D56F3A0E0001D66114
:102BA80007D02F0E0001D66503D0010E0001D56FA6
:102BB800D5C0D4F00001D4311200026E4FEC16F0EB
:102BC800C5864FEC16F0C9CF03F04FEC16F0025053
:102BD800D8A402D0C58A01D0C59AC588035012006E
:102BE80001500302F3CF05F0F4CF06F001500402C0
:102BF800F350062602500302F350062605C001F0E2
:102C080006C002F01200015002100310D8B406D01A
:102C1800000E011A000E021A800E031A01C001F0FC
:102C280002C002F003C003F01200F29E8094010E6D
:102C380060EC16F0800E60EC16F0CD0E0001E06F2F
:102C4800FF0E0001E16F6FEC03F0FFD7036E000E7B
:102C5800026E3A0E036005D02F0E036402D0010EF7
:102C6800026E02C001F001301200800E60EC16F016
:102C7800BD0E0001E06FFF0E0001E16F6FEC03F085
:102C88001200C7B4FED7C5CFD4F01F0E0001D41769
:102C9800D8B41200F6D7C7B4FED7C5CF01F01F0EBF
:102CA8000116D8B41200F7D70001D66F8C84000142
:102CB800D651C8EC13F012000001D66F8C940001B5
:102CC800D651C8EC13F01200036E8C840350A7ECA5
:102CD80014F01200036E8C940350A7EC14F0120049
:102CE80045EC16F0D5C0C9FF12004FEC16F002C033
:102CF800C9FF120045EC16F0C584120045EC16F029
:102D0800C58012004FEC16F0C58412004FEC16F087
:062D1800C5801200FFFF60
:10FDCA00003132334134353642373839432A302309
:10FDDA00440001000A006400E80310270100100033
:10FDEA00000100105035210805021700803F7231CA
:10FDFA003FFE753E58633D951D3CC5AE3A792139A3
:10FE0A0094803793A73556153400000000803FF0E0
:10FE1A00FFBEE2A93E8376BEAE2B3E3CC3BDD213E3
:10FE2A003D78D3BB522564204725642042256420AF
:10FE3A0020202020202020202020202020202000D8
:10FE4A0052756E6E696E677E7E7E2020202020208D
:10FE5A0020202020202020200052756E6E696E67B7
:10FE6A007E7E2020202020202020202020202020CC
:10FE7A000052756E6E696E677E2020202020202039
:10FE8A002020202020202000546F74616C204F70A5
:10FE9A0065726174696F6E20202020202020004442
:10FEAA006174653A20253032782F253032782F2533
:10FEBA0030327820200054696D653A202530327836
:10FECA003A253032783A2530327820200054696D4C
:10FEDA00653A202564207320202020202020005904
:10FEEA004F502B4341502B4C424C3A202564202042
:10FEFA0000594F502D4341502B4C424C3A20256417
:10FF0A00202000594F502B4341502D4C424C3A204F
:10FF1A002564202000594F502D4341502D4C424C0E
:10FF2A003A20256420200045534B412B4341502B56
:10FF3A004C424C3A202564200045534B412D434105
:10FF4A00502B4C424C3A202564200045534B412B00
:10FF5A004341502D4C424C3A202564200045534BD6
:10FF6A00412D4341502D4C424C3A2025642000300B
:10FF7A003132333435363738396162636465660045
:10FF8A007374616E64627920202020202020202052
:10FF9A0000546F74616C3A202564202020202020B0
:10FFAA002000426F74746C6520436F756E74202054
:10FFBA002020004F7065726174696F6E20446F6E05
:10FFCA00652100454D455247454E43592053544FEC
:10FFDA00500062616420696E746572727570740093
:10FFEA00504F5254423A202564004552524F523AD9
:05FFFA00202564000059
:020000040020DA
:08000000FFFFFFFFFFFFFFFF00
:020000040030CA
:0E000000FF021F1EFF8381FF0FC00FE00F40A5
:00000001FF
