:0400000007EF00F016
:100008007E8209ED00F035EF14F00600FACFC6F055
:10001800FBCFC7F0E9CFC8F0EACFC9F0E1CFCAF00B
:10002800E2CFCBF0D9CFCCF0DACFCDF0F3CFCEF012
:10003800F4CFCFF0F6CFD0F0F7CFD1F0F8CFD2F0A1
:10004800F5CFD3F0F0B012D138D10001EE69EF69E5
:10005800000E0001C36F94EC0AF02DD18984F29848
:10006800F088F28AD58E000ED76E000ED66E89EC17
:1000780012F09FC07BF09EC07AF0000E0001A86FBE
:10008800000EA76FA7C0A5F0A8C0A6F0010E89ECC6
:1000980015F00001EE69EF69020ED7D00001EE4BB2
:1000A800EF2B050E0001C36F1F0E8118D8A403D1D2
:1000B800FBD77CC0C4F07DC0C5F00001C41FC51FBC
:1000C800C44BC52B78500001C4250001B76F795087
:1000D8000001C5210001B86F0001EE69EF69060E45
:1000E800B4D00001EE69EF69040EAFD08994F2989C
:1000F800F098F29AD59E89EC12F09FC077F09EC0D6
:1001080076F07BC063F0646A1DEC0BF063C074F09A
:1001180064C075F074C001F075C002F0000E046E82
:100128003C0E036E0FEC15F001C0C4F002C0C5F020
:100138007AC063F0646A1DEC0BF063500001C425BB
:100148007C6E64500001C5217D6E77C063F0646ADF
:100158001DEC0BF063C074F064C075F074C001F05E
:1001680075C002F0000E046E3C0E036E0FEC15F025
:1001780001C0C4F002C0C5F076C063F0646A1DEC2B
:100188000BF063500001C425786E64500001C5214E
:10019800796E010E89EC15F00001EE69EF69030E26
:1001A80054D08FEC0CF0800E89EC15F0550E0D6EC6
:1001B800FE0E0E6E96C00FF097C010F098C011F0AA
:1001C80099C012F0EEEC03F0C00E89EC15F03D0E6C
:1001D8000D6EFE0E0E6E9AC00FF09BC010F09CC004
:1001E80011F09DC012F0EEEC03F065D08FEC0CF02E
:1001F800800E89EC15F0550E0D6EFE0E0E6E96C033
:100208000FF097C010F098C011F099C012F0EEEC02
:1002180003F0C00E89EC15F03D0E0D6EFE0E0E6E4D
:100228009AC00FF09BC010F09CC011F09DC012F056
:10023800EEEC03F040D0BDEC14F03DD08994F29E72
:10024800D59E010E89EC15F0010E0001C36F33D065
:10025800000E026E010E016EF7EC10F02CD0000EAD
:10026800026E020E016EF7EC10F025D081500F0AD5
:10027800D8B4F4D6100AD8B411D7300AD8B419D7DC
:10028800100AD8B42ED7700AD8B430D7140AD8B404
:10029800ADD7040AD8B485D7200AD8B4D9D7C00AAC
:1002A800D8B4DDD7700AD8B4C9D7240AD8B4C3D70C
:1002B800040AD8B4CAD6F09084D0F0A20BD0800E2D
:1002C80089EC15F0F70E0D6EFF0E0E6EEEEC03F0D6
:1002D800F09277D0F2A45BD08994D59E89EC12F085
:1002E8009FC077F09EC076F07BC063F0646A1DEC17
:1002F8000BF063C074F064C075F074C001F075C091
:1003080002F0000E046E3C0E036E0FEC15F001C0F7
:10031800C4F002C0C5F07AC063F0646A1DEC0BF04B
:1003280063500001C4257C6E64500001C5217D6EB8
:1003380077C063F0646A1DEC0BF063C074F064C0AE
:1003480075F074C001F075C002F0000E046E3C0E2A
:10035800036E0FEC15F001C0C4F002C0C5F076C002
:1003680063F0646A1DEC0BF063500001C425786EDD
:1003780064500001C521796E010E89EC15F0030E59
:100388000001C36F0001EE69EF69F2941AD0800E84
:1003980089EC15F0D50E0D6EFF0E0E6EEEEC03F027
:1003A800000E736E630E736401D0F1D7210E000145
:1003B800C46F760EE82EFED7C42FFCD700F0732A40
:1003C800F1D7D3C0F5FFD2C0F8FFD1C0F7FFD0C036
:1003D800F6FFCFC0F4FFCEC0F3FFCDC0DAFFCCC02C
:1003E800D9FFCBC0E2FFCAC0E1FFC9C0EAFFC8C05D
:1003F800E9FFC7C0FBFFC6C0FAFF7E921100E20EFC
:100408000101016F000E0101026FD5D1250E010116
:100418000919D8B405D00101095173EC15F0CBD1F5
:10042800000E0101086F000E076F000E0101066F34
:1004380005D0010106850001E04BE12BE0C0F6FF85
:10044800E1C0F7FF0800F550300AD8B4F2D7E0C091
:10045800F6FFE1C0F7FF0800F550D4EC14F0D8A07F
:1004680048D0000E0101086F000E076F07C1D4F0D5
:1004780008C1D5F0000E0001D76F0A0ED66F8BECBD
:1004880014F0D4C007F1D5C008F1D00E0001E86F10
:10049800FF0E0001E96FE0C0F6FFE1C0F7FF0800BA
:1004A800F5500001EA6FEB6B0001E8510001EA2703
:1004B8000001E9510001EB230001EA51010107277E
:1004C8000001EB51010108230001E04BE12BE0C0E2
:1004D800F6FFE1C0F7FF0800F550D4EC14F0D8A0FF
:1004E80008D0C4D70101068F20D0C00E0101061321
:1004F8001CD0E0C0F6FFE1C0F7FF0001E04BE12BA4
:100508000800F5CF09F101010951000AD8B4120019
:10051800640AD8B40AD00D0AD8B407D01C0AD8B4D3
:10052800E4D70D0AD8B4DED746D106C1E8F0C00E2C
:100538000001E817D8A419D001C1D9FF02C1DAFF18
:10054800DECF04F1DDCF05F1020E01010127000E17
:100558000223010105AF53D0030E01010613010167
:10056800046D051FD8B0052B4AD001C1D9FF02C1BF
:10057800DAFFDECF04F1DDCF05F1020E010101271C
:10058800000E02233CD0010E0101096F050E010186
:100598000919D8B440D001010951020DB60EF3244F
:1005A800F66EFD0EF420F76E0900F5500101045DAA
:1005B8000900F55001010559D8A02DD00101092BDA
:1005C800E5D7010E0101096F040E01010919D8B41C
:1005D80022D001010951020DC00EF324F66EFD0E62
:1005E800F420F76E0900F5500101045D0900F5508B
:1005F80001010559D8A00FD00101092BE5D7010148
:100608000651C00B000AD8B4BED7800AD8B4D9D7CF
:10061800400AD8B4B8D70101075101010811D8B46C
:100628000BD006C1E8F0030E0001E817D8B404D0D7
:1006380001010707D8A00807800E010109BF7F0E36
:100648000001E86F010107510101095D010108512D
:10065800800A0001E859D8B00BD001010951010105
:10066800075F000E010109BFFF0E0101085B05D0FD
:10067800000E0101086F000E076F010106A518D0D2
:1006880006C1E8F0030E0001E817D8B403D02D0E18
:1006980073EC15F00101075101010811D8B425D0F8
:1006A800300E73EC15F001010707D8A00807F2D740
:1006B8000101075101010811D8B40DD0200E73ECC7
:1006C80015F001010707D8A008070101075101012A
:1006D8000811D8A4F3D706C1E8F0030E0001E81703
:1006E800D8B403D02D0E73EC15F009C103F15DD019
:1006F80001010351020DB60EF324F66EFD0EF4202F
:10070800F76E0900F5CFD6F00A00F5CFD7F004C18F
:10071800D4F005C1D5F011EC12F0D4C0DBF0D5C08F
:10072800DCF0000E0001DE6F0A0EDD6FBDEC12F08A
:100738000001DB51300F0101096F33D004C1D4F03F
:1007480005C1D5F001010351020DC00EF324F66E68
:10075800FD0EF420F76E0900F5CFD6F00A00F5CFAC
:10076800D7F011EC12F00001D4510F0B0101006F0A
:1007780001010051010D830EF324F66EFF0EF420E3
:10078800F76E0800F5CF09F10CD001010651C00B36
:10079800000AD8B4ADD7800AD8B4D0D7400AD8B4A4
:1007A800A7D70101095173EC15F0010103070101F5
:1007B8000329D8A4EAD7E0C0F6FFE1C0F7FF00019B
:1007C800E04BE12B0800F5CF09F101010951D8B43C
:1007D80012001CD60F0E186E000E196E84D1250E4D
:1007E8002018D8B404D0205083EC15F07CD1000E2A
:1007F8001F6E000E1E6E000E1D6E03D01D840D4A66
:100808000E2A0DC0F6FF0EC0F7FF0800F550300A9B
:10081800D8B4F4D70DC0F6FF0EC0F7FF0800F550A6
:1008280045EC15F0D8A038D0000E1F6E000E1E6ED5
:100838001EC001F01FC002F0000E046E0A0E036E07
:100848000FEC15F001C01EF002C01FF0D00E136EA1
:10085800FF0E146E0DC0F6FF0EC0F7FF0800F5502E
:10086800156E166A135015261450162215501E269A
:1008780016501F220D4A0E2A0DC0F6FF0EC0F7FFB4
:100888000800F55045EC15F0D8A006D0D1D71D8E3C
:100898001DD0C00E1D121AD00DC0F6FF0EC0F7FFF6
:1008A8000D4A0E2A0800F5CF20F02050000AD8B4CF
:1008B8001200640AD8B40AD00D0AD8B407D01C0AAA
:1008C800D8B4E7D70D0AD8B4E2D70DD11DC013F0BC
:1008D800C00E1316D8A415D018C0D9FF19C0DAFF56
:1008E800DECF1BF0DDCF1CF0020E1826000E1922F9
:1008F8001CAE44D0030E1D121B6C1C1ED8B01C2A43
:100908003DD018C0D9FF19C0DAFFDECF1BF0DDCF0C
:100918001CF0020E1826000E192230D0010E206E8F
:10092800050E2018D8B435D02050020DB60EF32489
:10093800F66EFD0EF420F76E0900F5501B5C0900F9
:10094800F5501C58D8A025D0202AEAD7010E206ED1
:10095800040E2018D8B41DD02050020DC00EF32468
:10096800F66EFD0EF420F76E0900F5501B5C0900C9
:10097800F5501C58D8A00DD0202AEAD71D50C00B1E
:10098800000AD8B4CBD7800AD8B4E0D7400AD8B484
:10099800C5D71E501F10D8B409D01DC013F0030EC0
:1009A8001316D8B403D01E06D8A01F06800E20BE8A
:1009B8007F0E136E1E50205C1F50800A1358D8B04B
:1009C80007D020501E5E000E20BEFF0E1F5A04D016
:1009D800000E1F6E000E1E6E1DA414D01DC013F055
:1009E800030E1316D8B403D02D0E83EC15F01E5049
:1009F8001F10D8B41ED0300E83EC15F01E06D8A0F8
:100A08001F06F5D71E501F10D8B40AD0200E83EC4D
:100A180015F01E06D8A01F061E501F10D8A4F6D722
:100A28001DC013F0030E1316D8B403D02D0E83EC9B
:100A380015F020C01AF053D01A50020DB60EF32448
:100A4800F66EFD0EF420F76E0900F5CF03F00A00EC
:100A5800F5CF04F01BC001F01CC002F07CEC13F0D1
:100A680001C008F002C009F0000E0B6E0A0E0A6EF3
:100A7800F4EC13F00850300F206E2ED01BC001F09C
:100A88001CC002F01A50020DC00EF324F66EFD0EC3
:100A9800F420F76E0900F5CF03F00A00F5CF04F053
:100AA8007CEC13F001500F0B176E1750010D830EDD
:100AB800F324F66EFF0EF420F76E0800F5CF20F051
:100AC8000BD01D50C00B000AD8B4B6D7800AD8B4D2
:100AD800D5D7400AD8B4B0D7205083EC15F01A0601
:100AE8001A28D8A4EED70DC0F6FF0EC0F7FF0D4A9E
:100AF8000E2A0800F5CF20F02050D8B412006FD687
:100B080049504A104B10D8A407D0000E496E800EE9
:100B18004A6E3F0E4B6E1200720E016E310E026E5F
:100B2800440E036E49C004F04AC005F04BC006F0FD
:100B380087EC11F0D8B00CD0000E0001AA6F220E7D
:100B4800A96FFF0E496E7F0E4A6E7F0E4B6E120024
:100B580049C001F04AC002F04BC003F0490E046ED0
:100B68003A0E056EC40E066E87EC11F0D8B00CD0A4
:100B7800000E0001AA6F220EA96F000E496E000E2A
:100B88004A6E000E4B6E12004BAE02D0010E01D021
:100B9800000E516E5150D8B40ED049C001F04AC071
:100BA80002F04BC003F022EC15F001C049F002C07E
:100BB8004AF003C04BF049C00DF04AC00EF04BC0DC
:100BC8000FF0AA0E106EB80E116E3F0E126E15ECD5
:100BD8000CF00DC049F00EC04AF00FC04BF049C0F0
:100BE80041F04AC042F04BC043F0EDEC0DF041C07B
:100BF8004CF042C04DF043C04EF04CC028F04DC000
:100C080029F04EC02AF09BEC0BF028C04FF029C009
:100C180050F049C028F04AC029F04BC02AF04FC014
:100C280009F050C00AF054EC14F009C02BF00AC0C7
:100C38002CF00BC02DF015EC14F028C049F029C099
:100C48004AF02AC04BF049C028F04AC029F04BC0EE
:100C58002AF0CF0E2B6EFD0E2C6E000E2E6E090E96
:100C68002D6EC5EC0EF028C034F029C035F02AC02E
:100C780036F04FC037F050C038F02EEC0FF034C0CB
:100C880049F035C04AF036C04BF05150D8B425D0A1
:100C980049280EE17F0E4A180BE17F0E4B18D8A4A5
:100CA80007D0000E496E000E4A6E000E4B6E120001
:100CB800000E096E800E0A6E3F0E0B6E49C00CF0D6
:100CC8004AC00DF04BC00EF07AEC0DF009C049F0A7
:100CD8000AC04AF00BC04BF0120049C049F04AC0A4
:100CE8004AF04BC04BF012001EC022F0236A246A5F
:100CF8001D34223601E323802250276E21C022F0C2
:100D0800236A246A2034223601E323802250266E87
:100D18002750D8B40BD02650275CD8B00ED0275017
:100D280000082624226E180E226407D01FC01CF06B
:100D380020C01DF021C01EF012002650D8B40BD0E0
:100D48002750265CD8B00ED0265000082724226EE3
:100D5800180E226407D01CC01CF01DC01DF01EC058
:100D68001EF01200060E256E1EBE258E21BE258C95
:100D78001D8EFF0E1C16FF0E1D16000E1E16208E51
:100D8800FF0E1F16FF0E2016000E21162650275C98
:100D9800D8B01BD0D8901F362036213626062750CB
:100DA8002618D8B40DD0250625C022F0070E221625
:100DB800D8B406D0EFD7D8901E321D321C32272A5D
:100DC80026502718D8B41FD0F6D72750265CD8B09D
:100DD8001AD0D8901C361D361E36270627502618DE
:100DE800D8B40DD0250625C022F0070E2216D8B497
:100DF80006D0EFD7D890213220321F32262A26502B
:100E08002718D8A4F7D725AE0CD0FF0E1C1AFF0E52
:100E18001D1AFF0E1E1A010E1C26000E1D22000EA2
:100E28001E2225AC0CD0FF0E1F1AFF0E201AFF0E33
:100E3800211A010E1F26000E2022000E2122000E6C
:100E4800256E1C501F261D5020221E50212221AE27
:100E58000ED0FF0E1F1AFF0E201AFF0E211A010EC8
:100E68001F26000E2022000E2122010E256E1FC013
:100E780001F020C002F021C003F027C004F025C013
:100E880005F04FEC10F001C01CF002C01DF003C0CB
:100E98001EF01200A7D0800E7BEC15F0A50E000105
:100EA800E06FFF0E0001E16F03EC02F0C00E7BEC77
:100EB80015F0940E0001E06FFF0E0001E16FB9C05C
:100EC800E2F0BAC0E3F003EC02F01200800E7BEC13
:100ED80015F0F30E0001E06FFE0E0001E16FBFC0D8
:100EE800E2F0C0C0E3F003EC02F0C00E7BEC15F0BA
:100EF800170E0001E06FFF0E0001E16FBDC0E2F0C8
:100F0800BEC0E3F003EC02F01200800E7BEC15F09B
:100F1800050E0001E06FFF0E0001E16FC1C0E2F0B5
:100F2800C2C0E3F003EC02F0C00E7BEC15F0290E12
:100F38000001E06FFF0E0001E16FBBC0E2F0BCC032
:100F4800E3F003EC02F01200800E7BEC15F03B0E90
:100F58000001E06FFF0E0001E16FAFC0E2F0B0C02A
:100F6800E3F003EC02F0C00E7BEC15F05F0E00011D
:100F7800E06FFF0E0001E16FADC0E2F0AEC0E3F03C
:100F880003EC02F01200800E7BEC15F04D0E000110
:100F9800E06FFF0E0001E16FB1C0E2F0B2C0E3F014
:100FA80003EC02F0C00E7BEC15F0710E0001E06F4F
:100FB800FF0E0001E16FABC0E2F0ACC0E3F003EC60
:100FC80002F01200800E7BEC15F0ED0E0001E06FD0
:100FD800FF0E0001E16FEEC0E2F0EFC0E3F003ECBA
:100FE80002F0F0D7EEC0D4F0EFC0D5F0000E00014B
:100FF800D76F050ED66FA6EC10F00001D551000A88
:10100800D8A4E0D70001D451000AD8B444D7010AC3
:10101800D8B45CD7030AD8B478D7010AD8B494D71F
:10102800070AD8B4B0D7CED7000E5E6E5250531010
:101038005410D8A41CD0000E016E000E026E000ED3
:10104800036E55C004F056C005F057C006F087EC93
:1010580011F0D8A005D0000E0001AA6F210EA96FCB
:10106800000E526E000E536E000E546E1200555054
:1010780056105710D8A407D0000E526E800E536E2B
:101088003F0E546E120054AE41D055C028F056C0E1
:1010980029F057C02AF09BEC0BF028C05FF029C05C
:1010A80060F02AC061F02BC062F05FC009F060C038
:1010B8000AF061C00BF062C00CF04EEC13F0555012
:1010C800091807E156500A1804E157500B18D8B40C
:1010D8000CD0000E0001AA6F210EA96F000E526EEF
:1010E800000E536E000E546E12005F50010B5E6EC0
:1010F80052C001F053C002F054C003F022EC15F0C6
:1011080001C052F002C053F003C054F052C034F092
:1011180053C035F054C036F005EC0AF034C058F02E
:1011280035C059F036C05AF058C00DF059C00EF00D
:101138005AC00FF055C010F056C011F057C012F049
:1011480015EC0CF00DC05BF00EC05CF00FC05DF04C
:101158005BC049F05CC04AF05DC04BF084EC05F020
:1011680049C052F04AC053F04BC054F05E50D8B456
:101178000FD052C001F053C002F054C003F022EC6B
:1011880015F001C052F002C053F003C054F0120031
:1011980052C052F053C053F054C054F012009DECAA
:1011A80015F0000E0001D66F520ED56F8FEC15F0BA
:1011B800000E0001D66F800ED56F8FEC15F0000E73
:1011C8000001D66F010ED56F8FEC15F099EC15F074
:1011D8000A0E0001D76FBC0EE82EFED7D72FFCD71A
:1011E80000F09DEC15F0000E0001D66F520ED56F81
:1011F8008FEC15F0000E0001D66F800ED56F8FECC6
:1012080015F0000E0001D66F130ED56F8FEC15F098
:1012180099EC15F09DEC15F0000E0001D66F520EFA
:10122800D56F8FEC15F0000E0001D66F8F0ED56FBD
:101238008FEC15F0000E0001D66F020ED56F8FEC03
:1012480015F099EC15F09DEC15F0000E0001D66F25
:10125800520ED56F8FEC15F0000E0001D66FA40E5C
:10126800D56F8FEC15F0000E0001D66F000ED56F0C
:101278008FEC15F0000E0001D66F000ED56F8FECC5
:1012880015F0000E0001D66F000ED56F8FEC15F02B
:10129800000E0001D66F4A0ED56F8FEC15F099EC51
:1012A80015F09DEC15F0000E0001D66F520ED56FAB
:1012B8008FEC15F0000E0001D66F8C0ED56F8FECF9
:1012C80015F0000E0001D66F010ED56F8FEC15F0EA
:1012D80099EC15F012009DEC15F0000E0001D66F88
:1012E800520ED56F8FEC15F0000E0001D66FB40EBC
:1012F800D56F8FEC15F09DEC15F0000E0001D66F40
:10130800530ED56F8FEC15F0000E0001E46F000E40
:10131800E36F0001E4BF08D00001E45121E1030EAE
:101328000001E35DD8B01CD0DB0E0001E325D96EC7
:10133800000E0001E421DA6E010EA6EC14F0DF6E57
:10134800DF0E0001E325D96E000E0001E421DA6EFC
:10135800010EA6EC14F0DF6E0001E34BE42BD9D7A5
:10136800010EA6EC14F00001DE6F000EA6EC14F0DE
:101378000001E26F99EC15F0000E0001E46F000E19
:10138800E36F0001E4BF08D00001E45139E1040E25
:101398000001E35DD8B01200DF0E0001E325D96E2D
:1013A800000E0001E421DA6EDF500001D76F000162
:1013B800D7510001D96FD86BDB0E0001E325D96E38
:1013C800000E0001E421DA6EDF500001DA6F00013F
:1013D800DA510001D813000ED913D8900001E33573
:1013E800D96E0001E435DA6E960ED926000EDA229F
:1013F800D8C0DEFFD9C0DDFF0001E34BE42BC1D725
:10140800120036AE0CD0000E0001AA6F210EA96F93
:10141800000E346E000E356E000E366E120034501B
:1014280035103610D8A40CD0000E0001AA6F220E79
:10143800A96F000E346E000E356E000E366E120067
:10144800000E106E000E116E400E126E370E046EF6
:10145800000E056E34C001F035C002F036C003F04E
:101468003FEC11F001C00DF002C00EF003C00FF008
:1014780015EC0CF00DC01CF00EC01DF00FC01EF0D6
:10148800000E1F6E800E206EBF0E216E78EC06F0E7
:101498001CC034F01DC035F01EC036F03706D8A089
:1014A800380634C028F035C029F036C02AF0ED0ED1
:1014B8002B6EFD0E2C6E000E2E6E080E2D6EC5ECDA
:1014C8000EF028C034F029C035F02AC036F0720E6C
:1014D800106E310E116E3F0E126E37C009F038C013
:1014E8000AF054EC14F009C00DF00AC00EF00BC05D
:1014F8000FF015EC0CF00DC01CF00EC01DF00FC065
:101508001EF034C01FF035C020F036C021F078EC52
:1015180006F01CC034F01DC035F01EC036F01200B5
:10152800A5EC15F0000E036E520E026E94EC15F049
:10153800000E036E800E026E94EC15F0000E036E22
:10154800010E026E94EC15F0A1EC15F00A0E046E73
:10155800BC0EE82EFED7042EFCD700D0A5EC15F063
:10156800000E036E520E026E94EC15F0000E036E20
:10157800800E026E94EC15F0000E036E130E026ED0
:1015880094EC15F0A1EC15F0A5EC15F0000E036E27
:10159800520E026E94EC15F0000E036E8F0E026E62
:1015A80094EC15F0000E036E020E026E94EC15F02A
:1015B800A1EC15F0A5EC15F0000E036E520E026EAC
:1015C80094EC15F0000E036EA40E026E94EC15F068
:1015D800000E036E000E026E94EC15F0000E036E02
:1015E800000E026E94EC15F0000E036E000E026EF3
:1015F80094EC15F0000E036E4A0E026E94EC15F092
:10160800A1EC15F0A5EC15F0000E036E520E026E5B
:1016180094EC15F0000E036E8C0E026E94EC15F02F
:10162800000E036E010E026E94EC15F0A1EC15F09D
:101638001200000E6E6E000E6D6E63C071F064C015
:1016480072F0000E706E000E6F6E68D00F0E71147F
:101658006B6E6C6A6DC009F06EC00AF054EC14F041
:1016680009C065F00AC066F00BC067F065C055F0A8
:1016780066C056F067C057F0000E526E200E536ECB
:10168800410E546E18EC08F052C068F053C069F06F
:1016980054C06AF068C010F069C011F06AC012F056
:1016A8006BC009F06CC00AF054EC14F009C00DF0DE
:1016B8000AC00EF00BC00FF015EC0CF00DC01FF0B7
:1016C8000EC020F00FC021F06FC009F070C00AF002
:1016D80054EC14F009C01CF00AC01DF00BC01EF039
:1016E80078EC06F01CC028F01DC029F01EC02AF0B6
:1016F8009BEC0BF028C06FF029C070F071C001F0AE
:1017080072C002F0000E046E100E036ECFEC11F0E2
:1017180001C071F002C072F06D4A6E2A71507210E9
:10172800D8A494D76FC063F070C064F012002AC0C8
:101738002CF02D6A2E6A29342C3601E32D802C508A
:10174800366E3650D8A409D0000E286E000E296EC9
:10175800000E2A6E000E2B6E1200170E2C6E28C07B
:101768002DF029C02EF02AC02FF02C28306E04D07E
:10177800D8902F322E322D32302EFAD72D50316E8E
:10178800298EFF0E2816FF0E2916000E2A1628503D
:10179800326E2950336E2A50346E356A8E0E365E9C
:1017A80036AE16D03650800A8F0FD8B009D0000E4A
:1017B800286E000E296E000E2A6E000E2B6E120087
:1017C800D8903532343233323232363EF9D715D0EA
:1017D800170E36640FD0000E286E000E296E000E0C
:1017E8002A6E000E2B6E1200D890323633363436FD
:1017F800353636063650D8A4F7D73150D8B408D085
:10180800351E341E331E326C000E3322342235222C
:1018180032C028F033C029F034C02AF035C02BF08C
:1018280012000FC013F0146A156A0E34133601E360
:1018380014801350166E1650D8A407D0000E0D6EE3
:10184800000E0E6E000E0F6E120012C013F0146A16
:10185800156A1134133601E3148013501B6E1B50A4
:10186800D8A407D0000E0D6E000E0E6E000E0F6E7F
:1018780012001B507B0F16260FC01BF012501B1AAC
:10188800800E1B160E8E118EFF0E1016FF0E1116EF
:10189800000E1216000E176E000E186E000E196E4E
:1018A800070E1A6E0DA006D01050172611501822D8
:1018B80012501922D8900F320E320D32D8901036AD
:1018C800113612361A2EEED7090E1A6E0DA006D052
:1018D800105017261150182212501922D8900F3282
:1018E8000E320D32D8901932183217321A2EEED71E
:1018F80017C001F018C002F019C003F016C004F0B8
:101908001BC005F04FEC10F001C00DF002C00EF046
:1019180003C00FF01200A5EC15F0000E036E520E76
:10192800026E94EC15F0000E036EB40E026E94EC89
:1019380015F0A5EC15F0000E036E530E026E94EC34
:1019480015F0000E116E000E106E11BE06D011506B
:101958001BE1030E105CD8B017D0080E1024D96E06
:10196800000E1120DA6E010EFCEC14F0DF6E0C0E86
:101978001024D96E000E1120DA6E010EFCEC14F062
:10198800DF6E104A112AE1D7010EFCEC14F00B6E41
:10199800000EFCEC14F00F6EA1EC15F0000E116EA9
:1019A800000E106E11BE06D011502BE1040E105C13
:1019B800D8B012000C0E1024D96E000E1120DA6E69
:1019C800DF50046E0450066E056A080E1024D96EA6
:1019D800000E1120DA6EDF50076E07500512000E58
:1019E8000612D8901034D96E1134DA6E960ED926B4
:1019F800000EDA2205C0DEFF06C0DDFF104A112AFC
:101A0800D1D71200FB0E926E9368000E946E000EF2
:101A1800956E000E966E000E896E000E8A6E000E90
:101A28008B6E000E8C6E000E8D6E000EC26EC1683D
:101A3800F28EF086F298F188F088F19EA5EC13F00A
:101A4800100E0001E16F270EE26F000EE36F000E2B
:101A5800E46F1EEC13F0D3EC08F0000ED76E000E06
:101A6800D66ED59CD59AD596D584D582D580000ECC
:101A78000001C36F15D0E9EC14F029D034EC15F04F
:101A880026D091EC0FF023D054EC15F020D05CEC6C
:101A98000EF01DD04EEC07F01AD070EC14F017D0F1
:101AA8000001C351000AD8B4E6D7010AD8B4E6D772
:101AB800030AD8B4E6D7010AD8B4E6D7070AD8B4D7
:101AC800E6D7010AD8B4E6D7030AD8B4E6D7030E96
:101AD80001010B6F8A0E01010A6F550EE82EFED721
:101AE8000A2FFCD70B2FFAD700D0DAD70BC00FF08C
:101AF800106A116A0A340F3601E310800F50166E0F
:101B08001650D8A407D0000E096E000E0A6E000EFB
:101B18000B6E12000EC00FF0106A116A0D340F36EA
:101B280001E310800F50176E1750D8A407D0000E8D
:101B3800096E000E0A6E000E0B6E1200000E136E78
:101B4800000E146E000E156E1750890F165E0BC02E
:101B580017F00E50171A800E17160A8EFF0E091668
:101B6800FF0E0A16000E0B160D8EFF0E0C16FF0E3A
:101B78000D16000E0E16180E126ED8901336143667
:101B880015360C50095C0D500A580E500B58D8A049
:101B980007D00C50095E0D500A5A0E500B5A13808C
:101BA800D89009360A360B36122EE7D713C001F043
:101BB80014C002F015C003F016C004F017C005F0F9
:101BC8004FEC10F001C009F002C00AF003C00BF09E
:101BD800120041C001F042C002F043C003F0470EBA
:101BE800046E000E056E3FEC11F048AE10D043AE07
:101BF80007D0000E416E800E426EBF0E436E12007B
:101C0800000E416E000E426E000E436E12004850E8
:101C180004E1150E475CD8A007D041C041F042C08E
:101C280042F043C043F0120041C028F042C029F0FE
:101C380043C02AF09BEC0BF028C037F029C038F0DD
:101C48002AC039F02BC03AF04DEC12F037C044F0FE
:101C580038C045F039C046F041C001F042C002F03A
:101C680043C003F044C004F045C005F046C006F088
:101C780087EC11F0D8B015D044C01CF045C01DF059
:101C880046C01EF0000E1F6E800E206EBF0E216E25
:101C980078EC06F01CC041F01DC042F01EC043F0B5
:101CA800120044C041F045C042F046C043F0120063
:101CB8009DEC15F0000E0001D66FD00ED56F8FEC9D
:101CC80015F0000E0001D66F000ED56F8FEC15F0E1
:101CD80099EC15F09DEC15F0000E0001D66FD10EB1
:101CE800D56F8FEC15F0000E0001EC6F050E0001AA
:101CF800EC6501D010D00001EC51010D9E0EF324CB
:101D0800D96E000EF420DA6E010EA6EC14F0DF6E28
:101D18000001EC2BEBD7000EA6EC14F00001A46F29
:101D280099EC15F0800E7BEC15F0B30E0001E06F16
:101D3800FE0E0001E16FA3C0E2F00001E36BA2C058
:101D4800E4F00001E56BA4C0E6F00001E76B03ECEA
:101D580002F0C00E7BEC15F0CA0E0001E06FFE0E1B
:101D68000001E16FA0C0E2F00001E36B9FC0E4F066
:101D78000001E56B9EC0E6F00001E76B03EC02F0A2
:101D880012002DC001F02EC002F0000E046E030EEA
:101D9800036E0FEC15F02BC02FF02CC030F0015063
:101DA8002F26025030222FC0F6FF30C0F7FF09005F
:101DB800F5CF31F00900F5CF32F00A00F5CF33F056
:101DC8003ED031C010F032C011F033C012F028C03C
:101DD8000DF029C00EF02AC00FF015EC0CF00DC064
:101DE8001CF00EC01DF00FC01EF0000E046E030E96
:101DF800036E2D06D8A02E062DC001F02EC002F0CD
:101E08000FEC15F02BC02FF02CC030F001502F260E
:101E1800025030222FC0F6FF30C0F7FF0900F5CF7F
:101E28001FF00900F5CF20F00A00F5CF21F078EC7B
:101E380006F01CC031F01DC032F01EC033F02D502A
:101E48002E10D8A4BED731C028F032C029F033C034
:101E58002AF01200345035103610D8A407D0000EDE
:101E6800346E000E356E000E366E120036507F0B43
:101E7800396E3A6AD89039363A36395037263A5058
:101E8800382235AE03D0396A392A01D0396A395037
:101E98003726000E382238AE0CD0000E0001AA6F8B
:101EA800220EA96F000E346E000E356E000E366ECF
:101EB800120038BE16D03804D8A013D0000E000186
:101EC800AA6F220EA96F36AE06D0FF0E346E7F0EB3
:101ED800356EFF0EECD7FF0E346E7F0E356E7F0E1B
:101EE800E6D7383438303A6E3730396E36503918CC
:101EF800800B3918366E37C039F0010E3916393271
:101F08003932355039187F0B3918356E34C034F0F2
:101F180035C035F036C036F0120031D0800E7BEC7B
:101F280015F0850E0001E06FFE0E0001E16F03EC75
:101F380002F0000E0001B66F010E1FD0800E7BEC80
:101F480015F06D0E0001E06FFE0E0001E16F03EC6D
:101F580002F0000E0001B66F020E0FD0800E7BEC6F
:101F680015F0240E0001E06FFE0E0001E16F03EC96
:101F780002F0000E0001B66F000EB56F14D0B5C0A8
:101F8800ECF0B6C0EDF00001ED51000AD8A40BD07A
:101F98000001EC51000AD8B4C1D7010AD8B4CED791
:101FA800030AD8B4DBD7C00E7BEC15F06FEC09F050
:101FB800080E0001E06FFE0E0001E16F98C0E2F02C
:101FC80099C0E3F09AC0E4F09BC0E5F09CC0E6F04D
:101FD8009DC0E7F003EC02F01200000E0001DC6F78
:101FE800000EDD6F000EDE6F000EDF6F0001D851AE
:101FF8000001D9110001DA110001DB11D8B442D077
:10200800010E0001E06F08D00001D890D837D93709
:10201800DA37DB370001E02B0001DBAFF5D7000131
:10202800D890DC37DD37DE37DF370001D8510001C3
:10203800D45D0001D9510001D5590001DA510001E0
:10204800D6590001DB510001D759D8A012D00001A0
:10205800D8510001D45F0001D9510001D55B0001BE
:10206800DA510001D65B0001DB510001D75B0001AA
:10207800DC810001D890DB33DA33D933D83300015F
:10208800E02FCDD7DCC0D4F0DDC0D5F0DEC0D6F06F
:10209800DFC0D7F012000450D8B405D001500210A8
:1020A8000310D8A40CD0000E016E000E026E000EB4
:1020B800036E1200042AD890033202320132000E55
:1020C8000114066E000E0214076EFE0E0314086E4D
:1020D800065007100810D8B40CD0ECD7042A010E0B
:1020E8000126000E0222000E0322D890033202328B
:1020F8000132000E0114066E000E0214076EFF0E68
:102108000314086E065007100810D8B406D0E6D796
:102118000406D89001360236033602BE03D0020EFA
:102128000460F6D704A0029ED8900432045003122B
:102138000550D8A4038E01C001F002C002F003C00C
:1021480003F01200000E0001D96F0001D5AF08D0CE
:102158000001D46DD51FD8B0D52B010E0001D96F61
:102168000001D7AF05D00001D66DD71FD8B0D72B47
:102178000001D6510001D711D8B426D0010E0001B4
:10218800D86F06D00001D890D637D7370001D82BA2
:102198000001D7AFF7D70001D6510001D45D000187
:1021A800D7510001D559D8A008D00001D651000157
:1021B800D45F0001D7510001D55B0001D890D73317
:1021C800D6330001D82FE7D70001D9510001D8B480
:1021D80005D00001D46DD51FD8B0D52BD4C0D4F00C
:1021E800D5C0D5F0120001C005F002C006F0000EFF
:1021F800086E000E076E08503DE1320E075CD8B03D
:1022080012008B80000E0A6E000E096E09D0040EB3
:10221800036E3E0EE82EFED7032EFCD7094A0A2A83
:102228000550095C06500A58D8A0F1D78B90000ECB
:102238000A6E000E096E09D0040E036E3E0EE82EDB
:10224800FED7032EFCD7094A0A2A05C003F006C0A8
:1022580004F0031E041E034A042A140E0326000E6B
:1022680004220350095C04500A58D8A0E5D7074A4D
:10227800082AC1D71200015002100310D8A40FD0A9
:1022880004C0D9FF05C0DAFF000EDE6E000EDD6E59
:10229800000E016E000E026E000E036E1200035057
:1022A8007F0B066E076AD8900636073604C0D9FF3A
:1022B80005C0DAFF06C0DEFF07C0DDFF02AE03D0AF
:1022C800066A062A01D0066A065004C0D9FF05C06E
:1022D800DAFFDE12000EDD1204C0D9FF05C0DAFFF6
:1022E800820EDE26FF0EDD2203800382038403862E
:1022F8000388038A039C029E01C001F002C002F019
:1023080003C003F0120003AE16D001C007F002C0EC
:1023180008F003C009F0071E081E091E072A000E50
:1023280008220922000E0724016E000E0820026E02
:10233800800E0920036E06AE16D004C007F005C053
:1023480008F006C009F0071E081E091E072A000E1D
:1023580008220922000E0724046E000E0820056ECC
:10236800800E0920066E000E011A000E021A800E59
:10237800031A000E041A000E051A800E061A0450DD
:10238800015C0550025806500358D8B002D0D890C6
:102398001200D8801200000E066E04AE06D0036C40
:1023A800041ED8B0042A010E066E02AE06D0016CD7
:1023B800021ED8B0022A010E061A000E086E000E80
:1023C800076E03500410D8B41CD0010E056E04D05B
:1023D800D89003360436052A04AEFAD7D8900736C3
:1023E80008360350015C04500258D8A005D00350A9
:1023F800015E0450025A0780D89004320332052E39
:10240800EDD70650D8B404D0076C081ED8B0082AF7
:1024180007C001F008C002F01200000E0001DA6FD8
:10242800000ED96F0001D6510001D711D8B42CD0B5
:10243800010E0001D86F06D00001D890D637D737E3
:102448000001D82B0001D7AFF7D70001D890D937B2
:10245800DA370001D6510001D45D0001D7510001DF
:10246800D559D8A00AD00001D6510001D45F000187
:10247800D7510001D55B0001D9810001D890D7332D
:10248800D6330001D82FE1D7D9C0D4F0DAC0D5F0BF
:102498001200000E406E8E0E3F6E3AAE11D03A1EFC
:1024A800391E381E376C000E382239223A22010EA6
:1024B800406E06D0D8903A323932383237323F2A15
:1024C800000E37143B6E000E38143C6E000E3914A3
:1024D8003D6EFF0E3A143E6E3B503C103D103E10D0
:1024E800D8A4E8D737C001F038C002F039C003F0EB
:1024F8003FC004F040C005F04FEC10F001C037F0C9
:1025080002C038F003C039F01200A5EC15F0000E37
:10251800036ED00E026E94EC15F0000E036E000EE2
:10252800026E94EC15F0A1EC15F0A5EC15F0000E78
:10253800036ED10E026E94EC15F0000E046E050EBB
:10254800046401D00ED00450010D9E0EF324D96E00
:10255800000EF420DA6E010EFCEC14F0DF6E042A93
:10256800EED7000EFCEC14F00001A46FA1EC15F0FE
:1025780012000001DD510001DE11D8B426D0010E91
:102588000001DF6F06D00001D890DD37DE3700018B
:10259800DF2B0001DEAFF7D70001DD510001DB5D65
:1025A8000001DE510001DC59D8A008D00001DD513E
:1025B8000001DB5F0001DE510001DC5B0001D89007
:1025C800DE33DD330001DF2FE7D7DBC0DBF0DCC013
:1025D800DCF012000001D56F0001D551F00B0001AD
:1025E800D46F8C500F0B8C6E0001D4518C108C6EF4
:1025F8008C96190EE82EFED78C86190EE82EFED77B
:102608000001D539F00B0001D56F0001D551F00B51
:102618000001D46F8C500F0B8C6E0001D4518C10BC
:102628008C6E8C96190EE82EFED78C86190EE82E25
:10263800FED71200000EC76E280EC66E000EC56EBD
:10264800800E0001D46F960ED56F980ED66F000ECF
:10265800D76FE1C0E5F0E2C0E6F0E3C0E7F0E4C020
:10266800E8F0020ED8900001E537E637E737E8379B
:10267800E82EF8D7E5C0D8F0E6C0D9F0E7C0DAF020
:10268800E8C0DBF0F1EC0FF00001D405C86E9486C9
:10269800948812008E0E116E06D0D8900C320B3230
:1026A8000A320932112A000E09140D6E000E0A149E
:1026B8000E6E000E0B140F6EFF0E0C14106E0D50E4
:1026C8000E100F101010D8A4E8D709C001F00AC0E6
:1026D80002F00BC003F011C004F0000E056E4FECC1
:1026E80010F001C009F002C00AF003C00BF012009C
:1026F800000E066E000E056E03500410D8B41CD0F0
:10270800010E076E04D0D89003360436072A04AEAB
:10271800FAD7D890053606360350015C04500258A3
:10272800D8A005D00350015E0450025A0580D89005
:1027380004320332072EEDD705C001F006C002F0BF
:102748001200310E0001D76FB20EE82EFED7D72F38
:10275800FCD700F0330E7BEC15F0330E7BEC15F054
:10276800320E7BEC15F0280E7BEC15F00F0E7BEC8F
:1027780015F0060E7BEC15F0010E7BEC15F0310E12
:102788000001D76FB20EE82EFED7D72FFCD700F086
:102798001200026E0250F00B016E8C500F0B8C6E03
:1027A80001508C108C6E8C96190EE82EFED78C86F4
:1027B800190EE82EFED70238F00B026E0250F00B0D
:1027C800016E8C500F0B8C6E01508C108C6E8C9699
:1027D800190EE82EFED78C86190EE82EFED71200A9
:1027E8000A500B10D8B418D0010E0C6E04D0D89033
:1027F8000A360B360C2A0BAEFAD70A50085C0B5077
:102808000958D8A004D00A50085E0B50095AD8902D
:102818000B320A320C2EF1D708C008F009C009F0B3
:1028280012002B502C102D10D8B406D0000E2B1AE5
:10283800000E2C1A800E2D1A28C01CF029C01DF07D
:102848002AC01EF02BC01FF02CC020F02DC021F094
:1028580078EC06F01CC028F01DC029F01EC02AF034
:102868001200520EF66E2B0EF76E000EF86E09006F
:10287800F5CFEEF00900F5CFEFF000EE80F0440E52
:10288800EE6AE806FDE100EE76F0080EEE6AE8066C
:10289800FDE17E907E92000EF86E000106EF0DF0CD
:1028A800000E0C6E0AAE06D0096C0A1ED8B00A2AB1
:1028B800010E0C6E09C001F00AC002F0036A8E0E08
:1028C800046E0CC005F04FEC10F001C009F002C016
:1028D8000AF003C00BF01200800E7BEC15F09C0E82
:1028E8000001E06FFE0E0001E16F03EC02F0C00E84
:1028F8007BEC15F0E10E0001E06FFE0E0001E16FC8
:10290800B7C0E2F0B8C0E3F003EC02F01200000137
:10291800D4510001D603F3CFD8F0F4CFD9F0000199
:10292800D4510001D703F3500001D9270001D55134
:102938000001D603F3500001D927D8C0D4F0D9C07C
:10294800D5F012000001D56F60EC15F0C58660EC7B
:1029580015F0C9CFD6F060EC15F00001D551000193
:10296800D8A402D0C58A01D0C59AC5880001D6511D
:102978001200A5EC15F0000E036E520E026E94ECD8
:1029880015F0000E036EE60E026E94EC15F0000EC4
:10299800036EE60E026E94EC15F0A1EC15F0120031
:1029A8000001D66F000E0001D56F3A0E0001D66106
:1029B80007D02F0E0001D66503D0010E0001D56F98
:1029C800D5C0D4F00001D4311200800E7BEC15F094
:1029D800C00E7BEC15F0E30E0001E06FFF0E000166
:1029E800E16F81CFE2F00001E36B03EC02F012002B
:1029F800026E6AEC15F0C5866AEC15F0C9CF03F0D3
:102A08006AEC15F00250D8A402D0C58A01D0C59A44
:102A1800C5880350120001500302F3CF05F0F4CF2C
:102A280006F001500402F350062602500302F35048
:102A3800062605C001F006C002F01200015002107F
:102A48000310D8B406D0000E011A000E021A800E28
:102A5800031A01C001F002C002F003C003F0120023
:102A6800F29E8094010E7BEC15F0800E7BEC15F045
:102A7800C60E0001E06FFF0E0001E16F03EC02F0EB
:102A8800FFD7036E000E026E3A0E036005D02F0EBC
:102A9800036402D0010E026E02C001F00130120080
:102AA800800E7BEC15F0B60E0001E06FFF0E000102
:102AB800E16F03EC02F01200C7B4FED7C5CFD4F023
:102AC8001F0E0001D417D8B41200F6D7C7B4FED72A
:102AD800C5CF01F01F0E0116D8B41200F7D70001B8
:102AE800D66F8C840001D651EEEC12F01200000172
:102AF800D66F8C940001D651EEEC12F01200036EE2
:102B08008C840350CDEC13F01200036E8C940350A8
:102B1800CDEC13F0120060EC15F0D5C0C9FF12001F
:102B28006AEC15F002C0C9FF120060EC15F0C5840C
:102B3800120060EC15F0C58012006AEC15F0C5842F
:0C2B480012006AEC15F0C5801200FFFFBF
:10FDA400003132334134353642373839432A30232F
:10FDB400440001000A006400E80310270100100059
:10FDC400000100105035210805021700803F7231F0
:10FDD4003FFE753E58633D951D3CC5AE3A792139C9
:10FDE40094803793A73556153400000000803FF007
:10FDF400FFBEE2A93E8376BEAE2B3E3CC3BDD2130A
:10FE04003D78D3BB522564204725642042256420D5
:10FE140020202020202020202020202020202000FE
:10FE240052756E6E696E677E7E7E202020202020B3
:10FE340020202020202020200047257520422575E1
:10FE440020202020202020202020202020202020AE
:10FE540000432575205225752020202020202020B5
:10FE640020202020202020200052756E6E696E67AD
:10FE74007E7E2020202020202020202020202020C2
:10FE84000052756E6E696E677E202020202020202F
:10FE94002020202020202000546F74616C204F709B
:10FEA40065726174696F6E20202020202020004438
:10FEB4006174653A20253032782F253032782F2529
:10FEC40030327820200054696D653A20253032782C
:10FED4003A253032783A2530327820200054696D42
:10FEE400653A2025642073202020202020200059FA
:10FEF4004F502B4341502B4C424C3A202564202038
:10FF040000594F502D4341502B4C424C3A2025640C
:10FF1400202000594F502B4341502D4C424C3A2045
:10FF24002564202000594F502D4341502D4C424C04
:10FF34003A20256420200045534B412B4341502B4C
:10FF44004C424C3A202564200045534B412D4341FB
:10FF5400502B4C424C3A202564200045534B412BF6
:10FF64004341502D4C424C3A202564200045534BCC
:10FF7400412D4341502D4C424C3A20256420003001
:10FF8400313233343536373839616263646566003B
:10FF9400546F74616C3A2025642020202020202096
:10FFA40000426F74746C6520436F756E742020205A
:10FFB40020004F7065726174696F6E20446F6E65C6
:10FFC4002100454D455247454E43592053544F5007
:10FFD4000062616420696E74657272757074005099
:10FFE4004F5254423A202564004552524F523A200F
:0BFFF400256400494E543249460000CD
:020000040020DA
:08000000FFFFFFFFFFFFFFFF00
:020000040030CA
:0E000000FF021F1EFF8381FF0FC00FE00F40A5
:00000001FF
