:0400000007EF00F016
:0A0008004382A4ED0BF0FAEF0EF0B6
:10100000003132334134353642373839432A3023C0
:10101000440001000A006400E803102701001000EA
:101020000001001050352108050217253032782FB5
:10103000253032782F2530327820202020202020A3
:101040002000253032783A253032783A253032780F
:10105000202020202020202000303132333435362B
:101060003738396162636465660062616420696E65
:101070007465727275707400504F5254423A202554
:0B10800064007374616E64627900000C
:10108C00890E0001906F000E0001916FC2D1250EE8
:10109C0000019819D8B405D00001985101EC0FF05B
:1010AC00B8D1000E0001976F000E966F000E000174
:1010BC00956F05D0000195850001874B882B87C063
:1010CC00F6FF88C0F7FF0800F550300AD8B4F2D705
:1010DC0087C0F6FF88C0F7FF0800F550D3EC0EF080
:1010EC00D8A043D0000E0001976F000E966F96C0EB
:1010FC003DF097C03EF0000E406E0A0E3F6E9AEC2B
:10110C000EF03DC096F03EC097F0D00E00018B6FF4
:10111C00FF0E00018C6F87C0F6FF88C0F7FF080038
:10112C00F55000018D6F8E6B00018B5100018D27E6
:10113C0000018C5100018E2300018D510001962776
:10114C0000018E51000197230001874B882B87C02B
:10115C00F6FF88C0F7FF0800F550D3EC0EF0D8A0CE
:10116C0004D0C5D70001958F19D087C0F6FF88C071
:10117C00F7FF0001874B882B0800F5CF98F0000192
:10118C009851000AD8B41200640AD8B407D00D0ADA
:10119C00D8B404D0110AD8B4E5D73BD1000195BF1F
:1011AC0019D090C0D9FF91C0DAFFDECF93F0DDCF1C
:1011BC0094F0020E00019027000E9123000194AFD1
:1011CC0053D0030E000195130001936D941FD8B0FA
:1011DC00942B4AD090C0D9FF91C0DAFFDECF93F0A8
:1011EC00DDCF94F0020E00019027000E91233CD02D
:1011FC00010E0001986F050E00019819D8B43DD06E
:10120C0000019851020D120EF324F66E100EF4200C
:10121C00F76E0900F5500001935D0900F5500001CF
:10122C009459D8A02AD00001982BE5D7010E0001C3
:10123C00986F040E00019819D8B41FD00001985172
:10124C00020D1C0EF324F66E100EF420F76E09003E
:10125C00F5500001935D0900F55000019459D8A098
:10126C000CD00001982BE5D700019551800B000A9A
:10127C00D8B4BED7800AD8B4D9D700019651000192
:10128C009711D8B40BD095C08BF0030E00018B17BF
:10129C00D8B404D000019607D8A09707800E00019F
:1012AC0098BF7F0E00018B6F000196510001985D75
:1012BC0000019751800A00018B59D8B00BD0000166
:1012CC0098510001965F000E000198BFFF0E0001BF
:1012DC00975B05D0000E0001976F000E966F000112
:1012EC0095A518D095C08BF0030E00018B17D8B4C0
:1012FC0003D02D0E01EC0FF0000196510001971157
:10130C00D8B425D0300E01EC0FF000019607D8A010
:10131C009707F2D70001965100019711D8B40DD060
:10132C00200E01EC0FF000019607D8A097070001E2
:10133C00965100019711D8A4F3D795C08BF0030EEA
:10134C0000018B17D8B403D02D0E01EC0FF098C010
:10135C0092F059D000019251020D120EF324F66E48
:10136C00100EF420F76E0900F5CF3FF00A00F5CF10
:10137C0040F093C03DF094C03EF02EEC0DF03DC01B
:10138C0083F03EC084F0000E0001866F0A0E856F5C
:10139C005DEC0DF000018351300F0001986F2FD0E0
:1013AC0093C03DF094C03EF000019251020D1C0E12
:1013BC00F324F66E100EF420F76E0900F5CF3FF013
:1013CC000A00F5CF40F02EEC0DF03D500F0B000154
:1013DC008F6F00018F51010D590EF324F66E100E14
:1013EC00F420F76E0800F5CF98F009D00001955164
:1013FC00800B000AD8B4AED7800AD8B4D1D700017C
:10140C00985101EC0FF00001920700019229D8A429
:10141C00EDD787C0F6FF88C0F7FF0001874B882BFC
:10142C000800F5CF98F000019851D8B412002FD6CF
:10143C000F0E1A6E000E1B6E74D1250E2218D8B426
:10144C0004D022500DEC0FF06CD1000E216E000E6A
:10145C00206E000E1F6E03D01F840D4A0E2A0DC085
:10146C00F6FF0EC0F7FF0800F550300AD8B4F4D7D9
:10147C000DC0F6FF0EC0F7FF0800F550E2EC0EF0C1
:10148C00D8A035D0000E216E000E206E20C001F0C9
:10149C0021C002F0000E046E0A0E036EADEC0EF0CD
:1014AC0001C020F002C021F0D00E156EFF0E166E9A
:1014BC000DC0F6FF0EC0F7FF0800F550176E186A46
:1014CC001550172616501822175020261850212276
:1014DC000D4A0E2A0DC0F6FF0EC0F7FF0800F5509E
:1014EC00E2EC0EF0D8A003D0D1D71F8E17D00DC0D0
:1014FC00F6FF0EC0F7FF0D4A0E2A0800F5CF22F0BA
:10150C002250000AD8B41200640AD8B407D00D0ACD
:10151C00D8B404D0110AD8B4E8D703D11FBE15D063
:10152C001AC0D9FF1BC0DAFFDECF1DF0DDCF1EF0D5
:10153C00020E1A26000E1B221EAE44D0030E1F12E2
:10154C001D6C1E1ED8B01E2A3DD01AC0D9FF1BC060
:10155C00DAFFDECF1DF0DDCF1EF0020E1A26000ED4
:10156C001B2230D0010E226E050E2218D8B432D0B8
:10157C002250020D120EF324F66E100EF420F76EAC
:10158C000900F5501D5C0900F5501E58D8A022D05A
:10159C00222AEAD7010E226E040E2218D8B41AD0D1
:1015AC002250020D1C0EF324F66E100EF420F76E72
:1015BC000900F5501D5C0900F5501E58D8A00AD042
:1015CC00222AEAD71F50800B000AD8B4CBD7800A46
:1015DC00D8B4E0D720502110D8B409D01FC015F0D2
:1015EC00030E1516D8B403D02006D8A02106800E01
:1015FC0022BE7F0E156E2050225C2150800A155899
:10160C00D8B007D02250205E000E22BEFF0E215A09
:10161C0004D0000E216E000E206E1FA414D01FC02B
:10162C0015F0030E1516D8B403D02D0E0DEC0FF0DB
:10163C0020502110D8B41ED0300E0DEC0FF0200627
:10164C00D8A02106F5D720502110D8B40AD0200EEE
:10165C000DEC0FF02006D8A0210620502110D8A4A4
:10166C00F6D71FC015F0030E1516D8B403D02D0EE7
:10167C000DEC0FF022C01CF050D01C50020D120EBD
:10168C00F324F66E100EF420F76E0900F5CF03F07C
:10169C000A00F5CF04F01DC001F01EC002F0B4EC3E
:1016AC000DF001C008F002C009F0000E0B6E0A0E1E
:1016BC000A6E79EC0EF00850300F226E2BD01DC044
:1016CC0001F01EC002F01C50020D1C0EF324F66E2D
:1016DC00100EF420F76E0900F5CF03F00A00F5CFD9
:1016EC0004F0B4EC0DF001500F0B196E1950010DF4
:1016FC00590EF324F66E100EF420F76E0800F5CF99
:10170C0022F008D01F50800B000AD8B4B6D7800A3C
:10171C00D8B4D5D722500DEC0FF01C061C28D8A439
:10172C00F1D70DC0F6FF0EC0F7FF0D4A0E2A0800C8
:10173C00F5CF22F02250D8B412007FD60600FACF93
:10174C002EF0FBCF2FF0E9CF30F0EACF31F0E1CF24
:10175C0032F0E2CF33F0D9CF34F0DACF35F0F3CF2B
:10176C0036F0F4CF37F0F6CF38F0F7CF39F0F8CFBA
:10177C003AF0F5CF3BF0F0B00ED010D0DDEC0DF020
:10178C000AD00DEC0CF007D081500F0AD8B4F6D764
:10179C00300AD8B4F6D7F0A01AD0F6D7800E13ECD6
:1017AC000FF06A0E0D6E100E0E6E1EEC0AF0000E8F
:1017BC003C6E630E3C6401D0F1D7210E2D6E760E7B
:1017CC00E82EFED72D2EFCD700D03C2AF2D7F09075
:1017DC00F0863BC0F5FF3AC0F8FF39C0F7FF38C0C0
:1017EC00F6FF37C0F4FF36C0F3FF35C0DAFF34C064
:1017FC00D9FF33C0E2FF32C0E1FF31C0EAFF30C095
:10180C00E9FF2FC0FBFF2EC0FAFF4392110022EC20
:10181C000FF0000E036ED00E026E19EC0FF0000EDE
:10182C00036E000E026E19EC0FF01EEC0FF022ECA2
:10183C000FF0000E036ED10E026E19EC0FF0000EBD
:10184C002C6E050E2C6401D00ED02C50010D240EE4
:10185C00F324D96E000EF420DA6E010EC0EC0EF0FB
:10186C00DF6E2C2AEED7000EC0EC0EF02A6E1EECAA
:10187C000FF0800E13EC0FF02B0E0D6E100E0E6E83
:10188C0029C00FF0106A28C011F0126A2AC013F098
:10189C00146A1EEC0AF0C00E13EC0FF0420E0D6E23
:1018AC00100E0E6E26C00FF0106A25C011F0126AD1
:1018BC0024C013F0146A1EEC0AF0000E2B6E630E9B
:1018CC002B6401D0A4D7210E236E760EE82EFED702
:1018DC00232EFCD700D02B2AF2D7000E3D6E000E23
:1018EC003E6E000E3F6E000E406E000184510001F2
:1018FC0085110001861100018711D8B43DD0010E6D
:10190C00416E07D00001D8908437853786378737EA
:10191C00412A000187AFF6D7D8903D363E363F3688
:10192C004036000184510001805D000185510001A9
:10193C008159000186510001825900018751000133
:10194C008359D8A011D0000184510001805F00019F
:10195C0085510001815B000186510001825B000111
:10196C0087510001835B3D800001D890873386331B
:10197C0085338433412ED0D73DC080F03EC081F0FA
:10198C003FC082F040C083F01200800E07EC0FF0D5
:10199C00820E0001876F100E0001886F46EC08F074
:1019AC00C00E07EC0FF0780E0001876F100E0001CF
:1019BC00886F81CF99F00001993B0F0E99170F0E8C
:1019CC0000019917000199510001896F8A6B46EC4F
:1019DC0008F0040E00019A6FCF0E0001996F010EF2
:1019EC00E82EFED7992FFCD79A2FFAD700D0CDD757
:1019FC00000EC76E280EC66E000EC56E800E00015E
:101A0C00806F960E816F980E826F000E836F88C068
:101A1C008CF089C08DF08AC08EF08BC08FF0020ED6
:101A2C00D89000018C378D378E378F37E82EF8D74A
:101A3C008CC084F08DC085F08EC086F08FC087F08E
:101A4C0073EC0CF000018005C86E9486948812002B
:101A5C00000E0001816F000E806F3F504010D8B413
:101A6C0021D0010E0001826F05D0D8903F36403650
:101A7C000001822B40AEF9D70001D8908037813716
:101A8C003F503D5C40503E58D8A006D03F503D5E84
:101A9C0040503E5A00018081D89040323F320001C4
:101AAC00822FEAD780C03DF081C03EF012000001C9
:101ABC00855100018611D8B423D0010E416E05D09A
:101ACC000001D89085378637412A000186AFF8D7B8
:101ADC00000185510001835D00018651000184598C
:101AEC00D8A008D0000185510001835F0001865108
:101AFC000001845B0001D89086338533412EE8D7F2
:101B0C0083C083F084C084F0120092689368000E46
:101B1C00946E000E956E000E966E000E896E000E81
:101B2C008A6E000E8B6E000E8C6E000E8D6E000E8B
:101B3C00C26EC168F086F19E53EC0EF0100E0001DF
:101B4C00886F270E896F000E8A6F000E8B6FFEEC6C
:101B5C000CF0F28ECBEC0CF007EF00F0000E066EE2
:101B6C00000E056E03500410D8B41CD0010E076E85
:101B7C0004D0D89003360436072A04AEFAD7D8908E
:101B8C00053606360350015C04500258D8A005D027
:101B9C000350015E0450025A0580D890043203327F
:101BAC00072EEDD705C001F006C002F01200800E22
:101BBC0013EC0FF0820E0D6E100E0E6E1EEC0AF072
:101BCC00C00E13EC0FF0780E0D6E100E0E6E81CF52
:101BDC0023F0233A0F0E23160F0E231623500F6EED
:101BEC00106A1EEC0AF0040E246ECF0E236E020E49
:101BFC00E82EFED7232EFCD7242EFAD7D8D73E6E4C
:101C0C003E50F00B3D6E8C500F0B8C6E3D508C107B
:101C1C008C6E8C96190EE82EFED78C86190EE82E3B
:101C2C00FED73E38F00B3E6E3E50F00B3D6E8C50A6
:101C3C000F0B8C6E3D508C108C6E8C96190EE82E02
:101C4C00FED78C86190EE82EFED71200026E0250BB
:101C5C00F00B016E8C500F0B8C6E01508C108C6E37
:101C6C008C96190EE82EFED78C86190EE82EFED710
:101C7C000238F00B026E0250F00B016E8C500F0B01
:101C8C008C6E01508C108C6E8C96190EE82EFED733
:101C9C008C86190EE82EFED71200310E406EB20E55
:101CAC00E82EFED7402EFCD700D0330E07EC0FF0F9
:101CBC00330E07EC0FF0320E07EC0FF0280E07EC8A
:101CCC000FF00F0E07EC0FF0060E07EC0FF0010EE5
:101CDC0007EC0FF0310E406EB20EE82EFED7402E00
:101CEC00FCD700D012000A500B10D8B418D0010E3B
:101CFC000C6E04D0D8900A360B360C2A0BAEFAD7E1
:101D0C000A50085C0B500958D8A004D00A50085E41
:101D1C000B50095AD8900B320A320C2EF1D708C04E
:101D2C0008F009C009F012003D503F02F3CF41F01A
:101D3C00F4CF42F03D504002F35042263E503F0259
:101D4C00F350422641C03DF042C03EF0120001501B
:101D5C000302F3CF05F0F4CF06F001500402F35068
:101D6C00062602500302F350062605C001F006C0F9
:101D7C0002F01200026EF1EC0EF0C586F1EC0EF0E2
:101D8C00C9CF03F0F1EC0EF00250D8A402D0C58AF2
:101D9C0001D0C59AC588035012003F6E000E3E6EEE
:101DAC003A0E3F6005D02F0E3F6402D0010E3E6EFE
:101DBC003EC03DF03D301200036E000E026E3A0E36
:101DCC00036005D02F0E036402D0010E026E02C018
:101DDC0001F001301200C7B4FED7C5CF01F01F0EC1
:101DEC000116D8B41200F7D743904392000EF86E48
:101DFC0000018BEF0DF03F6E8C843F5005EC0EF024
:101E0C0012003F6E8C943F5005EC0EF01200036EE6
:101E1C008C8403502CEC0EF01200036E8C94035047
:101E2C002CEC0EF01200F1EC0EF002C0C9FF120007
:101E3C00F1EC0EF0C5841200F1EC0EF0C58012002E
:020000040020DA
:08000000FFFFFFFFFFFFFFFF00
:020000040030CA
:0E000000FF021F1EFF8381FF0FC00FE00F40A5
:00000001FF
