:0400000007EF00F016
:100008007E8209ED00F087EF14F00600FACF82F047
:10001800FBCF83F0E9CF84F0EACF85F0E1CF86F01B
:10002800E2CF87F0D9CF88F0DACF89F0F3CF8AF022
:10003800F4CF8BF0F6CF8CF0F7CF8DF0F8CF8EF0B1
:10004800F5CF8FF0F0B015D13BD10001E969EA692D
:10005800000E0001E86F82EC09F030D18984F28A41
:10006800D58E000ED76E000ED66E1CEC13F0B6C0FF
:10007800D9F0B5C0D8F0000E0001C36F000EC26FF2
:10008800C2C0C0F0C3C0C1F0010EF8EC15F0000109
:10009800E969EA69020EDCD00001E94BEA2B050E9A
:1000A8000001E86F1F0E8118D8A408D1FBD7DAC069
:1000B80080F0DBC081F00001801F811F804B812B05
:1000C8000001D051000180250001D66F0001D151F7
:1000D800000181210001D76F0001E969EA69060E74
:1000E800B7D00001E969EA69040EB2D08994F298A0
:1000F800F098F29AD59E1CEC13F0B6C0C5F0B5C0C6
:10010800C4F0D9C063F0646A46EC0BF063C074F0C5
:1001180064C075F074C001F075C002F0000E046E82
:100128003C0E036E7EEC15F001C080F002C081F039
:10013800D8C063F0646A46EC0BF063500001802578
:100148000001DA6F6450000181210001DB6FC5C036
:1001580063F0646A46EC0BF063C074F064C075F039
:1001680074C001F075C002F0000E046E3C0E036E00
:100178007EEC15F001C080F002C081F0C4C063F0CD
:10018800646A46EC0BF06350000180250001D06FD3
:100198006450000181210001D16F010EF8EC15F0C7
:1001A8000001E969EA69030E53D0B8EC0CF0800E3F
:1001B800F8EC15F0510E0D6EFE0E0E6E76C00FF0B7
:1001C80077C010F078C011F079C012F0E8EC03F0B5
:1001D800C00EF8EC15F0390E0D6EFE0E0E6E7AC0DC
:1001E8000FF07BC010F07CC011F07DC012F0E8EC7D
:1001F80003F064D0B8EC0CF0800EF8EC15F0510E5A
:100208000D6EFE0E0E6E76C00FF077C010F078C03F
:1002180011F079C012F0E8EC03F0C00EF8EC15F01C
:10022800390E0D6EFE0E0E6E7AC00FF07BC010F008
:100238007CC011F07DC012F0E8EC03F03FD0000E56
:1002480007D08994F29ED59E010EF8EC15F0010EA8
:100258000001E86F33D0000E026E010E016E8AECC9
:1002680011F02CD0000E026E020E016E8AEC11F015
:1002780025D081500F0AD8B4F1D6100AD8B40CD7BB
:10028800300AD8B414D7100AD8B42BD7700AD8B407
:100298002DD7140AD8B4AED7040AD8B486D7200A02
:1002A800D8B4D9D7C00AD8B4DDD7700AD8B4C9D75A
:1002B800240AD8B4C4D7040AD8B4C7D6F0907BD0DF
:1002C800F2A45FD08994D59E1CEC13F0B6C0C5F09B
:1002D800B5C0C4F0D9C063F0646A46EC0BF063C0E3
:1002E80074F064C075F074C001F075C002F0000EBF
:1002F800046E3C0E036E7EEC15F001C080F002C067
:1003080081F0D8C063F0646A46EC0BF063500001DA
:1003180080250001DA6F6450000181210001DB6F44
:10032800C5C063F0646A46EC0BF063C074F064C047
:1003380075F074C001F075C002F0000E046E3C0E3A
:10034800036E7EEC15F001C080F002C081F0C4C0DD
:1003580063F0646A46EC0BF06350000180250001ED
:10036800D06F6450000181210001D16F010EF8ECBB
:1003780015F0030E0001E86F0001E969EA69F294DB
:100388001AD0800EF8EC15F0DF0E0D6EFF0E0E6E13
:10039800E8EC03F0000E736E630E736401D0F1D7BE
:1003A800210E0001806F760EE82EFED7802FFCD735
:1003B80000F0732AF1D78FC0F5FF8EC0F8FF8DC00B
:1003C800F7FF8CC0F6FF8BC0F4FF8AC0F3FF89C02B
:1003D800DAFF88C0D9FF87C0E2FF86C0E1FF85C089
:1003E800EAFF84C0E9FF83C0FBFF82C0FAFF7E9268
:1003F80011009E0E0001A96F000E0001AA6FD5D151
:10040800250E0001B119D8B405D00001B151E2ECB4
:1004180015F0CBD1000E0001B06F000EAF6F000ECB
:100428000001AE6F05D00001AE8500019C4B9D2BED
:100438009CC0F6FF9DC0F7FF0800F550300AD8B4FD
:10044800F2D79CC0F6FF9DC0F7FF0800F55056ECA8
:1004580015F0D8A048D0000E0001B06F000EAF6FA5
:10046800AFC090F0B0C091F0000E0001936F0A0E7B
:10047800926F24EC15F090C0AFF091C0B0F0D00EA0
:100488000001A46FFF0E0001A56F9CC0F6FF9DC080
:10049800F7FF0800F5500001A66FA76B0001A451F3
:1004A8000001A6270001A5510001A7230001A651BC
:1004B8000001AF270001A7510001B02300019C4BA8
:1004C8009D2B9CC0F6FF9DC0F7FF0800F55056EC29
:1004D80015F0D8A008D0C4D70001AE8F20D0C00E28
:1004E8000001AE131CD09CC0F6FF9DC0F7FF0001B1
:1004F8009C4B9D2B0800F5CFB1F00001B151000ACB
:10050800D8B41200640AD8B40AD00D0AD8B407D0F7
:100518001C0AD8B4E4D70D0AD8B4DED746D1AEC089
:10052800A4F0C00E0001A417D8A419D0A9C0D9FFFF
:10053800AAC0DAFFDECFACF0DDCFADF0020E0001CD
:10054800A927000EAA230001ADAF53D0030E000166
:10055800AE130001AC6DAD1FD8B0AD2B4AD0A9C009
:10056800D9FFAAC0DAFFDECFACF0DDCFADF0020EC6
:100578000001A927000EAA233CD0010E0001B16F8B
:10058800050E0001B119D8B440D00001B151020DD7
:10059800B20EF324F66EFD0EF420F76E0900F55046
:1005A8000001AC5D0900F5500001AD59D8A02DD06F
:1005B8000001B12BE5D7010E0001B16F040E000157
:1005C800B119D8B422D00001B151020DBC0EF324E8
:1005D800F66EFD0EF420F76E0900F5500001AC5DD3
:1005E8000900F5500001AD59D8A00FD00001B12B7A
:1005F800E5D70001AE51C00B000AD8B4BED7800AB7
:10060800D8B4D9D7400AD8B4B8D70001AF5100013F
:10061800B011D8B40BD0AEC0A4F0030E0001A417DB
:10062800D8B404D00001AF07D8A0B007800E0001ED
:10063800B1BF7F0E0001A46F0001AF510001B15D91
:100648000001B051800A0001A459D8B00BD00001B4
:10065800B1510001AF5F000E0001B1BFFF0E0001F4
:10066800B05B05D0000E0001B06F000EAF6F000147
:10067800AEA518D0AEC0A4F0030E0001A417D8B4DC
:1006880003D02D0EE2EC15F00001AF510001B011BE
:10069800D8B425D0300EE2EC15F00001AF07D8A091
:1006A800B007F2D70001AF510001B011D8B40DD096
:1006B800200EE2EC15F00001AF07D8A0B00700014A
:1006C800AF510001B011D8A4F3D7AEC0A4F0030E07
:1006D8000001A417D8B403D02D0EE2EC15F0B1C078
:1006E800ABF05DD00001AB51020DB20EF324F66EF3
:1006F800FD0EF420F76E0900F5CF92F00A00F5CF51
:1007080093F0ACC090F0ADC091F0A4EC12F090C0A2
:1007180097F091C098F0000E00019A6F0A0E996F39
:1007280050EC13F000019751300F0001B16F33D036
:10073800ACC090F0ADC091F00001AB51020DBC0E01
:10074800F324F66EFD0EF420F76E0900F5CF92F053
:100758000A00F5CF93F0A4EC12F0000190510F0BB2
:100768000001A86F0001A851010D7F0EF324F66E59
:10077800FF0EF420F76E0800F5CFB1F00CD00001A1
:10078800AE51C00B000AD8B4ADD7800AD8B4D0D7C0
:10079800400AD8B4A7D70001B151E2EC15F0000126
:1007A800AB070001AB29D8A4EAD79CC0F6FF9DC0CF
:1007B800F7FF00019C4B9D2B0800F5CFB1F000011D
:1007C800B151D8B412001CD60F0E186E000E196E57
:1007D80084D1250E2018D8B404D02050F2EC15F09E
:1007E8007CD1000E1F6E000E1E6E000E1D6E03D013
:1007F8001D840D4A0E2A0DC0F6FF0EC0F7FF080033
:10080800F550300AD8B4F4D70DC0F6FF0EC0F7FF84
:100818000800F550B4EC15F0D8A038D0000E1F6EC3
:10082800000E1E6E1EC001F01FC002F0000E046E06
:100838000A0E036E7EEC15F001C01EF002C01FF018
:10084800D00E136EFF0E146E0DC0F6FF0EC0F7FF2C
:100858000800F550156E166A135015261450162206
:1008680015501E2616501F220D4A0E2A0DC0F6FFDF
:100878000EC0F7FF0800F550B4EC15F0D8A006D06C
:10088800D1D71D8E1DD0C00E1D121AD00DC0F6FF77
:100898000EC0F7FF0D4A0E2A0800F5CF20F02050B1
:1008A800000AD8B41200640AD8B40AD00D0AD8B421
:1008B80007D01C0AD8B4E7D70D0AD8B4E2D70DD1AF
:1008C8001DC013F0C00E1316D8A415D018C0D9FF38
:1008D80019C0DAFFDECF1BF0DDCF1CF0020E1826A0
:1008E800000E19221CAE44D0030E1D121B6C1C1ED8
:1008F800D8B01C2A3DD018C0D9FF19C0DAFFDECF06
:100908001BF0DDCF1CF0020E1826000E192230D085
:10091800010E206E050E2018D8B435D02050020DD7
:10092800B20EF324F66EFD0EF420F76E0900F550B2
:100938001B5C0900F5501C58D8A025D0202AEAD7FE
:10094800010E206E040E2018D8B41DD02050020DC0
:10095800BC0EF324F66EFD0EF420F76E0900F55078
:100968001B5C0900F5501C58D8A00DD0202AEAD7E6
:100978001D50C00B000AD8B4CBD7800AD8B4E0D732
:10098800400AD8B4C5D71E501F10D8B409D01DC00E
:1009980013F0030E1316D8B403D01E06D8A01F06F2
:1009A800800E20BE7F0E136E1E50205C1F50800AE2
:1009B8001358D8B007D020501E5E000E20BEFF0E80
:1009C8001F5A04D0000E1F6E000E1E6E1DA414D0F8
:1009D8001DC013F0030E1316D8B403D02D0EF2EC7D
:1009E80015F01E501F10D8B41ED0300EF2EC15F0C2
:1009F8001E06D8A01F06F5D71E501F10D8B40AD05F
:100A0800200EF2EC15F01E06D8A01F061E501F106F
:100A1800D8A4F6D71DC013F0030E1316D8B403D00C
:100A28002D0EF2EC15F020C01AF053D01A50020D1A
:100A3800B20EF324F66EFD0EF420F76E0900F5CF22
:100A480003F00A00F5CF04F01BC001F01CC002F04F
:100A58000FEC14F001C008F002C009F0000E0B6E94
:100A68000A0E0A6EACEC14F00850300F206E2ED02F
:100A78001BC001F01CC002F01A50020DBC0EF3247A
:100A8800F66EFD0EF420F76E0900F5CF03F00A00AC
:100A9800F5CF04F00FEC14F001500F0B176E175040
:100AA800010D7F0EF324F66EFF0EF420F76E08009A
:100AB800F5CF20F00BD01D50C00B000AD8B4B6D724
:100AC800800AD8B4D5D7400AD8B4B0D72050F2ECB1
:100AD80015F01A061A28D8A4EED70DC0F6FF0EC0D6
:100AE800F7FF0D4A0E2A0800F5CF20F02050D8B4A1
:100AF80012006FD649504A104B10D8A407D0000EE8
:100B0800496E800E4A6E3F0E4B6E1200720E016ED9
:100B1800310E026E440E036E49C004F04AC005F05F
:100B28004BC006F01AEC12F0D8B00CD0000E000141
:100B3800C76F220EC66FFF0E496E7F0E4A6E7F0E7C
:100B48004B6E120049C001F04AC002F04BC003F0DE
:100B5800490E046E3A0E056EC40E066E1AEC12F0BB
:100B6800D8B00CD0000E0001C76F220EC66F000E61
:100B7800496E000E4A6E000E4B6E12004BAE02D04C
:100B8800010E01D0000E516E5150D8B40ED049C09C
:100B980001F04AC002F04BC003F091EC15F001C01F
:100BA80049F002C04AF003C04BF049C00DF04AC0FA
:100BB8000EF04BC00FF0AA0E106EB80E116E3F0E5D
:100BC800126E3EEC0CF00DC049F00EC04AF00FC09A
:100BD8004BF049C041F04AC042F04BC043F012EC20
:100BE8000EF041C04CF042C04DF043C04EF04CC036
:100BF80028F04DC029F04EC02AF0C4EC0BF028C0F4
:100C08004FF029C050F049C028F04AC029F04BC025
:100C18002AF04FC009F050C00AF0EDEC14F009C0FA
:100C28002BF00AC02CF00BC02DF0CDEC14F028C02E
:100C380049F029C04AF02AC04BF049C028F04AC000
:100C480029F04BC02AF0CB0E2B6EFD0E2C6E000E39
:100C58002E6E090E2D6E58EC0FF028C034F029C006
:100C680035F02AC036F04FC037F050C038F0C1EC2C
:100C78000FF034C049F035C04AF036C04BF051503F
:100C8800D8B425D049280EE17F0E4A180BE17F0E13
:100C98004B18D8A407D0000E496E000E4A6E000EFD
:100CA8004B6E1200000E096E800E0A6E3F0E0B6E20
:100CB80049C00CF04AC00DF04BC00EF02FEC0DF0FF
:100CC80009C049F00AC04AF00BC04BF0120049C0F5
:100CD80049F04AC04AF04BC04BF012001EC022F047
:100CE800236A246A1D34223601E323802250276EAA
:100CF80021C022F0236A246A2034223601E32380AB
:100D08002250266E2750D8B40BD02650275CD8B076
:100D18000ED0275000082624226E180E226407D011
:100D28001FC01CF020C01DF021C01EF0120026506C
:100D3800D8B40BD02750265CD8B00ED02650000867
:100D48002724226E180E226407D01CC01CF01DC078
:100D58001DF01EC01EF01200060E256E1EBE258E4A
:100D680021BE258C1D8EFF0E1C16FF0E1D16000EB3
:100D78001E16208EFF0E1F16FF0E2016000E2116BF
:100D88002650275CD8B01BD0D8901F362036213685
:100D9800260627502618D8B40DD0250625C022F0DF
:100DA800070E2216D8B406D0EFD7D8901E321D32BF
:100DB8001C32272A26502718D8B41FD0F6D7275018
:100DC800265CD8B01AD0D8901C361D361E36270699
:100DD80027502618D8B40DD0250625C022F0070EB6
:100DE8002216D8B406D0EFD7D890213220321F323D
:100DF800262A26502718D8A4F7D725AE0CD0FF0EE0
:100E08001C1AFF0E1D1AFF0E1E1A010E1C26000EBC
:100E18001D22000E1E2225AC0CD0FF0E1F1AFF0E3D
:100E2800201AFF0E211A010E1F26000E2022000E86
:100E38002122000E256E1C501F261D5020221E50F8
:100E4800212221AE0ED0FF0E1F1AFF0E201AFF0E10
:100E5800211A010E1F26000E2022000E2122010E4B
:100E6800256E1FC001F020C002F021C003F027C08A
:100E780004F025C005F0E2EC10F001C01CF002C03F
:100E88001DF003C01EF01200A7D0800EEAEC15F08A
:100E9800A10E00019C6FFF0E00019D6FFDEC01F09B
:100EA800C00EEAEC15F0900E00019C6FFF0E0001D9
:100EB8009D6FDEC09EF0DFC09FF0FDEC01F01200D8
:100EC800800EEAEC15F0EF0E00019C6FFE0E00019B
:100ED8009D6FE4C09EF0E5C09FF0FDEC01F0C00EF0
:100EE800EAEC15F0130E00019C6FFF0E00019D6FD8
:100EF800E2C09EF0E3C09FF0FDEC01F01200800E0E
:100F0800EAEC15F0010E00019C6FFF0E00019D6FC9
:100F1800E6C09EF0E7C09FF0FDEC01F0C00EEAECE1
:100F280015F0250E00019C6FFF0E00019D6FE0C0BB
:100F38009EF0E1C09FF0FDEC01F01200800EEAEC9B
:100F480015F0370E00019C6FFF0E00019D6FCCC09D
:100F58009EF0CDC09FF0FDEC01F0C00EEAEC15F05C
:100F68005B0E00019C6FFF0E00019D6FCAC09EF0D2
:100F7800CBC09FF0FDEC01F01200800EEAEC15F0FA
:100F8800490E00019C6FFF0E00019D6FCEC09EF0C0
:100F9800CFC09FF0FDEC01F0C00EEAEC15F06D0E2D
:100FA80000019C6FFF0E00019D6FC8C09EF0C9C074
:100FB8009FF0FDEC01F01200800EEAEC15F0ED0E4A
:100FC80000019C6FFF0E00019D6FE9C09EF0EAC012
:100FD8009FF0FDEC01F0F0D7E9C090F0EAC091F085
:100FE800000E0001936F050E926F39EC11F00001AD
:100FF8009151000AD8A4E0D700019051000AD8B452
:1010080044D7010AD8B45CD7030AD8B478D7010A00
:10101800D8B494D7070AD8B4B0D7CED7000E5E6E2E
:10102800525053105410D8A41CD0000E016E000E5C
:10103800026E000E036E55C004F056C005F057C08E
:1010480006F01AEC12F0D8A005D0000E0001C76F08
:10105800210EC66F000E526E000E536E000E546EB7
:101068001200555056105710D8A407D0000E526ED3
:10107800800E536E3F0E546E120054AE41D055C0D0
:1010880028F056C029F057C02AF0C4EC0BF028C04D
:101098005FF029C060F02AC061F02BC062F05FC029
:1010A80009F060C00AF061C00BF062C00CF0E1EC1E
:1010B80013F05550091807E156500A1804E1575023
:1010C8000B18D8B40CD0000E0001C76F210EC66FE4
:1010D800000E526E000E536E000E546E12005F50DA
:1010E800010B5E6E52C001F053C002F054C003F011
:1010F80091EC15F001C052F002C053F003C054F057
:1011080052C034F053C035F054C036F0B7EC0AF092
:1011180034C058F035C059F036C05AF058C00DF0F8
:1011280059C00EF05AC00FF055C010F056C011F05B
:1011380057C012F03EEC0CF00DC05BF00EC05CF036
:101148000FC05DF05BC049F05CC04AF05DC04BF079
:101158007EEC05F049C052F04AC053F04BC054F041
:101168005E50D8B40FD052C001F053C002F054C042
:1011780003F091EC15F001C052F002C053F003C027
:1011880054F0120052C052F053C053F054C054F0FF
:1011980012000CEC16F0000E0001926F520E916FC7
:1011A800FEEC15F0000E0001926F800E916FFEECC0
:1011B80015F0000E0001926F010E916FFEEC15F014
:1011C80008EC16F00A0E0001936FBC0EE82EFED74D
:1011D800932FFCD700F00CEC16F0000E0001926F74
:1011E800520E916FFEEC15F0000E0001926F800E0A
:1011F800916FFEEC15F0000E0001926F030E916FD7
:10120800FEEC15F008EC16F00CEC16F0000E0001E0
:10121800926F520E916FFEEC15F0000E0001926F66
:101228008F0E916FFEEC15F0000E0001926F020E0A
:10123800916FFEEC15F008EC16F00CEC16F0000EB1
:101248000001926F520E916FFEEC15F0000E000136
:10125800926FA40E916FFEEC15F0000E0001926FD4
:10126800000E916FFEEC15F0000E0001926F000E5B
:10127800916FFEEC15F0000E0001926F000E916F59
:10128800FEEC15F0000E0001926F4A0E916FFEEC15
:1012980015F008EC16F00CEC16F0000E0001926F39
:1012A800520E916FFEEC15F0000E0001926F8C0E3D
:1012B800916FFEEC15F0000E0001926F010E916F18
:1012C800FEEC15F008EC16F00CEC16F0000E000120
:1012D800926F520E916FFEEC15F0000E0001926FA6
:1012E800810E916FFEEC15F0000E0001926FFE0E5C
:1012F800916FFEEC15F008EC16F0120014EC16F0E5
:10130800000E036E520E026E03EC16F0000E036E12
:10131800800E026E03EC16F0000E036E010E026ED4
:1013280003EC16F010EC16F00A0E046EBC0EE82E54
:10133800FED7042EFCD700D014EC16F0000E036E76
:10134800520E026E03EC16F0000E036E800E026E53
:1013580003EC16F0000E036E030E026E03EC16F09B
:1013680010EC16F014EC16F0000E036E520E026E1E
:1013780003EC16F0000E036E8F0E026E03EC16F0EF
:10138800000E036E020E026E03EC16F010EC16F05F
:1013980014EC16F0000E036E520E026E03EC16F0FB
:1013A800000E036EA40E026E03EC16F0000E036E20
:1013B800000E026E03EC16F0000E036E000E026EB5
:1013C80003EC16F0000E036E000E026E03EC16F02E
:1013D800000E036E4A0E026E03EC16F010EC16F0C7
:1013E80014EC16F0000E036E520E026E03EC16F0AB
:1013F800000E036E8C0E026E03EC16F0000E036EE8
:10140800010E026E03EC16F010EC16F014EC16F058
:10141800000E036E520E026E03EC16F0000E036E01
:10142800810E026E03EC16F0000E036EFE0E026EC5
:1014380003EC16F010EC16F012000CEC16F0000E8F
:101448000001926F520E916FFEEC15F0000E000134
:10145800926FB40E916FFEEC15F00CEC16F0000EC6
:101468000001926F530E916FFEEC15F0000E000113
:10147800A06F000E9F6F0001A0BF08D00001A0510F
:1014880021E1030E00019F5DD8B01CD0970E00012A
:101498009F25D96E000E0001A021DA6E010E3FECE7
:1014A80015F0DF6E9B0E00019F25D96E000E00011E
:1014B800A021DA6E010E3FEC15F0DF6E00019F4BA4
:1014C800A02BD9D7010E3FEC15F000019A6F000E42
:1014D8003FEC15F000019E6F08EC16F0000E0001BD
:1014E800A06F000E9F6F0001A0BF08D00001A0519F
:1014F80039E1040E00019F5DD8B012009B0E000177
:101508009F25D96E000E0001A021DA6EDF50000180
:10151800936F000193510001956F946B970E000132
:101528009F25D96E000E0001A021DA6EDF50000160
:10153800966F0001965100019413000E9513D890F0
:1015480000019F35D96E0001A035DA6E760ED926D6
:10155800000EDA2294C0DEFF95C0DDFF00019F4B2C
:10156800A02BC1D7120036AE0CD0000E0001C76FF9
:10157800210EC66F000E346E000E356E000E366EEC
:101588001200345035103610D8A40CD0000E0001CB
:10159800C76F220EC66F000E346E000E356E000E39
:1015A800366E1200000E106E000E116E400E126E96
:1015B800370E046E000E056E34C001F035C002F01F
:1015C80036C003F0D2EC11F001C00DF002C00EF0ED
:1015D80003C00FF03EEC0CF00DC01CF00EC01DF067
:1015E8000FC01EF0000E1F6E800E206EBF0E216E03
:1015F80072EC06F01CC034F01DC035F01EC036F089
:101608003706D8A0380634C028F035C029F036C0CF
:101618002AF0E90E2B6EFD0E2C6E000E2E6E080EB3
:101628002D6E58EC0FF028C034F029C035F02AC0D0
:1016380036F0720E106E310E116E3F0E126E37C0FC
:1016480009F038C00AF0EDEC14F009C00DF00AC03A
:101658000EF00BC00FF03EEC0CF00DC01CF00EC0ED
:101668001DF00FC01EF034C01FF035C020F036C08A
:1016780021F072EC06F01CC034F01DC035F01EC01D
:1016880036F01200000E6E6E000E6D6E63C071F0C3
:1016980064C072F0000E706E000E6F6E68D00F0E90
:1016A80071146B6E6C6A6DC009F06EC00AF0EDECD7
:1016B80014F009C065F00AC066F00BC067F065C099
:1016C80055F066C056F067C057F0000E526E200EF7
:1016D800536E410E546E12EC08F052C068F053C0BD
:1016E80069F054C06AF068C010F069C011F06AC0AF
:1016F80012F06BC009F06CC00AF0EDEC14F009C0F0
:101708000DF00AC00EF00BC00FF03EEC0CF00DC04F
:101718001FF00EC020F00FC021F06FC009F070C09C
:101728000AF0EDEC14F009C01CF00AC01DF00BC063
:101738001EF072EC06F01CC028F01DC029F01EC077
:101748002AF0C4EC0BF028C06FF029C070F071C00B
:1017580001F072C002F0000E046E100E036E62EC0F
:1017680012F001C071F002C072F06D4A6E2A715019
:101778007210D8A494D76FC063F070C064F01200E0
:101788002AC02CF02D6A2E6A29342C3601E32D80CC
:101798002C50366E3650D8A409D0000E286E000E94
:1017A800296E000E2A6E000E2B6E1200170E2C6E7C
:1017B80028C02DF029C02EF02AC02FF02C28306E1A
:1017C80004D0D8902F322E322D32302EFAD72D5009
:1017D800316E298EFF0E2816FF0E2916000E2A16C6
:1017E8002850326E2950336E2A50346E356A8E0E68
:1017F800365E36AE16D03650800A8F0FD8B009D074
:10180800000E286E000E296E000E2A6E000E2B6E3A
:101818001200D8903532343233323232363EF9D76C
:1018280015D0170E36640FD0000E286E000E296EE4
:10183800000E2A6E000E2B6E1200D8903236333608
:101848003436353636063650D8A4F7D73150D8B4A2
:1018580008D0351E341E331E326C000E332234225B
:10186800352232C028F033C029F034C02AF035C000
:101878002BF012000FC013F0146A156A0E341336D9
:1018880001E314801350166E1650D8A407D0000E2A
:101898000D6E000E0E6E000E0F6E120012C013F0C9
:1018A800146A156A1134133601E3148013501B6E41
:1018B8001B50D8A407D0000E0D6E000E0E6E000E41
:1018C8000F6E12001B507B0F16260FC01BF0125014
:1018D8001B1A800E1B160E8E118EFF0E1016FF0E91
:1018E8001116000E1216000E176E000E186E000E5E
:1018F800196E070E1A6E0DA006D01050172611503B
:10190800182212501922D8900F320E320D32D89068
:101918001036113612361A2EEED7090E1A6E0DA091
:1019280006D0105017261150182212501922D8909C
:101938000F320E320D32D8901932183217321A2E51
:10194800EED717C001F018C002F019C003F016C096
:1019580004F01BC005F0E2EC10F001C00DF002C06D
:101968000EF003C00FF0120014EC16F0000E036E18
:10197800520E026E03EC16F0000E036EB40E026EE9
:1019880003EC16F014EC16F0000E036E530E026E04
:1019980003EC16F0000E116E000E106E11BE06D08C
:1019A80011501BE1030E105CD8B017D0080E10249C
:1019B800D96E000E1120DA6E010E6BEC15F0DF6E99
:1019C8000C0E1024D96E000E1120DA6E010E6BEC8D
:1019D80015F0DF6E104A112AE1D7010E6BEC15F0F5
:1019E8000B6E000E6BEC15F00F6E10EC16F0000E7F
:1019F800116E000E106E11BE06D011502BE1040EB0
:101A0800105CD8B012000C0E1024D96E000E1120F4
:101A1800DA6EDF50046E0450066E056A080E102454
:101A2800D96E000E1120DA6EDF50076E07500512CE
:101A3800000E0612D8901034D96E1134DA6E760E74
:101A4800D926000EDA2205C0DEFF06C0DDFF104AE7
:101A5800112AD1D712000BC00FF0106A116A0A348C
:101A68000F3601E310800F50166E1650D8A407D019
:101A7800000E096E000E0A6E000E0B6E12000EC0EC
:101A88000FF0106A116A0D340F3601E310800F5001
:101A9800176E1750D8A407D0000E096E000E0A6EF4
:101AA800000E0B6E1200000E136E000E146E000E68
:101AB800156E1750890F165E0BC017F00E50171AC7
:101AC800800E17160A8EFF0E0916FF0E0A16000E54
:101AD8000B160D8EFF0E0C16FF0E0D16000E0E16B1
:101AE800180E126ED8901336143615360C50095C41
:101AF8000D500A580E500B58D8A007D00C50095E4C
:101B08000D500A5A0E500B5A1380D89009360A36CF
:101B18000B36122EE7D713C001F014C002F015C01F
:101B280003F016C004F017C005F0E2EC10F001C095
:101B380009F002C00AF003C00BF0120021EC0AF011
:101B480077BE35D0775004E1150E765CD8A02FD03B
:101B58000001DC510001DD11D8A40AD078C0BCF026
:101B680079C0BDF0000E0001DD6F010EDC6F1200C0
:101B7800800EEAEC15F0D10E00019C6FFF0E0001FB
:101B88009D6FFDEC01F0C00EEAEC15F0F70E0001B8
:101B98009C6FFF0E00019D6F76C09EF077C09FF08E
:101BA80078C0A0F079C0A1F0FDEC01F012000001AE
:101BB800DC510001DD11D8B40AD078C0BEF079C07C
:101BC800BFF0000E0001DD6F000EDC6F1200800E0A
:101BD800EAEC15F0F70E00019C6FFF0E00019D6FF7
:101BE800BCC09EF0BDC09FF0BEC0A0F0BFC0A1F0B9
:101BF800FDEC01F0C00EEAEC15F0F70E00019C6F49
:101C0800FF0E00019D6F76C09EF077C09FF078C0F0
:101C1800A0F079C0A1F0FDEC01F0120041C001F084
:101C280042C002F043C003F0470E046E000E056E7A
:101C3800D2EC11F048AE10D043AE07D0000E416E82
:101C4800800E426EBF0E436E1200000E416E000EF3
:101C5800426E000E436E1200485004E1150E475CB8
:101C6800D8A007D041C041F042C042F043C043F081
:101C7800120041C028F042C029F043C02AF0C4EC49
:101C88000BF028C037F029C038F02AC039F02BC033
:101C98003AF0E0EC12F037C044F038C045F039C0F3
:101CA80046F041C001F042C002F043C003F044C016
:101CB80004F045C005F046C006F01AEC12F0D8B0A2
:101CC80015D044C01CF045C01DF046C01EF0000EE3
:101CD8001F6E800E206EBF0E216E72EC06F01CC0C7
:101CE80041F01DC042F01EC043F0120044C041F054
:101CF80045C042F046C043F01200FB0E926E936856
:101D0800000E946E000E956E000E966E000E896E93
:101D1800000E8A6E000E8B6E000E8C6E000E8D6E9D
:101D2800000EC26EC168F28EF086F298F098F19EAD
:101D380038EC14F0100E00019D6F270E9E6F000EF8
:101D48009F6F000EA06FB1EC13F0CDEC08F0000E01
:101D5800D76E000ED66ED59CD59AD596D584D582E9
:101D6800D580000E0001E86F15D0A2EC0DF029D047
:101D7800A3EC15F026D024EC10F023D0C3EC15F01A
:101D880020D0EFEC0EF01DD048EC07F01AD009EC8B
:101D980015F017D00001E851000AD8B4E6D7010AB7
:101DA800D8B4E6D7030AD8B4E6D7010AD8B4E6D738
:101DB800070AD8B4E6D7010AD8B4E6D7030AD8B4D4
:101DC800E6D7210E0001B46F760EE82EFED7B42FA9
:101DD800FCD700F0DFD70CEC16F0000E0001926F74
:101DE800D00E916FFEEC15F0000E0001926F000E00
:101DF800916FFEEC15F008EC16F00CEC16F0000EE6
:101E08000001926FD10E916FFEEC15F0000E0001EB
:101E1800B26F050E0001B26501D010D00001B251B9
:101E2800010DB50EF324D96E000EF420DA6E010E02
:101E38003FEC15F0DF6E0001B22BEBD7000E3FEC44
:101E480015F00001BB6F08EC16F0800EEAEC15F0F7
:101E5800AF0E00019C6FFE0E00019D6FBAC09EF090
:101E680000019F6BB9C0A0F00001A16BBBC0A2F03C
:101E78000001A36BFDEC01F0C00EEAEC15F0C60EF4
:101E880000019C6FFE0E00019D6FB7C09EF000011F
:101E98009F6BB6C0A0F00001A16BB5C0A2F0000115
:101EA800A36BFDEC01F012002DC001F02EC002F072
:101EB800000E046E030E036E7EEC15F02BC02FF09F
:101EC8002CC030F001502F26025030222FC0F6FFD0
:101ED80030C0F7FF0900F5CF31F00900F5CF32F037
:101EE8000A00F5CF33F03ED031C010F032C011F007
:101EF80033C012F028C00DF029C00EF02AC00FF030
:101F08003EEC0CF00DC01CF00EC01DF00FC01EF012
:101F1800000E046E030E036E2D06D8A02E062DC0EB
:101F280001F02EC002F07EEC15F02BC02FF02CC073
:101F380030F001502F26025030222FC0F6FF30C05B
:101F4800F7FF0900F5CF1FF00900F5CF20F00A00D0
:101F5800F5CF21F072EC06F01CC031F01DC032F054
:101F68001EC033F02D502E10D8A4BED731C028F093
:101F780032C029F033C02AF0120034503510361020
:101F8800D8A407D0000E346E000E356E000E366EE3
:101F9800120036507F0B396E3A6AD89039363A3685
:101FA800395037263A50382235AE03D0396A392AA3
:101FB80001D0396A39503726000E382238AE0CD095
:101FC800000E0001C76F220EC66F000E346E000EA1
:101FD800356E000E366E120038BE16D03804D8A002
:101FE80013D0000E0001C76F220EC66F36AE06D0A2
:101FF800FF0E346E7F0E356EFF0EECD7FF0E346E7B
:102008007F0E356E7F0EE6D7383438303A6E37306B
:10201800396E36503918800B3918366E37C039F09A
:10202800010E391639323932355039187F0B3918C3
:10203800356E34C034F035C035F036C036F0120095
:1020480031D0800EEAEC15F0810E00019C6FFE0E77
:1020580000019D6FFDEC01F0000E0001D56F010E2F
:102068001FD0800EEAEC15F0690E00019C6FFE0E81
:1020780000019D6FFDEC01F0000E0001D56F020E0E
:102088000FD0800EEAEC15F0200E00019C6FFE0EBA
:1020980000019D6FFDEC01F0000E0001D56F000EF0
:1020A800D46F14D0D4C0B2F0D5C0B3F00001B3518E
:1020B800000AD8A40BD00001B251000AD8B4C1D785
:1020C800010AD8B4CED7030AD8B4DBD7C00EEAECDD
:1020D80015F021EC0AF0040E00019C6FFE0E0001C1
:1020E8009D6F78C09EF079C09FF07AC0A0F07BC049
:1020F800A1F07CC0A2F07DC0A3F0FDEC01F01200BD
:10210800000E0001986F000E996F000E9A6F000E76
:102118009B6F000194510001951100019611000177
:102128009711D8B442D0010E00019C6F08D000016D
:10213800D890943795379637973700019C2B000134
:1021480097AFF5D70001D890983799379A379B37CA
:10215800000194510001905D0001955100019159D1
:1021680000019651000192590001975100019359BD
:10217800D8A012D0000194510001905F0001955140
:102188000001915B000196510001925B000197519B
:102198000001935B000198810001D8909733963332
:1021A8009533943300019C2FCDD798C090F099C0F7
:1021B80091F09AC092F09BC093F012000450D8B4EA
:1021C80005D0015002100310D8A40CD0000E016EE7
:1021D800000E026E000E036E1200042AD89003321D
:1021E80002320132000E0114066E000E0214076E50
:1021F800FE0E0314086E065007100810D8B40CD051
:10220800ECD7042A010E0126000E0222000E03223A
:10221800D890033202320132000E0114066E000E0D
:102228000214076EFF0E0314086E065007100810FC
:10223800D8B406D0E6D70406D8900136023603365D
:1022480002BE03D0020E0460F6D704A0029ED89006
:102258000432045003120550D8A4038E01C001F0C3
:1022680002C002F003C003F01200000E0001956FD7
:10227800000191AF08D00001906D911FD8B0912B4B
:10228800010E0001956F000193AF05D00001926D1A
:10229800931FD8B0932B0001925100019311D8B429
:1022A80026D0010E0001946F06D00001D890923715
:1022B80093370001942B000193AFF7D70001925197
:1022C8000001905D0001935100019159D8A008D0F8
:1022D800000192510001905F000193510001915B50
:1022E8000001D890933392330001942FE7D700016F
:1022F80095510001D8B405D00001906D911FD8B058
:10230800912B90C090F091C091F0120001C005F09F
:1023180002C006F0000E086E000E076E08503DE180
:10232800320E075CD8B012008B80000E0A6E000EC9
:10233800096E09D0040E036E3E0EE82EFED7032E5A
:10234800FCD7094A0A2A0550095C06500A58D8A041
:10235800F1D78B90000E0A6E000E096E09D0040E9C
:10236800036E3E0EE82EFED7032EFCD7094A0A2A32
:1023780005C003F006C004F0031E041E034A042A25
:10238800140E0326000E04220350095C04500A5858
:10239800D8A0E5D7074A082AC1D712000150021071
:1023A8000310D8A40FD004C0D9FF05C0DAFF000E6F
:1023B800DE6E000EDD6E000E016E000E026E000E67
:1023C800036E120003507F0B066E076AD89006361C
:1023D800073604C0D9FF05C0DAFF06C0DEFF07C014
:1023E800DDFF02AE03D0066A062A01D0066A06504F
:1023F80004C0D9FF05C0DAFFDE12000EDD1204C0EA
:10240800D9FF05C0DAFF820EDE26FF0EDD2203802B
:102418000382038403860388038A039C029E01C007
:1024280001F002C002F003C003F0120003AE16D0A0
:1024380001C007F002C008F003C009F0071E081E1B
:10244800091E072A000E08220922000E0724016E21
:10245800000E0820026E800E0920036E06AE16D00C
:1024680004C007F005C008F006C009F0071E081EE2
:10247800091E072A000E08220922000E0724046EEE
:10248800000E0820056E800E0920066E000E011A47
:10249800000E021A800E031A000E041A000E051A06
:1024A800800E061A0450015C055002580650035865
:1024B800D8B002D0D8901200D8801200000E066E54
:1024C80004AE06D0036C041ED8B0042A010E066EB2
:1024D80002AE06D0016C021ED8B0022A010E061AFE
:1024E800000E086E000E076E03500410D8B41CD0FE
:1024F800010E056E04D0D89003360436052A04AEC2
:10250800FAD7D890073608360350015C04500258B1
:10251800D8A005D00350015E0450025A0780D89015
:1025280004320332052EEDD70650D8B404D0076C18
:10253800081ED8B0082A07C001F008C002F012002F
:10254800000E0001956F000E946F0001925100017A
:102558009311D8B42CD0010E0001966F06D000015B
:10256800D890923793370001962B000193AFF7D795
:102578000001D89094379537000192510001905D81
:102588000001935100019159D8A00AD0000192513D
:102598000001905F000193510001915B000194815B
:1025A8000001D890933392330001962FE1D794C05D
:1025B80090F095C091F01200000E406E8E0E3F6EA6
:1025C8003AAE11D03A1E391E381E376C000E38222A
:1025D80039223A22010E406E06D0D8903A3239326A
:1025E800383237323F2A000E37143B6E000E38144B
:1025F8003C6E000E39143D6EFF0E3A143E6E3B5091
:102608003C103D103E10D8A4E8D737C001F038C0C0
:1026180002F039C003F03FC004F040C005F0E2EC1E
:1026280010F001C037F002C038F003C039F01200D2
:1026380014EC16F0000E036ED00E026E03EC16F0CA
:10264800000E036E000E026E03EC16F010EC16F08E
:1026580014EC16F0000E036ED10E026E03EC16F0A9
:10266800000E046E050E046401D00ED00450010D56
:10267800B50EF324D96E000EF420DA6E010E6BEC61
:1026880015F0DF6E042AEED7000E6BEC15F0000192
:10269800BB6F10EC16F012000001995100019A115D
:1026A800D8B426D0010E00019B6F06D00001D89047
:1026B80099379A3700019B2B00019AAFF7D7000191
:1026C80099510001975D00019A5100019859D8A0CD
:1026D80008D0000199510001975F00019A5100014B
:1026E800985B0001D8909A33993300019B2FE7D764
:1026F80097C097F098C098F012000001916F000100
:102708009151F00B0001906F8C500F0B8C6E0001F3
:1027180090518C108C6E8C96190EE82EFED78C86F4
:10272800190EE82EFED700019139F00B0001916FC8
:1027380000019151F00B0001906F8C500F0B8C6EC3
:10274800000190518C108C6E8C96190EE82EFED7D5
:102758008C86190EE82EFED71200000EC76E280EC2
:10276800C66E000EC56E800E0001906F960E916FBA
:10277800980E926F000E936F9DC0A1F09EC0A2F0BC
:102788009FC0A3F0A0C0A4F0020ED8900001A1370A
:10279800A237A337A437E82EF8D7A1C094F0A2C077
:1027A80095F0A3C096F0A4C097F084EC10F0000157
:1027B8009005C86E9486948812008E0E116E06D00D
:1027C800D8900C320B320A320932112A000E091441
:1027D8000D6E000E0A140E6E000E0B140F6EFF0E17
:1027E8000C14106E0D500E100F101010D8A4E8D74E
:1027F80009C001F00AC002F00BC003F011C004F0D8
:10280800000E056EE2EC10F001C009F002C00AF0FB
:1028180003C00BF01200000E066E000E056E03508A
:102828000410D8B41CD0010E076E04D0D89003361B
:102838000436072A04AEFAD7D89005360636035070
:10284800015C04500258D8A005D00350015E045022
:10285800025A0580D89004320332072EEDD705C0FE
:1028680001F006C002F01200310E0001936FB20EA3
:10287800E82EFED7932FFCD700F0330EEAEC15F0C4
:10288800330EEAEC15F0320EEAEC15F0280EEAECFD
:1028980015F00F0EEAEC15F0060EEAEC15F0010E35
:1028A800EAEC15F0310E0001936FB20EE82EFED758
:1028B800932FFCD700F01200026E0250F00B016E4D
:1028C8008C500F0B8C6E01508C108C6E8C96190EE0
:1028D800E82EFED78C86190EE82EFED70238F00BAC
:1028E800026E0250F00B016E8C500F0B8C6E015073
:1028F8008C108C6E8C96190EE82EFED78C86190ECD
:10290800E82EFED71200300EF66E2C0EF76E000E73
:10291800F86E0900F5CFE9F00900F5CFEAF001EE0D
:1029280000F0160EEE6AE806FDE100EEB5F0340E92
:10293800EE6AE806FDE100EE76F0080EEE6AE806BB
:10294800FDE17E907E92000EF86E000181EF0EF0A0
:102958000A500B10D8B418D0010E0C6E04D0D890C1
:102968000A360B360C2A0BAEFAD70A50085C0B5005
:102978000958D8A004D00A50085E0B50095AD890BC
:102988000B320A320C2EF1D708C008F009C009F042
:1029980012002B502C102D10D8B406D0000E2B1A74
:1029A800000E2C1A800E2D1A28C01CF029C01DF00C
:1029B8002AC01EF02BC01FF02CC020F02DC021F023
:1029C80072EC06F01CC028F01DC029F01EC02AF0C9
:1029D8001200000E0C6E0AAE06D0096C0A1ED8B0A2
:1029E8000A2A010E0C6E09C001F00AC002F0036A3F
:1029F8008E0E046E0CC005F0E2EC10F001C009F078
:102A080002C00AF003C00BF01200800EEAEC15F0C9
:102A1800980E00019C6FFE0E00019D6FFDEC01F009
:102A2800C00EEAEC15F0DD0E00019C6FFE0E0001F1
:102A38009D6FD6C09EF0D7C09FF0FDEC01F012004C
:102A48000001905100019203F3CF94F0F4CF95F078
:102A58000001905100019303F350000195270001F4
:102A6800915100019203F3500001952794C090F012
:102A780095C091F012000001916FCFEC15F0C5865A
:102A8800CFEC15F0C9CF92F0CFEC15F000019151C1
:102A98000001D8A402D0C58A01D0C59AC588000112
:102AA800925112000001926F000E0001916F3A0ED0
:102AB8000001926107D02F0E0001926503D0010E2C
:102AC8000001916F91C090F0000190311200026EE8
:102AD800D9EC15F0C586D9EC15F0C9CF03F0D9ECBF
:102AE80015F00250D8A402D0C58A01D0C59AC5886D
:102AF8000350120001500302F3CF05F0F4CF06F0A3
:102B080001500402F350062602500302F350062631
:102B180005C001F006C002F01200015002100310B7
:102B2800D8B406D0000E011A000E021A800E031A3D
:102B380001C001F002C002F003C003F01200F29ECF
:102B48008094010EEAEC15F0800EEAEC15F0C20E46
:102B580000019C6FFF0E00019D6FFDEC01F0FFD797
:102B6800036E000E026E3A0E036005D02F0E03644A
:102B780002D0010E026E02C001F001301200800E78
:102B8800EAEC15F0B20E00019C6FFF0E00019D6F7C
:102B9800FDEC01F01200C7B4FED7C5CF90F01F0EB0
:102BA80000019017D8B41200F6D7C7B4FED7C5CF26
:102BB80001F01F0E0116D8B41200F7D70001926F6A
:102BC8008C840001925181EC13F012000001926F85
:102BD8008C940001925181EC13F01200036E8C84E6
:102BE800035060EC14F01200036E8C94035060ECF8
:102BF80014F01200CFEC15F091C0C9FF1200D9EC07
:102C080015F002C0C9FF1200CFEC15F0C584120000
:102C1800CFEC15F0C5801200D9EC15F0C584120070
:0A2C2800D9EC15F0C5801200FFFF83
:10FDA000003132334134353642373839432A302333
:10FDB000440001000A006400E8031027010010005D
:10FDC000000100105035210805021700803F7231F4
:10FDD0003FFE753E58633D951D3CC5AE3A792139CD
:10FDE00094803793A73556153400000000803FF00B
:10FDF000FFBEE2A93E8376BEAE2B3E3CC3BDD2130E
:10FE00003D78D3BB522564204725642042256420D9
:10FE10002020202020202020202020202020200002
:10FE200052756E6E696E677E7E7E202020202020B7
:10FE300020202020202020200047257520422575E5
:10FE400020202020202020202020202020202020B2
:10FE500000432575205225752020202020202020B9
:10FE600020202020202020200052756E6E696E67B1
:10FE70007E7E2020202020202020202020202020C6
:10FE80000052756E6E696E677E2020202020202033
:10FE90002020202020202000546F74616C204F709F
:10FEA00065726174696F6E2020202020202000443C
:10FEB0006174653A20253032782F253032782F252D
:10FEC00030327820200054696D653A202530327830
:10FED0003A253032783A2530327820200054696D46
:10FEE000653A2025642073202020202020200059FE
:10FEF0004F502B4341502B4C424C3A20256420203C
:10FF000000594F502D4341502B4C424C3A20256410
:10FF1000202000594F502B4341502D4C424C3A2049
:10FF20002564202000594F502D4341502D4C424C08
:10FF30003A20256420200045534B412B4341502B50
:10FF40004C424C3A202564200045534B412D4341FF
:10FF5000502B4C424C3A202564200045534B412BFA
:10FF60004341502D4C424C3A202564200045534BD0
:10FF7000412D4341502D4C424C3A20256420003005
:10FF8000313233343536373839616263646566003F
:10FF9000546F74616C3A202564202020202020209A
:10FFA00000426F74746C6520436F756E742020205E
:10FFB00020004F7065726174696F6E20446F6E65CA
:10FFC0002100454D455247454E43592053544F500B
:10FFD0000072656164696E67202020202020006225
:10FFE000616420696E746572727570740045525256
:0FFFF0004F523A2025640025642C202564000020
:020000040020DA
:08000000FFFFFFFFFFFFFFFF00
:020000040030CA
:0E000000FF021F1EFF8381FF0FC00FE00F40A5
:00000001FF
