:0400000007EF00F016
:100008007F8209ED00F0A9EF27F00600FACF82F011
:10001800FBCF83F0E9CF84F0EACF85F0E1CF86F01B
:10002800E2CF87F0D9CF88F0DACF89F0F3CF8AF022
:10003800F4CF8BF0F6CF8CF0F7CF8DF0F8CF8EF0B1
:10004800F5CF8FF0F0B0F5D356EF04F08984F28A3B
:10005800D58E000ED76E000ED66ECD80B180000E04
:100068000101426F000E416FB6EC26F011C17BF022
:1000780010C17AF0000E0001EC6F000EEB6F00016A
:10008800ECBF08D00001EC5127E1050E0001EB5D43
:10009800D8B022D0D8900001EB35D96E0001EC35EC
:1000A800DA6EDF0ED926000EDA22000EDE6E000EA2
:1000B800DD6ED8900001EB35D96E0001EC35DA6EB3
:1000C800720ED926010EDA22FF0EDE6EFF0EDD6EED
:1000D8000001EB4BEC2BD3D7010E66EC2AF0020E95
:1000E8000001816F450E0001806FA90EE82EFED732
:1000F800802FFCD7812FFAD700D0800E66EC2AF02B
:10010800D40E0D6EFE0E0E6E07EC0AF0020E8ED3A4
:1001180072C17CF073C17DF0000E0001EC6F000E1F
:10012800EB6F0001ECBF08D00001EC5118E1050E9F
:100138000001EB5DD8B013D0D8900001EB35D96E33
:100148000001EC35DA6E720ED926010EDA22FF0EA6
:10015800DE6EFF0EDD6E0001EB4BEC2BE2D7010EDD
:100168007C240101726F000E7D200101736F000E67
:10017800026E140E016E32EC2AF00001806F00014D
:1001880080510001DF6FE06B000E026E150E016EEC
:1001980032EC2AF00001806F000180510001E16F0C
:1001A800E26B000E026E160E016E32EC2AF00001B0
:1001B800806F000180510001E36FE46B000E026E56
:1001C800170E016E32EC2AF00001806F0001805199
:1001D8000001E56FE66B000E026E180E016E32EC40
:1001E8002AF00001806F000180510001E76FE86B81
:1001F800050E0001ED6F81380F0BE806D8A450D327
:10020800FAD747C180F048C181F00001801F811FE3
:10021800804B812B010131510001802501013F6F85
:1002280001013251000181210101406F000E0001DE
:10023800EC6F000EEB6F0001ECBF08D00001EC5131
:1002480018E1050E0001EB5DD8B013D0D89000017D
:10025800EB35D96E0001EC35DA6E720ED926010E37
:10026800DA22FF0EDE6EFF0EDD6E0001EB4BEC2B8B
:10027800E2D70A0EDBD2000E0001EC6F000EEB6F26
:100288000001ECBF08D00001EC5118E1050E000197
:10029800EB5DD8B013D0D8900001EB35D96E0001D2
:1002A800EC35DA6E720ED926010EDA22FF0EDE6EFA
:1002B800FF0EDD6E0001EB4BEC2BE2D7040EB6D23D
:1002C80074C17CF075C17DF0000E0001EC6F000E6A
:1002D800EB6F0001ECBF08D00001EC5118E1050EEE
:1002E8000001EB5DD8B013D0D8900001EB35D96E82
:1002F8000001EC35DA6E720ED926010EDA22FF0EF5
:10030800DE6EFF0EDD6E0001EB4BEC2BE2D7010E2B
:100318007C240101746F000E7D200101756F000EB1
:10032800026E190E016E32EC2AF00001806F000196
:1003380080510001DF6FE06B000E026E1A0E016E35
:1003480032EC2AF00001806F000180510001E16F5A
:10035800E26B000E026E1B0E016E32EC2AF00001F9
:10036800806F000180510001E36FE46B000E026EA4
:100378001C0E016E32EC2AF00001806F00018051E2
:100388000001E56FE66B000E026E1D0E016E32EC89
:100398002AF00001806F000180510001E76FE86BCF
:1003A800060E0001ED6F81380F0B040AD8A478D22D
:1003B800FAD776C17CF077C17DF0000E0001EC6FB2
:1003C800000EEB6F0001ECBF08D00001EC5118E102
:1003D800050E0001EB5DD8B013D0D8900001EB35C5
:1003E800D96E0001EC35DA6E720ED926010EDA22CA
:1003F800FF0EDE6EFF0EDD6E0001EB4BEC2BE2D73D
:10040800010E7C240101766F000E7D200101776FBB
:10041800000E026E1E0E016E32EC2AF00001806F93
:10042800000180510001DF6FE06B000E026E1F0EAD
:10043800016E32EC2AF00001806F0001805100014A
:10044800E16FE26B000E026E200E016E32EC2AF0B4
:100458000001806F000180510001E36FE46B000E22
:10046800026E210E016E32EC2AF00001806F00014D
:1004780080510001E56FE66B000E026E220E016EE0
:1004880032EC2AF00001806F000180510001E76F13
:10049800E86B070E0001ED6F81380F0B050AD8A431
:1004A800FFD1FAD778C17CF079C17DF0000E000148
:1004B800EC6F000EEB6F0001ECBF08D00001EC51AF
:1004C80018E1050E0001EB5DD8B013D0D8900001FB
:1004D800EB35D96E0001EC35DA6E720ED926010EB5
:1004E800DA22FF0EDE6EFF0EDD6E0001EB4BEC2B09
:1004F800E2D7010E7C240101786F000E7D200101F6
:10050800796F000E026E230E016E32EC2AF00001A4
:10051800806F000180510001DF6FE06B000E026EFA
:10052800240E016E32EC2AF00001806F0001805128
:100538000001E16FE26B000E026E250E016E32ECD7
:100548002AF00001806F000180510001E36FE46B25
:10055800000E026E260E016E32EC2AF00001806F4A
:10056800000180510001E56FE66B000E026E270E58
:10057800016E32EC2AF00001806F00018051000109
:10058800E76FE86B080E0001ED6F81380F0B060A64
:10059800D8A486D1FAD77AC17CF07BC17DF0000E51
:1005A8000001EC6F000EEB6F0001ECBF08D00001FA
:1005B800EC5118E1050E0001EB5DD8B013D0D890CE
:1005C8000001EB35D96E0001EC35DA6E720ED926D2
:1005D800010EDA22FF0EDE6EFF0EDD6E0001EB4B20
:1005E800EC2BE2D7010E7C2401017A6F000E7D20EE
:1005F80001017B6F000E026E280E016E32EC2AF0AC
:100608000001806F000180510001DF6FE06B000E78
:10061800026E290E016E32EC2AF00001806F000193
:1006280080510001E16FE26B000E026E2A0E016E2E
:1006380032EC2AF00001806F000180510001E36F65
:10064800E46B000E026E2B0E016E32EC2AF00001F4
:10065800806F000180510001E56FE66B000E026EAD
:100668002C0E016E32EC2AF00001806F00018051DF
:100678000001E76FE86B090E0001ED6F81380F0B81
:10068800070AD8A40DD1FAD78994F29AD59ECD90AD
:10069800B190B6EC26F011C177F010C176F07BC0AE
:1006A80063F0646A9EEC1DF063C074F064C075F07A
:1006B80074C001F075C002F0000E046E3C0E036EAB
:1006C800D5EC29F001C080F002C081F07AC063F057
:1006D800646A9EEC1DF06350000180250101476F9C
:1006E8006450000181210101486F77C063F0646A9A
:1006F8009EEC1DF063C074F064C075F074C001F026
:1007080075C002F0000E046E3C0E036ED5EC29F0A5
:1007180001C080F002C081F076C063F0646A9EEC8C
:100728001DF06350000180250101316F6450000104
:1007380081210101326F010E66EC2AF0000E0001E2
:10074800EC6F000EEB6F0001ECBF08D00001EC511C
:1007580018E1050E0001EB5DD8B013D0D890000168
:10076800EB35D96E0001EC35DA6E720ED926010E22
:10077800DA22FF0EDE6EFF0EDD6E0001EB4BEC2B76
:10078800E2D7A3EC0FF0030E51D0E4EC20F0800E7A
:1007980066EC2AF0740E0D6EFE0E0E6E00C10FF0A0
:1007A80001C110F002C111F003C112F007EC0AF008
:1007B800C00E66EC2AF05C0E0D6EFE0E0E6E04C1C5
:1007C8000FF005C110F006C111F007C112F007ECD7
:1007D8000AF066D08994F29ED59E010E66EC2AF046
:1007E800010E24D0000E0001EC6F000EEB6F00012B
:1007F800ECBF08D00001EC5118E1050E0001EB5DDB
:10080800D8B013D0D8900001EB35D96E0001EC3583
:10081800DA6E720ED926010EDA22FF0EDE6EFF0E98
:10082800DD6E0001EB4BEC2BE2D7000E0001ED6F03
:1008380037D081380F0B0001806F816B0001815127
:10084800000AD8A42DD000018051000AD8B42AEF9C
:1008580000F0010AD8B45CD4030AD8B4D2D4010A8F
:10086800D8B409D5070AD8B42BD5010AD8B4A1D56C
:10087800030AD8B417D6010AD8B48DD60F0AD8B44B
:1008880003D7010AD8B481D7030AD8B409D0010A1A
:10089800D8B406D0070AD8B49DD7020AD8B4A2D7CC
:1008A800F090EFD09EA01DD07E50D8B407D08B908A
:1008B800400ECF6E850ECE6E000E10D08B800101DB
:1008C800435101014411D8B404D0F60ECF6E180E6E
:1008D80003D0F20ECF6E300ECE6E010E7E6E9E905D
:1008E800D0D0A1A21FD00001EE51D8B407D08B926E
:1008F800400EB36E850EB26E000E10D08B820101D1
:10090800455101014611D8B404D0F20EB36E300E31
:1009180003D0F60EB36E180EB26E010E0001EE6F24
:10092800A192AFD0F2A493D0010142BF8BD00101B4
:10093800425105E1030E0101415DD8A083D089949D
:10094800F29AD59ECD90B190B6EC26F011C177F011
:1009580010C176F07BC063F0646A9EEC1DF063C042
:1009680074F064C075F074C001F075C002F0000E38
:10097800046E3C0E036ED5EC29F001C080F002C075
:1009880081F07AC063F0646A9EEC1DF06350000148
:1009980080250101476F6450000181210101486FE2
:1009A80077C063F0646A9EEC1DF063C074F064C0A5
:1009B80075F074C001F075C002F0000E046E3C0EB4
:1009C800036ED5EC29F001C080F002C081F076C03A
:1009D80063F0646A9EEC1DF06350000180250101FC
:1009E800316F6450000181210101326F010E66EC04
:1009F8002AF0000E0001EC6F000EEB6F0001ECBF57
:100A080008D00001EC5118E1050E0001EB5DD8B0EB
:100A180013D0D8900001EB35D96E0001EC35DA6EB1
:100A2800720ED926010EDA22FF0EDE6EFF0EDD6E83
:100A38000001EB4BEC2BE2D7A3EC0FF0030E000107
:100A4800ED6F03D00101414B422BF2941AD0800E76
:100A580066EC2AF0E80E0D6EFF0E0E6E07EC0AF03B
:100A6800000E736E630E736401D0F1D7210E00017E
:100A7800806F760EE82EFED7802FFCD700F0732A01
:100A8800F1D78FC0F5FF8EC0F8FF8DC0F7FF8CC07F
:100A9800F6FF8BC0F4FF8AC0F3FF89C0DAFF88C075
:100AA800D9FF87C0E2FF86C0E1FF85C0EAFF84C0A6
:100AB800E9FF83C0FBFF82C0FAFF7F9211000001AB
:100AC800E0BFA3D00001E05105E10A0E0001DF5D9F
:100AD800D8A09BD00D0E0001DE6FAF0E0001DD6FB8
:100AE800B60EE82EFED7DD2FFCD7DE2FFAD700F0A2
:100AF8008994F29AD59ECD90B1907BEC26F011C1E5
:100B080077F010C176F07BC0DBF00001DC6B06ECFF
:100B180019F0DBC06EF1DCC06FF16EC190F06FC1EF
:100B280091F0000E0001936F3C0E926F27EC29F0B4
:100B380090C0DDF091C0DEF07AC0DBF00001DC6B24
:100B480006EC19F00001DB510001DD250101476FBA
:100B58000001DC510001DE210101486F77C0DBF0A4
:100B68000001DC6B06EC19F0DBC06EF1DCC06FF144
:100B78006EC190F06FC191F0000E0001936F3C0EB2
:100B8800926F27EC29F090C0DDF091C0DEF076C0BE
:100B9800DBF00001DC6B06EC19F00001DB51000111
:100BA800DD250101316F0001DC510001DE21010169
:100BB800326F030E0001ED6F010E58EC2AF0000EA3
:100BC8000001EC6F000EEB6F0001ECBF08D00001D4
:100BD800EC5118E1050E0001EB5DD8B013D0D890A8
:100BE8000001EB35D96E0001EC35DA6E720ED926AC
:100BF800010EDA22FF0EDE6EFF0EDD6E0001EB4BFA
:100C0800EC2BE2D79DEC0BF0120000C108F101C1FA
:100C180009F102C10AF103C10BF104C10CF105C1CC
:100C28000DF106C10EF107C10FF1F29E1CEC1EF08A
:100C38000101015105E1140E0101005DD8A05AD14E
:100C4800000E0101346F010E336F0001E94BEA2BEE
:100C5800010106510101025D01010751010103591A
:100C6800D8B009D00101395101013A11D8A403D0F3
:100C78000101374B382B010103510DE1830E0101AE
:100C8800025DD8B008D00101055105E1830E0101CC
:100C9800045DD8A005D0000E01013C6F010E3B6F2A
:100CA8000101015105E11F0E0101005DD8A08FD09F
:100CB8000101395101013A11D8A484D002C198F038
:100CC80003C199F071EC29F098C025F199C026F17B
:100CD8009AC027F106C198F007C199F071EC29F084
:100CE80098C01FF199C020F19AC021F1000E0001AF
:100CF800A76F000E0001A86F400E0001A96F1FC169
:100D08009BF020C19CF021C19DF025C198F026C11F
:100D180099F027C19AF0A3EC16F098C0AAF099C0F0
:100D2800ABF09AC0ACF021EC22F00001D8B019D099
:100D3800000E0001A76F800E0001A86F410E000190
:100D4800A96F25C1AAF026C1ABF027C1ACF021ECF0
:100D580022F00001D8B005D0000E01012E6F010E5F
:100D68002BD01FC19BF020C19CF021C19DF025C153
:100D780098F026C199F027C19AF0A3EC16F098C014
:100D8800A7F099C0A8F09AC0A9F0000E0001AA6FB8
:100D9800400E0001AB6F3F0E0001AC6F21EC22F05A
:100DA8000001D8B005D0000E01012E6F020E04D04C
:100DB800000E01012E6F000E2D6F000E01013A6F1B
:100DC800010E396F000E0101366F010E91D001013D
:100DD800015104E11E0E0101005DD8B027D10101C7
:100DE800355101013611D8B421D10AC198F00BC18F
:100DF80099F071EC29F098C028F199C029F19AC0AE
:100E08002AF10EC198F00FC199F071EC29F098C041
:100E180022F199C023F19AC024F1CD0E0001A76FE9
:100E28004C0E0001A86F400E0001A96F22C19BF073
:100E380023C19CF024C19DF028C198F029C199F0E4
:100E48002AC19AF0A3EC16F098C0AAF099C0ABF0AA
:100E58009AC0ACF021EC22F00001D8B019D0000EF5
:100E68000001A76F900E0001A86F410E0001A96F45
:100E780028C1AAF029C1ABF02AC1ACF021EC22F0BC
:100E88000001D8B005D0000E01012C6F010E2BD047
:100E980022C19BF023C19CF024C19DF028C198F089
:100EA80029C199F02AC19AF0A3EC16F098C0A7F0CE
:100EB80099C0A8F09AC0A9F0000E0001AA6F400ED0
:100EC8000001AB6F3F0E0001AC6F21EC22F0000176
:100ED800D8B005D0000E01012C6F020E04D0000E10
:100EE80001012C6F000E2B6F000E0101366F000EF2
:100EF800356F9CD00101335101013411D8B47DD034
:100F08000001EABF7AD00001EA5105E1150E00019F
:100F1800E95DD8A072D0000E0001EA6F000EE96FFB
:100F28000001DF4BE02B000ED76E000ED66E020ECE
:100F380001012D1901012E11D8B412D0020E0101A0
:100F48002B1901012C11D8B40BD0010138BF10D0D6
:100F58000101385105E1020E0101375DD8A008D022
:100F68000001E54BE62B000E0101466F010E2AD069
:100F780001012D0501012E11D8B406D001012B0560
:100F880001012C11D8A408D00001E14BE22B000E7E
:100F98000101446F010E0DD001013B5101013C11CB
:100FA800D8B409D00001E34BE42B000E0101446FD3
:100FB800000E436F08D00001E74BE82B000E01013B
:100FC800466F000E456F000E0101346F000E336F3F
:100FD800000E0101366F000E356F000E01013A6FE9
:100FE800000E396F000E01013C6F000E3B6F000EC2
:100FF8000101386F000E376F19D00001EABF08D021
:101008000001EA5113E1030E0001E95DD8B00ED0EA
:101018000001EABF0BD00001EA5104E10001E90533
:10102800D8A004D00001E907D8A0EA07F28E120080
:101038009E0E0001A96F000E0001AA6FD5D1250EE2
:101048000001B119D8B405D00001B15150EC2AF013
:10105800CBD1000E0001B06F000EAF6F000E000183
:10106800AE6F05D00001AE8500019C4B9D2B9CC046
:10107800F6FF9DC0F7FF0800F550300AD8B4F2D744
:101088009CC0F6FF9DC0F7FF0800F55086EC29F0DC
:10109800D8A048D0000E0001B06F000EAF6FAFC0EF
:1010A80090F0B0C091F0000E0001936F0A0E926F9D
:1010B80027EC29F090C0AFF091C0B0F0D00E00013D
:1010C800A46FFF0E0001A56F9CC0F6FF9DC0F7FF3F
:1010D8000800F5500001A66FA76B0001A45100019C
:1010E800A6270001A5510001A7230001A651000170
:1010F800AF270001A7510001B02300019C4B9D2B95
:101108009CC0F6FF9DC0F7FF0800F55086EC29F05B
:10111800D8A008D0C4D70001AE8F20D0C00E0001DF
:10112800AE131CD09CC0F6FF9DC0F7FF00019C4B7E
:101138009D2B0800F5CFB1F00001B151000AD8B4D9
:101148001200640AD8B40AD00D0AD8B407D01C0A11
:10115800D8B4E4D70D0AD8B4DED746D1AEC0A4F0CF
:10116800C00E0001A417D8A419D0A9C0D9FFAAC0DD
:10117800DAFFDECFACF0DDCFADF0020E0001A9271B
:10118800000EAA230001ADAF53D0030E0001AE1329
:101198000001AC6DAD1FD8B0AD2B4AD0A9C0D9FFA6
:1011A800AAC0DAFFDECFACF0DDCFADF0020E000151
:1011B800A927000EAA233CD0010E0001B16F050E2D
:1011C8000001B119D8B440D00001B151020DA40EEC
:1011D800F324F66EFD0EF420F76E0900F5500001B9
:1011E800AC5D0900F5500001AD59D8A02DD0000123
:1011F800B12BE5D7010E0001B16F040E0001B11942
:10120800D8B422D00001B151020DAE0EF324F66E0F
:10121800FD0EF420F76E0900F5500001AC5D0900E1
:10122800F5500001AD59D8A00FD00001B12BE5D77A
:101238000001AE51C00B000AD8B4BED7800AD8B49A
:10124800D9D7400AD8B4B8D70001AF510001B011BE
:10125800D8B40BD0AEC0A4F0030E0001A417D8B4C4
:1012680004D00001AF07D8A0B007800E0001B1BFBD
:101278007F0E0001A46F0001AF510001B15D0001B4
:10128800B051800A0001A459D8B00BD00001B15167
:101298000001AF5F000E0001B1BFFF0E0001B05B9F
:1012A80005D0000E0001B06F000EAF6F0001AEA5B3
:1012B80018D0AEC0A4F0030E0001A417D8B403D010
:1012C8002D0E50EC2AF00001AF510001B011D8B436
:1012D80025D0300E50EC2AF00001AF07D8A0B00797
:1012E800F2D70001AF510001B011D8B40DD0200ED3
:1012F80050EC2AF00001AF07D8A0B0070001AF51A9
:101308000001B011D8A4F3D7AEC0A4F0030E0001B9
:10131800A417D8B403D02D0E50EC2AF0B1C0ABF00E
:101328005DD00001AB51020DA40EF324F66EFD0E44
:10133800F420F76E0900F5CF92F00A00F5CF93F08C
:10134800ACC090F0ADC091F003EC26F090C097F0DF
:1013580091C098F0000E00019A6F0A0E996FEAEC9E
:1013680026F000019751300F0001B16F33D0ACC0A7
:1013780090F0ADC091F00001AB51020DAE0EF32418
:10138800F66EFD0EF420F76E0900F5CF92F00A0014
:10139800F5CF93F003EC26F0000190510F0B0001FC
:1013A800A86F0001A851010D830EF324F66EFF0EFD
:1013B800F420F76E0800F5CFB1F00CD00001AE5163
:1013C800C00B000AD8B4ADD7800AD8B4D0D7400A29
:1013D800D8B4A7D70001B15150EC2AF00001AB07EF
:1013E8000001AB29D8A4EAD79CC0F6FF9DC0F7FF3F
:1013F80000019C4B9D2B0800F5CFB1F00001B151C5
:10140800D8B412001CD60F0E186E000E196E84D1B7
:10141800250E2018D8B404D0205060EC2AF07CD1D6
:10142800000E1F6E000E1E6E000E1D6E03D01D8472
:101438000D4A0E2A0DC0F6FF0EC0F7FF0800F55042
:10144800300AD8B4F4D70DC0F6FF0EC0F7FF080075
:10145800F5500BEC2AF0D8A038D0000E1F6E000E05
:101468001E6E1EC001F01FC002F0000E046E0A0EB0
:10147800036ED5EC29F001C01EF002C01FF0D00E9B
:10148800136EFF0E146E0DC0F6FF0EC0F7FF0800B6
:10149800F550156E166A135015261450162215505D
:1014A8001E2616501F220D4A0E2A0DC0F6FF0EC02A
:1014B800F7FF0800F5500BEC2AF0D8A006D0D1D7DA
:1014C8001D8E1DD0C00E1D121AD00DC0F6FF0EC005
:1014D800F7FF0D4A0E2A0800F5CF20F02050000A29
:1014E800D8B41200640AD8B40AD00D0AD8B407D008
:1014F8001C0AD8B4E7D70D0AD8B4E2D70DD11DC05D
:1015080013F0C00E1316D8A415D018C0D9FF19C0EF
:10151800DAFFDECF1BF0DDCF1CF0020E1826000E1E
:1015280019221CAE44D0030E1D121B6C1C1ED8B011
:101538001C2A3DD018C0D9FF19C0DAFFDECF1BF036
:10154800DDCF1CF0020E1826000E192230D0010E35
:10155800206E050E2018D8B435D02050020DA40EE8
:10156800F324F66EFD0EF420F76E0900F5501B5CAF
:101578000900F5501C58D8A025D0202AEAD7010E1A
:10158800206E040E2018D8B41DD02050020DAE0EC7
:10159800F324F66EFD0EF420F76E0900F5501B5C7F
:1015A8000900F5501C58D8A00DD0202AEAD71D50A4
:1015B800C00B000AD8B4CBD7800AD8B4E0D7400A09
:1015C800D8B4C5D71E501F10D8B409D01DC013F009
:1015D800030E1316D8B403D01E06D8A01F06800E1B
:1015E80020BE7F0E136E1E50205C1F50800A1358B9
:1015F800D8B007D020501E5E000E20BEFF0E1F5A26
:1016080004D0000E1F6E000E1E6E1DA414D01DC047
:1016180013F0030E1316D8B403D02D0E60EC2AF085
:101628001E501F10D8B41ED0300E60EC2AF01E06D3
:10163800D8A01F06F5D71E501F10D8B40AD0200E08
:1016480060EC2AF01E06D8A01F061E501F10D8A452
:10165800F6D71DC013F0030E1316D8B403D02D0E01
:1016680060EC2AF020C01AF053D01A50020DA40ED4
:10167800F324F66EFD0EF420F76E0900F5CF03F0A3
:101688000A00F5CF04F01BC001F01CC002F0D2EC38
:1016980027F001C008F002C009F0000E0B6E0A0E18
:1016A8000A6E92EC28F00850300F206E2ED01BC026
:1016B80001F01CC002F01A50020DAE0EF324F66EB3
:1016C800FD0EF420F76E0900F5CF03F00A00F5CF00
:1016D80004F0D2EC27F001500F0B176E1750010DD4
:1016E800830EF324F66EFF0EF420F76E0800F5CF94
:1016F80020F00BD01D50C00B000AD8B4B6D7800A12
:10170800D8B4D5D7400AD8B4B0D7205060EC2AF066
:101718001A061A28D8A4EED70DC0F6FF0EC0F7FF98
:101728000D4A0E2A0800F5CF20F02050D8B4120038
:101738006FD6000E0001936F2C0E926F000E000101
:10174800916F270E906F26EC2AF00001946F9BECA6
:1017580029F0000E0001936F2B0E926F000E00010E
:10176800916F260E906F26EC2AF00001946F9BEC87
:1017780029F0000E0001936F2A0E926F000E0001EF
:10178800916F250E906F26EC2AF00001946F9BEC68
:1017980029F0000E0001936F290E926F000E0001D0
:1017A800916F240E906F26EC2AF00001946F9BEC49
:1017B80029F0000E0001936F280E926F000E0001B1
:1017C800916F230E906F26EC2AF00001946F9BEC2A
:1017D80029F0000E0001936F270E926F000E000192
:1017E800916F220E906F26EC2AF00001946F9BEC0B
:1017F80029F0000E0001936F260E926F000E000173
:10180800916F210E906F26EC2AF00001946F9BECEB
:1018180029F0000E0001936F250E926F000E000153
:10182800916F200E906F26EC2AF00001946F9BECCC
:1018380029F0000E0001936F240E926F000E000134
:10184800916F1F0E906F26EC2AF00001946F9BECAD
:1018580029F0000E0001936F230E926F000E000115
:10186800916F1E0E906F26EC2AF00001946F9BEC8E
:1018780029F0000E0001936F220E926F000E0001F6
:10188800916F1D0E906F26EC2AF00001946F9BEC6F
:1018980029F0000E0001936F210E926F000E0001D7
:1018A800916F1C0E906F26EC2AF00001946F9BEC50
:1018B80029F0000E0001936F200E926F000E0001B8
:1018C800916F1B0E906F26EC2AF00001946F9BEC31
:1018D80029F0000E0001936F1F0E926F000E000199
:1018E800916F1A0E906F26EC2AF00001946F9BEC12
:1018F80029F0000E0001936F1E0E926F000E00017A
:10190800916F190E906F26EC2AF00001946F9BECF2
:1019180029F0000E0001936F1D0E926F000E00015A
:10192800916F220E906F26EC2AF00001946F9BECC9
:1019380029F0000E0001936F1C0E926F000E00013B
:10194800916F170E906F26EC2AF00001946F9BECB4
:1019580029F0000E0001936F1B0E926F000E00011C
:10196800916F160E906F26EC2AF00001946F9BEC95
:1019780029F0000E0001936F1A0E926F000E0001FD
:10198800916F150E906F26EC2AF00001946F9BEC76
:1019980029F0000E0001936F190E926F000E0001DE
:1019A800916F140E906F26EC2AF00001946F9BEC57
:1019B80029F0000E0001936F180E926FE7C094F0A3
:1019C8009BEC29F0000E0001936F170E926FE5C093
:1019D80094F09BEC29F0000E0001936F160E926FA5
:1019E800E3C094F09BEC29F0000E0001936F150EF4
:1019F800926FE1C094F09BEC29F0000E0001936F08
:101A0800140E926FDFC094F09BEC29F01200FB0ECD
:101A1800926E9368000E946E000E956E000E966E90
:101A2800000E896E000E8A6E000E8B6E000E8C6E94
:101A3800000E8D6E000EC26EC168F28EF28CF086BA
:101A4800F298F098F19EFBEC27F0100E00019D6FC4
:101A5800270E9E6F000E9F6F000EA06F4BEC27F0B5
:101A68001FEC1DF0000ED76E000ED66ED59CD59AD1
:101A7800D596D584D582D580000ECF6E000ECE6E59
:101A8800000E7E6E000E0101446F010E436F810E41
:101A9800CD6ECD90CD92CD9ACD989D80000EB36E2F
:101AA800000EB26E000E0001EE6F000E0101466FCF
:101AB800010E456F410EB16EB190B192B19AB198D5
:101AC800A082000E0001EC6F000EEB6F0001ECBF6E
:101AD80008D00001EC5118E1050E0001EB5DD8B00B
:101AE80013D0D8900001EB35D96E0001EC35DA6ED1
:101AF800720ED926010EDA22FF0EDE6EFF0EDD6EA3
:101B08000001EB4BEC2BE2D7000E0001EC6F140E3A
:101B1800EB6F0001ECBF08D00001EC5112E1320E6E
:101B28000001EB5DD8B00DD0EBC092F0ECC093F0A3
:101B3800000E0001946F9BEC29F00001EB4BEC2B9D
:101B4800E8D7000E0001ED6FA2D0D3EC28F0070E05
:101B58000101716F580E0101706F590EE82EFED702
:101B6800702FFCD7712FFAD791D0FAEC29F08FD0CB
:101B780063EC05F0070E0101706F7D0EE82EFED7AD
:101B8800702FFCD7C80E00D0E82EFDD780D01AECF5
:101B98002AF0070E0101716F580E0101706F590E7E
:101BA800E82EFED7702FFCD7712FFAD76FD04FECE5
:101BB80021F0040E0101716FCF0E0101706F010E4B
:101BC800E82EFED7702FFCD7712FFAD75FD01EEC06
:101BD8001CF0040E0101716FCF0E0101706F010E30
:101BE800E82EFED7702FFCD7712FFAD74FD09CEC78
:101BF8001BF0040E0101716FCF0E0101706F010E11
:101C0800E82EFED7702FFCD7712FFAD73FD01AECE9
:101C18001BF0040E0101716FCF0E0101706F010EF0
:101C2800E82EFED7702FFCD7712FFAD72FD098EC5B
:101C38001AF0040E0101716FCF0E0101706F010ED1
:101C4800E82EFED7702FFCD7712FFAD71FD016ECCD
:101C58001AF0040E0101716FCF0E0101706F010EB1
:101C6800E82EFED7702FFCD7712FFAD70FD00CECC7
:101C780029F0040E0101716FCF0E0101706F010E82
:101C8800E82EFED7702FFCD7712FFAD700D00001AD
:101C9800ED51000AD8B459D7010AD8B466D7030A57
:101CA800D8B466D7010AD8B472D7070AD8B47FD790
:101CB800010AD8B48CD7030AD8B499D7010AD8B482
:101CC800A6D70F0AD8B4B3D7010AD8B4C0D7030A25
:101CD800D8B4CDD7DCD7ADC0B1F00001B26BB36BCF
:101CE8000001AC350001B13701E3B2810001B15107
:101CF8000001B66FB0C0B1F00001B26BB36B000168
:101D0800AF350001B13701E3B2810001B1510001E3
:101D1800B56F0001B6510001D8B411D00001B5511A
:101D28000001B65DD8B012D00001B651000800011C
:101D3800B5250001B16F180E0001B16507D0AEC01E
:101D4800ABF0AFC0ACF0B0C0ADF012000001B551BF
:101D58000001D8B411D00001B6510001B55DD8B06A
:101D680012D00001B55100080001B6250001B16F7D
:101D7800180E0001B16507D0ABC0ABF0ACC0ACF039
:101D8800ADC0ADF01200060E0001B46F0001ADAF9A
:101D980002D00001B48F0001B0AF02D00001B48DB1
:101DA8000001AC8FFF0E0001AB17FF0E0001AC174E
:101DB800000E0001AD170001AF8FFF0E0001AE1736
:101DC800FF0E0001AF17000E0001B0170001B5515A
:101DD8000001B65DD8B025D00001D890AE37AF3736
:101DE800B0370001B5070001B6510001B519D8B4E4
:101DF80011D00001B407B4C0B1F0070E0001B1174B
:101E0800D8B408D0E9D70001D890AD33AC33AB33A0
:101E18000001B62B0001B5510001B619D8B42BD07A
:101E2800F2D70001B6510001B55DD8B024D0000149
:101E3800D890AB37AC37AD370001B6070001B651C3
:101E48000001B519D8B411D00001B407B4C0B1F07D
:101E5800070E0001B117D8B408D0E9D70001D8900F
:101E6800B033AF33AE330001B52B0001B5510001DB
:101E7800B619D8A4F3D70001B4AF12D0FF0E0001F1
:101E8800AB1BFF0E0001AC1BFF0E0001AD1B010ECA
:101E98000001AB27000E0001AC23000E0001AD23AA
:101EA8000001B4AD12D0FF0E0001AE1BFF0E000101
:101EB800AF1BFF0E0001B01B010E0001AE27000E84
:101EC8000001AF23000E0001B023000E0001B46F23
:101ED8000001AB510001AE270001AC510001AF2356
:101EE8000001AD510001B0230001B0AF15D0FF0EC5
:101EF8000001AE1BFF0E0001AF1BFF0E0001B01B5F
:101F0800010E0001AE27000E0001AF23000E0001F4
:101F1800B023010E0001B46FAEC090F0AFC091F0D5
:101F2800B0C092F0B6C093F0B4C094F090EC19F041
:101F380090C0ABF091C0ACF092C0ADF01200000EB2
:101F4800046E2C0E036E000E026E270E016E32EC2C
:101F58002AF0056EAFEC29F0000E046E2B0E036E0E
:101F6800000E026E260E016E32EC2AF0056EAFEC02
:101F780029F0000E046E2A0E036E000E026E250E66
:101F8800016E32EC2AF0056EAFEC29F0000E046EFB
:101F9800290E036E000E026E240E016E32EC2AF03A
:101FA800056EAFEC29F0000E046E280E036E000ECD
:101FB800026E230E016E32EC2AF0056EAFEC29F0AA
:101FC800000E046E270E036E000E026E220E016EC6
:101FD80032EC2AF0056EAFEC29F0000E046E260EE6
:101FE800036E000E026E210E016E32EC2AF0056EB1
:101FF800AFEC29F0000E046E250E036E000E026E83
:10200800200E016E32EC2AF0056EAFEC29F0000EBE
:10201800046E240E036E000E026E1F0E016E32EC6B
:102028002AF0056EAFEC29F0000E046E230E036E45
:10203800000E026E1E0E016E32EC2AF0056EAFEC39
:1020480029F0000E046E220E036E000E026E1D0EA5
:10205800016E32EC2AF0056EAFEC29F0000E046E2A
:10206800210E036E000E026E1C0E016E32EC2AF079
:10207800056EAFEC29F0000E046E200E036E000E04
:10208800026E1B0E016E32EC2AF0056EAFEC29F0E1
:10209800000E046E1F0E036E000E026E1A0E016E05
:1020A80032EC2AF0056EAFEC29F0000E046E1E0E1D
:1020B800036E000E026E190E016E32EC2AF0056EE8
:1020C800AFEC29F0000E046E1D0E036E000E026EBA
:1020D800220E016E32EC2AF0056EAFEC29F0000EEC
:1020E800046E1C0E036E000E026E170E016E32ECAB
:1020F8002AF0056EAFEC29F0000E046E1B0E036E7D
:10210800000E026E160E016E32EC2AF0056EAFEC70
:1021180029F0000E046E1A0E036E000E026E150EE4
:10212800016E32EC2AF0056EAFEC29F0000E046E59
:10213800190E036E000E026E140E016E32EC2AF0B8
:10214800056EAFEC29F0000E046E180E036EE7C0A2
:1021580005F0AFEC29F0000E046E170E036EE5C013
:1021680005F0AFEC29F0000E046E160E036EE3C006
:1021780005F0AFEC29F0000E046E150E036EE1C0F9
:1021880005F0AFEC29F0000E046E140E036EDFC0EC
:1021980005F0AFEC29F012000001D8510001D91167
:1021A8000001DA11D8A40AD0000E0001D86F800E01
:1021B8000001D96F3F0E0001DA6F1200720E0001A4
:1021C800A76F310E0001A86F440E0001A96FD8C097
:1021D800AAF0D9C0ABF0DAC0ACF021EC22F00001D3
:1021E800D8B00FD0000E0101306F220E2F6FFF0EF6
:1021F8000001D86F7F0E0001D96F7F0E0001DA6FE2
:102208001200D8C0A7F0D9C0A8F0DAC0A9F0490ECA
:102218000001AA6F3A0E0001AB6FC40E0001AC6F4B
:1022280021EC22F00001D8B00FD0000E0101306F70
:10223800220E2F6F000E0001D86F000E0001D96F1B
:10224800000E0001DA6F12000001DAAF02D0010EB1
:1022580001D0000E01014E6F01014E510101D8B4A9
:102268000ED0D8C090F0D9C091F0DAC092F042EC0C
:1022780029F090C0D8F091C0D9F092C0DAF0D8C057
:102288009CF0D9C09DF0DAC09EF0AA0E00019F6FA5
:10229800B80E0001A06F3F0E0001A16F4CEC15F0C5
:1022A8009CC0D8F09DC0D9F09EC0DAF0D8C0D0F05C
:1022B800D9C0D1F0DAC0D2F0A0EC1CF0D0C049F1FE
:1022C800D1C04AF1D2C04BF149C1B7F04AC1B8F008
:1022D8004BC1B9F049EC17F0B7C04CF1B8C04DF19B
:1022E800D8C0B7F0D9C0B8F0DAC0B9F04CC198F08E
:1022F8004DC199F070EC28F098C0BAF099C0BBF0C5
:102308009AC0BCF04AEC28F0B7C0D8F0B8C0D9F0F1
:10231800B9C0DAF0D8C0B7F0D9C0B8F0DAC0B9F0AF
:10232800BD0E0001BA6FFD0E0001BB6F000E00016B
:10233800BD6F090EBC6F8CEC1FF0B7C0C3F0B8C0FE
:10234800C4F0B9C0C5F04CC1C6F04DC1C7F07AECB5
:1023580018F0C3C0D8F0C4C0D9F0C5C0DAF0010184
:102368004E510101D8B42ED00001D82913E17F0EB7
:102378000001D9190FE17F0E0001DA19D8A40AD09B
:10238800000E0001D86F000E0001D96F000E000189
:10239800DA6F1200000E0001986F800E0001996F2D
:1023A8003F0E00019A6FD8C09BF0D9C09CF0DAC0EC
:1023B8009DF0A3EC16F098C0D8F099C0D9F09AC057
:1023C800DAF01200D8C0D8F0D9C0D9F0DAC0DAF003
:1023D800120049504A104B10D8A407D0000E496E7D
:1023E800800E4A6E3F0E4B6E1200720E016E310E59
:1023F800026E440E036E49C004F04AC005F04BC09B
:1024080006F03BEC25F0D8B00CD0000E0101306F7F
:10241800220E2F6FFF0E496E7F0E4A6E7F0E4B6E97
:10242800120049C001F04AC002F04BC003F0490E47
:10243800046E3A0E056EC40E066E3BEC25F0D8B05D
:102448000CD0000E0101306F220E2F6F000E496E66
:10245800000E4A6E000E4B6E12004BAE02D0010EFB
:1024680001D0000E516E5150D8B40ED049C001F0C1
:102478004AC002F04BC003F0E8EC29F001C049F073
:1024880002C04AF003C04BF049C00DF04AC00EF03C
:102498004BC00FF0AA0E106EB80E116E3F0E126EE2
:1024A80012EC1FF00DC049F00EC04AF00FC04BF0FF
:1024B80049C041F04AC042F04BC043F075EC20F0EF
:1024C80041C04CF042C04DF043C04EF04CC028F023
:1024D8004DC029F04EC02AF098EC1EF028C04FF0ED
:1024E80029C050F049C028F04AC029F04BC02AF052
:1024F8004FC009F050C00AF0F0EC28F009C02BF0EA
:102508000AC02CF00BC02DF0B3EC28F028C049F01D
:1025180029C04AF02AC04BF049C028F04AC029F027
:102528004BC02AF0BD0E2B6EFD0E2C6E000E2E6ECB
:10253800090E2D6EB8EC21F028C034F029C035F012
:102548002AC036F04FC037F050C038F085EC22F082
:1025580034C049F035C04AF036C04BF05150D8B4B9
:1025680025D049280EE17F0E4A180BE17F0E4B1843
:10257800D8A407D0000E496E000E4A6E000E4B6EAE
:102588001200000E096E800E0A6E3F0E0B6E49C0D7
:102598000CF04AC00DF04BC00EF002EC20F009C060
:1025A80049F00AC04AF00BC04BF0120049C049F08C
:1025B8004AC04AF04BC04BF01200000E01015B6F9D
:1025C80001014F510101501101015111D8A423D02B
:1025D800000E0001A76F000E0001A86F000E000199
:1025E800A96F52C1AAF053C1ABF054C1ACF021ECB1
:1025F80022F00001D8A005D0000E0101306F210E95
:102608002F6F000E01014F6F000E0101506F000E79
:102618000101516F120001015251010153110101D1
:102628005411D8A40AD0000E01014F6F800E010189
:10263800506F3F0E0101516F1200010151AF4CD094
:1026480052C1B7F053C1B8F054C1B9F049EC17F012
:10265800B7C05CF1B8C05DF1B9C05EF1BAC05FF156
:102668005CC198F05DC199F05EC19AF05FC19BF0C2
:10267800C5EC25F001015251000198190BE1010147
:1026880053510001991906E10101545100019A19A9
:10269800D8B40FD0000E0101306F210E2F6F000E3D
:1026A80001014F6F000E0101506F000E0101516FC3
:1026B800120001015C51010B01015B6F4FC190F0E9
:1026C80050C191F051C192F042EC29F090C04FF105
:1026D80091C050F192C051F14FC1C3F050C1C4F044
:1026E80051C1C5F0FBEC15F0C3C055F1C4C056F19B
:1026F800C5C057F155C19CF056C19DF057C19EF019
:1027080052C19FF053C1A0F054C1A1F04CEC15F098
:102718009CC058F19DC059F19EC05AF158C1D8F0DB
:1027280059C1D9F05AC1DAF0D0EC10F0D8C04FF145
:10273800D9C050F1DAC051F101015B510101D8B49F
:102748000FD04FC190F050C191F051C192F042ECBE
:1027580029F090C04FF191C050F192C051F1120090
:102768004FC14FF150C150F151C151F112001EC07B
:1027780022F0236A246A1D34223601E32380225082
:10278800276E21C022F0236A246A2034223601E30E
:1027980023802250266E2750D8B40BD02650275CB1
:1027A800D8B00ED0275000082624226E180E2264B6
:1027B80007D01FC01CF020C01DF021C01EF0120061
:1027C8002650D8B40BD02750265CD8B00ED026504F
:1027D80000082724226E180E226407D01CC01CF0A3
:1027E8001DC01DF01EC01EF01200060E256E1EBE76
:1027F800258E21BE258C1D8EFF0E1C16FF0E1D1664
:10280800000E1E16208EFF0E1F16FF0E2016000E3D
:1028180021162650275CD8B01BD0D8901F362036FA
:102828002136260627502618D8B40DD0250625C0EF
:1028380022F0070E2216D8B406D0EFD7D8901E3251
:102848001D321C32272A26502718D8B41FD0F6D795
:102858002750265CD8B01AD0D8901C361D361E36A4
:10286800270627502618D8B40DD0250625C022F0F3
:10287800070E2216D8B406D0EFD7D89021322032CE
:102888001F32262A26502718D8A4F7D725AE0CD0F1
:10289800FF0E1C1AFF0E1D1AFF0E1E1A010E1C2613
:1028A800000E1D22000E1E2225AC0CD0FF0E1F1A92
:1028B800FF0E201AFF0E211A010E1F26000E2022DD
:1028C800000E2122000E256E1C501F261D502022AE
:1028D8001E50212221AE0ED0FF0E1F1AFF0E201A05
:1028E800FF0E211A010E1F26000E2022000E2122A3
:1028F800010E256E1FC001F020C002F021C003F0B8
:1029080027C004F025C005F0FCEC23F001C01CF042
:1029180002C01DF003C01EF01200000E5E6E525081
:1029280053105410D8A41CD0000E016E000E026E75
:10293800000E036E55C004F056C005F057C006F0EF
:102948003BEC25F0D8A005D0000E0101306F210E18
:102958002F6F000E526E000E536E000E546E120052
:10296800555056105710D8A407D0000E526E800E3E
:10297800536E3F0E546E120054AE41D055C028F02D
:1029880056C029F057C02AF098EC1EF028C05FF016
:1029980029C060F02AC061F02BC062F05FC009F066
:1029A80060C00AF061C00BF062C00CF07BEC27F04D
:1029B8005550091807E156500A1804E157500B18EA
:1029C800D8B40CD0000E0101306F210E2F6F000E0D
:1029D800526E000E536E000E546E12005F50010BC3
:1029E8005E6E52C001F053C002F054C003F0E8EC30
:1029F80029F001C052F002C053F003C054F052C095
:102A080034F053C035F054C036F0EBEC17F034C056
:102A180058F035C059F036C05AF058C00DF059C0BA
:102A28000EF05AC00FF055C010F056C011F057C044
:102A380012F012EC1FF00DC05BF00EC05CF00FC07E
:102A48005DF05BC049F05CC04AF05DC04BF0EDEC56
:102A580011F049C052F04AC053F04BC054F05E50D8
:102A6800D8B40FD052C001F053C002F054C003F0E4
:102A7800E8EC29F001C052F002C053F003C054F052
:102A8800120052C052F053C053F054C054F0120018
:102A98009EC0A2F00001A36BA46B00019D3500014C
:102AA800A23701E3A3810001A2510001A56F000133
:102AB800A551D8A40AD0000E00019C6F000E000199
:102AC8009D6F000E00019E6F1200A1C0A2F00001D0
:102AD800A36BA46B0001A0350001A23701E3A38119
:102AE8000001A2510001AA6F0001AA51D8A40AD07E
:102AF800000E00019C6F000E00019D6F000E00018A
:102B08009E6F12000001AA517B0F0001A5279EC0ED
:102B1800AAF00001A1510001AA1B800E0001AA170A
:102B280000019D8F0001A08FFF0E00019F17FF0E6F
:102B38000001A017000E0001A117000E0001A66FEA
:102B4800000E0001A76F000E0001A86F070E00011C
:102B5800A96F00019CA10CD000019F510001A6277C
:102B68000001A0510001A7230001A1510001A823E1
:102B78000001D8909E339D339C330001D8909F3735
:102B8800A037A1370001A92FE4D7090E0001A96FCA
:102B980000019CA10CD000019F510001A627000153
:102BA800A0510001A7230001A1510001A8230001A1
:102BB800D8909E339D339C330001D890A833A73317
:102BC800A6330001A92FE4D7A6C090F0A7C091F0C2
:102BD800A8C092F0A5C093F0AAC094F090EC19F0A8
:102BE80090C09CF091C09DF092C09EF01200000130
:102BF800C5AF0FD0000E0101306F210E2F6F000EF0
:102C08000001C36F000E0001C46F000E0001C56F04
:102C180012000001C3510001C4110001C511D8A45C
:102C28000FD0000E0101306F220E2F6F000E000131
:102C3800C36F000E0001C46F000E0001C56F1200C3
:102C4800000E00019F6F000E0001A06F400E0001F2
:102C5800A16FC60E0001936F000E0001946FC3C0F0
:102C680090F0C4C091F0C5C092F0A5EC23F090C0DC
:102C78009CF091C09DF092C09EF04CEC15F09CC069
:102C8800ABF09DC0ACF09EC0ADF0000E0001AE6F81
:102C9800800E0001AF6FBF0E0001B06F6FEC0EF039
:102CA800ABC0C3F0ACC0C4F0ADC0C5F00001C607EE
:102CB800D8A0C707C3C0B7F0C4C0B8F0C5C0B9F042
:102CC800DB0E0001BA6FFD0E0001BB6F000E0001A4
:102CD800BD6F080EBC6F8CEC1FF0B7C0C3F0B8C056
:102CE800C4F0B9C0C5F0720E00019F6F310E00012B
:102CF800A06F3F0E0001A16FC6C098F0C7C099F041
:102D080070EC28F098C09CF099C09DF09AC09EF095
:102D18004CEC15F09CC0ABF09DC0ACF09EC0ADF083
:102D2800C3C0AEF0C4C0AFF0C5C0B0F06FEC0EF0D9
:102D3800ABC0C3F0ACC0C4F0ADC0C5F012009AC0BF
:102D48009EF000019F6BA06B0001993500019E3732
:102D580001E39F8100019E510001A56F0001A5516B
:102D6800D8A40AD0000E0001986F000E0001996FD8
:102D7800000E00019A6F12009DC09EF000019F6B2B
:102D8800A06B00019C3500019E3701E39F81000183
:102D98009E510001A66F0001A651D8A40AD0000ECA
:102DA8000001986F000E0001996F000E00019A6FE4
:102DB8001200000E0001A26F000E0001A36F000EAA
:102DC8000001A46F0001A651890F0001A55F9AC0F8
:102DD800A6F000019D510001A61B800E0001A61758
:102DE8000001998FFF0E00019817FF0E0001991737
:102DF800000E00019A1700019C8FFF0E00019B171F
:102E0800FF0E00019C17000E00019D17180E00010F
:102E1800A16F0001D890A237A337A43700019B51B6
:102E28000001985D00019C510001995900019D51D4
:102E380000019A59D8A00ED000019B510001985F5B
:102E480000019C510001995B00019D5100019A5BB2
:102E58000001A2810001D890983799379A3700016C
:102E6800A12FD7D7A2C090F0A3C091F0A4C092F030
:102E7800A5C093F0A6C094F090EC19F090C098F01B
:102E880091C099F092C09AF01200B9C0BBF000014D
:102E9800BC6BBD6B0001B8350001BB3701E3BC81D9
:102EA8000001BB510001C56F0001C551D8A40AD06B
:102EB800000E0001B76F000EB86F000EB96F000E5C
:102EC800BA6F1200170E0001BB6FB7C0BCF0B8C0D4
:102ED800BDF0B9C0BEF00001BB290001BF6F05D02D
:102EE8000001D890BE33BD33BC330001BF2FF8D7E3
:102EF8000001BC510001C06F0001B88FFF0E000136
:102F0800B717FF0E0001B817000E0001B91700012E
:102F1800B7510001C16F0001B8510001C26F000133
:102F2800B9510001C36F0001C46B8E0E0001C55F6B
:102F38000001C5AF1AD00001C551800A8F0FD8B063
:102F48000AD0000E0001B76F000EB86F000EB96FFF
:102F5800000EBA6F12000001D890C433C333C233D5
:102F6800C1330001C53FF7D71BD0170E0001C56557
:102F780012D0000E0001B76F000EB86F000EB96FC7
:102F8800000EBA6F12000001D890C137C237C3379C
:102F9800C4370001C5070001C5510001D8A4F3D703
:102FA8000001C0510001D8B409D00001C41FC31FDB
:102FB800C21FC16D000EC223C323C423C1C0B7F012
:102FC800C2C0B8F0C3C0B9F0C4C0BAF0120036AE7F
:102FD8000CD0000E0101306F210E2F6F000E346EE1
:102FE800000E356E000E366E120034503510361055
:102FF800D8A40CD0000E0101306F220E2F6F000EE6
:10300800346E000E356E000E366E1200000E106E15
:10301800000E116E400E126E370E046E000E056E15
:1030280034C001F035C002F036C003F0F3EC24F0F0
:1030380001C00DF002C00EF003C00FF012EC1FF03B
:103048000DC01CF00EC01DF00FC01EF0000E1F6E4C
:10305800800E206EBF0E216EBBEC13F01CC034F046
:103068001DC035F01EC036F03706D8A0380634C06B
:1030780028F035C029F036C02AF0DB0E2B6EFD0E85
:103088002C6E000E2E6E080E2D6EB8EC21F028C0A6
:1030980034F029C035F02AC036F0720E106E310EA9
:1030A800116E3F0E126E37C009F038C00AF0F0EC0E
:1030B80028F009C00DF00AC00EF00BC00FF012EC9A
:1030C8001FF00DC01CF00EC01DF00FC01EF034C064
:1030D8001FF035C020F036C021F0BBEC13F01CC047
:1030E80034F01DC035F01EC036F012000001C35187
:1030F8000001C4110001C511D8A40AD0000E0001B6
:10310800C36F000E0001C46F000E0001C56F1200EE
:103118000001C5517F0B0001C86FC96BD890000131
:10312800C837C9370001C8510001C6270001C95175
:103138000001C7230001C4AF04D00001C86BC82B2D
:1031480002D00001C86B0001C8510001C627000E5B
:10315800C7230001C7AF0FD0000E0101306F220E48
:103168002F6F000E0001C36F000E0001C46F000E28
:103178000001C56F12000001C7BF1CD00001C705C0
:10318800D8A018D0000E0101306F220E2F6F000159
:10319800C5AF08D0FF0E0001C36F7F0E0001C46FDA
:1031A800FF0EE6D7FF0E0001C36F7F0E0001C46F4C
:1031B8007F0EDED70001C735C7310001C96F000196
:1031C800C6310001C86F0001C5510001C819800B44
:1031D800C8190001C56FC6C0C8F0010E0001C817A4
:1031E8000001C833C8330001C4510001C8197F0B5E
:1031F800C8190001C46FC3C0C3F0C4C0C4F0C5C0BF
:10320800C5F01200000E0101696F000E686FDBC087
:103218006CF1DCC06DF1000E01016B6F000E6A6F7E
:1032280070D00F0E01016C150101666F0101676B0B
:1032380068C198F069C199F070EC28F098C060F105
:1032480099C061F19AC062F160C152F161C153F154
:1032580062C154F1000E01014F6F200E0101506F41
:10326800410E0101516FE1EC12F04FC163F150C101
:1032780064F151C165F163C19FF064C1A0F065C1FB
:10328800A1F066C198F067C199F070EC28F098C079
:103298009CF099C09DF09AC09EF04CEC15F09CC033
:1032A800AEF09DC0AFF09EC0B0F06AC198F06BC19F
:1032B80099F070EC28F098C0ABF099C0ACF09AC0C7
:1032C800ADF06FEC0EF0ABC0B7F0ACC0B8F0ADC06D
:1032D800B9F049EC17F0B7C06AF1B8C06BF16CC12E
:1032E80090F06DC191F0000E0001936F100E926F77
:1032F800E8EC22F090C06CF191C06DF10101684BCF
:10330800692B01016C5101016D11D8A48AD76AC1DA
:10331800DBF06BC1DCF01200000193510001D8B45E
:1033280008D0000190510001911100019211D8A418
:1033380011D0000E0001906F000E0001916F000E79
:103348000001926F12000001932B0001D890923374
:1033580091339033000E000190150001956F000E17
:10336800000191150001966FFE0E000192150001F3
:10337800976F000195510001961100019711D8B47B
:1033880011D0E1D70001932B010E00019027000E08
:1033980000019123000E000192230001D89092337E
:1033A80091339033000E000190150001956F000EC7
:1033B800000191150001966FFF0E000192150001A2
:1033C800976F000195510001961100019711D8B42B
:1033D80008D0D8D7000193070001D89090379137CB
:1033E8009237000191BF04D0020E00019361F2D719
:1033F800000193B102D00001919F0001D89093334E
:103408000001935100019213000194510001D8B4B6
:1034180002D00001928F90C090F091C091F092C0BC
:1034280092F0120065D0800E58EC2AF02A0E0001A6
:103438009C6FFE0E00019D6F1CEC08F0C00E58EC4E
:103448002AF05C0E00019C6FFF0E00019D6FDFC02B
:103458009EF0E0C09FF01CEC08F01200800E58ECC3
:103468002AF0940E00019C6FFF0E00019D6FE1C0D1
:103478009EF0E2C09FF01CEC08F0C00E58EC2AF059
:10348800A50E00019C6FFF0E00019D6FE3C09EF02A
:10349800E4C09FF01CEC08F01200800E58EC2AF0F3
:1034A800B60E00019C6FFF0E00019D6FE5C09EF0F7
:1034B800E6C09FF01CEC08F0C00E58EC2AF0C70ECE
:1034C80000019C6FFF0E00019D6FE7C09EF0E8C0F1
:1034D8009FF01CEC08F01200800E58EC2AF0D80E71
:1034E80000019C6FFF0E00019D6F1CEC08F0F4D7E3
:1034F8007AC190F07BC191F0000E0001936F030E2A
:10350800926F53EC24F000019151000AD8A4E4D73B
:1035180000019051000AD8B486D7010AD8B49ED7C2
:10352800030AD8B4BAD7D8D765D0800E58EC2AF099
:10353800BC0E00019C6FFE0E00019D6F1CEC08F094
:10354800C00E58EC2AF0300E00019C6FFF0E0001EF
:103558009D6FDFC09EF0E0C09FF01CEC08F01200E9
:10356800800E58EC2AF0940E00019C6FFF0E0001AB
:103578009D6FE1C09EF0E2C09FF01CEC08F0C00E09
:1035880058EC2AF0A50E00019C6FFF0E00019D6FFC
:10359800E3C09EF0E4C09FF01CEC08F01200800E1F
:1035A80058EC2AF0B60E00019C6FFF0E00019D6FCB
:1035B800E5C09EF0E6C09FF01CEC08F0C00E58EC89
:1035C8002AF0C70E00019C6FFF0E00019D6FE7C037
:1035D8009EF0E8C09FF01CEC08F01200800E58EC3A
:1035E8002AF0D80E00019C6FFF0E00019D6F1CECA5
:1035F80008F0F4D778C190F079C191F0000E00017D
:10360800936F030E926F53EC24F000019151000A5E
:10361800D8A4E4D700019051000AD8B486D7010A8B
:10362800D8B49ED7030AD8B4BAD7D8D765D0800EF5
:1036380058EC2AF0A40E00019C6FFE0E00019D6F4D
:103648001CEC08F0C00E58EC2AF0300E00019C6FFC
:10365800FF0E00019D6FDFC09EF0E0C09FF01CECE4
:1036680008F01200800E58EC2AF0940E00019C6FAE
:10367800FF0E00019D6FE1C09EF0E2C09FF01CECC0
:1036880008F0C00E58EC2AF0A50E00019C6FFF0E42
:1036980000019D6FE3C09EF0E4C09FF01CEC08F0B1
:1036A8001200800E58EC2AF0B60E00019C6FFF0E37
:1036B80000019D6FE5C09EF0E6C09FF01CEC08F08D
:1036C800C00E58EC2AF0C70E00019C6FFF0E0001D7
:1036D8009D6FE7C09EF0E8C09FF01CEC08F0120058
:1036E800800E58EC2AF0D80E00019C6FFF0E0001E6
:1036F8009D6F1CEC08F0F4D776C190F077C191F07B
:10370800000E0001936F030E926F53EC24F000013A
:103718009151000AD8A4E4D700019051000AD8B406
:1037280086D7010AD8B49ED7030AD8B4BAD7D8D74F
:1037380065D0800E58EC2AF0EB0E00019C6FFE0E4F
:1037480000019D6F1CEC08F0C00E58EC2AF05C0ECE
:1037580000019C6FFF0E00019D6FDFC09EF0E0C06E
:103768009FF01CEC08F01200800E58EC2AF0940E22
:1037780000019C6FFF0E00019D6FE1C09EF0E2C04A
:103788009FF01CEC08F0C00E58EC2AF0A50E0001C2
:103798009C6FFF0E00019D6FE3C09EF0E4C09FF098
:1037A8001CEC08F01200800E58EC2AF0B60E00014E
:1037B8009C6FFF0E00019D6FE5C09EF0E6C09FF074
:1037C8001CEC08F0C00E58EC2AF0C70E00019C6FE4
:1037D800FF0E00019D6FE7C09EF0E8C09FF01CEC53
:1037E80008F01200800E58EC2AF0D80E00019C6FE9
:1037F800FF0E00019D6F1CEC08F0F4D774C190F027
:1038080075C191F0000E0001936F030E926F53EC97
:1038180024F000019151000AD8A4E4D70001905186
:10382800000AD8B486D7010AD8B49ED7030AD8B4F8
:10383800BAD7D8D765D0800E58EC2AF0460E0001CA
:103848009C6FFF0E00019D6F1CEC08F0C00E58EC39
:103858002AF0300E00019C6FFF0E00019D6FDFC043
:103868009EF0E0C09FF01CEC08F01200800E58ECAF
:103878002AF0940E00019C6FFF0E00019D6FE1C0BD
:103888009EF0E2C09FF01CEC08F0C00E58EC2AF045
:10389800A50E00019C6FFF0E00019D6FE3C09EF016
:1038A800E4C09FF01CEC08F01200800E58EC2AF0DF
:1038B800B60E00019C6FFF0E00019D6FE5C09EF0E3
:1038C800E6C09FF01CEC08F0C00E58EC2AF0C70EBA
:1038D80000019C6FFF0E00019D6FE7C09EF0E8C0DD
:1038E8009FF01CEC08F01200800E58EC2AF0D80E5D
:1038F80000019C6FFF0E00019D6F1CEC08F0F4D7CF
:1039080072C190F073C191F0000E0001936F030E25
:10391800926F53EC24F000019151000AD8A4E4D727
:1039280000019051000AD8B486D7010AD8B49ED7AE
:10393800030AD8B4BAD7D8D7D0C090F0D1C091F084
:10394800D2C092F0D60E0001936F000E0001946F62
:10395800A5EC23F00001D7AF17D00001D2AF0AD0F1
:10396800000E0001D06F800E0001D16FBF0E000164
:10397800D26F1200000E0001D06F000E0001D16F4F
:10398800000E0001D26F12000001D75105E1150E9B
:103998000001D65DD8A007D0D0C0D0F0D1C0D1F0FA
:1039A800D2C0D2F01200D0C0B7F0D1C0B8F0D2C0A7
:1039B800B9F049EC17F0B7C0C6F0B8C0C7F0B9C045
:1039C800C8F0BAC0C9F0A4EC24F0C6C0D3F0C7C090
:1039D800D4F0C8C0D5F0D0C0A7F0D1C0A8F0D2C0EC
:1039E800A9F0D3C0AAF0D4C0ABF0D5C0ACF021EC9C
:1039F80022F00001D8B018D0D3C0ABF0D4C0ACF0DE
:103A0800D5C0ADF0000E0001AE6F800E0001AF6FA3
:103A1800BF0E0001B06F6FEC0EF0ABC0D0F0ACC0C1
:103A2800D1F0ADC0D2F01200D3C0D0F0D4C0D1F0E4
:103A3800D5C0D2F012007FEC2AF0000E0001926F80
:103A4800520E916F71EC2AF0000E0001926F800EF9
:103A5800916F71EC2AF0000E0001926F010E916FC8
:103A680071EC2AF07BEC2AF00A0E0001936FBC0E71
:103A7800E82EFED7932FFCD700F07FEC2AF0000E3B
:103A88000001926F520E916F71EC2AF0000E000146
:103A9800926F800E916F71EC2AF0000E0001926F08
:103AA800030E916F71EC2AF07BEC2AF07FEC2AF080
:103AB800000E0001926F520E916F71EC2AF0000E09
:103AC8000001926F8F0E916F71EC2AF0000E0001C9
:103AD800926F020E916F71EC2AF07BEC2AF07FEC6A
:103AE8002AF0000E0001926F520E916F71EC2AF0CD
:103AF800000E0001926F810E916F71EC2AF0000E9A
:103B08000001926F916971EC2AF07BEC2AF07FEC4E
:103B18002AF0000E0001926F520E916F71EC2AF09C
:103B2800000E0001926FB40E916F71EC2AF07BECDD
:103B38002AF01200000E6E6E000E6D6E63C071F0FA
:103B480064C072F0000E706E000E6F6E68D00F0EBB
:103B580071146B6E6C6A6DC009F06EC00AF0F0ECFF
:103B680028F009C065F00AC066F00BC067F065C0B0
:103B780055F066C056F067C057F0000E526E200E22
:103B8800536E410E546E91EC14F052C068F053C05D
:103B980069F054C06AF068C010F069C011F06AC0DA
:103BA80012F06BC009F06CC00AF0F0EC28F009C004
:103BB8000DF00AC00EF00BC00FF012EC1FF00DC094
:103BC8001FF00EC020F00FC021F06FC009F070C0C8
:103BD8000AF0F0EC28F009C01CF00AC01DF00BC078
:103BE8001EF0BBEC13F01CC028F01DC029F01EC04D
:103BF8002AF098EC1EF028C06FF029C070F071C050
:103C080001F072C002F0000E046E100E036E83EC19
:103C180025F001C071F002C072F06D4A6E2A715031
:103C28007210D8A494D76FC063F070C064F012000B
:103C38007FEC2AF0000E0001926F530E916F71EC29
:103C48002AF0010E5AEC29F001011B6F010E5AEC03
:103C580029F00101176F010E5AEC29F001011C6FC0
:103C6800010E5AEC29F00101186F010E5AEC29F0E7
:103C780001011D6F010E5AEC29F00101196F010EA7
:103C88005AEC29F001011E6F000E5AEC29F00101CF
:103C98001A6F7BEC2AF001011B5117C193F0000148
:103CA800946B93C094F00001936B00019311010190
:103CB800006F000194510101016F01011C5118C1ED
:103CC80093F00001946B93C094F00001936B000192
:103CD80093110101026F000194510101036F010169
:103CE8001D5119C193F00001946B93C094F0000129
:103CF800936B000193110101046F000194510101BC
:103D0800056F01011E511AC193F00001946B93C015
:103D180094F00001936B000193110101066F0001FB
:103D280094510101076F12002AC02CF02D6A2E6AE7
:103D380029342C3601E32D802C50366E3650D8A409
:103D480009D0000E286E000E296E000E2A6E000E95
:103D58002B6E1200170E2C6E28C02DF029C02EF0E5
:103D68002AC02FF02C28306E04D0D8902F322E3253
:103D78002D32302EFAD72D50316E298EFF0E28168F
:103D8800FF0E2916000E2A162850326E2950336E5F
:103D98002A50346E356A8E0E365E36AE16D03650E0
:103DA800800A8F0FD8B009D0000E286E000E296E39
:103DB800000E2A6E000E2B6E1200D8903532343267
:103DC80033323232363EF9D715D0170E36640FD05B
:103DD800000E286E000E296E000E2A6E000E2B6E45
:103DE8001200D890323633363436353636063650E9
:103DF800D8A4F7D73150D8B408D0351E341E331E96
:103E0800326C000E33223422352232C028F033C0FF
:103E180029F034C02AF035C02BF012000FC013F07F
:103E2800146A156A0E34133601E314801350166EA3
:103E38001650D8A407D0000E0D6E000E0E6E000EA0
:103E48000F6E120012C013F0146A156A113413367B
:103E580001E3148013501B6E1B50D8A407D0000E2A
:103E68000D6E000E0E6E000E0F6E12001B507B0FB3
:103E780016260FC01BF012501B1A800E1B160E8E32
:103E8800118EFF0E1016FF0E1116000E1216000EE0
:103E9800176E000E186E000E196E070E1A6E0DA022
:103EA80006D0105017261150182212501922D890F7
:103EB8000F320E320D32D8901036113612361A2EB5
:103EC800EED7090E1A6E0DA006D010501726115005
:103ED800182212501922D8900F320E320D32D89073
:103EE8001932183217321A2EEED717C001F018C03F
:103EF80002F019C003F016C004F01BC005F0FCEC7A
:103F080023F001C00DF002C00EF003C00FF0120044
:103F1800BCC090F0BDC091F0000E0001936F030E7D
:103F2800926F27EC29F0BAC0BEF0BBC0BFF0000109
:103F380090510001BE27000191510001BF23BEC06E
:103F4800F6FFBFC0F7FF0900F5CFC0F00900F5CFB5
:103F5800C1F00A00F5CFC2F044D0C0C09FF0C1C084
:103F6800A0F0C2C0A1F0B7C09CF0B8C09DF0B9C025
:103F78009EF04CEC15F09CC0ABF09DC0ACF09EC020
:103F8800ADF0000E0001936F030E926F0001BC07A5
:103F9800D8A0BD07BCC090F0BDC091F027EC29F0B7
:103FA800BAC0BEF0BBC0BFF0000190510001BE27EF
:103FB800000191510001BF23BEC0F6FFBFC0F7FF4B
:103FC8000900F5CFAEF00900F5CFAFF00A00F5CF44
:103FD800B0F06FEC0EF0ABC0C0F0ACC0C1F0ADC03B
:103FE800C2F00001BC510001BD11D8A4B6D7C0C0B1
:103FF800B7F0C1C0B8F0C2C0B9F012000BC00FF0E2
:10400800106A116A0A340F3601E310800F50166ED9
:104018001650D8A407D0000E096E000E0A6E000EC6
:104028000B6E12000EC00FF0106A116A0D340F36B5
:1040380001E310800F50176E1750D8A407D0000E58
:10404800096E000E0A6E000E0B6E1200000E136E43
:10405800000E146E000E156E1750890F165E0BC0F9
:1040680017F00E50171A800E17160A8EFF0E091633
:10407800FF0E0A16000E0B160D8EFF0E0C16FF0E05
:104088000D16000E0E16180E126ED8901336143632
:1040980015360C50095C0D500A580E500B58D8A014
:1040A80007D00C50095E0D500A5A0E500B5A138057
:1040B800D89009360A360B36122EE7D713C001F00E
:1040C80014C002F015C003F016C004F017C005F0C4
:1040D800FCEC23F001C009F002C00AF003C00BF0A9
:1040E800120041C001F042C002F043C003F0440E88
:1040F800046E000E056EF3EC24F045AE10D043AE0E
:1041080007D0000E416E800E426EBF0E436E120045
:10411800000E416E000E426E000E436E12004550B6
:1041280004E1150E445CD8A007D041C041F042C05C
:1041380042F043C043F0120041C028F042C029F0C9
:1041480043C02AF098EC1EF028C037F029C038F098
:104158002AC039F02BC03AF03FEC26F037C046F0C1
:1041680038C047F039C048F041C001F042C002F001
:1041780043C003F046C004F047C005F048C006F04D
:104188003BEC25F0D8B015D046C01CF047C01DF058
:1041980048C01EF0000E1F6E800E206EBF0E216EEE
:1041A800BBEC13F01CC041F01DC042F01EC043F030
:1041B800120046C041F047C042F048C043F0120028
:1041C80087EC2AF0000E036E530E026E76EC2AF08E
:1041D800010EC2EC29F001011B6F010EC2EC29F09F
:1041E8000101176F010EC2EC29F001011C6F010ECD
:1041F800C2EC29F00101186F010EC2EC29F001018F
:104208001D6F010EC2EC29F00101196F010EC2ECFD
:1042180029F001011E6F000EC2EC29F001011A6F8E
:1042280083EC2AF001011B5117C104F0056A04C090
:1042380005F0046A04100101006F05500101016FC7
:1042480001011C5118C104F0056A04C005F0046A94
:1042580004100101026F05500101036F01011D5196
:1042680019C104F0056A04C005F0046A04100101CC
:10427800046F05500101056F01011E511AC104F0B8
:10428800056A04C005F0046A04100101066F0550B0
:104298000101076F12007FEC2AF0000E0001926FF7
:1042A800D00E916F71EC2AF0000E0001926F000E93
:1042B800916F71EC2AF07BEC2AF07FEC2AF0000E6B
:1042C8000001926FD10E916F71EC2AF0000E00017F
:1042D800B26F050E0001B26501D010D00001B251D5
:1042E800010D100EF324D96E010EF420DA6E010EC2
:1042F8005AEC29F0DF6E0001B22BEBD7000E5AEC16
:1043080029F00101166F7BEC2AF0800E58EC2AF098
:10431800020E00019C6FFF0E00019D6F15C19EF0FB
:1043280000019F6B14C1A0F00001A16B16C1A2F09F
:104338000001A36B1CEC08F0C00E58EC2AF0190E13
:1043480000019C6FFF0E00019D6F12C19EF00001DD
:104358009F6B11C1A0F00001A16B10C1A2F0000178
:10436800A36B1CEC08F012002DC001F02EC002F067
:10437800000E046E030E036ED5EC29F02BC02FF04F
:104388002CC030F001502F26025030222FC0F6FFEB
:1043980030C0F7FF0900F5CF31F00900F5CF32F052
:1043A8000A00F5CF33F03ED031C010F032C011F022
:1043B80033C012F028C00DF029C00EF02AC00FF04B
:1043C80012EC1FF00DC01CF00EC01DF00FC01EF047
:1043D800000E046E030E036E2D06D8A02E062DC007
:1043E80001F02EC002F0D5EC29F02BC02FF02CC024
:1043F80030F001502F26025030222FC0F6FF30C077
:10440800F7FF0900F5CF1FF00900F5CF20F00A00EB
:10441800F5CF21F0BBEC13F01CC031F01DC032F019
:104428001EC033F02D502E10D8A4BED731C028F0AE
:1044380032C029F033C02AF012000001A9AF1DD004
:10444800A7C0ADF0A8C0AEF0A9C0AFF00001AD1F85
:10445800AE1FAF1FAD2B000EAE23AF23000E000121
:10446800AD250001A76F000E0001AE210001A86F65
:10447800800E0001AF210001A96F0001ACAF1DD073
:10448800AAC0ADF0ABC0AEF0ACC0AFF00001AD1F3C
:10449800AE1FAF1FAD2B000EAE23AF23000E0001E1
:1044A800AD250001AA6F000E0001AE210001AB6F1F
:1044B800800E0001AF210001AC6F000E0001A71BA8
:1044C800000E0001A81B800E0001A91B000E0001B0
:1044D800AA1B000E0001AB1B800E0001AC1B0001E3
:1044E800AA510001A75D0001AB510001A8590001C4
:1044F800AC510001A959D8B002D0D8901200D88088
:104508001200345035103610D8A407D0000E346E7F
:10451800000E356E000E366E120036507F0B396E67
:104528003A6AD89039363A36395037263A503822CE
:1045380035AE03D0396A392A01D0396A395037265D
:10454800000E382238AE0CD0000E0101306F220E5A
:104558002F6F000E346E000E356E000E366E120090
:1045680038BE16D03804D8A013D0000E0101306F21
:10457800220E2F6F36AE06D0FF0E346E7F0E356ECC
:10458800FF0EECD7FF0E346E7F0E356E7F0EE6D72A
:10459800383438303A6E3730396E36503918800B27
:1045A8003918366E37C039F0010E391639323932BA
:1045B800355039187F0B3918356E34C034F035C092
:1045C80035F036C036F01200000E0001956F00017C
:1045D80093AF08D00001926D931FD8B0932B010EB2
:1045E8000001956F000191AF08D00001906D911FF7
:1045F800D8B0912B010E0001951B000E0001976F9A
:10460800000E966F0001925100019311D8B42CD07E
:10461800010E0001946F06D00001D89092379337AD
:104628000001942B000193AFF7D70001D89096377B
:104638009737000192510001905D000193510001EC
:104648009159D8A00AD0000192510001905F000151
:1046580093510001915B000196810001D89093333A
:1046680092330001942FE1D7000195510001D8B48D
:1046780005D00001966D971FD8B0972B96C090F083
:1046880097C091F01200000E0001986F000E996F0C
:10469800000E9A6F000E9B6F000194510001951156
:1046A8000001961100019711D8B442D0010E000103
:1046B8009C6F08D00001D890943795379637973774
:1046C80000019C2B000197AFF5D70001D8909837CF
:1046D80099379A379B37000194510001905D00018A
:1046E800955100019159000196510001925900011C
:1046F800975100019359D8A012D00001945100019C
:10470800905F000195510001915B000196510001F5
:10471800925B000197510001935B000198810001B1
:10472800D890973396339533943300019C2FCDD787
:1047380098C090F099C091F09AC092F09BC093F005
:104748001200000190510001911100019211D8A4AA
:1047580012D093C0D9FF94C0DAFF000EDE6E000EAF
:10476800DD6E000E0001906F000E0001916F000ECB
:104778000001926F1200000192517F0B0001956FAA
:10478800966BD89000019537963793C0D9FF94C09F
:10479800DAFF95C0DEFF96C0DDFF000191AF04D0BF
:1047A8000001956B952B02D00001956B0001955186
:1047B80093C0D9FF94C0DAFFDE12000EDD1293C059
:1047C800D9FF94C0DAFF820EDE26FF0EDD2200013B
:1047D80092819283928592879289928B929D000111
:1047E800919F90C090F091C091F092C092F0120009
:1047F8000450D8B405D0015002100310D8A40CD02E
:10480800000E016E000E026E000E036E1200042AE6
:10481800D890033202320132000E0114066E000EE7
:104828000214076EFE0E0314086E065007100810D7
:10483800D8B40CD0ECD7042A010E0126000E0222AF
:10484800000E0322D890033202320132000E011406
:10485800066E000E0214076EFF0E0314086E065053
:1048680007100810D8B406D0E6D70406D890013649
:104878000236033602BE03D0020E0460F6D704A047
:10488800029ED8900432045003120550D8A4038E17
:1048980001C001F002C002F003C003F01200000ED4
:1048A8000001956F000191AF08D00001906D911F34
:1048B800D8B0912B010E0001956F000193AF05D080
:1048C8000001926D931FD8B0932B00019251000103
:1048D8009311D8B426D0010E0001946F06D00001C0
:1048E800D890923793370001942B000193AFF7D7F4
:1048F800000192510001905D00019351000191590E
:10490800D8A008D0000192510001905F0001935196
:104918000001915B0001D890933392330001942FEA
:10492800E7D7000195510001D8B405D00001906D7A
:10493800911FD8B0912B90C090F091C091F01200C7
:10494800000E0001CF6F8E0E0001CE6F0001C9AFBF
:1049580015D00001C91FC81FC71FC66D000EC72389
:10496800C823C923010E0001CF6F08D00001D890D9
:10497800C933C833C733C6330001CE2B000E00013C
:10498800C6150001CA6F000E0001C7150001CB6FE4
:10499800000E0001C8150001CC6FFF0E0001C915FB
:1049A8000001CD6F0001CA510001CB110001CC11EB
:1049B8000001CD11D8A4DAD7C6C090F0C7C091F0D5
:1049C800C8C092F0CEC093F0CFC094F090EC19F02C
:1049D80090C0C6F091C0C7F092C0C8F01200015054
:1049E80002100310D8A40FD004C0D9FF05C0DAFF05
:1049F800000EDE6E000EDD6E000E016E000E026E01
:104A0800000E036E120003507F0B066E076AD890E3
:104A18000636073604C0D9FF05C0DAFF06C0DEFF38
:104A280007C0DDFF02AE03D0066A062A01D0066A77
:104A3800065004C0D9FF05C0DAFFDE12000EDD12F1
:104A480004C0D9FF05C0DAFF820EDE26FF0EDD2284
:104A580003800382038403860388038A039C029EDF
:104A680001C001F002C002F003C003F0120003AE5F
:104A780016D001C007F002C008F003C009F0071EF5
:104A8800081E091E072A000E08220922000E072404
:104A9800016E000E0820026E800E0920036E06AE1D
:104AA80016D004C007F005C008F006C009F0071EBC
:104AB800081E091E072A000E08220922000E0724D4
:104AC800046E000E0820056E800E0920066E000E8A
:104AD800011A000E021A800E031A000E041A000EA4
:104AE800051A800E061A0450015C0550025806503B
:104AF8000358D8B002D0D8901200D8801200000E07
:104B0800066E04AE06D0036C041ED8B0042A010E4B
:104B1800066E02AE06D0016C021ED8B0022A010E43
:104B2800061A000E086E000E076E03500410D8B463
:104B38001CD0010E056E04D0D89003360436052A21
:104B480004AEFAD7D890073608360350015C0450F3
:104B58000258D8A005D00350015E0450025A0780BD
:104B6800D89004320332052EEDD70650D8B404D0BD
:104B7800076C081ED8B0082A07C001F008C002F068
:104B880012008E0E0001A06F08D00001D8909B3350
:104B98009A33993398330001A02B000E0001981521
:104BA80000019C6F000E0001991500019D6F000E19
:104BB80000019A1500019E6FFF0E00019B15000170
:104BC8009F6F00019C5100019D1100019E11000181
:104BD8009F11D8A4DAD798C090F099C091F09AC0E4
:104BE80092F0A0C093F0000E0001946F90EC19F0C1
:104BF80090C098F091C099F092C09AF01200000EFF
:104C08000001956F000E946F0001925100019311FD
:104C1800D8B42CD0010E0001966F06D00001D890B0
:104C2800923793370001962B000193AFF7D7000115
:104C3800D89094379537000192510001905D00019A
:104C4800935100019159D8A00AD000019251000156
:104C5800905F000193510001915B00019481000174
:104C6800D890933392330001962FE1D794C090F0F7
:104C780095C091F01200000E406E8E0E3F6E3AAE57
:104C880011D03A1E391E381E376C000E38223922D0
:104C98003A22010E406E06D0D8903A323932383274
:104CA80037323F2A000E37143B6E000E38143C6E24
:104CB800000E39143D6EFF0E3A143E6E3B503C1008
:104CC8003D103E10D8A4E8D737C001F038C002F034
:104CD80039C003F03FC004F040C005F0FCEC23F0FD
:104CE80001C037F002C038F003C039F012007FEC81
:104CF8002AF0000E0001926FD00E916F71EC2AF02D
:104D0800000E0001926F000E916F71EC2AF07BEC9F
:104D18002AF07FEC2AF0000E0001926FD10E916FFD
:104D280071EC2AF0000E0001936F050E00019365E7
:104D380001D010D000019351010D100EF324D96E4B
:104D4800010EF420DA6E010E5AEC29F0DF6E000134
:104D5800932BEBD7000E5AEC29F00101166F7BEC70
:104D68002AF0120087EC2AF0000E036ED00E026EB5
:104D780076EC2AF0000E036E000E026E76EC2AF036
:104D880083EC2AF087EC2AF0000E036ED10E026E37
:104D980076EC2AF0000E046E050E046401D00ED0E5
:104DA8000450010D100EF324D96E010EF420DA6EB2
:104DB800010EC2EC29F0DF6E042AEED7000EC2EC19
:104DC80029F00101166F83EC2AF0120000019951B5
:104DD80000019A11D8B426D0010E00019B6F06D0AD
:104DE8000001D89099379A3700019B2B00019AAFA0
:104DF800F7D7000199510001975D00019A51000110
:104E08009859D8A008D0000199510001975F000176
:104E18009A510001985B0001D8909A3399330001A8
:104E28009B2FE7D797C097F098C098F01200000121
:104E3800916F00019151F00B0001906F8C500F0B96
:104E48008C6E000190518C108C6E8C96190EE82E89
:104E5800FED78C86190EE82EFED700019139F00B8B
:104E68000001916F00019151F00B0001906F8C507F
:104E78000F0B8C6E000190518C108C6E8C96190E55
:104E8800E82EFED78C86190EE82EFED71200000EEB
:104E9800C76E280EC66E000EC56E800E0001906F9C
:104EA800960E916F980E926F000E936F9DC0A1F0B1
:104EB8009EC0A2F09FC0A3F0A0C0A4F0020ED8909C
:104EC8000001A137A237A337A437E82EF8D7A1C02D
:104ED80094F0A2C095F0A3C096F0A4C097F047EC58
:104EE80023F000019005C86E9486948812008E0EF7
:104EF800116E06D0D8900C320B320A320932112AC0
:104F0800000E09140D6E000E0A140E6E000E0B141E
:104F18000F6EFF0E0C14106E0D500E100F101010A7
:104F2800D8A4E8D709C001F00AC002F00BC003F00A
:104F380011C004F0000E056EFCEC23F001C009F06E
:104F480002C00AF003C00BF01200D80EF66E540E21
:104F5800F76E000EF86E01EE72F010EE0AF009001E
:104F6800F5CFEEFFE550E150FAE101EE00F0490E11
:104F7800EE6AE806FDE100EEDFF0100EEE6AE806E4
:104F8800FDE100EE76F0090EEE6AE806FDE17F909D
:104F98007F92000EF86E00010BEF0DF0000E066E0A
:104FA800000E056E03500410D8B41CD0010E076E15
:104FB80004D0D89003360436072A04AEFAD7D8901E
:104FC800053606360350015C04500258D8A005D0B7
:104FD8000350015E0450025A0580D890043203320F
:104FE800072EEDD705C001F006C002F01200310E01
:104FF8000001936FB20EE82EFED7932FFCD700F076
:10500800330E58EC2AF0330E58EC2AF0320E58ECD6
:105018002AF0280E58EC2AF00F0E58EC2AF0060E4B
:1050280058EC2AF0010E58EC2AF0310E0001936F6B
:10503800B20EE82EFED7932FFCD700F01200026EB6
:105048000250F00B016E8C500F0B8C6E01508C10BF
:105058008C6E8C96190EE82EFED78C86190EE82ECB
:10506800FED70238F00B026E0250F00B016E8C5026
:105078000F0B8C6E01508C108C6E8C96190EE82ECE
:10508800FED78C86190EE82EFED712000001BA5101
:105098000001BB110001BC11D8B409D0000E0001F9
:1050A800BA1B000E0001BB1B800E0001BC1BB7C061
:1050B800ABF0B8C0ACF0B9C0ADF0BAC0AEF0BBC090
:1050C800AFF0BCC0B0F06FEC0EF0ABC0B7F0ACC046
:1050D800B8F0ADC0B9F01200000E00019B6F0001DE
:1050E80099AF08D00001986D991FD8B0992B010E7F
:1050F80000019B6F98C090F099C091F00001926BED
:105108008E0E0001936F9BC094F090EC19F090C044
:1051180098F091C099F092C09AF012000A500B10C2
:10512800D8B418D0010E0C6E04D0D8900A360B36BD
:105138000C2A0BAEFAD70A50085C0B500958D8A0B5
:1051480004D00A50085E0B50095AD8900B320A3224
:105158000C2EF1D708C008F009C009F012002B5036
:105168002C102D10D8B406D0000E2B1A000E2C1AB5
:10517800800E2D1A28C01CF029C01DF02AC01EF070
:105188002BC01FF02CC020F02DC021F0BBEC13F079
:105198001CC028F01DC029F01EC02AF01200800E85
:1051A80058EC2AF0710E00019C6FFF0E00019D6FF4
:1051B8001CEC08F0C00E58EC2AF01CEC1EF0F50EA2
:1051C80000019C6FFF0E00019D6F00C19EF001C1A0
:1051D8009FF01CEC08F01200000E0C6E0AAE06D010
:1051E800096C0A1ED8B00A2A010E0C6E09C001F01B
:1051F8000AC002F0036A8E0E046E0CC005F0FCECC7
:1052080023F001C009F002C00AF003C00BF012003D
:10521800800E58EC2AF0100E00019C6FFE0E000163
:105228009D6F1CEC08F0C00E58EC2AF08C0E0001A3
:105238009C6FFE0E00019D6F3FC19EF040C19FF024
:105248001CEC08F012000001905100019203F3CF0A
:1052580094F0F4CF95F00001905100019303F350BE
:10526800000195270001915100019203F3500001BC
:10527800952794C090F095C091F0120000019051CC
:105288000001911100019211D8B409D0000E00015B
:10529800901B000E0001911B800E0001921B90C014
:1052A80090F091C091F092C092F012000001916FBD
:1052B8003DEC2AF0C5863DEC2AF0C9CF92F03DECD2
:1052C8002AF0000191510001D8A402D0C58A01D06A
:1052D800C59AC58800019251120098C090F099C0F3
:1052E80091F00001926B8E0E0001936F000E000189
:1052F800946F90EC19F090C098F091C099F092C01A
:105308009AF012000001926F000E0001916F3A0EA0
:105318000001926107D02F0E0001926503D0010EA3
:105328000001916F91C090F00001903112000001CE
:105338009351AA6E92C0A9FF94C0A8FFA69EA69CEE
:10534800A684550EA76EAA0EA76EA682A1A8FED7A0
:10535800A198A69412000450AA6E03C0A9FF05C024
:10536800A8FFA69EA69CA684550EA76EAA0EA76E99
:10537800A682A1A8FED7A198A6941200026E47ECB7
:105388002AF0C58647EC2AF0C9CF03F047EC2AF08B
:105398000250D8A402D0C58A01D0C59AC588035046
:1053A800120001500302F3CF05F0F4CF06F00150CC
:1053B8000402F350062602500302F350062605C0E5
:1053C80001F006C002F01200015002100310D8B418
:1053D80006D0000E011A000E021A800E031A01C030
:1053E80001F002C002F003C003F01200F29E8094A4
:1053F800010E58EC2AF0800E58EC2AF0430E0001FA
:105408009C6FFE0E00019D6F1CEC08F0FFD7036E29
:10541800000E026E3A0E036005D02F0E036402D010
:10542800010E026E02C001F001301200800E58EC2D
:105438002AF0F60E00019C6FFD0E00019D6F1CEC1A
:1054480008F0120000019151AA6E90C0A9FFA69E13
:10545800A69CA680A6B0FED7A85012000250AA6E3D
:1054680001C0A9FFA69EA69CA680A6B0FED7A850FC
:105478001200C7B4FED7C5CF90F01F0E00019017D9
:10548800D8B41200F6D7C7B4FED7C5CF01F01F0EA7
:105498000116D8B41200F7D70001926F8C8400016E
:1054A80092511BEC27F012000001926F8C940001BE
:1054B80092511BEC27F01200036E8C84035023ECEE
:1054C80028F01200036E8C94035023EC28F012008D
:1054D800FFFF00000000000000003DEC2AF091C032
:1054E800C9FF120047EC2AF002C0C9FF12003DECC8
:1054F8002AF0C58412003DEC2AF0C580120047EC62
:0E5508002AF0C584120047EC2AF0C58012007C
:10FD9200003132334134353642373839432A302341
:10FDA200440001000A006400E8031027010010006B
:10FDB200000100103019130211041700803F723144
:10FDC2003FFE753E58633D951D3CC5AE3A792139DB
:10FDD20094803793A73556153400000000803FF019
:10FDE200FFBEE2A93E8376BEAE2B3E3CC3BDD2131C
:10FDF2003D78D3BB4F7065726174696F6E20446F3A
:10FE02006E65212020202020202020202000546FF9
:10FE120074616C204F7065726174696F6E2020206E
:10FE220020202020202020004274746C436E742015
:10FE3200507265762034202020202020202020208F
:10FE420000454D455247454E43592053544F50208B
:10FE52002020202020202020200047257520422518
:10FE6200752020202020202020202020202020203B
:10FE72002000432575205225752020202020202097
:10FE82002020202020202020200054696D653A2067
:10FE920025642073202020202020202020202020C4
:10FEA20020004274746C436E742050726576203266
:10FEB200202020202020202020004274746C436ED9
:10FEC20074205072657620332020202020202020AC
:10FED200200072756E6E696E67202020202020201F
:10FEE2002020202020202020004274746C436E7455
:10FEF20020507265762031202020202020202000F2
:10FF0200446174653A20253032782F253032782FBB
:10FF12002530327820200054696D653A2025303230
:10FF2200783A253032783A25303278202000546FE2
:10FF320074616C3A2025642020202020202020207B
:10FF420020202000426F74746C6520436F756E74BC
:10FF520020202020202020202000546F74616C3A41
:10FF62002025642020202020202020202020007313
:10FF720074616E64627920202020202020202020BD
:10FF82000030313233343536373839616263646573
:10FF92006600594F5020572F204341503A20256484
:10FFA200202000594F50204E4F204341503A2025E7
:10FFB2006420200045534B4120572F204341503AA3
:10FFC200202564200045534B41204E4F2043415091
:10FFD2003A20256420004552523A204241442042B0
:10FFE200544C434E54004552523A20424144204917
:0DFFF2005352002564202020202020000014
:020000040020DA
:08000000FFFFFFFFFFFFFFFF00
:020000040030CA
:0E000000FF021F1EFF8381FF0FC00FE00F40A5
:00000001FF
