:0400000007EF00F016
:100008007E82F4ED01F048EF13F09E0E0001AB6F15
:10001800000E0001AC6FD5D1250E0001B319D8B47C
:1000280005D00001B3515CEC14F0CBD1000E0001F7
:10003800B26F000EB16F000E0001B06F05D0000165
:10004800B08500019C4B9D2B9CC0F6FF9DC0F7FF1F
:100058000800F550300AD8B4F2D79CC0F6FF9DC00E
:10006800F7FF0800F550D0EC13F0D8A048D0000EE8
:100078000001B26F000EB16FB1C090F0B2C091F044
:10008800000E0001936F0A0E926F9EEC13F090C061
:10009800B1F091C0B2F0D00E0001A66FFF0E0001C2
:1000A800A76F9CC0F6FF9DC0F7FF0800F550000140
:1000B800A86FA96B0001A6510001A8270001A7514C
:1000C8000001A9230001A8510001B1270001A9518D
:1000D8000001B22300019C4B9D2B9CC0F6FF9DC0E4
:1000E800F7FF0800F550D0EC13F0D8A008D0C4D71B
:1000F8000001B08F20D0C00E0001B0131CD09CC0EE
:10010800F6FF9DC0F7FF00019C4B9D2B0800F5CF23
:10011800B3F00001B351000AD8B41200640AD8B48D
:100128000AD00D0AD8B407D01C0AD8B4E4D70D0AEF
:10013800D8B4DED746D1B0C0A6F0C00E0001A617CD
:10014800D8A419D0ABC0D9FFACC0DAFFDECFAEF06F
:10015800DDCFAFF0020E0001AB27000EAC2300018B
:10016800AFAF53D0030E0001B0130001AE6DAF1F47
:10017800D8B0AF2B4AD0ABC0D9FFACC0DAFFDECFC6
:10018800AEF0DDCFAFF0020E0001AB27000EAC23BE
:100198003CD0010E0001B36F050E0001B319D8B4AD
:1001A80040D00001B351020D060EF324F66EFE0E88
:1001B800F420F76E0900F5500001AE5D0900F55016
:1001C8000001AF59D8A02DD00001B32BE5D7010EFF
:1001D8000001B36F040E0001B319D8B422D0000196
:1001E800B351020D100EF324F66EFE0EF420F76ED6
:1001F8000900F5500001AE5D0900F5500001AF5946
:10020800D8A00FD00001B32BE5D70001B051C00B27
:10021800000AD8B4BED7800AD8B4D9D7400AD8B40F
:10022800B8D70001B1510001B211D8B40BD0B0C099
:10023800A6F0030E0001A617D8B404D00001B10738
:10024800D8A0B207800E0001B3BF7F0E0001A66FD1
:100258000001B1510001B35D0001B251800A0001F3
:10026800A659D8B00BD00001B3510001B15F000E00
:100278000001B3BFFF0E0001B25B05D0000E000104
:10028800B26F000EB16F0001B0A518D0B0C0A6F0D3
:10029800030E0001A617D8B403D02D0E5CEC14F0A1
:1002A8000001B1510001B211D8B425D0300E5CEC78
:1002B80014F00001B107D8A0B207F2D70001B1517C
:1002C8000001B211D8B40DD0200E5CEC14F000017E
:1002D800B107D8A0B2070001B1510001B211D8A4EA
:1002E800F3D7B0C0A6F0030E0001A617D8B403D008
:1002F8002D0E5CEC14F0B3C0ADF05DD00001AD5133
:10030800020D060EF324F66EFE0EF420F76E0900B9
:10031800F5CF92F00A00F5CF93F0AEC090F0AFC0E1
:1003280091F024EC11F090C097F091C098F0000E75
:1003380000019A6F0A0E996FD0EC11F000019751E5
:10034800300F0001B36F33D0AEC090F0AFC091F062
:100358000001AD51020D100EF324F66EFE0EF420CE
:10036800F76E0900F5CF92F00A00F5CF93F024EC70
:1003780011F0000190510F0B0001AA6F0001AA5162
:10038800010D3B0EF324F66EFF0EF420F76E080005
:10039800F5CFB3F00CD00001B051C00B000AD8B4AF
:1003A800ADD7800AD8B4D0D7400AD8B4A7D70001AF
:1003B800B3515CEC14F00001AD070001AD29D8A4DD
:1003C800EAD79CC0F6FF9DC0F7FF00019C4B9D2B10
:1003D8000800F5CFB3F00001B351D8B412001CD611
:1003E8000600FACF82F0FBCF83F0E9CF84F0EACFA2
:1003F80085F0E1CF86F0E2CF87F0D9CF88F0DACF69
:1004080089F0F3CF8AF0F4CF8BF0F6CF8CF0F7CFEA
:100418008DF0F8CF8EF0F5CF8FF0F0B0D9D004D1B1
:100428008984F28AD58E000ED76E000ED66E9CECAB
:1004380011F0CAC07BF0C9C07AF0010E72EC14F05A
:100448000001DF69E069020EB2D00001DF4BE02B4A
:10045800050E0001DE6F1F0E8118D8A4E3D0FBD76C
:100468007CC080F07DC081F00001801F811F804B1F
:10047800812B7850000180250001DA6F7950000146
:1004880081210001DB6F0001DF69E069060E8FD072
:100498000001DF69E069040E8AD08994F29AD59E3A
:1004A8009CEC11F0CAC077F0C9C076F07BC063F04D
:1004B800646A6FEC09F063C074F064C075F074C0CE
:1004C80001F075C002F0000E046E3C0E036EF8ECED
:1004D80013F001C080F002C081F07AC063F0646A52
:1004E8006FEC09F06350000180257C6E64500001B8
:1004F80081217D6E77C063F0646A6FEC09F063C098
:1005080074F064C075F074C001F075C002F0000E9C
:10051800046E3C0E036EF8EC13F001C080F002C0CC
:1005280081F076C063F0646A6FEC09F063500001F3
:100538008025786E645000018121796E010E72EC7D
:1005480014F00001DF69E069030E31D0E1EC0AF034
:10055800800E72EC14F0890E0D6EFE0E0E6EC1C088
:100568000FF0C2C010F0C3C011F0C4C012F0ADEC5F
:1005780003F0C00E72EC14F0710E0D6EFE0E0E6ECE
:10058800C5C00FF0C6C010F0C7C011F0C8C012F047
:10059800ADEC03F047D08994F29ED59E010E72EC23
:1005A80014F0010E04D00001DF69E069000E0001BB
:1005B800DE6F38D0000E026E010E016E0AEC10F0EC
:1005C80031D0000E026E020E016E0AEC10F02AD035
:1005D80081380F0B0001806F816B00018151000A87
:1005E800D8A420D000018051000AD8B419D7010A34
:1005F800D8B42BD7030AD8B433D7010AD8B448D70C
:10060800070AD8B44AD7010AD8B4A0D7020AD8B47E
:10061800D1D70C0AD8B4D5D7070AD8B4BCD7020AA0
:10062800D8B4C1D7F09077D0F2A45BD08994D59E86
:100638009CEC11F0CAC077F0C9C076F07BC063F0BB
:10064800646A6FEC09F063C074F064C075F074C03C
:1006580001F075C002F0000E046E3C0E036EF8EC5B
:1006680013F001C080F002C081F07AC063F0646AC0
:100678006FEC09F06350000180257C6E6450000126
:1006880081217D6E77C063F0646A6FEC09F063C006
:1006980074F064C075F074C001F075C002F0000E0B
:1006A800046E3C0E036EF8EC13F001C080F002C03B
:1006B80081F076C063F0646A6FEC09F06350000162
:1006C8008025786E645000018121796E010E72ECEC
:1006D80014F0030E0001DE6F0001DF69E069F29497
:1006E8001AD0800E72EC14F0F20E0D6EFF0E0E6E24
:1006F800ADEC03F0000E736E630E736401D0F1D796
:10070800210E0001806F760EE82EFED7802FFCD7D1
:1007180000F0732AF1D78FC0F5FF8EC0F8FF8DC0A7
:10072800F7FF8CC0F6FF8BC0F4FF8AC0F3FF89C0C7
:10073800DAFF88C0D9FF87C0E2FF86C0E1FF85C025
:10074800EAFF84C0E9FF83C0FBFF82C0FAFF7E9204
:1007580011000F0E186E000E196E84D1250E201888
:10076800D8B404D020506CEC14F07CD1000E1F6E6D
:10077800000E1E6E000E1D6E03D01D840D4A0E2A3B
:100788000DC0F6FF0EC0F7FF0800F550300AD8B4C8
:10079800F4D70DC0F6FF0EC0F7FF0800F5502EEC99
:1007A80014F0D8A038D0000E1F6E000E1E6E1EC0AA
:1007B80001F01FC002F0000E046E0A0E036EF8EC82
:1007C80013F001C01EF002C01FF0D00E136EFF0E12
:1007D800146E0DC0F6FF0EC0F7FF0800F550156E39
:1007E800166A135015261450162215501E26165038
:1007F8001F220D4A0E2A0DC0F6FF0EC0F7FF080093
:10080800F5502EEC14F0D8A006D0D1D71D8E1DD0EF
:10081800C00E1D121AD00DC0F6FF0EC0F7FF0D4A0C
:100828000E2A0800F5CF20F02050000AD8B4120094
:10083800640AD8B40AD00D0AD8B407D01C0AD8B4B0
:10084800E7D70D0AD8B4E2D70DD11DC013F0C00EFA
:100858001316D8A415D018C0D9FF19C0DAFFDECFF7
:100868001BF0DDCF1CF0020E1826000E19221CAE5C
:1008780044D0030E1D121B6C1C1ED8B01C2A3DD080
:1008880018C0D9FF19C0DAFFDECF1BF0DDCF1CF08E
:10089800020E1826000E192230D0010E206E050E09
:1008A8002018D8B435D02050020D060EF324F66E69
:1008B800FE0EF420F76E0900F5501B5C0900F55098
:1008C8001C58D8A025D0202AEAD7010E206E040E85
:1008D8002018D8B41DD02050020D100EF324F66E47
:1008E800FE0EF420F76E0900F5501B5C0900F55068
:1008F8001C58D8A00DD0202AEAD71D50C00B000ADA
:10090800D8B4CBD7800AD8B4E0D7400AD8B4C5D772
:100918001E501F10D8B409D01DC013F0030E1316B3
:10092800D8B403D01E06D8A01F06800E20BE7F0EA6
:10093800136E1E50205C1F50800A1358D8B007D081
:1009480020501E5E000E20BEFF0E1F5A04D0000E5F
:100958001F6E000E1E6E1DA414D01DC013F0030ED2
:100968001316D8B403D02D0E6CEC14F01E501F10C3
:10097800D8B41ED0300E6CEC14F01E06D8A01F069A
:10098800F5D71E501F10D8B40AD0200E6CEC14F006
:100998001E06D8A01F061E501F10D8A4F6D71DC0CB
:1009A80013F0030E1316D8B403D02D0E6CEC14F00C
:1009B80020C01AF053D01A50020D060EF324F66E1A
:1009C800FE0EF420F76E0900F5CF03F00A00F5CF0C
:1009D80004F01BC001F01CC002F08FEC12F001C043
:1009E80008F002C009F0000E0B6E0A0E0A6E07EC42
:1009F80013F00850300F206E2ED01BC001F01CC021
:100A080002F01A50020D100EF324F66EFE0EF420BA
:100A1800F76E0900F5CF03F00A00F5CF04F08FEC6C
:100A280012F001500F0B176E1750010D3B0EF324F7
:100A3800F66EFF0EF420F76E0800F5CF20F00BD00D
:100A48001D50C00B000AD8B4B6D7800AD8B4D5D781
:100A5800400AD8B4B0D720506CEC14F01A061A2803
:100A6800D8A4EED70DC0F6FF0EC0F7FF0D4A0E2A28
:100A78000800F5CF20F02050D8B412006FD64950A6
:100A88004A104B10D8A407D0000E496E800E4A6E4B
:100A98003F0E4B6E1200720E016E310E026E440E46
:100AA800036E49C004F04AC005F04BC006F09AEC4A
:100AB80010F0D8B00CD0000E0001D76F220ED66F00
:100AC800FF0E496E7F0E4A6E7F0E4B6E120049C0B4
:100AD80001F04AC002F04BC003F0490E046E3A0E12
:100AE800056EC40E066E9AEC10F0D8B00CD0000E4D
:100AF8000001D76F220ED66F000E496E000E4A6EA7
:100B0800000E4B6E12004BAE02D0010E01D0000E4B
:100B1800516E5150D8B40ED049C001F04AC002F00D
:100B28004BC003F00BEC14F001C049F002C04AF0CE
:100B380003C04BF049C00DF04AC00EF04BC00FF097
:100B4800AA0E106EB80E116E3F0E126E67EC0AF008
:100B58000DC049F00EC04AF00FC04BF049C041F03B
:100B68004AC042F04BC043F0CBEC0BF041C04CF014
:100B780042C04DF043C04EF04CC028F04DC029F0A3
:100B88004EC02AF0EDEC09F028C04FF029C050F013
:100B980049C028F04AC029F04BC02AF04FC009F0DC
:100BA80050C00AF067EC13F009C02BF00AC02CF013
:100BB8000BC02DF028EC13F028C049F029C04AF0EA
:100BC8002AC04BF049C028F04AC029F04BC02AF08F
:100BD8001F0E2B6EFE0E2C6E000E2E6E090E2D6E45
:100BE8007FEC0DF028C034F029C035F02AC036F06B
:100BF8004FC037F050C038F04CEC0EF034C049F01C
:100C080035C04AF036C04BF05150D8B425D04928E9
:100C18000EE17F0E4A180BE17F0E4B18D8A407D0BF
:100C2800000E496E000E4A6E000E4B6E1200000E4A
:100C3800096E800E0A6E3F0E0B6E49C00CF04AC05A
:100C48000DF04BC00EF058EC0BF009C049F00AC08B
:100C58004AF00BC04BF0120049C049F04AC04AF0B4
:100C68004BC04BF012001EC022F0236A246A1D34C8
:100C7800223601E323802250276E21C022F0236A06
:100C8800246A2034223601E323802250266E27501E
:100C9800D8B40BD02650275CD8B00ED02750000807
:100CA8002624226E180E226407D01FC01CF020C014
:100CB8001DF021C01EF012002650D8B40BD02750CA
:100CC800265CD8B00ED0265000082724226E180EB5
:100CD800226407D01CC01CF01DC01DF01EC01EF0F1
:100CE8001200060E256E1EBE258E21BE258C1D8E79
:100CF800FF0E1C16FF0E1D16000E1E16208EFF0E70
:100D08001F16FF0E2016000E21162650275CD8B09D
:100D18001BD0D8901F362036213626062750261895
:100D2800D8B40DD0250625C022F0070E2216D8B457
:100D380006D0EFD7D8901E321D321C32272A2650F3
:100D48002718D8B41FD0F6D72750265CD8B01AD0A9
:100D5800D8901C361D361E36270627502618D8B4BC
:100D68000DD0250625C022F0070E2216D8B406D0CD
:100D7800EFD7D890213220321F32262A2650271842
:100D8800D8A4F7D725AE0CD0FF0E1C1AFF0E1D1ADB
:100D9800FF0E1E1A010E1C26000E1D22000E1E221A
:100DA80025AC0CD0FF0E1F1AFF0E201AFF0E211AB9
:100DB800010E1F26000E2022000E2122000E256E95
:100DC8001C501F261D5020221E50212221AE0ED05D
:100DD800FF0E1F1AFF0E201AFF0E211A010E1F26E2
:100DE800000E2022000E2122010E256E1FC001F0E8
:100DF80020C002F021C003F027C004F025C005F090
:100E08000DEC0FF001C01CF002C01DF003C01EF075
:100E18001200000E5E6E525053105410D8A41CD00D
:100E2800000E016E000E026E000E036E55C004F037
:100E380056C005F057C006F09AEC10F0D8A005D0BF
:100E4800000E0001D76F210ED66F000E526E000EF5
:100E5800536E000E546E1200555056105710D8A4F9
:100E680007D0000E526E800E536E3F0E546E120065
:100E780054AE41D055C028F056C029F057C02AF0CA
:100E8800EDEC09F028C05FF029C060F02AC061F0DD
:100E98002BC062F05FC009F060C00AF061C00BF0BF
:100EA80062C00CF061EC12F05550091807E1565079
:100EB8000A1804E157500B18D8B40CD0000E0001E2
:100EC800D76F210ED66F000E526E000E536E000EB5
:100ED800546E12005F50010B5E6E52C001F053C099
:100EE80002F054C003F00BEC14F001C052F002C041
:100EF80053F003C054F052C034F053C035F054C01E
:100F080036F05EEC08F034C058F035C059F036C001
:100F18005AF058C00DF059C00EF05AC00FF055C025
:100F280010F056C011F057C012F067EC0AF00DC06F
:100F38005BF00EC05CF00FC05DF05BC049F05CC0B8
:100F48004AF05DC04BF043EC05F049C052F04AC08E
:100F580053F04BC054F05E50D8B40FD052C001F0DB
:100F680053C002F054C003F00BEC14F001C052F06F
:100F780002C053F003C054F0120052C052F053C0E4
:100F880053F054C054F0120086EC14F0000E000127
:100F9800926F520E916F78EC14F0000E0001926F70
:100FA800B40E916F78EC14F086EC14F0000E00018A
:100FB800926F530E916F78EC14F0000E0001A06F41
:100FC800000E9F6F0001A0BF08D00001A05121E1D1
:100FD800030E00019F5DD8B01CD0970E00019F251D
:100FE800D96E000E0001A021DA6E010EB9EC13F0E3
:100FF800DF6E9B0E00019F25D96E000E0001A02117
:10100800DA6E010EB9EC13F0DF6E00019F4BA02BD6
:10101800D9D7010EB9EC13F000019A6F000EB9ECA4
:1010280013F000019E6F82EC14F0000E0001A06F17
:10103800000E9F6F0001A0BF08D00001A05139E148
:10104800040E00019F5DD8B012009B0E00019F2581
:10105800D96E000E0001A021DA6EDF500001936FF7
:10106800000193510001956F946B970E00019F2525
:10107800D96E000E0001A021DA6EDF500001966FD4
:101088000001965100019413000E9513D8900001A9
:101098009F35D96E0001A035DA6EC10ED926000E33
:1010A800DA2294C0DEFF95C0DDFF00019F4BA02B24
:1010B800C1D7120036AE0CD0000E0001D76F210E3A
:1010C800D66F000E346E000E356E000E366E1200AE
:1010D800345035103610D8A40CD0000E0001D76F4C
:1010E800220ED66F000E346E000E356E000E366E70
:1010F8001200000E106E000E116E400E126E370EAA
:10110800046E000E056E34C001F035C002F036C022
:1011180003F052EC10F001C00DF002C00EF003C055
:101128000FF067EC0AF00DC01CF00EC01DF00FC0E8
:101138001EF0000E1F6E800E206EBF0E216E37EC63
:1011480006F01CC034F01DC035F01EC036F037065E
:10115800D8A0380634C028F035C029F036C02AF0A7
:101168003D0E2B6EFE0E2C6E000E2E6E080E2D6E92
:101178007FEC0DF028C034F029C035F02AC036F0D5
:10118800720E106E310E116E3F0E126E37C009F0DE
:1011980038C00AF067EC13F009C00DF00AC00EF071
:1011A8000BC00FF067EC0AF00DC01CF00EC01DF06C
:1011B8000FC01EF034C01FF035C020F036C021F03B
:1011C80037EC06F01CC034F01DC035F01EC036F0F8
:1011D800120065D0800E64EC14F05D0E00019C6F67
:1011E800FF0E00019D6F09EC00F0C00E64EC14F0D6
:1011F8004C0E00019C6FFF0E00019D6FBFC09EF05A
:10120800C0C09FF009EC00F01200800E64EC14F0EE
:101218006E0E00019C6FFF0E00019D6FB7C09EF01F
:10122800B8C09FF009EC00F0C00E64EC14F07F0E1B
:1012380000019C6FFF0E00019D6FB9C09EF0BAC0FF
:101248009FF009EC00F01200800E64EC14F0900E90
:1012580000019C6FFF0E00019D6FBBC09EF0BCC0DB
:101268009FF009EC00F0C00E64EC14F0A10E000130
:101278009C6FFF0E00019D6FBDC09EF0BEC09FF029
:1012880009EC00F01200800E64EC14F0D30E00019B
:101298009C6FFF0E00019D6F09EC00F0F4D7DFC0D2
:1012A80090F0E0C091F0000E0001936F030E926F72
:1012B800B9EC0FF000019151000AD8A4E4D700015D
:1012C8009051000AD8B486D7010AD8B49ED7030A29
:1012D800D8B4BAD7D8D7000E6E6E000E6D6E63C044
:1012E80071F064C072F0000E706E000E6F6E68D000
:1012F8000F0E71146B6E6C6A6DC009F06EC00AF047
:1013080067EC13F009C065F00AC066F00BC067F01F
:1013180065C055F066C056F067C057F0000E526EB3
:10132800200E536E410E546E0DEC07F052C068F05B
:1013380053C069F054C06AF068C010F069C011F079
:101348006AC012F06BC009F06CC00AF067EC13F0C9
:1013580009C00DF00AC00EF00BC00FF067EC0AF0E0
:101368000DC01FF00EC020F00FC021F06FC009F0B3
:1013780070C00AF067EC13F009C01CF00AC01DF039
:101388000BC01EF037EC06F01CC028F01DC029F079
:101398001EC02AF0EDEC09F028C06FF029C070F0EB
:1013A80071C001F072C002F0000E046E100E036EE0
:1013B800E2EC10F001C071F002C072F06D4A6E2AC2
:1013C80071507210D8A494D76FC063F070C064F0E5
:1013D80012002AC02CF02D6A2E6A29342C3601E31B
:1013E8002D802C50366E3650D8A409D0000E286EA9
:1013F800000E296E000E2A6E000E2B6E1200170EBC
:101408002C6E28C02DF029C02EF02AC02FF02C28D1
:10141800306E04D0D8902F322E322D32302EFAD79B
:101428002D50316E298EFF0E2816FF0E2916000E3C
:101438002A162850326E2950336E2A50346E356A77
:101448008E0E365E36AE16D03650800A8F0FD8B064
:1014580009D0000E286E000E296E000E2A6E000EAE
:101468002B6E1200D8903532343233323232363E57
:10147800F9D715D0170E36640FD0000E286E000E5F
:10148800296E000E2A6E000E2B6E1200D89032368E
:1014980033363436353636063650D8A4F7D7315079
:1014A800D8B408D0351E341E331E326C000E3322D9
:1014B8003422352232C028F033C029F034C02AF053
:1014C80035C02BF012000FC013F0146A156A0E34E1
:1014D800133601E314801350166E1650D8A407D0A3
:1014E800000E0D6E000E0E6E000E0F6E120012C072
:1014F80013F0146A156A1134133601E3148013507B
:101508001B6E1B50D8A407D0000E0D6E000E0E6E79
:10151800000E0F6E12001B507B0F16260FC01BF01B
:1015280012501B1A800E1B160E8E118EFF0E1016EF
:10153800FF0E1116000E1216000E176E000E186E12
:10154800000E196E070E1A6E0DA006D01050172641
:101558001150182212501922D8900F320E320D3223
:10156800D8901036113612361A2EEED7090E1A6E8A
:101578000DA006D01050172611501822125019220B
:10158800D8900F320E320D32D890193218321732E5
:101598001A2EEED717C001F018C002F019C003F0D8
:1015A80016C004F01BC005F00DEC0FF001C00DF0E3
:1015B80002C00EF003C00FF012008EEC14F0000E03
:1015C800036E520E026E7DEC14F0000E036EB40E24
:1015D800026E7DEC14F08EEC14F0000E036E530EC8
:1015E800026E7DEC14F0000E116E000E106E11BE2E
:1015F80006D011501BE1030E105CD8B017D0080EAE
:101608001024D96E000E1120DA6E010EE5EC13F0ED
:10161800DF6E0C0E1024D96E000E1120DA6E010E4A
:10162800E5EC13F0DF6E104A112AE1D7010EE5EC64
:1016380013F00B6E000EE5EC13F00F6E8AEC14F04D
:10164800000E116E000E106E11BE06D011502BE167
:10165800040E105CD8B012000C0E1024D96E000EC7
:101668001120DA6EDF50046E0450066E056A080E0B
:101678001024D96E000E1120DA6EDF50076E075065
:101688000512000E0612D8901034D96E1134DA6E95
:10169800C10ED926000EDA2205C0DEFF06C0DDFF26
:1016A800104A112AD1D712000BC00FF0106A116A24
:1016B8000A340F3601E310800F50166E1650D8A466
:1016C80007D0000E096E000E0A6E000E0B6E120097
:1016D8000EC00FF0106A116A0D340F3601E3108046
:1016E8000F50176E1750D8A407D0000E096E000EC1
:1016F8000A6E000E0B6E1200000E136E000E146EB2
:10170800000E156E1750890F165E0BC017F00E509D
:10171800171A800E17160A8EFF0E0916FF0E0A16E4
:10172800000E0B160D8EFF0E0C16FF0E0D16000E7A
:101738000E16180E126ED8901336143615360C5035
:10174800095C0D500A580E500B58D8A007D00C5001
:10175800095E0D500A5A0E500B5A1380D89009365C
:101768000A360B36122EE7D713C001F014C002F068
:1017780015C003F016C004F017C005F00DEC0FF00B
:1017880001C009F002C00AF003C00BF0120041C00A
:1017980001F042C002F043C003F0470E046E000E91
:1017A800056E52EC10F048AE10D043AE07D0000ED4
:1017B800416E800E426EBF0E436E1200000E416EE7
:1017C800000E426E000E436E1200485004E1150EE2
:1017D800475CD8A007D041C041F042C042F043C0A6
:1017E80043F0120041C028F042C029F043C02AF05B
:1017F800EDEC09F028C037F029C038F02AC039F0DC
:101808002BC03AF060EC11F037C044F038C045F016
:1018180039C046F041C001F042C002F043C003F0B5
:1018280044C004F045C005F046C006F09AEC10F03C
:10183800D8B015D044C01CF045C01DF046C01EF0FD
:10184800000E1F6E800E206EBF0E216E37EC06F064
:101858001CC041F01DC042F01EC043F0120044C03D
:1018680041F045C042F046C043F01200FB0E926EB4
:101878009368000E946E000E956E000E966E000E24
:10188800896E000E8A6E000E8B6E000E8C6E000E36
:101898008D6E000EC26EC168F28EF086F298F098D6
:1018A800F19EB8EC12F0100E00019D6F270E9E6F8E
:1018B800000E9F6F000EA06F31EC12F0A8EC0CF038
:1018C800000ED76E000ED66ED59CD59AD596D584C7
:1018D800D582D580000E0001DE6F15D0E8EC0DF042
:1018E80029D01DEC14F026D064EC0FF023D03DEC89
:1018F80014F020D016EC0DF01DD0EDEC08F01AD045
:1019080083EC13F017D00001DE51000AD8B4E6D7F3
:10191800010AD8B4E6D7030AD8B4E6D7010AD8B47E
:10192800E6D7070AD8B4E6D7010AD8B4E6D7030A37
:10193800D8B4E6D7210E0001B66F760EE82EFED792
:10194800B62FFCD700F0DFD786EC14F0000E0001AC
:10195800926F520E916F78EC14F0000E0001926FA6
:10196800800E916F78EC14F0000E0001926F010E5A
:10197800916F78EC14F082EC14F00A0E0001936F6A
:10198800BC0EE82EFED7932FFCD700F086EC14F09F
:10199800000E0001926F520E916F78EC14F0000E59
:1019A8000001926F800E916F78EC14F0000E000128
:1019B800926F030E916F78EC14F082EC14F086ECC1
:1019C80014F0000E0001926F520E916F78EC14F033
:1019D800000E0001926F8F0E916F78EC14F0000EDC
:1019E8000001926F020E916F78EC14F082EC14F003
:1019F80086EC14F0000E0001926F520E916F78EC95
:101A080014F0000E0001926F810E916F78EC14F0C3
:101A1800000E0001926FFE0E916F78EC14F082ECCC
:101A280014F0120086EC14F0000E0001926FD00E34
:101A3800916F78EC14F0000E0001926F000E916F18
:101A480078EC14F082EC14F086EC14F0000E00012F
:101A5800926FD10E916F78EC14F0000E0001B46F04
:101A6800050E0001B46501D010D00001B451010D7C
:101A7800C90EF324D96E000EF420DA6E010EB9EC0B
:101A880013F0DF6E0001B42BEBD7000EB9EC13F0A6
:101A98000001CF6F82EC14F0800E64EC14F0E70EB6
:101AA80000019C6FFE0E00019D6FCEC09EF00001EC
:101AB8009F6BCDC0A0F00001A16BCFC0A2F00001C8
:101AC800A36B09EC00F0C00E64EC14F0FE0E0001EC
:101AD8009C6FFE0E00019D6FCBC09EF000019F6BB6
:101AE800CAC0A0F00001A16BC9C0A2F00001A36B9D
:101AF80009EC00F012002DC001F02EC002F0000E1B
:101B0800046E030E036EF8EC13F02BC02FF02CC0FC
:101B180030F001502F26025030222FC0F6FF30C07F
:101B2800F7FF0900F5CF31F00900F5CF32F00A00D0
:101B3800F5CF33F03ED031C010F032C011F033C0D1
:101B480012F028C00DF029C00EF02AC00FF067EC83
:101B58000AF00DC01CF00EC01DF00FC01EF0000EE4
:101B6800046E030E036E2D06D8A02E062DC001F0BC
:101B78002EC002F0F8EC13F02BC02FF02CC030F080
:101B880001502F26025030222FC0F6FF30C0F7FF39
:101B98000900F5CF1FF00900F5CF20F00A00F5CFB6
:101BA80021F037EC06F01CC031F01DC032F01EC029
:101BB80033F02D502E10D8A4BED731C028F032C033
:101BC80029F033C02AF01200C8EC07F00001C2BFA8
:101BD80027D00001C25105E1330E0001C15DD8A034
:101BE8001FD00001C2BF08D00001C25119E1370E51
:101BF8000001C15DD8B014D00001DC4BDD2B000E14
:101C08000001DD6F020EDC6FC3C0D0F0C4C0D1F09C
:101C1800C5C0D2F0C6C0D3F0C7C0D4F0C8C0D5F094
:101C2800000E0001DD6F000EDC6F800E64EC14F016
:101C3800B20E00019C6FFF0E00019D6FD0C09EF098
:101C4800D1C09FF0D2C0A0F0D3C0A1F0D4C0A2F000
:101C5800D5C0A3F009EC00F0C00E64EC14F0150E2A
:101C680000019C6FFF0E00019D6FC1C09EF0C2C0B5
:101C78009FF0C3C0A0F0C4C0A1F0C5C0A2F0C6C008
:101C8800A3F0C7C0A4F0C8C0A5F009EC00F012008A
:101C9800345035103610D8A407D0000E346E000E1C
:101CA800356E000E366E120036507F0B396E3A6A6A
:101CB800D89039363A36395037263A50382235AE28
:101CC80003D0396A392A01D0396A39503726000ECB
:101CD800382238AE0CD0000E0001D76F220ED66F16
:101CE800000E346E000E356E000E366E120038BED1
:101CF80016D03804D8A013D0000E0001D76F220EDA
:101D0800D66F36AE06D0FF0E346E7F0E356EFF0EE0
:101D1800ECD7FF0E346E7F0E356E7F0EE6D7383463
:101D280038303A6E3730396E36503918800B3918DA
:101D3800366E37C039F0010E39163932393235501E
:101D480039187F0B3918356E34C034F035C035F08A
:101D580036C036F01200000E0001986F000E996F21
:101D6800000E9A6F000E9B6F0001945100019511AF
:101D78000001961100019711D8B442D0010E00015C
:101D88009C6F08D00001D8909437953796379737CD
:101D980000019C2B000197AFF5D70001D890983728
:101DA80099379A379B37000194510001905D0001E3
:101DB8009551000191590001965100019259000175
:101DC800975100019359D8A012D0000194510001F5
:101DD800905F000195510001915B0001965100014F
:101DE800925B000197510001935B0001988100010B
:101DF800D890973396339533943300019C2FCDD7E1
:101E080098C090F099C091F09AC092F09BC093F05E
:101E180012000450D8B405D0015002100310D8A401
:101E28000CD0000E016E000E026E000E036E120042
:101E3800042AD890033202320132000E0114066ED1
:101E4800000E0214076EFE0E0314086E06500710EB
:101E58000810D8B40CD0ECD7042A010E0126000EC5
:101E68000222000E0322D890033202320132000E01
:101E78000114066E000E0214076EFF0E0314086E9E
:101E8800065007100810D8B406D0E6D70406D89034
:101E980001360236033602BE03D0020E0460F6D7BE
:101EA80004A0029ED8900432045003120550D8A40E
:101EB800038E01C001F002C002F003C003F012005B
:101EC80031D0800E64EC14F0B90E00019C6FFE0E48
:101ED80000019D6F09EC00F0000E0001D96F010EA2
:101EE8001FD0800E64EC14F0A10E00019C6FFE0E52
:101EF80000019D6F09EC00F0000E0001D96F020E81
:101F08000FD0800E64EC14F0580E00019C6FFE0E8A
:101F180000019D6F09EC00F0000E0001D96F000E62
:101F2800D86F14D0D8C0B4F0D9C0B5F00001B551FD
:101F3800000AD8A40BD00001B451000AD8B4C1D704
:101F4800010AD8B4CED7030AD8B4DBD7020E0001F1
:101F5800B56F450E0001B46FA90EE82EFED7B42F59
:101F6800FCD7B52FFAD700D01200000E0001956FEC
:101F7800000191AF08D00001906D911FD8B0912B4E
:101F8800010E0001956F000193AF05D00001926D1D
:101F9800931FD8B0932B0001925100019311D8B42C
:101FA80026D0010E0001946F06D00001D890923718
:101FB80093370001942B000193AFF7D7000192519A
:101FC8000001905D0001935100019159D8A008D0FB
:101FD800000192510001905F000193510001915B53
:101FE8000001D890933392330001942FE7D7000172
:101FF80095510001D8B405D00001906D911FD8B05B
:10200800912B90C090F091C091F0120001C005F0A2
:1020180002C006F0000E086E000E076E08503DE183
:10202800320E075CD8B012008B80000E0A6E000ECC
:10203800096E09D0040E036E3E0EE82EFED7032E5D
:10204800FCD7094A0A2A0550095C06500A58D8A044
:10205800F1D78B90000E0A6E000E096E09D0040E9F
:10206800036E3E0EE82EFED7032EFCD7094A0A2A35
:1020780005C003F006C004F0031E041E034A042A28
:10208800140E0326000E04220350095C04500A585B
:10209800D8A0E5D7074A082AC1D712000150021074
:1020A8000310D8A40FD004C0D9FF05C0DAFF000E72
:1020B800DE6E000EDD6E000E016E000E026E000E6A
:1020C800036E120003507F0B066E076AD89006361F
:1020D800073604C0D9FF05C0DAFF06C0DEFF07C017
:1020E800DDFF02AE03D0066A062A01D0066A065052
:1020F80004C0D9FF05C0DAFFDE12000EDD1204C0ED
:10210800D9FF05C0DAFF820EDE26FF0EDD2203802E
:102118000382038403860388038A039C029E01C00A
:1021280001F002C002F003C003F0120003AE16D0A3
:1021380001C007F002C008F003C009F0071E081E1E
:10214800091E072A000E08220922000E0724016E24
:10215800000E0820026E800E0920036E06AE16D00F
:1021680004C007F005C008F006C009F0071E081EE5
:10217800091E072A000E08220922000E0724046EF1
:10218800000E0820056E800E0920066E000E011A4A
:10219800000E021A800E031A000E041A000E051A09
:1021A800800E061A0450015C055002580650035868
:1021B800D8B002D0D8901200D8801200000E066E57
:1021C80004AE06D0036C041ED8B0042A010E066EB5
:1021D80002AE06D0016C021ED8B0022A010E061A01
:1021E800000E086E000E076E03500410D8B41CD001
:1021F800010E056E04D0D89003360436052A04AEC5
:10220800FAD7D890073608360350015C04500258B4
:10221800D8A005D00350015E0450025A0780D89018
:1022280004320332052EEDD70650D8B404D0076C1B
:10223800081ED8B0082A07C001F008C002F0120032
:10224800000E0001956F000E946F0001925100017D
:102258009311D8B42CD0010E0001966F06D000015E
:10226800D890923793370001962B000193AFF7D798
:102278000001D89094379537000192510001905D84
:102288000001935100019159D8A00AD00001925140
:102298000001905F000193510001915B000194815E
:1022A8000001D890933392330001962FE1D794C060
:1022B80090F095C091F01200000E406E8E0E3F6EA9
:1022C8003AAE11D03A1E391E381E376C000E38222D
:1022D80039223A22010E406E06D0D8903A3239326D
:1022E800383237323F2A000E37143B6E000E38144E
:1022F8003C6E000E39143D6EFF0E3A143E6E3B5094
:102308003C103D103E10D8A4E8D737C001F038C0C3
:1023180002F039C003F03FC004F040C005F00DECF6
:102328000FF001C037F002C038F003C039F01200D6
:102338008EEC14F0000E036ED00E026E7DEC14F0DD
:10234800000E036E000E026E7DEC14F08AEC14F0A1
:102358008EEC14F0000E036ED10E026E7DEC14F0BC
:10236800000E046E050E046401D00ED00450010D59
:10237800C90EF324D96E000EF420DA6E010EE5ECD6
:1023880013F0DF6E042AEED7000EE5EC13F000011F
:10239800CF6F8AEC14F012000001995100019A11D4
:1023A800D8B426D0010E00019B6F06D00001D8904A
:1023B80099379A3700019B2B00019AAFF7D7000194
:1023C80099510001975D00019A5100019859D8A0D0
:1023D80008D0000199510001975F00019A5100014E
:1023E800985B0001D8909A33993300019B2FE7D767
:1023F80097C097F098C098F012000001916F000103
:102408009151F00B0001906F8C500F0B8C6E0001F6
:1024180090518C108C6E8C96190EE82EFED78C86F7
:10242800190EE82EFED700019139F00B0001916FCB
:1024380000019151F00B0001906F8C500F0B8C6EC6
:10244800000190518C108C6E8C96190EE82EFED7D8
:102458008C86190EE82EFED71200000EC76E280EC5
:10246800C66E000EC56E800E0001906F960E916FBD
:10247800980E926F000E936F9DC0A1F09EC0A2F0BF
:102488009FC0A3F0A0C0A4F0020ED8900001A1370D
:10249800A237A337A437E82EF8D7A1C094F0A2C07A
:1024A80095F0A3C096F0A4C097F0AFEC0EF0000131
:1024B8009005C86E9486948812008E0E116E06D010
:1024C800D8900C320B320A320932112A000E091444
:1024D8000D6E000E0A140E6E000E0B140F6EFF0E1A
:1024E8000C14106E0D500E100F101010D8A4E8D751
:1024F80009C001F00AC002F00BC003F011C004F0DB
:10250800000E056E0DEC0FF001C009F002C00AF0D4
:1025180003C00BF01200000E066E000E056E03508D
:102528000410D8B41CD0010E076E04D0D89003361E
:102538000436072A04AEFAD7D89005360636035073
:10254800015C04500258D8A005D00350015E045025
:10255800025A0580D89004320332072EEDD705C001
:1025680001F006C002F01200310E0001936FB20EA6
:10257800E82EFED7932FFCD700F0330E64EC14F04E
:10258800330E64EC14F0320E64EC14F0280E64EC94
:1025980014F00F0E64EC14F0060E64EC14F0010E47
:1025A80064EC14F0310E0001936FB20EE82EFED7E2
:1025B800932FFCD700F01200026E0250F00B016E50
:1025C8008C500F0B8C6E01508C108C6E8C96190EE3
:1025D800E82EFED78C86190EE82EFED70238F00BAF
:1025E800026E0250F00B016E8C500F0B8C6E015076
:1025F8008C108C6E8C96190EE82EFED78C86190ED0
:10260800E82EFED712000A500B10D8B418D0010ECD
:102618000C6E04D0D8900A360B360C2A0BAEFAD7BB
:102628000A50085C0B500958D8A004D00A50085E1C
:102638000B50095AD8900B320A320C2EF1D708C029
:1026480008F009C009F012002B502C102D10D8B436
:1026580006D0000E2B1A000E2C1A800E2D1A28C038
:102668001CF029C01DF02AC01EF02BC01FF02CC082
:1026780020F02DC021F037EC06F01CC028F01DC05A
:1026880029F01EC02AF01200240EF66E290EF76EED
:10269800000EF86E0900F5CFDFF00900F5CFE0F085
:1026A80000EEB7F0280EEE6AE806FDE100EE76F0DF
:1026B800080EEE6AE806FDE17E907E92000EF86E46
:1026C80000013AEF0CF0000E0C6E0AAE06D0096C51
:1026D8000A1ED8B00A2A010E0C6E09C001F00AC001
:1026E80002F0036A8E0E046E0CC005F00DEC0FF0BC
:1026F80001C009F002C00AF003C00BF01200800EFE
:1027080064EC14F0D00E00019C6FFE0E00019D6F6A
:1027180009EC00F0C00E64EC14F0290E00019C6F67
:10272800FF0E00019D6FDAC09EF0DBC09FF009EC40
:1027380000F012000001905100019203F3CF94F0D1
:10274800F4CF95F00001905100019303F35000017C
:1027580095270001915100019203F350000195273C
:1027680094C090F095C091F012000001916F49EC6F
:1027780014F0C58649EC14F0C9CF92F049EC14F076
:10278800000191510001D8A402D0C58A01D0C59A90
:10279800C5880001925112000001926F000E0001DD
:1027A800916F3A0E0001926107D02F0E00019265D9
:1027B80003D0010E0001916F91C090F0000190319B
:1027C8001200026E53EC14F0C58653EC14F0C9CF16
:1027D80003F053EC14F00250D8A402D0C58A01D0FB
:1027E800C59AC5880350120001500302F3CF05F0C3
:1027F800F4CF06F001500402F350062602500302FB
:10280800F350062605C001F006C002F01200015080
:1028180002100310D8B406D0000E011A000E021AD6
:10282800800E031A01C001F002C002F003C003F0D9
:102838001200F29E8094010E64EC14F0800E64EC99
:1028480014F0E30E00019C6FFF0E00019D6F09EC70
:1028580000F0FFD7036E000E026E3A0E036005D03B
:102868002F0E036402D0010E026E02C001F0013087
:102878001200800E64EC14F0C30E00019C6FFF0E72
:1028880000019D6F09EC00F01200C7B4FED7C5CF58
:1028980090F01F0E00019017D8B41200F6D7C7B4F5
:1028A800FED7C5CF01F01F0E0116D8B41200F7D716
:1028B8000001926F8C840001925101EC12F0120019
:1028C8000001926F8C940001925101EC12F01200F9
:1028D800036E8C840350E0EC12F01200036E8C94AB
:1028E8000350E0EC12F0120049EC14F091C0C9FF5B
:1028F800120053EC14F002C0C9FF120049EC14F0A6
:10290800C584120049EC14F0C580120053EC14F091
:0E291800C584120053EC14F0C5801200FFFFBE
:10FDF400003132334134353642373839432A3023DF
:10FE0400440001000A006400E80310270100100008
:10FE1400000100105035210805021700803F72319F
:10FE24003FFE753E58633D951D3CC5AE3A79213978
:10FE340094803793A73556153400000000803FF0B6
:10FE4400FFBEE2A93E8376BEAE2B3E3CC3BDD213B9
:10FE54003D78D3BB52756E6E696E677E7E7E2020C0
:10FE6400202020202020202020202020004725752D
:10FE74002042257520202020202020202020202002
:10FE84002020202000432575205225752020202085
:10FE94002020202020202020202020200052756EA9
:10FEA4006E696E677E7E2020202020202020202066
:10FEB400202020200052756E6E696E677E202020FF
:10FEC400202020202020202020202000546F746136
:10FED4006C204F7065726174696F6E202020202041
:10FEE400202000446174653A20253032782F253073
:10FEF40032782F2530327820200054696D653A20FD
:10FF0400253032783A253032783A2530327820203C
:10FF140000253033642025303364202530336420B9
:10FF2400253033640054696D653A202564207320BC
:10FF34002020202020200030313233343536373829
:10FF44003961626364656600546F74616C3A20259C
:10FF5400642020202020202000426F74746C6520CF
:10FF6400436F756E742020202000594F5020572F66
:10FF7400204341503A202564202000594F50204E00
:10FF84004F204341503A20256420200045534B41E3
:10FF940020572F204341503A202564200045534BDD
:10FFA40041204E4F204341503A2025642000253003
:10FFB40033642C20253033642C2025303364004FE7
:10FFC4007065726174696F6E20446F6E65210045BF
:10FFD40052523A204241442042544C434E5400452C
:10FFE4004D455247454E43592053544F50004552B6
:0CFFF400523A2042414420495352000080
:020000040020DA
:08000000FFFFFFFFFFFFFFFF00
:020000040030CA
:0E000000FF021F1EFF8381FF0FC00FE00F40A5
:00000001FF
