:0400000007EF00F016
:100008007E8269ED03F087EF10F09E0E0001A96F64
:10001800000E0001AA6FC4D1250E0001B119D8B491
:1000280005D00001B151D1EC11F0BAD1000E000198
:10003800B06F000EAF6F000E0001AE6F05D000016B
:10004800AE8500019C4B9D2B9CC0F6FF9DC0F7FF21
:100058000800F550300AD8B4F2D79CC0F6FF9DC00E
:10006800F7FF0800F55049EC11F0D8A044D0000E75
:100078000001B06F000EAF6FAFC090F0B0C091F04C
:10008800000E0001936F0A0E926F17EC11F090C0EA
:10009800AFF091C0B0F0D00E0001A46FFF0E0001C8
:1000A800A56F9CC0F6FF9DC0F7FF0800F550000142
:1000B800A66FA76B0001A4510001A6270001A55156
:1000C8000001A7230001A6510001AF270001A75195
:1000D8000001B02300019C4B9D2B9CC0F6FF9DC0E6
:1000E800F7FF0800F55049EC11F0D8A004D0C4D7A8
:1000F8000001AE8F19D09CC0F6FF9DC0F7FF00012C
:100108009C4B9D2B0800F5CFB1F00001B151000ABE
:10011800D8B41200640AD8B407D00D0AD8B404D0F1
:10012800110AD8B4E5D73CD10001AEBF19D0A9C097
:10013800D9FFAAC0DAFFDECFACF0DDCFADF0020EFA
:100148000001A927000EAA230001ADAF53D0030E6A
:100158000001AE130001AC6DAD1FD8B0AD2B4AD075
:10016800A9C0D9FFAAC0DAFFDECFACF0DDCFADF071
:10017800020E0001A927000EAA233CD0010E00019F
:10018800B16F050E0001B119D8B43DD00001B151CD
:10019800020D000EF324F66EFE0EF420F76E090031
:1001A800F5500001AC5D0900F5500001AD59D8A02B
:1001B8002AD00001B12BE5D7010E0001B16F040E62
:1001C8000001B119D8B41FD00001B151020D0A0EB7
:1001D800F324F66EFE0EF420F76E0900F5500001C8
:1001E800AC5D0900F5500001AD59D8A00CD0000154
:1001F800B12BE5D70001AE51800B000AD8B4BED7A9
:10020800800AD8B4D9D70001AF510001B011D8B4D1
:100218000BD0AEC0A4F0030E0001A417D8B404D0CC
:100228000001AF07D8A0B007800E0001B1BF7F0E54
:100238000001A46F0001AF510001B15D0001B05190
:10024800800A0001A459D8B00BD00001B1510001B7
:10025800AF5F000E0001B1BFFF0E0001B05B05D01B
:10026800000E0001B06F000EAF6F0001AEA518D0F0
:10027800AEC0A4F0030E0001A417D8B403D02D0E0D
:10028800D1EC11F00001AF510001B011D8B425D064
:10029800300ED1EC11F00001AF07D8A0B007F2D7AB
:1002A8000001AF510001B011D8B40DD0200ED1EC2F
:1002B80011F00001AF07D8A0B0070001AF5100014D
:1002C800B011D8A4F3D7AEC0A4F0030E0001A41750
:1002D800D8B403D02D0ED1EC11F0B1C0ABF05AD088
:1002E8000001AB51020D000EF324F66EFE0EF42051
:1002F800F76E0900F5CF92F00A00F5CF93F0ACC085
:1003080090F0ADC091F063EC0EF090C097F091C002
:1003180098F0000E00019A6F0A0E996F0FEC0FF01B
:1003280000019751300F0001B16F30D0ACC090F090
:10033800ADC091F00001AB51020D0A0EF324F66E28
:10034800FE0EF420F76E0900F5CF92F00A00F5CF03
:1003580093F063EC0EF0000190510F0B0001A86FB1
:100368000001A851010DF10EF324F66EFE0EF420E3
:10037800F76E0800F5CFB1F009D00001AE51800B3F
:10038800000AD8B4ADD7800AD8B4D0D70001B1518B
:10039800D1EC11F00001AB070001AB29D8A4EDD7CF
:1003A8009CC0F6FF9DC0F7FF00019C4B9D2B0800E9
:1003B800F5CFB1F00001B151D8B412002DD60F0E0F
:1003C800146E000E156E74D1250E1C18D8B404D006
:1003D8001C50E1EC11F06CD1000E1B6E000E1A6E71
:1003E800000E196E03D019840D4A0E2A0DC0F6FFAF
:1003F8000EC0F7FF0800F550300AD8B4F4D70DC086
:10040800F6FF0EC0F7FF0800F55096EC11F0D8A0E3
:1004180035D0000E1B6E000E1A6E1AC001F01BC0FC
:1004280002F0000E046E0A0E036E71EC11F001C0AA
:100438001AF002C01BF0D00E0F6EFF0E106E0DC02A
:10044800F6FF0EC0F7FF0800F550116E126A0F5044
:1004580011261050122211501A2612501B220D4A32
:100468000E2A0DC0F6FF0EC0F7FF0800F55096ECF7
:1004780011F0D8A003D0D1D7198E17D00DC0F6FF30
:100488000EC0F7FF0D4A0E2A0800F5CF1CF01C50CD
:10049800000AD8B41200640AD8B407D00D0AD8B438
:1004A80004D0110AD8B4E8D703D119BE15D014C0A6
:1004B800D9FF15C0DAFFDECF17F0DDCF18F0020E36
:1004C8001426000E152218AE44D0030E1912176C0C
:1004D800181ED8B0182A3DD014C0D9FF15C0DAFFAD
:1004E800DECF17F0DDCF18F0020E1426000E15220D
:1004F80030D0010E1C6E050E1C18D8B432D01C501A
:10050800020D000EF324F66EFE0EF420F76E0900BD
:10051800F550175C0900F5501858D8A022D01C2AAD
:10052800EAD7010E1C6E040E1C18D8B41AD01C5041
:10053800020D0A0EF324F66EFE0EF420F76E090083
:10054800F550175C0900F5501858D8A00AD01C2A95
:10055800EAD71950800B000AD8B4CBD7800AD8B490
:10056800E0D71A501B10D8B409D019C00FF0030EE9
:100578000F16D8B403D01A06D8A01B06800E1CBECE
:100588007F0E0F6E1A501C5C1B50800A0F58D8B093
:1005980007D01C501A5E000E1CBEFF0E1B5A04D05A
:1005A800000E1B6E000E1A6E19A414D019C00FF09D
:1005B800030E0F16D8B403D02D0EE1EC11F01A502B
:1005C8001B10D8B41ED0300EE1EC11F01A06D8A0DA
:1005D8001B06F5D71A501B10D8B40AD0200EE1EC30
:1005E80011F01A06D8A01B061A501B10D8A4F6D76B
:1005F80019C00FF0030E0F16D8B403D02D0EE1EC7E
:1006080011F01CC016F050D01650020D000EF32445
:10061800F66EFE0EF420F76E0900F5CF03F00A001F
:10062800F5CF04F017C001F018C002F0CEEC0FF0BF
:1006380001C008F002C009F0000E0B6E0A0E0A6E27
:1006480046EC10F00850300F1C6E2BD017C001F08C
:1006580018C002F01650020D0A0EF324F66EFE0EB4
:10066800F420F76E0900F5CF03F00A00F5CF04F087
:10067800CEEC0FF001500F0B136E1350010DF10E5D
:10068800F324F66EFE0EF420F76E0800F5CF1CF08A
:1006980008D01950800B000AD8B4B6D7800AD8B44D
:1006A800D5D71C50E1EC11F016061628D8A4F1D7BE
:1006B8000DC0F6FF0EC0F7FF0D4A0E2A0800F5CF51
:1006C8001CF01C50D8B412007FD60600FACF82F076
:1006D800FBCF83F0E9CF84F0EACF85F0E1CF86F055
:1006E800E2CF87F0D9CF88F0DACF89F0F3CF8AF05C
:1006F800F4CF8BF0F6CF8CF0F7CF8DF0F8CF8EF0EB
:10070800F5CF8FF0F0B095D0AFD0000E0001C36FD9
:10071800000E0001C56F000EC46FA4D0F28AD58EFA
:10072800000ED76E000ED66EDBEC0EF0B7C07DF073
:10073800B6C07CF0010EE7EC11F0020E69D00001A2
:10074800C469C5698FD0050E0001C36F0001C44B91
:10075800C52B1F0E8118D8A485D0FBD77DC063F0A8
:10076800646ABBEC08F063C073F064C074F073C0D3
:1007780001F074C002F0000E046E3C0E036E71ECC2
:1007880011F001C080F002C081F07CC063F0646A9F
:10079800BBEC08F06350000180250001C16F645074
:1007A800000181210001C26F77C063F0646ABBEC6D
:1007B80008F063C073F064C074F073C001F074C0D3
:1007C80002F0000E046E3C0E036E71EC11F001C0D5
:1007D80080F002C081F076C063F0646ABBEC08F078
:1007E8006350000180250001BD6F64500001812124
:1007F8000001BE6F060E0CD0040E0AD0DBEC0EF022
:10080800B7C077F0B6C076F0010EE7EC11F0030E32
:100818000001C36F94D7010EE7EC11F0010E00013F
:10082800C36F0001C469C569D59E1CD0A6EC10F041
:1008380019D081500F0AD8B471D7100AD8B483D709
:10084800300AD8B48BD7100AD8B4D6D7700AD8B41F
:10085800D5D7300AD8B4EAD7B00AD8B4DCD7200A3A
:10086800D8B453D7F0902ED0F2A412D0D59EDBEC9A
:100878000EF0B7C077F0B6C076F0010EE7EC11F0D5
:10088800030E0001C36F0001C469C569F2941AD050
:10089800800EE7EC11F0DC0E0D6EFF0E0E6EE3EC31
:1008A80001F0000E756E630E756401D0F1D7210E4C
:1008B8000001806F760EE82EFED7802FFCD700F05F
:1008C800752AF1D78FC0F5FF8EC0F8FF8DC0F7FFEE
:1008D8008CC0F6FF8BC0F4FF8AC0F3FF89C0DAFF33
:1008E80088C0D9FF87C0E2FF86C0E1FF85C0EAFF64
:1008F80084C0E9FF83C0FBFF82C0FAFF7E9211002B
:1009080049504A104B10D8A407D0000E496E800EEB
:100918004A6E3F0E4B6E1200720E016E310E026E61
:10092800440E036E49C004F04AC005F04BC006F0FF
:10093800D9EC0DF0D8B00BD0000E796E220E786E7F
:10094800FF0E496E7F0E4A6E7F0E4B6E120049C035
:1009580001F04AC002F04BC003F0490E046E3A0E93
:10096800056EC40E066ED9EC0DF0D8B00BD0000E93
:10097800796E220E786E000E496E000E4A6E000ED9
:100988004B6E12004BAE02D0010E01D0000E516E1C
:100998005150D8B40ED049C001F04AC002F04BC043
:1009A80003F084EC11F001C049F002C04AF003C022
:1009B8004BF049C00DF04AC00EF04BC00FF0AA0E24
:1009C800106EB80E116E3F0E126EB3EC09F00DC02A
:1009D80049F00EC04AF00FC04BF049C041F04AC080
:1009E80042F04BC043F0A0EC0AF041C04CF042C0CA
:1009F8004DF043C04EF04CC028F04DC029F04EC019
:100A08002AF039EC09F028C04FF029C050F049C04D
:100A180028F04AC029F04BC02AF04FC009F050C056
:100A28000AF0C5EC10F009C02BF00AC02CF00BC07E
:100A38002DF067EC10F028C049F029C04AF02AC010
:100A48004BF049C028F04AC029F04BC02AF0190ED3
:100A58002B6EFE0E2C6E000E2E6E090E2D6E78EC8F
:100A68000BF028C034F029C035F02AC036F04FC04A
:100A780037F050C038F0E1EC0BF034C049F035C025
:100A88004AF036C04BF05150D8B425D049280EE171
:100A98007F0E4A180BE17F0E4B18D8A407D0000E22
:100AA800496E000E4A6E000E4B6E1200000E096E63
:100AB800800E0A6E3F0E0B6E49C00CF04AC00DF056
:100AC8004BC00EF02DEC0AF009C049F00AC04AF0FC
:100AD8000BC04BF0120049C049F04AC04AF04BC065
:100AE8004BF012001EC022F0236A246A1D342236FD
:100AF80001E323802250276E21C022F0236A246A52
:100B08002034223601E323802250266E2750D8B4A1
:100B18000BD02650275CD8B00ED0275000082624CA
:100B2800226E180E226407D01FC01CF020C01DF0D2
:100B380021C01EF012002650D8B40BD02750265CD6
:100B4800D8B00ED0265000082724226E180E226432
:100B580007D01CC01CF01DC01DF01EC01EF01200E6
:100B6800060E256E1EBE258E21BE258C1D8EFF0EFF
:100B78001C16FF0E1D16000E1E16208EFF0E1F16C9
:100B8800FF0E2016000E21162650275CD8B01BD069
:100B9800D8901F3620362136260627502618D8B476
:100BA8000DD0250625C022F0070E2216D8B406D08F
:100BB800EFD7D8901E321D321C32272A265027180C
:100BC800D8B41FD0F6D72750265CD8B01AD0D89002
:100BD8001C361D361E36270627502618D8B40DD0C9
:100BE800250625C022F0070E2216D8B406D0EFD766
:100BF800D890213220321F32262A26502718D8A40E
:100C0800F7D725AE0CD0FF0E1C1AFF0E1D1AFF0ECB
:100C18001E1A010E1C26000E1D22000E1E2225ACD7
:100C28000CD0FF0E1F1AFF0E201AFF0E211A010EFC
:100C38001F26000E2022000E2122000E256E1C50B9
:100C48001F261D5020221E50212221AE0ED0FF0E3D
:100C58001F1AFF0E201AFF0E211A010E1F26000E62
:100C68002022000E2122010E256E1FC001F020C097
:100C780002F021C003F027C004F025C005F0A0EC65
:100C88000CF001C01CF002C01DF003C01EF01200E1
:100C9800000E5E6E525053105410D8A41BD0000E94
:100CA800016E000E026E000E036E55C004F056C0B1
:100CB80005F057C006F0D9EC0DF0D8A004D0000E0E
:100CC800796E210E786E000E526E000E536E000E75
:100CD800546E1200555056105710D8A407D0000E65
:100CE800526E800E536E3F0E546E120054AE40D0BA
:100CF80055C028F056C029F057C02AF039EC09F041
:100D080028C05FF029C060F02AC061F02BC062F0F3
:100D18005FC009F060C00AF061C00BF062C00CF05F
:100D2800A0EC0FF05550091807E156500A1804E1D5
:100D380057500B18D8B40BD0000E796E210E786E70
:100D4800000E526E000E536E000E546E12005F506D
:100D5800010B5E6E52C001F053C002F054C003F0A4
:100D680084EC11F001C052F002C053F003C054F0FB
:100D780052C034F053C035F054C036F0ABEC07F035
:100D880034C058F035C059F036C05AF058C00DF08C
:100D980059C00EF05AC00FF055C010F056C011F0EF
:100DA80057C012F0B3EC09F00DC05BF00EC05CF058
:100DB8000FC05DF05BC049F05CC04AF05DC04BF00D
:100DC80084EC04F049C052F04AC053F04BC054F0D0
:100DD8005E50D8B40FD052C001F053C002F054C0D6
:100DE80003F084EC11F001C052F002C053F003C0CC
:100DF80054F0120052C052F053C053F054C054F093
:100E0800120083D0800ED9EC11F0240E00019C6FE3
:100E1800FF0E00019D6F09EC00F0C00ED9EC11F037
:100E2800130E00019C6FFF0E00019D6F09EC00F08E
:100E38001200800ED9EC11F0680E00019C6FFF0EB5
:100E480000019D6F09EC00F0C00ED9EC11F0570EAF
:100E580000019C6FFF0E00019D6F09EC00F012006D
:100E6800800ED9EC11F0460E00019C6FFF0E0001B8
:100E78009D6F09EC00F0C00ED9EC11F0350E0001A1
:100E88009C6FFF0E00019D6F09EC00F01200800EB0
:100E9800D9EC11F0790E00019C6FFF0E00019D6FD7
:100EA80009EC00F0C00ED9EC11F09B0E00019C6F0C
:100EB800FF0E00019D6F09EC00F01200800ED9ECC6
:100EC80011F08A0E00019C6FFF0E00019D6F09EC66
:100ED80000F0C00ED9EC11F0AC0E00019C6FFF0EB3
:100EE80000019D6F09EC00F01200800ED9EC11F0A2
:100EF800F40E00019C6FFF0E00019D6FC4C09EF0B0
:100F0800C5C09FF009EC00F0F0D7C4C090F0C5C090
:100F180091F0000E0001936F050E926FF7EC0CF044
:100F280000019151000AD8A4E0D700019051000AAD
:100F3800D8B468D7010AD8B47CD7030AD8B490D7F4
:100F4800010AD8B4A4D7070AD8B4B8D7CED736AED2
:100F58000BD0000E796E210E786E000E346E000EE6
:100F6800356E000E366E1200345035103610D8A487
:100F78000BD0000E796E220E786E000E346E000EC5
:100F8800356E000E366E1200000E106E000E116ED9
:100F9800400E126E370E046E000E056E34C001F05E
:100FA80035C002F036C003F091EC0DF001C00DF031
:100FB80002C00EF003C00FF0B3EC09F00DC01CF036
:100FC8000EC01DF00FC01EF0000E1F6E800E206EAA
:100FD800BF0E216E76EC05F01CC034F01DC035F054
:100FE8001EC036F03706D8A0380634C028F035C001
:100FF80029F036C02AF0370E2B6EFE0E2C6E000E2E
:101008002E6E080E2D6E78EC0BF028C034F029C037
:1010180035F02AC036F0720E106E310E116E3F0E8A
:10102800126E37C009F038C00AF0C5EC10F009C0DC
:101038000DF00AC00EF00BC00FF0B3EC09F00DC0B4
:101048001CF00EC01DF00FC01EF034C01FF035C0DC
:1010580020F036C021F076EC05F01CC034F01DC03D
:1010680035F01EC036F0120092689368000E946E38
:10107800000E956E000E966E000E896E000E8A6E3A
:10108800000E8B6E000E8C6E000E8D6E000EC26E02
:10109800C168F086F19EF7EC0FF0100E00019D6F0D
:1010A800270E9E6F000E9F6F000EA06F70EC0FF062
:1010B800000ED76E000ED66ED59CD59AD596D584DF
:1010C800D582D580F28E000E0001C36F2AD0E1ECE4
:1010D80010F03ED0A5EC11F03BD048EC0DF038D024
:1010E800B2EC11F035D00FEC0BF032D005EC07F074
:1010F8002FD0C1C0B4F0C2C0B5F00001B41FB51FF5
:10110800B44BB52B0001BD510001B4250001B26FED
:101118000001BE510001B5210001B36FFCEC10F0D5
:1011280017D00001C351000AD8B4D1D7010AD8B4E6
:10113800D1D7030AD8B4D1D7010AD8B4D1D7070A6E
:10114800D8B4D1D7010AD8B4D1D7030AD8B4D1D7E3
:10115800030E0001B56F8A0E0001B46F550EE82E1C
:10116800FED7B42FFCD7B52FFAD700D0DAD7000EA8
:101178006E6E000E6D6E63C071F064C072F0000E8A
:10118800706E000E6F6E68D00F0E71146B6E6C6A05
:101198006DC009F06EC00AF0C5EC10F009C065F02A
:1011A8000AC066F00BC067F065C055F066C056F01F
:1011B80067C057F0000E526E200E536E410E546EEB
:1011C8004CEC06F052C068F053C069F054C06AF0A5
:1011D80068C010F069C011F06AC012F06BC009F065
:1011E8006CC00AF0C5EC10F009C00DF00AC00EF092
:1011F8000BC00FF0B3EC09F00DC01FF00EC020F0CB
:101208000FC021F06FC009F070C00AF0C5EC10F0F3
:1012180009C01CF00AC01DF00BC01EF076EC05F0EA
:101228001CC028F01DC029F01EC02AF039EC09F0B6
:1012380028C06FF029C070F071C001F072C002F0D0
:10124800000E046E100E036E21EC0EF001C071F05A
:1012580002C072F06D4A6E2A71507210D8A494D7E9
:101268006FC063F070C064F012002AC02CF02D6AC1
:101278002E6A29342C3601E32D802C50366E3650D8
:10128800D8A409D0000E286E000E296E000E2A6E12
:10129800000E2B6E1200170E2C6E28C02DF029C0E0
:1012A8002EF02AC02FF02C28306E04D0D8902F3280
:1012B8002E322D32302EFAD72D50316E298EFF0E58
:1012C8002816FF0E2916000E2A162850326E2950AD
:1012D800336E2A50346E356A8E0E365E36AE16D0B0
:1012E8003650800A8F0FD8B009D0000E286E000E35
:1012F800296E000E2A6E000E2B6E1200D890353221
:10130800343233323232363EF9D715D0170E3664BE
:101318000FD0000E286E000E296E000E2A6E000EE9
:101328002B6E1200D89032363336343635363606C0
:101338003650D8A4F7D73150D8B408D0351E341E4B
:10134800331E326C000E33223422352232C028F08C
:1013580033C029F034C02AF035C02BF012000FC07A
:1013680013F0146A156A0E34133601E3148013500F
:10137800166E1650D8A407D0000E0D6E000E0E6E15
:10138800000E0F6E120012C013F0146A156A1134A1
:10139800133601E3148013501B6E1B50D8A407D0DA
:1013A800000E0D6E000E0E6E000E0F6E12001B501A
:1013B8007B0F16260FC01BF012501B1A800E1B162F
:1013C8000E8E118EFF0E1016FF0E1116000E12163D
:1013D800000E176E000E186E000E196E070E1A6EAC
:1013E8000DA006D01050172611501822125019229D
:1013F800D8900F320E320D32D89010361136123680
:101408001A2EEED7090E1A6E0DA006D01050172608
:101418001150182212501922D8900F320E320D3264
:10142800D8901932183217321A2EEED717C001F099
:1014380018C002F019C003F016C004F01BC005F074
:10144800A0EC0CF001C00DF002C00EF003C00FF0CC
:1014580012000BC00FF0106A116A0A340F3601E34C
:1014680010800F50166E1650D8A407D0000E096EC3
:10147800000E0A6E000E0B6E12000EC00FF0106AFE
:10148800116A0D340F3601E310800F50176E175094
:10149800D8A407D0000E096E000E0A6E000E0B6E5F
:1014A8001200000E136E000E146E000E156E17500B
:1014B800890F165E0BC017F00E50171A800E1716FC
:1014C8000A8EFF0E0916FF0E0A16000E0B160D8E59
:1014D800FF0E0C16FF0E0D16000E0E16180E126ECD
:1014E800D8901336143615360C50095C0D500A582E
:1014F8000E500B58D8A007D00C50095E0D500A5A50
:101508000E500B5A1380D89009360A360B36122E15
:10151800E7D713C001F014C002F015C003F016C0DD
:1015280004F017C005F0A0EC0CF001C009F002C0EF
:101538000AF003C00BF0120041C001F042C002F0F3
:1015480043C003F0470E046E000E056E91EC0DF0DB
:1015580048AE10D043AE07D0000E416E800E426EEA
:10156800BF0E436E1200000E416E000E426E000E5A
:10157800436E1200485004E1150E475CD8A007D00E
:1015880041C041F042C042F043C043F0120041C0A4
:1015980028F042C029F043C02AF039EC09F028C0ED
:1015A80037F029C038F02AC039F02BC03AF09FEC48
:1015B8000EF037C044F038C045F039C046F041C09D
:1015C80001F042C002F043C003F044C004F045C03B
:1015D80005F046C006F0D9EC0DF0D8B015D044C0DF
:1015E8001CF045C01DF046C01EF0000E1F6E800E98
:1015F800206EBF0E216E76EC05F01CC041F01DC0B8
:1016080042F01EC043F0120044C041F045C042F011
:1016180046C043F01200FBEC11F0000E0001926F7F
:10162800D00E916FEDEC11F0000E0001926F000EDC
:10163800916FEDEC11F0F7EC11F0FBEC11F0000EEE
:101648000001926FD10E916FEDEC11F0000E0001C8
:10165800B26F050E0001B26501D010D00001B25181
:10166800010DB60EF324D96E000EF420DA6E010EC9
:1016780032EC11F0DF6E0001B22BEBD7000E32EC2A
:1016880011F00001BC6FF7EC11F0800ED9EC11F0ED
:10169800B10E00019C6FFE0E00019D6FBBC09EF055
:1016A80000019F6BBAC0A0F00001A16BBCC0A2F002
:1016B8000001A36B09EC00F0C00ED9EC11F0C80EC4
:1016C80000019C6FFE0E00019D6FB8C09EF00001E6
:1016D8009F6BB7C0A0F00001A16BB6C0A2F00001DB
:1016E800A36B09EC00F012002DC001F02EC002F02F
:1016F800000E046E030E036E71EC11F02BC02FF078
:101708002CC030F001502F26025030222FC0F6FF97
:1017180030C0F7FF0900F5CF31F00900F5CF32F0FE
:101728000A00F5CF33F03ED031C010F032C011F0CE
:1017380033C012F028C00DF029C00EF02AC00FF0F7
:10174800B3EC09F00DC01CF00EC01DF00FC01EF068
:10175800000E046E030E036E2D06D8A02E062DC0B3
:1017680001F02EC002F071EC11F02BC02FF02CC04C
:1017780030F001502F26025030222FC0F6FF30C023
:10178800F7FF0900F5CF1FF00900F5CF20F00A0098
:10179800F5CF21F076EC05F01CC031F01DC032F019
:1017A8001EC033F02D502E10D8A4BED731C028F05B
:1017B80032C029F033C02AF01200345035103610E8
:1017C800D8A407D0000E346E000E356E000E366EAB
:1017D800120036507F0B396E3A6AD89039363A364D
:1017E800395037263A50382235AE03D0396A392A6B
:1017F80001D0396A39503726000E382238AE0BD05E
:10180800000E796E220E786E000E346E000E356E64
:10181800000E366E120038BE15D03804D8A012D08B
:10182800000E796E220E786E36AE06D0FF0E346E3C
:101838007F0E356EFF0EEDD7FF0E346E7F0E356EC0
:101848007F0EE7D7383438303A6E3730396E365035
:101858003918800B3918366E37C039F0010E391631
:1018680039323932355039187F0B3918356E34C052
:1018780034F035C035F036C036F01200000E0001E5
:10188800986F000E996F000E9A6F000E9B6F000103
:101898009451000195110001961100019711D8B4D7
:1018A80042D0010E00019C6F08D00001D8909437F7
:1018B80095379637973700019C2B000197AFF5D7DE
:1018C8000001D890983799379A379B37000194517F
:1018D8000001905D00019551000191590001965158
:1018E800000192590001975100019359D8A012D0D4
:1018F800000194510001905F000195510001915B36
:10190800000196510001925B000197510001935B21
:10191800000198810001D89097339633953394331A
:1019280000019C2FCDD798C090F099C091F09AC033
:1019380092F09BC093F012000450D8B405D0015027
:1019480002100310D8A40CD0000E016E000E026E17
:10195800000E036E1200042AD890033202320132BC
:10196800000E0114066E000E0214076EFE0E03141C
:10197800086E065007100810D8B40CD0ECD7042A0B
:10198800010E0126000E0222000E0322D890033217
:1019980002320132000E0114066E000E0214076EA8
:1019A800FF0E0314086E065007100810D8B406D0AE
:1019B800E6D70406D89001360236033602BE03D0B5
:1019C800020E0460F6D704A0029ED8900432045098
:1019D80003120550D8A4038E01C001F002C002F022
:1019E80003C003F01200000E0001956F000191AFD3
:1019F80008D00001906D911FD8B0912B010E000105
:101A0800956F000193AF05D00001926D931FD8B078
:101A1800932B0001925100019311D8B426D0010EE6
:101A28000001946F06D00001D890923793370001D7
:101A3800942B000193AFF7D7000192510001905DFC
:101A48000001935100019159D8A008D0000192518A
:101A58000001905F000193510001915B0001D89053
:101A6800933392330001942FE7D700019551000179
:101A7800D8B405D00001906D911FD8B0912B90C0BB
:101A880090F091C091F0120033D0800ED9EC11F093
:101A9800830E00019C6FFE0E00019D6F09EC00F0A3
:101AA800000E0001C06F010EBF6F1200800ED9EC4E
:101AB80011F06B0E00019C6FFE0E00019D6F09EC8A
:101AC80000F0000E0001C06F020EBF6F1200800E02
:101AD800D9EC11F0520E00019C6FFE0E00019D6FB3
:101AE80009EC00F0000E0001C06F000EBF6F12007D
:101AF800BFC0B2F0C0C0B3F00001B351000AD8A40F
:101B080012000001B251000AD8B4BFD7010AD8B4F4
:101B1800CDD7030AD8A41200DAD701500210031057
:101B2800D8A40FD004C0D9FF05C0DAFF000EDE6EBE
:101B3800000EDD6E000E016E000E026E000E036ECA
:101B4800120003507F0B066E076AD89006360736D8
:101B580004C0D9FF05C0DAFF06C0DEFF07C0DDFFFD
:101B680002AE03D0066A062A01D0066A065004C0EF
:101B7800D9FF05C0DAFFDE12000EDD1204C0D9FF5E
:101B880005C0DAFF820EDE26FF0EDD220380038207
:101B9800038403860388038A039C029E01C001F024
:101BA80002C002F003C003F0120003AE16D001C059
:101BB80007F002C008F003C009F0071E081E091E3E
:101BC800072A000E08220922000E0724016E000EC3
:101BD8000820026E800E0920036E06AE16D004C0DF
:101BE80007F005C008F006C009F0071E081E091E08
:101BF800072A000E08220922000E0724046E000E90
:101C08000820056E800E0920066E000E011A000ECF
:101C1800021A800E031A000E041A000E051A800E0E
:101C2800061A0450015C0550025806500358D8B0F3
:101C380002D0D8901200D8801200000E066E04AEB2
:101C480006D0036C041ED8B0042A010E066E02AE3C
:101C580006D0016C021ED8B0022A010E061A000E28
:101C6800086E000E076E03500410D8B41CD0010E85
:101C7800056E04D0D89003360436052A04AEFAD788
:101C8800D890073608360350015C04500258D8A093
:101C980005D00350015E0450025A0780D8900432E0
:101CA8000332052EEDD70650D8B404D0076C081EB1
:101CB800D8B0082A07C001F008C002F01200000ED0
:101CC8000001956F000E946F00019251000193116D
:101CD800D8B42CD0010E0001966F06D00001D89020
:101CE800923793370001962B000193AFF7D7000185
:101CF800D89094379537000192510001905D00010A
:101D0800935100019159D8A00AD0000192510001C5
:101D1800905F000193510001915B000194810001E3
:101D2800D890933392330001962FE1D794C090F066
:101D380095C091F01200000E406E8E0E3F6E3AAEC6
:101D480011D03A1E391E381E376C000E382239223F
:101D58003A22010E406E06D0D8903A3239323832E3
:101D680037323F2A000E37143B6E000E38143C6E93
:101D7800000E39143D6EFF0E3A143E6E3B503C1077
:101D88003D103E10D8A4E8D737C001F038C002F0A3
:101D980039C003F03FC004F040C005F0A0EC0CF0DF
:101DA80001C037F002C038F003C039F0120003EC6C
:101DB80012F0000E036ED00E026EF2EC11F0000E5F
:101DC800036E000E026EF2EC11F0FFEC11F003EC62
:101DD80012F0000E036ED10E026EF2EC11F0000E3E
:101DE800046E050E046401D00ED00450010DB60E29
:101DF800F324D96E000EF420DA6E010E5EEC11F0B9
:101E0800DF6E042AEED7000E5EEC11F00001BC6F05
:101E1800FFEC11F012000001995100019A11D8B499
:101E280026D0010E00019B6F06D00001D89099378B
:101E38009A3700019B2B00019AAFF7D700019951FF
:101E48000001975D00019A5100019859D8A008D067
:101E5800000199510001975F00019A510001985BB8
:101E68000001D8909A33993300019B2FE7D797C088
:101E780097F098C098F012000001916F00019151FD
:101E8800F00B0001906F8C500F0B8C6E000190517D
:101E98008C108C6E8C96190EE82EFED78C86190E37
:101EA800E82EFED700019139F00B0001916F000177
:101EB8009151F00B0001906F8C500F0B8C6E00014C
:101EC80090518C108C6E8C96190EE82EFED78C864D
:101ED800190EE82EFED71200000EC76E280EC66E29
:101EE800000EC56E800E0001906F960E916F980ED1
:101EF800926F000E936F9DC0A1F09EC0A2F09FC08C
:101F0800A3F0A0C0A4F0020ED8900001A137A23718
:101F1800A337A437E82EF8D7A1C094F0A2C095F053
:101F2800A3C096F0A4C097F042EC0CF00001900515
:101F3800C86E9486948812008E0E116E06D0D890C2
:101F48000C320B320A320932112A000E09140D6EB6
:101F5800000E0A140E6E000E0B140F6EFF0E0C14FA
:101F6800106E0D500E100F101010D8A4E8D709C02D
:101F780001F00AC002F00BC003F011C004F0000E1B
:101F8800056EA0EC0CF001C009F002C00AF003C015
:101F98000BF01200000E066E000E056E03500410C2
:101FA800D8B41CD0010E076E04D0D890033604367E
:101FB800072A04AEFAD7D890053606360350015CD6
:101FC80004500258D8A005D00350015E0450025AAC
:101FD8000580D89004320332072EEDD705C001F0F2
:101FE80006C002F01200310E0001936FB20EE82E07
:101FF800FED7932FFCD700F0330ED9EC11F0330E37
:10200800D9EC11F0320ED9EC11F0280ED9EC11F000
:102018000F0ED9EC11F0060ED9EC11F0010ED9EC27
:1020280011F0310E0001936FB20EE82EFED7932FF8
:10203800FCD700F01200026E0250F00B016E8C50BB
:102048000F0B8C6E01508C108C6E8C96190EE82E2E
:10205800FED78C86190EE82EFED70238F00B026EDA
:102068000250F00B016E8C500F0B8C6E01508C10CF
:102078008C6E8C96190EE82EFED78C86190EE82EDB
:10208800FED712000A500B10D8B418D0010E0C6EEF
:1020980004D0D8900A360B360C2A0BAEFAD70A5061
:1020A800085C0B500958D8A004D00A50085E0B50A1
:1020B800095AD8900B320A320C2EF1D708C008F012
:1020C80009C009F012002B502C102D10D8B406D0DE
:1020D800000E2B1A000E2C1A800E2D1A28C01CF088
:1020E80029C01DF02AC01EF02BC01FF02CC020F004
:1020F8002DC021F076EC05F01CC028F01DC029F099
:102108001EC02AF012000E0EF66E240EF76E000E98
:10211800F86E0900F5CFC4F00900F5CFC5F000EE60
:10212800B6F00E0EEE6AE806FDE100EE76F0080E57
:10213800EE6AE806FDE17E907E92000EF86E0001E0
:1021480038EF08F0000E036E000E026E035018E11F
:10215800320E025CD8B012008480050E016EDE0ECD
:10216800E82EFED7012EFCD784903D0E016E0F0E8F
:10217800E82EFED7012EFCD700F0024A032AE6D744
:102188001200000E0C6E0AAE06D0096C0A1ED8B0FA
:102198000A2A010E0C6E09C001F00AC002F0036A97
:1021A8008E0E046E0CC005F0A0EC0CF001C009F016
:1021B80002C00AF003C00BF01200800ED9EC11F037
:1021C800020E00019C6FFF0E00019D6F09EC00F0EC
:1021D800C00ED9EC11F0EA0E00019C6FFF0E000151
:1021E8009D6F81CF9EF000019F6B09EC00F01200FB
:1021F800800ED9EC11F09A0E00019C6FFE0E0001C2
:102208009D6F09EC00F0C00ED9EC11F0DF0E000153
:102218009C6FFE0E00019D6FB2C09EF0B3C09FF090
:1022280009EC00F012000001905100019203F3CF75
:1022380094F0F4CF95F00001905100019303F3500E
:10224800000195270001915100019203F35000010C
:10225800952794C090F095C091F012000001916FFD
:10226800BEEC11F0C586BEEC11F0C9CF92F0BEEC01
:1022780011F0000191510001D8A402D0C58A01D003
:10228800C59AC5880001925112000001926F000E94
:102298000001916F3A0E0001926107D02F0E0001E4
:1022A800926503D0010E0001916F91C090F000017A
:1022B80090311200026EC8EC11F0C586C8EC11F01E
:1022C800C9CF03F0C8EC11F00250D8A402D0C58AD7
:1022D80001D0C59AC5880350120001500302F3CFFC
:1022E80005F0F4CF06F001500402F3500626025020
:1022F8000302F350062605C001F006C002F01200E2
:10230800015002100310D8B406D0000E011A000EB6
:10231800021A800E031A01C001F002C002F003C0C5
:1023280003F01200036E000E026E3A0E036005D031
:102338002F0E036402D0010E026E02C001F00130BC
:102348001200800ED9EC11F0CD0E00019C6FFF0E2B
:1023580000019D6F09EC00F0F29EFFD7800ED9ECCA
:1023680011F0BD0E00019C6FFF0E00019D6F09EC7E
:1023780000F01200C7B4FED7C5CF90F01F0E0001C1
:102388009017D8B41200F6D7C7B4FED7C5CF01F05E
:102398001F0E0116D8B41200F7D70001926F8C8473
:1023A8000001925140EC0FF012000001926F8C94E2
:1023B8000001925140EC0FF01200036E8C84035020
:1023C8001FEC10F01200036E8C9403501FEC10F0F9
:1023D8001200BEEC11F091C0C9FF1200C8EC11F058
:1023E80002C0C9FF1200BEEC11F0C5841200BEEC99
:1023F80011F0C5801200C8EC11F0C5841200C8ECB9
:0824080011F0C5801200FFFF76
:10FDEE00003132334134353642373839432A3023E5
:10FDFE00440001000A006400E8031027010010000F
:10FE0E00000100105035210805021700803F7231A5
:10FE1E003FFE753E58633D951D3CC5AE3A7921397E
:10FE2E0094803793A73556153400000000803FF0BC
:10FE3E00FFBEE2A93E8376BEAE2B3E3CC3BDD213BF
:10FE4E003D78D3BB52756E6E696E677E7E7E2020C6
:10FE5E002020202020202020202020200052756EDF
:10FE6E006E696E677E7E202020202020202020209C
:10FE7E00202020200052756E6E696E677E20202035
:10FE8E00202020202020202020202000546F74616C
:10FE9E006C204F7065726174696F6E202020202077
:10FEAE00202000446174653A20253032782F2530A9
:10FEBE0032782F2530327820200054696D653A2033
:10FECE00253032783A253032783A25303278202073
:10FEDE000054696D653A202564207320202020206F
:10FEEE002020003031323334353637383961626391
:10FEFE00646566007374616E646279202020202030
:10FF0E002020202000546F74616C3A203130202064
:10FF1E00202020202000426F74746C6520436F7582
:10FF2E006E742020202000594F502D4341502D4CEF
:10FF3E00424C3A2030202000594F502D4341502B37
:10FF4E004C424C3A2031202000594F502B43415007
:10FF5E002D4C424C3A2031202000594F502B43411A
:10FF6E00502B4C424C3A203320200045534B412B12
:10FF7E004341502B4C424C3A2031200045534B41CB
:10FF8E002D4341502B4C424C3A2031200045534BCF
:10FF9E00412B4341502D4C424C3A203120004553C9
:10FFAE004B412D4341502D4C424C3A203220004FB4
:10FFBE007065726174696F6E20446F6E65210045C5
:10FFCE004D455247454E43592053544F50006261A0
:10FFDE006420696E7465727275707400504F52545D
:10FFEE00423A202564004552524F523A2025640071
:01FFFE000002
:020000040020DA
:08000000FFFFFFFFFFFFFFFF00
:020000040030CA
:0E000000FF021F1EFF8381FF0FC00FE00F40A5
:00000001FF
