:0400000007EF00F016
:100008007F8244ED0DF0F3EF2AF01E0E01012E6FF2
:10001800010E01012F6FEEEF05F0250E01014319C6
:10002800D8B406D00101435183EC2CF0EEEF05F073
:10003800000E0101376F000E366F000E01013F6F91
:10004800000E3E6F05D001013E8501011C4B1D2BA2
:100058001CC1F6FF1DC1F7FF0800F550300AD8B4DF
:10006800F2D71CC1F6FF1DC1F7FF0800F550F7ECE9
:100078002BF0D8A04BD0000E0101376F000E366F61
:1000880036C1ACF037C1ADF0000E0001AF6F0A0EFB
:10009800AE6FADEC2BF0ACC036F1ADC037F1D00E81
:1000A8000101246FFF0E0101256F1CC1F6FF1DC160
:1000B800F7FF0800F5500101266F276B0101245155
:1000C800010126270101255101012723010126519C
:1000D80001013627010127510101372301011C4B7A
:1000E8001D2B1CC1F6FF1DC1F7FF0800F550F7ECEA
:1000F8002BF0D8A00BD0C4D701013F8527D0010130
:100108003E8F24D0C00E01013E1320D01CC1F6FF43
:100118001DC1F7FF01011C4B1D2B0800F5CF43F152
:1001280001014351000AD8B41200640AD8B40ED0B1
:10013800020AD8B4E1D70F0AD8B408D01C0AD8B438
:10014800E1D70D0AD8B4DBD7EEEF05F0070E0101B1
:100158003F15D8B47AD3000E0101316F060E306F07
:100168002EC1D9FF2FC1DAFFDECF40F1DECF41F13A
:10017800DDCF42F1030E01012E27000E2F230101CE
:1001880042AF11D040C19EF041C19FF042C1A0F0E2
:10019800C8EC2BF09EC040F19FC041F1A0C042F1D5
:1001A800030E01013E13000E0101396F000E386F76
:1001B800010140510101411101014211D8B49BD004
:1001C800820E0101246FFF0E0101256F40C126F147
:1001D80041C127F142C128F143C129F1100E06D0CF
:1001E8000101D8902933283327332633E82EF8D74E
:1001F80001012651010124250101386F000E01017A
:1002080025210101396F01013807D8A0390738C104
:10021800ACF039C1ADF0000E0001AF6F030EAE6F48
:10022800ADEC2BF0ACC038F1ADC039F138C1A4F059
:1002380039C1A5F0000E0001A76F0A0EA66F12ECD7
:1002480026F0A4C038F1A5C039F1010139AF04D0B6
:1002580001013807D8A03907010138510008EDEC31
:100268000AF000C132F101C133F102C134F132C1E7
:10027800B2F033C1B3F034C1B4F040C1B5F041C1FC
:10028800B6F042C1B7F0FCEC1BF0B2C032F1B3C01B
:1002980033F1B4C034F132C1B5F033C1B6F034C172
:1002A800B7F0000E0001B86F800E0001B96F3F0E65
:1002B8000001BA6F4BEC25F00001D8B005D0010160
:1002C8003807D8A0390717D032C1B5F033C1B6F016
:1002D80034C1B7F0000E0001B86F200E0001B96FED
:1002E800410E0001BA6F4BEC25F00001D8A003D0F5
:1002F8000101384B392B010131BF08D001013151BF
:100308001DE10D0E0101305DD8B018D040C10AF1D1
:1003180041C10BF142C10CF10101305162EC13F003
:1003280000C10DF101C10EF102C10FF1B8EC14F0DA
:100338000AC140F10BC141F10CC142F1010139BFC1
:1003480008D0010139512AE10A0E0101385DD8B0FF
:1003580025D0010140510101411101014211D8B4D8
:1003680063D040C107F141C108F142C109F151EC24
:100378001DF00101075101010811010109110101D5
:100388000A11D8A451D0010139BF4ED00101395109
:1003980005E1020E0101385DD8A046D032C1B5F0A2
:1003A80033C1B6F034C1B7F0700E0001B86F890ED2
:1003B8000001B96F400E0001BA6F4BEC25F0000147
:1003C800D8B003D00101F70E02D00101F80E38278A
:1003D800FF0E392301013851EDEC0AF000C132F16A
:1003E80001C133F102C134F140C19EF041C19FF017
:1003F80042C1A0F032C1A1F033C1A2F034C1A3F0D0
:10040800AEEC19F09EC03AF19FC03BF1A0C03CF1A0
:10041800A1C03DF1000E0101406F000E0101416FC6
:10042800000E0101426F33D040C107F141C108F10C
:1004380042C109F151EC1DF007C13AF108C13BF185
:1004480009C13CF10AC13DF140C116F141C117F1A2
:1004580042C118F13AC1A6F03BC1A7F03CC1A8F0CF
:100468003DC1A9F0D7EC28F0A6C019F1A7C01AF130
:10047800A8C01BF1CDEC2AF016C140F117C141F11B
:1004880018C142F1000E0101396F000E386F010EDC
:100498000101436F0A0E01014319D8B41ED00101AE
:1004A8004351040DB70EF324F66EFD0EF420F76EDB
:1004B8000900F55001013A5D0900F55001013B5969
:1004C8000900F55001013C590900F55001013D5959
:1004D800D8A003D00101432BDDD743C124F101018A
:1004E800256B24BF25070101305101012427010193
:1004F800315101012523010138510101242701014E
:10050800395101012523010124510101365F0101FF
:1005180025510101375B0101305101013111D8B476
:1005280004D001013607D8A03707030E01013E1594
:100538000101246F000E01013F150101256F010122
:10054800245101012511D8B404D001013607D8A0DF
:10055800370701013EA52DD0030E01013E1501010B
:10056800246F000E01013F150101256F010124517F
:1005780001012511D8B40BD02D0E83EC2CF007D037
:10058800300E83EC2CF001013607D8A037070101A3
:1005980037BF74D001013751F3E101013605D8A006
:1005A8006DD0EED7200E83EC2CF001013607D8A0D1
:1005B8003707010137BF07D001013751F3E10101C6
:1005C8003605D8B0EFD7030E01013E150101246F9F
:1005D800000E01013F150101256F010124510101A0
:1005E8002511D8B44BD02D0E83EC2CF047D03AC14E
:1005F8009EF03BC19FF03CC1A0F03DC1A1F00101BC
:100608004351040DB70EF324F66EFD0EF420F76E79
:100618000900F5CFA2F00900F5CFA3F00900F5CF46
:10062800A4F00A00F5CFA5F071EC26F09EC032F1D7
:100638009FC033F1A0C034F1A1C035F132C1ABF095
:1006480033C1ACF034C1ADF035C1AEF00A0E0001D3
:10065800AF6F000EB06F000EB16F000EB26F77EC87
:1006680027F0ABC032F1ACC033F1ADC034F1AEC04D
:1006780035F101013251300F83EC2CF001014307B1
:1006880001014329D8B408D0B2D7300E83EC2CF03E
:1006980001013807D8A03907010139BF07D0010186
:1006A8003951F3E101013805D8B0EFD7010131BF65
:1006B8000CD00101315105E1090E0101305DD8A0CE
:1006C80004D0080E0101436F02D030C143F101018B
:1006D80043510101305F000E010143BFFF0E0101CC
:1006E800315B010143510101D8B403D02E0E83ECD4
:1006F8002CF001014351EDEC0AF000C12AF101C1CF
:100708002BF102C12CF140C1B5F041C1B6F042C194
:10071800B7F02AC1B2F02BC1B3F02CC1B4F0FCEC95
:100728001BF0B2C007F1B3C008F1B4C009F151EC35
:100738001DF007C13AF108C13BF109C13CF10AC1FA
:100748003DF16ED03AC19EF03BC19FF03CC1A0F094
:100758003DC1A1F001014351040DB70EF324F66E1B
:10076800FD0EF420F76E0900F5CFA2F00900F5CFD1
:10077800A3F00900F5CFA4F00A00F5CFA5F071ECBD
:1007880026F09EC032F19FC033F1A0C034F1A1C061
:1007980035F132C1ABF033C1ACF034C1ADF035C185
:1007A800AEF00A0E0001AF6F000EB06F000EB16F11
:1007B800000EB26F77EC27F0ABC032F1ACC033F16A
:1007C800ADC034F1AEC035F101013251300F83ECC8
:1007D8002CF03AC1ABF03BC1ACF03CC1ADF03DC12F
:1007E800AEF001014351040DB70EF324F66EFD0E71
:1007F800F420F76E0900F5CFAFF00900F5CFB0F09F
:100808000900F5CFB1F00A00F5CFB2F077EC27F088
:10081800ABC03AF1ACC03BF1ADC03CF1AEC03DF16C
:100828000101430701014329D8B408D08BD7300E02
:1008380083EC2CF001013007D8A0310701013051B9
:1008480001013111D8B4C6D1F2D7C00E01013E154D
:100858000101246F000E01013F150101256F0101FF
:10086800245101012511D8A423D02EC1D9FF2FC1AD
:10087800DAFFDECF3AF1DDCF3BF10101000E3BBFDD
:10088800FF0E3C6F3D6F020E01012E27000E2F2335
:1008980001013DAF6ED0030E01013E1301013D1F62
:1008A8003C1F3B1F3A6D000E3B233C233D2361D088
:1008B8002EC1D9FF2FC1DAFFDECF24F1DDCF25F11C
:1008C80024C13AF125C13BF101013C6B3D6B020E9D
:1008D80001012E27000E2F234CD0010E0101436F7A
:1008E8000A0E01014319D8B450D001014351040D37
:1008F800B70EF324F66EFD0EF420F76E0900F550DE
:1009080001013A5D0900F55001013B590900F55014
:1009180001013C590900F55001013D59D8A035D0D5
:100928000101432BDDD7010E0101436F080E0101C0
:100938004319D8B42AD001014351040D2D0EF324D4
:10094800F66EFE0EF420F76E0900F55001013A5DCF
:100958000900F55001013B590900F55001013C59C6
:100968000900F55001013D59D8A00FD00101432BD2
:10097800DDD701013E51C00B000AD8B4AED7800ABA
:10098800D8B4D1D7400AD8B4A8D70101365101014B
:100998003711D8B414D0030E01013E150101246F9C
:1009A800000E01013F150101256F010124510101CC
:1009B8002511D8B404D001013607D8A03707800E16
:1009C800010143BF7F0E0101246F0101365101016E
:1009D800435D01013751800A01012459D8B00BD079
:1009E800010143510101365F000E010143BFFF0EB3
:1009F8000101375B05D0000E0101376F000E366F1D
:100A080001013EA521D0030E01013E150101246F0D
:100A1800000E01013F150101256F0101245101015B
:100A28002511D8B403D02D0E83EC2CF001013651DA
:100A380001013711D8B42ED0300E83EC2CF001010F
:100A48003607D8A03707F2D701013651010137110F
:100A5800D8B40DD0200E83EC2CF001013607D8A0B5
:100A680037070101365101013711D8A4F3D7030E16
:100A780001013E150101246F000E01013F1501011E
:100A8800256F0101245101012511D8B403D02D0E81
:100A980083EC2CF0010143510101306F316B30BF01
:100AA80031078DD030C124F131C125F10101D89031
:100AB800243725370101D89024372537B70E01018F
:100AC8002425F66EFD0E2521F76E0900F5CFA2F05C
:100AD8000900F5CFA3F00900F5CFA4F00A00F5CF7F
:100AE800A5F03AC19EF03BC19FF03CC1A0F03DC1CA
:100AF800A1F071EC26F09EC0ABF09FC0ACF0A0C096
:100B0800ADF0A1C0AEF00A0E0001AF6F000EB06FDD
:100B1800000EB16F000EB26F77EC27F00001AB51F9
:100B2800300F0101436F47D03AC19EF03BC19FF09F
:100B38003CC1A0F03DC1A1F030C124F131C125F183
:100B48000101D890243725370101D890243725375B
:100B58002D0E01012425F66EFE0E2521F76E0900E3
:100B6800F5CFA2F00900F5CFA3F00900F5CFA4F066
:100B78000A00F5CFA5F071EC26F000019E510F0B8D
:100B880001012D6F01012D51010D250EF324F66E83
:100B9800FF0EF420F76E0800F5CF43F10CD00101E9
:100BA8003E51C00B000AD8B47DD7800AD8B4BCD750
:100BB800400AD8B477D70101435183EC2CF00101E6
:100BC8003007D8A0310701013029E9E101013129B5
:100BD800D8A4E5D71CC1F6FF1DC1F7FF01011C4BC6
:100BE8001D2B0800F5CF43F101014351D8B4120081
:100BF80011EF00F04B0E596E000E5A6EDFEF0AF03F
:100C0800250E6E18D8B405D06E5093EC2CF0DFEF9B
:100C18000AF0000E626E000E616E000E6A6E000E23
:100C2800696E03D06984494A4A2A49C0F6FF4AC016
:100C3800F7FF0800F550300AD8B4F4D749C0F6FFDA
:100C48004AC0F7FF0800F55055EC2CF0D8A03AD070
:100C5800000E626E000E616E61C00FF062C010F08F
:100C6800000E126E0A0E116E1FEC2CF00FC061F010
:100C780010C062F0D00E4F6EFF0E506E49C0F6FFE6
:100C88004AC0F7FF0800F550516E526A4F5051267E
:100C9800505052225150612652506222494A4A2AE3
:100CA80049C0F6FF4AC0F7FF0800F55055EC2CF094
:100CB800D8A008D0D1D76A8423D0698E21D0C00E9D
:100CC80069121ED049C0F6FF4AC0F7FF494A4A2AAE
:100CD8000800F5CF6EF06E50000AD8B41200640A0E
:100CE800D8B40ED0020AD8B4E6D70F0AD8B408D0C0
:100CF8001C0AD8B4E4D70D0AD8B4DFD7DFEF0AF05E
:100D0800070E6A14D8B4ECD2000E5C6E060E5B6E49
:100D180059C0D9FF5AC0DAFFDECF6BF0DECF6CF0D6
:100D2800DDCF6DF0030E5926000E5A226DAE10D09D
:100D38006BC001F06CC002F06DC003F032EC2CF017
:100D480001C06BF002C06CF003C06DF0030E6912B5
:100D5800000E646E000E636E6B506C106D10D8B48C
:100D680083D0820E4F6EFF0E506E6BC051F06CC078
:100D780052F06DC053F06EC054F0100E05D0D890EC
:100D88005432533252325132E82EF9D751504F244F
:100D9800636E000E5020646E6306D8A0640663C0BC
:100DA8000FF064C010F0000E126E030E116E1FECEF
:100DB8002CF00FC063F010C064F063C007F064C08B
:100DC80008F0000E0A6E0A0E096E54EC28F007C0EF
:100DD80063F008C064F064AE03D06306D8A064066C
:100DE800635000086AEC11F024C05DF025C05EF085
:100DF80026C05FF05DC015F05EC016F05FC017F04A
:100E08006BC018F06CC019F06DC01AF0B2EC22F08B
:100E180015C05DF016C05EF017C05FF05DC001F050
:100E28005EC002F05FC003F0000E046E800E056E17
:100E38003F0E066EC4EC27F0D8B004D06306D8A0E5
:100E4800640612D05DC001F05EC002F05FC003F01E
:100E5800000E046E200E056E410E066EC4EC27F0DF
:100E6800D8A002D0634A642A5CBE06D05C501BE15D
:100E78000D0E5B5CD8B017D06BC02EF06CC02FF095
:100E88006DC030F05B50ECEC15F024C031F025C09B
:100E980032F026C033F003EC18F02EC06BF02FC0F0
:100EA8006CF030C06DF064BE06D064501EE10A0ECE
:100EB800635CD8B01AD06B506C106D10D8B451D098
:100EC8006BC03AF06CC03BF06DC03CF038EC22F0DF
:100ED8003A503B103C103D10D8B464BE42D0645028
:100EE80004E1020E635CD8A03CD05DC001F05EC096
:100EF80002F05FC003F0700E046E890E056E400E9E
:100F0800066EC4EC27F0D8B002D0F70E01D0F80E68
:100F18006326FF0E642263506AEC11F024C05DF072
:100F280025C05EF026C05FF06BC001F06CC002F017
:100F38006DC003F05DC004F05EC005F05FC006F050
:100F4800F3EC1DF001C065F002C066F003C067F065
:100F580004C068F0000E6B6E000E6C6E000E6D6EB5
:100F680032D06BC03AF06CC03BF06DC03CF038EC4E
:100F780022F03AC065F03BC066F03CC067F03DC067
:100F880068F06BC03AF06CC03BF06DC03CF065C0D7
:100F980009F066C00AF067C00BF068C00CF050ECAE
:100FA8002AF009C03DF00AC03EF00BC03FF039EC12
:100FB8002BF03AC06BF03BC06CF03CC06DF0000EFB
:100FC800646E000E636E010E6E6E0A0E6E18D8B453
:100FD80018D06E50040DB70EF324F66EFD0EF420F3
:100FE800F76E0900F550655C0900F5506658090070
:100FF800F55067580900F5506858D8A002D06E2AF5
:10100800E4D76EC04FF0506A4FBE50065B504F2673
:101018005C50502263504F26645050224F50615EFE
:101028005050625A5B505C10D8B403D06106D8A007
:101038006206030E69144F6E000E6A14506E4F500C
:101048005010D8B403D06106D8A0620669A422D093
:10105800030E69144F6E000E6A14506E4F505010F4
:10106800D8B40AD02D0E93EC2CF006D0300E93ECA9
:101078002CF06106D8A0620662BE65D06250F6E127
:101088006104D8A060D0F2D7200E93EC2CF0610652
:10109800D8A0620662BE05D06250F6E16104D8B0FD
:1010A800F3D7030E69144F6E000E6A14506E4F503A
:1010B8005010D8B448D02D0E93EC2CF044D065C015
:1010C80001F066C002F067C003F068C004F06E501B
:1010D800040DB70EF324F66EFD0EF420F76E09002A
:1010E800F5CF05F00900F5CF06F00900F5CF07F0B8
:1010F8000A00F5CF08F096EC28F001C05DF002C0B8
:101108005EF003C05FF004C060F05DC00EF05EC02A
:101118000FF05FC010F060C011F00A0E126E000EE2
:10112800136E000E146E000E156EBDEC29F00EC085
:101138005DF00FC05EF010C05FF011C060F05D5050
:10114800300F93EC2CF06E066E28D8B407D0B7D7C2
:10115800300E93EC2CF06306D8A0640664BE05D06C
:101168006450F6E16304D8B0F3D75CBE09D05C5094
:1011780004E1090E5B5CD8A003D0080E6E6E02D0A5
:101188005BC06EF06E505B5E000E6EBEFF0E5C5A6A
:101198006E50D8B403D02E0E93EC2CF06E506AEC3F
:1011A80011F024C055F025C056F026C057F06BC08A
:1011B80018F06CC019F06DC01AF055C015F056C083
:1011C80016F057C017F0B2EC22F015C03AF016C06E
:1011D8003BF017C03CF038EC22F03AC065F03BC059
:1011E80066F03CC067F03DC068F06AD065C001F0A9
:1011F80066C002F067C003F068C004F06E50040DCA
:10120800B70EF324F66EFD0EF420F76E0900F5CF45
:1012180005F00900F5CF06F00900F5CF07F00A0040
:10122800F5CF08F096EC28F001C05DF002C05EF042
:1012380003C05FF004C060F05DC00EF05EC00FF048
:101248005FC010F060C011F00A0E126E000E136E2F
:10125800000E146E000E156EBDEC29F00EC05DF088
:101268000FC05EF010C05FF011C060F05D50300F2D
:1012780093EC2CF065C00EF066C00FF067C010F05C
:1012880068C011F06E50040DB70EF324F66EFD0E13
:10129800F420F76E0900F5CF12F00900F5CF13F02E
:1012A8000900F5CF14F00A00F5CF15F0BDEC29F0D0
:1012B8000EC065F00FC066F010C067F011C068F08E
:1012C8006E066E28D8B407D091D7300E93EC2CF068
:1012D8005B06D8A05C065B505C10D8B46CD1F5D71F
:1012E800C00E69144F6E000E6A14506E4F505010A5
:1012F800D8A41ED059C0D9FF5AC0DAFFDECF65F096
:10130800DDCF66F0000E66BEFF0E676E686E020ED9
:101318005926000E5A2268AE5AD0030E6912681E6A
:10132800671E661E656C000E6622672268224FD013
:1013380059C0D9FF5AC0DAFFDECF4FF0DDCF50F0E9
:101348004FC065F050C066F0676A686A020E592699
:10135800000E5A223CD0010E6E6E0A0E6E18D8B4DA
:1013680041D06E50040DB70EF324F66EFD0EF42036
:10137800F76E0900F550655C0900F55066580900DC
:10138800F55067580900F5506858D8A02BD06E2A38
:10139800E4D7010E6E6E080E6E18D8B423D06E50C6
:1013A800040D2D0EF324F66EFE0EF420F76E0900E0
:1013B800F550655C0900F55066580900F550675806
:1013C8000900F5506858D8A00DD06E2AE4D76950A6
:1013D800C00B000AD8B4BFD7800AD8B4DAD7400AFD
:1013E800D8B4B9D761506210D8B40DD0030E6914BF
:1013F8004F6E000E6A14506E4F505010D8B403D080
:101408006106D8A06206800E6EBE7F0E4F6E6150D8
:101418006E5C6250800A4F58D8B007D06E50615E3B
:10142800000E6EBEFF0E625A04D0000E626E000EF1
:10143800616E69A418D0030E69144F6E000E6A1409
:10144800506E4F505010D8B403D02D0E93EC2CF0A2
:1014580061506210D8B422D0300E93EC2CF06106A3
:10146800D8A06206F5D761506210D8B40AD0200E11
:1014780093EC2CF06106D8A0620661506210D8A4E3
:10148800F6D7030E69144F6E000E6A14506E4F5053
:101498005010D8B403D02D0E93EC2CF06E505B6E28
:1014A8005C6A5BBE5C067FD05BC04FF05CC050F0EE
:1014B800D8904F365036D8904F365036B70E4F2406
:1014C800F66EFD0E5020F76E0900F5CF05F0090005
:1014D800F5CF06F00900F5CF07F00A00F5CF08F0C0
:1014E80065C001F066C002F067C003F068C004F090
:1014F80096EC28F001C00EF002C00FF003C010F007
:1015080004C011F00A0E126E000E136E000E146E57
:10151800000E156EBDEC29F00E50300F6E6E40D0E7
:1015280065C001F066C002F067C003F068C004F04F
:101538005BC04FF05CC050F0D8904F365036D89012
:101548004F3650362D0E4F24F66EFE0E5020F76E95
:101558000900F5CF05F00900F5CF06F00900F5CF31
:1015680007F00A00F5CF08F096EC28F001500F0BB1
:10157800586E5850010D250EF324F66EFF0EF42018
:10158800F76E0800F5CF6EF00BD06950C00B000A5B
:10159800D8B48AD7800AD8B4C3D7400AD8B484D775
:1015A8006E5093EC2CF05B06D8A05C065B28EDE14E
:1015B8005C28D8A4EAD749C0F6FF4AC0F7FF494AD1
:1015C8004A2A0800F5CF6EF06E50D8B4120004EF26
:1015D80006F00101066F010106AF2AD10101066D6F
:1015E80001010651800A120FD8A0ACD0000E0001EC
:1015F800AF6F030EAE6F000E0001A76F0A0EA66F45
:10160800000E0001A16F640EA06F010106510001D8
:101618009E6F9F6B9EBF9F0726EC27F09EC0A4F08D
:101628009FC0A5F012EC26F0090E0001A4250001C8
:10163800AC6F000E0001A5210001AD6FADEC2BF0E1
:10164800DF0E0001AC25F66EFD0E0001AD21F76E30
:101658000900F5CFB5F00900F5CFB6F00A00F5CFCF
:10166800B7F0000E0001A76F640EA66F01010651C6
:101678000001A46FA56BA4BFA50712EC26F0120EFB
:101688000001A4250001AC6F000E0001A521000196
:10169800AD6F000E0001AF6F030EAE6FADEC2BF017
:1016A800DF0E0001AC25F66EFD0E0001AD21F76ED0
:1016B8000900F5CFB2F00900F5CFB3F00A00F5CF75
:1016C800B4F0FCEC1BF0B2C003F1B3C004F1B4C039
:1016D80005F103C1B2F004C1B3F005C1B4F0000EC6
:1016E8000001AF6F030EAE6F000E0001A16F0A0E6E
:1016F800A06F0101065100019E6F9F6B9EBF9F075F
:1017080026EC27F09EC0ACF09FC0ADF0ADEC2BF0FE
:10171800DF0E0001AC25F66EFD0E0001AD21F76E5F
:101728000900F5CFB5F00900F5CFB6F00A00F5CFFE
:10173800B7F0FCEC1BF0B2C000F1B3C001F1B4C0CB
:1017480002F1120001010651800A750FD8A05DD080
:10175800000E0001A76F0A0EA66F010106510001D5
:10176800A46FA56BA4BFA50712EC26F0090E000113
:10177800A4250001AC6F000E0001A5210001AD6F8A
:10178800000E0001AF6F030EAE6FADEC2BF0DF0E55
:101798000001AC25F66EFD0E0001AD21F76E0900C3
:1017A800F5CFB2F00900F5CFB3F00A00F5CFB4F0E9
:1017B800000E0001AF6F030EAE6F000E0001A16FA7
:1017C8000A0EA06F0101065100019E6F9F6B9EBF1C
:1017D8009F0726EC27F09EC0ACF09FC0ADF0ADECA3
:1017E8002BF0DF0E0001AC25F66EFD0E0001AD21D9
:1017F800F76E0900F5CFB5F00900F5CFB6F00A008D
:10180800F5CFB7F0FCEC1BF096D701010651030D9C
:10181800DF0EF324F66EFD0EF420F76E0900F5CF07
:1018280000F10900F5CF01F10A00F5CF02F112002D
:1018380001010651800A120FD8A0ACD0000E000199
:10184800AF6F030EAE6F000E0001A76F0A0EA66FF2
:10185800000E0001A16F640EA06F01010651000186
:101868009E6F9F6B9EBF9F0726EC27F09EC0A4F03B
:101878009FC0A5F012EC26F0090E0001A425000176
:10188800AC6F000E0001A5210001AD6FADEC2BF08F
:10189800060E0001AC25F66EFE0E0001AD21F76EB6
:1018A8000900F5CFB5F00900F5CFB6F00A00F5CF7D
:1018B800B7F0000E0001A76F640EA66F0101065174
:1018C8000001A46FA56BA4BFA50712EC26F0120EA9
:1018D8000001A4250001AC6F000E0001A521000144
:1018E800AD6F000E0001AF6F030EAE6FADEC2BF0C5
:1018F800060E0001AC25F66EFE0E0001AD21F76E56
:101908000900F5CFB2F00900F5CFB3F00A00F5CF22
:10191800B4F0FCEC1BF0B2C003F1B3C004F1B4C0E6
:1019280005F103C1B2F004C1B3F005C1B4F0000E73
:101938000001AF6F030EAE6F000E0001A16F0A0E1B
:10194800A06F0101065100019E6F9F6B9EBF9F070C
:1019580026EC27F09EC0ACF09FC0ADF0ADEC2BF0AC
:10196800060E0001AC25F66EFE0E0001AD21F76EE5
:101978000900F5CFB5F00900F5CFB6F00A00F5CFAC
:10198800B7F0FCEC1BF0B2C000F1B3C001F1B4C079
:1019980002F1120001010651800A750FD8A05DD02E
:1019A800000E0001A76F0A0EA66F01010651000183
:1019B800A46FA56BA4BFA50712EC26F0090E0001C1
:1019C800A4250001AC6F000E0001A5210001AD6F38
:1019D800000E0001AF6F030EAE6FADEC2BF0060EDC
:1019E8000001AC25F66EFE0E0001AD21F76E090070
:1019F800F5CFB2F00900F5CFB3F00A00F5CFB4F097
:101A0800000E0001AF6F030EAE6F000E0001A16F54
:101A18000A0EA06F0101065100019E6F9F6B9EBFC9
:101A28009F0726EC27F09EC0ACF09FC0ADF0ADEC50
:101A38002BF0060E0001AC25F66EFE0E0001AD215E
:101A4800F76E0900F5CFB5F00900F5CFB6F00A003A
:101A5800F5CFB7F0FCEC1BF096D701010651030D4A
:101A6800060EF324F66EFE0EF420F76E0900F5CF8D
:101A780000F10900F5CF01F10A00F5CF02F11200DB
:101A88000600FACF90F0FBCF91F0E9CF92F0EACFC1
:101A980093F0E1CF94F0E2CF95F0D9CF96F0DACF7A
:101AA80097F0F3CF98F0F4CF99F0F6CF9AF0F7CFFC
:101AB8009BF0F8CF9CF0F5CF9DF0F0B009D134D170
:101AC800898489EC29F059C1DFF058C1DEF0000E95
:101AD8007B6E000E7A6E7BBE06D07B5014E1050E3D
:101AE8007A5CD8B010D0D8907A34D96E7B34DA6E5C
:101AF800460ED926010EDA22000EDE6E000EDD6ECD
:101B08007A4A7B2AE8D7010E99EC2CF0020E0001E4
:101B18008F6F450E00018E6FA90EE82EFED78E2F0F
:101B2800FCD78F2FFAD700D0800E99EC2CF0E10E5D
:101B3800496EFF0E4A6EFEEC05F001018569866963
:101B4800020EB8D00101854B862B050E0001E06F0F
:101B58001F0E8118D8A4E6D0FBD781C18EF082C1B0
:101B68008FF000018E1F8F1F8E4B8F2B01016D513F
:101B780000018E2501017B6F01016E5100018F214B
:101B880001017C6F010185698669060E93D0010108
:101B980085698669040E8ED08994F29AD59E89EC5F
:101BA80029F059C1DDF058C1DCF0DFC075F0766A64
:101BB80035EC20F075C078F076C079F078C00FF079
:101BC80079C010F0000E126E3C0E116E1FEC2CF056
:101BD8000FC08EF010C08FF0DEC075F0766A35EC5D
:101BE80020F0755000018E250101816F76500001AB
:101BF8008F210101826FDDC075F0766A35EC20F027
:101C080075C078F076C079F078C00FF079C010F020
:101C1800000E126E3C0E116E1FEC2CF00FC08EF0F1
:101C280010C08FF0DCC075F0766A35EC20F0755086
:101C380000018E2501016D6F765000018F21010191
:101C48006E6F010E99EC2CF0010185698669030E0F
:101C580031D00EEC24F0800E99EC2CF0B60E496EC3
:101C6800FE0E4A6EC2C04BF0C3C04CF0C4C04DF06B
:101C7800C5C04EF0FEEC05F0C00E99EC2CF09E0E9F
:101C8800496EFE0E4A6EC6C04BF0C7C04CF0C8C0C5
:101C98004DF0C9C04EF0FEEC05F044D08994F29E98
:101CA800D59E010E99EC2CF0010E04D00101856936
:101CB8008669000E0001E06F35D0000E01017E6FCD
:101CC800010E04D0000E01017E6F000E7D6F2AD038
:101CD80081380F0B00018E6F8F6B00018F51000A46
:101CE800D8A420D000018E51000AD8B4E9D6010A40
:101CF800D8B428D7030AD8B430D7010AD8B447D7FC
:101D0800070AD8B449D7010AD8B4A3D7020AD8B465
:101D1800D4D70C0AD8B4D6D7070AD8B4BFD7020A82
:101D2800D8B4C4D7F090B8D09EA01DD07E50D8B4F7
:101D380007D08B90400ECF6E850ECE6E000E10D061
:101D48008B8001017D5101017E11D8B404D0F60EBB
:101D5800CF6E180E03D0F20ECF6E300ECE6E010E7F
:101D68007E6E9E9099D0A1A21FD00001E151D8B4F7
:101D780007D08B92400EB36E850EB26E000E10D057
:101D88008B8201017F5101018011D8B404D0F20E79
:101D9800B36E300E03D0F60EB36E180EB26E010E8F
:101DA8000001E16FA19278D0F2A45CD08994D59E0D
:101DB80089EC29F059C1DDF058C1DCF0DFC075F0BD
:101DC800766A35EC20F075C078F076C079F078C086
:101DD8000FF079C010F0000E126E3C0E116E1FEC61
:101DE8002CF00FC08EF010C08FF0DEC075F0766A50
:101DF80035EC20F0755000018E250101816F765079
:101E080000018F210101826FDDC075F0766A35EC23
:101E180020F075C078F076C079F078C00FF079C0FE
:101E280010F0000E126E3C0E116E1FEC2CF00FC05D
:101E38008EF010C08FF0DCC075F0766A35EC20F0BB
:101E4800755000018E2501016D6F765000018F21BC
:101E580001016E6F030E0001E06F0101856986695B
:101E6800F2941AD0800E99EC2CF0CB0E496EFF0E2E
:101E78004A6EFEEC05F0000E776E630E776401D0B3
:101E8800F1D7210E00018E6F760EE82EFED78E2F29
:101E9800FCD700F0772AF1D79DC0F5FF9CC0F8FF6A
:101EA8009BC0F7FF9AC0F6FF99C0F4FF98C0F3FFF4
:101EB80097C0DAFF96C0D9FF95C0E2FF94C0E1FF52
:101EC80093C0EAFF92C0E9FF91C0FBFF90C0FAFF00
:101ED8007F921100C2C050F1C3C051F1C4C052F189
:101EE800C5C053F1C6C054F1C7C055F1C8C056F1BA
:101EF800C9C057F1F29EBCEC21F00001C3BF47D125
:101F08000001C35105E1120E0001C25DD8A03FD106
:101F1800000E0101706F010E6F6F0101734B742B7E
:101F28000001C3BF0DD02D0E0001C25D010E0001DE
:101F3800C359D8A005D0000E0101786F010E776F44
:101F48000001C3BFA2D00001C35105E11F0E00016B
:101F5800C25DD8A09AD00101755101017611D8A4AB
:101F68008FD0C4C0A6F0C5C0A7F017EC2BF0A6C050
:101F7800D5F0A7C0D6F0A8C0D7F0C8C0A6F0C9C091
:101F8800A7F017EC2BF0A6C0D2F0A7C0D3F0A8C0DA
:101F9800D4F0800E8BEC2CF0F80E01011C6FFF0EB4
:101FA80001011D6FD5C0A6F0D6C0A7F0D7C0A8F014
:101FB800D2C0A9F0D3C0AAF0D4C0ABF0ABEC1CF0EF
:101FC800A6C01EF1A7C01FF1A8C020F109EC00F0BF
:101FD800000E0001B56F000E0001B66F400E000143
:101FE800B76FD2C0A9F0D3C0AAF0D4C0ABF0D5C0A7
:101FF800A6F0D6C0A7F0D7C0A8F0ABEC1CF0A6C0DE
:10200800B8F0A7C0B9F0A8C0BAF04BEC25F00001B1
:10201800D8B005D0000E0001DB6F010E2BD0D2C066
:10202800A9F0D3C0AAF0D4C0ABF0D5C0A6F0D6C0F2
:10203800A7F0D7C0A8F0ABEC1CF0A6C0B5F0A7C0BD
:10204800B6F0A8C0B7F0000E0001B86F400E00014E
:10205800B96F3F0E0001BA6F4BEC25F00001D8B004
:1020680005D0000E0001DB6F020E04D0000E000147
:10207800DB6F000EDA6F000E0101766F010E756FCF
:10208800000E0101726F010E80D00001C3BF08D09D
:102098000001C35104E11E0E0001C25DD8B014D185
:1020A8000101715101017211D8B40ED152C1A6F0CB
:1020B80053C1A7F017EC2BF0A6C068F1A7C069F1CF
:1020C800A8C06AF156C1A6F057C1A7F017EC2BF0CB
:1020D800A6C065F1A7C066F1A8C067F1CD0E0001E2
:1020E800B56F4C0E0001B66F400E0001B76F65C1A9
:1020F800A9F066C1AAF067C1ABF068C1A6F069C1D2
:10210800A7F06AC1A8F0ABEC1CF0A6C0B8F0A7C055
:10211800B9F0A8C0BAF04BEC25F00001D8B005D052
:10212800000E0001D96F010E2BD065C1A9F066C160
:10213800AAF067C1ABF068C1A6F069C1A7F06AC18F
:10214800A8F0ABEC1CF0A6C0B5F0A7C0B6F0A8C0CC
:10215800B7F0000E0001B86F400E0001B96F3F0ED6
:102168000001BA6F4BEC25F00001D8B005D0000E85
:102178000001D96F020E04D0000E0001D96F000EC5
:10218800D86F000E0101726F000E716F9DD00101B2
:102198006F5101017011D8B497D0010174BF94D068
:1021A8000101745105E1150E0101735DD8A08CD0B1
:1021B800000E0101746F000E736F0101464B472B2F
:1021C800000ED76E000ED66E020E0001DA1900015D
:1021D800DB11D8B407D0020E0001D8190001D911BB
:1021E800D8A404D001014C4B4D2B26D00001DA05B0
:1021F8000001DB11D8B406D00001D8050001D911BF
:10220800D8A408D00101484B492B000E01017E6F6C
:10221800010E0DD00101775101017811D8B409D010
:1022280001014A4B4B2B000E01017E6F000E7D6FA2
:1022380008D001014E4B4F2B000E0101806F010E9B
:102248007F6F000E0101706F000E6F6F000E0101AD
:10225800726F000E716F000E0101766F000E756FC0
:10226800000E0101786F000E776FFC0E01011C6FE4
:10227800FF0E01011D6F68C1A6F069C1A7F06AC110
:10228800A8F065C1A9F066C1AAF067C1ABF0ABECD4
:102298001CF0A6C01EF1A7C01FF1A8C020F109ECD0
:1022A80000F0C00E8BEC2CF0F10E01011C6FFF0E3C
:1022B80001011D6FDAC01EF1DBC01FF1D8C020F18B
:1022C800D9C021F109EC00F0F28E12002A6E2AAE74
:1022D800FBD02A6C2A50800A120FD8A091D0000E89
:1022E800126E030E116E000E0A6E0A0E096E000EB3
:1022F800046E640E036E2A50016E026A01BE020665
:1023080051EC29F001C007F002C008F054EC28F0A5
:10231800090E07240F6E000E0820106E1FEC2CF01B
:10232800DF0E0F24F66EFD0E1020F76E0900F5CFB4
:1023380018F00900F5CF19F00A00F5CF1AF0000ED1
:102348000A6E640E096E2A50076E086A07BE0806F0
:1023580054EC28F0120E07240F6E000E0820106EA1
:10236800000E126E030E116E1FEC2CF0DF0E0F2400
:10237800F66EFD0E1020F76E0900F5CF15F0090076
:10238800F5CF16F00A00F5CF17F0B2EC22F015C021
:1023980027F016C028F017C029F027C015F028C06C
:1023A80016F029C017F0000E126E030E116E000E03
:1023B800046E0A0E036E2A50016E026A01BE0206FE
:1023C80051EC29F001C00FF002C010F01FEC2CF006
:1023D800DF0E0F24F66EFD0E1020F76E0900F5CF04
:1023E80018F00900F5CF19F00A00F5CF1AF0B2EC91
:1023F80022F015C024F016C025F017C026F01200F0
:102408002A50800A750FD8A04DD0000E0A6E0A0E09
:10241800096E2A50076E086A07BE080654EC28F0B1
:10242800090E07240F6E000E0820106E000E126EA3
:10243800030E116E1FEC2CF0DF0E0F24F66EFD0E4E
:102448001020F76E0900F5CF15F00900F5CF16F04A
:102458000A00F5CF17F0000E126E030E116E000E73
:10246800046E0A0E036E2A50016E026A01BE02064D
:1024780051EC29F001C00FF002C010F01FEC2CF055
:10248800DF0E0F24F66EFD0E1020F76E0900F5CF53
:1024980018F00900F5CF19F00A00F5CF1AF0B2ECE0
:1024A80022F0A7D72A50030DDF0EF324F66EFD0E97
:1024B800F420F76E0900F5CF24F00900F5CF25F0D8
:1024C8000A00F5CF26F012002A50800A120FD8A071
:1024D80091D0000E126E030E116E000E0A6E0A0ED7
:1024E800096E000E046E640E036E2A50016E026AB5
:1024F80001BE020651EC29F001C007F002C008F045
:1025080054EC28F0090E07240F6E000E0820106EF8
:102518001FEC2CF0060E0F24F66EFE0E1020F76E40
:102528000900F5CF18F00900F5CF19F00A00F5CF2A
:102538001AF0000E0A6E640E096E2A50076E086AB9
:1025480007BE080654EC28F0120E07240F6E000E82
:102558000820106E000E126E030E116E1FEC2CF088
:10256800060E0F24F66EFE0E1020F76E0900F5CF4A
:1025780015F00900F5CF16F00A00F5CF17F0B2EC08
:1025880022F015C027F016C028F017C029F027C080
:1025980015F028C016F029C017F0000E126E030EB1
:1025A800116E000E046E0A0E036E2A50016E026A46
:1025B80001BE020651EC29F001C00FF002C010F074
:1025C8001FEC2CF0060E0F24F66EFE0E1020F76E90
:1025D8000900F5CF18F00900F5CF19F00A00F5CF7A
:1025E8001AF0B2EC22F015C024F016C025F017C07E
:1025F80026F012002A50800A750FD8A04DD0000E80
:102608000A6E0A0E096E2A50076E086A07BE080687
:1026180054EC28F0090E07240F6E000E0820106EE7
:10262800000E126E030E116E1FEC2CF0060E0F2416
:10263800F66EFE0E1020F76E0900F5CF15F00900B2
:10264800F5CF16F00A00F5CF17F0000E126E030E44
:10265800116E000E046E0A0E036E2A50016E026A95
:1026680001BE020651EC29F001C00FF002C010F0C3
:102678001FEC2CF0060E0F24F66EFE0E1020F76EDF
:102688000900F5CF18F00900F5CF19F00A00F5CFC9
:102698001AF0B2EC22F0A7D72A50030D060EF32445
:1026A800F66EFE0EF420F76E0900F5CF24F009004F
:1026B800F5CF25F00A00F5CF26F012000101096FC9
:1026C8006D0E01010965BAD0000E0001AF6F030E4F
:1026D800AE6F000E0001A76F0A0EA66F000E000174
:1026E800A16F640EA06F09C19EF000019F6B26ECDC
:1026F80027F09EC0A4F09FC0A5F012EC26F0090EAA
:102708000001A4250001AC6F000E0001A521000105
:10271800AD6FADEC2BF0DF0E0001AC25F66EFD0EB3
:102728000001AD21F76E0900F5CFB5F00900F5CF2E
:10273800B6F00A00F5CFB7F0000E0001A76F640EDF
:10274800A66F09C1A4F00001A56B12EC26F0120EC9
:102758000001A4250001AC6F000E0001A5210001B5
:10276800AD6F000E0001AF6F030EAE6FADEC2BF036
:10277800DF0E0001AC25F66EFD0E0001AD21F76EEF
:102788000900F5CFB2F00900F5CFB3F00A00F5CF94
:10279800B4F0FCEC1BF0B2C006F1B3C007F1B4C052
:1027A80008F1000E0001AF6F030EAE6F000E0001BE
:1027B800A16F0A0EA06F09C19EF000019F6B26EC65
:1027C80027F09EC0ACF09FC0ADF0ADEC2BF0DF0E53
:1027D8000001AC25F66EFD0E0001AD21F76E090073
:1027E800F5CFB5F00900F5CFB6F00A00F5CFB7F090
:1027F80006C1B2F007C1B3F008C1B4F0FCEC1BF09D
:10280800B2C003F1B3C004F1B4C005F103C1B2F022
:1028180004C1B3F005C1B4F0000E0001B56F000E9D
:102828000001B66F3F0E0001B76FFCEC1BF0B2C0A1
:1028380000F1B3C001F1B4C002F112000A0E0101A7
:1028480009656ED0000E0001AF6F030EAE6F000E6B
:102858000001A16F0A0EA06F09C19EF000019F6BD5
:1028680026EC27F09EC0ACF09FC0ADF0ADEC2BF08D
:10287800DF0E0001AC25F66EFD0E0001AD21F76EEE
:102888000900F5CFB5F00900F5CFB6F00A00F5CF8D
:10289800B7F0000E0001A76F0A0EA66F09C1A4F0D9
:1028A8000001A56B12EC26F0090E0001A425000119
:1028B800AC6F000E0001A5210001AD6F000E0001F4
:1028C800AF6F030EAE6FADEC2BF0DF0E0001AC2541
:1028D800F66EFD0E0001AD21F76E0900F5CFB2F0DE
:1028E8000900F5CFB3F00A00F5CFB4F0FCEC1BF00B
:1028F800B2C006F1B3C007F1B4C008F106C1B2F026
:1029080007C1B3F008C1B4F0000E0001B56F000EA6
:102918000001B66F3F0E0001B76FFCEC1BF087D7C4
:1029280001010951030DDF0EF324F66EFD0EF420AC
:10293800F76E0900F5CFB2F00900F5CFB3F00A0041
:10294800F5CFB4F0000E0001B56F000E0001B66FB0
:102958003F0E0001B76FFCEC1BF0B2C000F1B3C032
:1029680001F1B4C002F112000CC110F10101116BA8
:10297800126B01010B350101103701E311810101CF
:1029880010510101156F0FC110F10101116B126B8C
:1029980001010E350101103701E3118101011051C8
:1029A8000101146F010115510101D8B411D00101C1
:1029B80014510101155DD8B012D00101155100085C
:1029C800010114250101106F180E0101106507D0CF
:1029D8000DC10AF10EC10BF10FC10CF1120001017A
:1029E80014510101D8B411D0010115510101145D30
:1029F800D8B012D0010114510008010115250101B8
:102A0800106F180E0101106507D00AC10AF10BC139
:102A18000BF10CC10CF11200060E0101136F01013C
:102A28000CAF02D00101138F01010FAF02D00101D9
:102A3800138D01010B8FFF0E01010A17FF0E010113
:102A48000B17000E01010C1701010E8FFF0E01017B
:102A58000D17FF0E01010E17000E01010F170101DE
:102A680014510101155DD8B025D00101D8900D375A
:102A78000E370F370101140701011551010114190F
:102A8800D8B411D00101130713C110F1070E0101C9
:102A98001017D8B408D0E9D70101D8900C330B33FC
:102AA8000A330101152B0101145101011519D8B47C
:102AB8002BD0F2D7010115510101145DD8B024D0F3
:102AC8000101D8900A370B370C37010115070101AE
:102AD800155101011419D8B411D00101130713C1FC
:102AE80010F1070E01011017D8B408D0E9D7010179
:102AF800D8900F330E330D330101142B01011451FB
:102B080001011519D8A4F3D7010113AF12D0FF0E94
:102B180001010A1BFF0E01010B1BFF0E01010C1B1B
:102B2800010E01010A27000E01010B23000E01010D
:102B38000C23010113AD12D0FF0E01010D1BFF0E76
:102B480001010E1BFF0E01010F1B010E01010D27D4
:102B5800000E01010E23000E01010F23000E0101DA
:102B6800136F01010A5101010D2701010B510101E8
:102B78000E2301010C5101010F2301010FAF15D0E4
:102B8800FF0E01010D1BFF0E01010E1BFF0E0101BF
:102B98000F1B010E01010D27000E01010E23000E6F
:102BA80001010F23010E0101136F0DC19EF00EC12B
:102BB8009FF00FC1A0F015C1A1F013C1A2F0AFECB6
:102BC8001FF09EC00AF19FC00BF1A0C00CF11200CB
:102BD8002D6E6D0E2D649FD0000E126E030E116EB9
:102BE800000E0A6E0A0E096E000E046E640E036E65
:102BF8002DC001F0026A51EC29F001C007F002C0B3
:102C080008F054EC28F0090E07240F6E000E082077
:102C1800106E1FEC2CF0DF0E0F24F66EFD0E102048
:102C2800F76E0900F5CF18F00900F5CF19F00A0082
:102C3800F5CF1AF0000E0A6E640E096E2DC007F06B
:102C4800086A54EC28F0120E07240F6E000E0820B4
:102C5800106E000E126E030E116E1FEC2CF0DF0EBC
:102C68000F24F66EFD0E1020F76E0900F5CF15F053
:102C78000900F5CF16F00A00F5CF17F0B2EC22F0F4
:102C880015C02AF016C02BF017C02CF0000E126EDB
:102C9800030E116E000E046E0A0E036E2DC001F0B5
:102CA800026A51EC29F001C00FF002C010F01FECCD
:102CB8002CF0DF0E0F24F66EFD0E1020F76E0900C3
:102CC800F5CF18F00900F5CF19F00A00F5CF1AF082
:102CD8002AC015F02BC016F02CC017F0B2EC22F069
:102CE80015C027F016C028F017C029F027C015F026
:102CF80028C016F029C017F0000E186E000E196EC5
:102D08003F0E1A6EB2EC22F015C024F016C025F062
:102D180017C026F012000A0E2D645DD0000E126E48
:102D2800030E116E000E046E0A0E036E2DC001F024
:102D3800026A51EC29F001C00FF002C010F01FEC3C
:102D48002CF0DF0E0F24F66EFD0E1020F76E090032
:102D5800F5CF18F00900F5CF19F00A00F5CF1AF0F1
:102D6800000E0A6E0A0E096E2DC007F0086A54ECB0
:102D780028F0090E07240F6E000E0820106E000EB2
:102D8800126E030E116E1FEC2CF0DF0E0F24F66E80
:102D9800FD0E1020F76E0900F5CF15F00900F5CFEC
:102DA80016F00A00F5CF17F0B2EC22F015C02AF0A1
:102DB80016C02BF017C02CF02AC015F02BC016F047
:102DC8002CC017F0000E186E000E196E3F0E1A6E0A
:102DD800B2EC22F099D72D50030DDF0EF324F66ED6
:102DE800FD0EF420F76E0900F5CF15F00900F5CFB8
:102DF80016F00A00F5CF17F0000E186E000E196EC7
:102E08003F0E1A6EB2EC22F015C024F016C025F061
:102E180017C026F012005B505C105D10D8A407D0D4
:102E2800000E5B6E800E5C6E3F0E5D6E1200720EC1
:102E3800016E310E026E440E036E5BC004F05CC07E
:102E480005F05DC006F0C4EC27F0D8B00CD0000E39
:102E580001016C6F220E6B6FFF0E5B6E7F0E5C6E56
:102E68007F0E5D6E12005BC001F05CC002F05DC0B9
:102E780003F0490E046E3A0E056EC40E066EC4ECDD
:102E880027F0D8B00CD0000E01016C6F220E6B6FCA
:102E9800000E5B6E000E5C6E000E5D6E12005DAE85
:102EA80002D0010E01D0000E636E6350D8B40ED06C
:102EB8005BC001F05CC002F05DC003F032EC2CF0A6
:102EC80001C05BF002C05CF003C05DF05BC015F0B0
:102ED8005CC016F05DC017F0AA0E186EB80E196E19
:102EE8003F0E1A6EB2EC22F015C05BF016C05CF013
:102EF80017C05DF05BC053F05CC054F05DC055F086
:102F08009FEC23F053C05EF054C05FF055C060F0F2
:102F18005EC03AF05FC03BF060C03CF038EC22F095
:102F28003AC061F03BC062F05BC03AF05CC03BF075
:102F38005DC03CF061C009F062C00AF076EC2BF08D
:102F480009C03DF00AC03EF00BC03FF039EC2BF051
:102F58003AC05BF03BC05CF03CC05DF05BC03AF04F
:102F68005CC03BF05DC03CF0650E3D6EFE0E3E6EF3
:102F7800000E406E090E3F6EE2EC24F03AC046F0B7
:102F88003BC047F03CC048F061C049F062C04AF01D
:102F9800AFEC25F046C05BF047C05CF048C05DF080
:102FA8006350D8B425D05B280EE17F0E5C180BE186
:102FB8007F0E5D18D8A407D0000E5B6E000E5C6E05
:102FC800000E5D6E1200000E096E800E0A6E3F0E36
:102FD8000B6E5BC00CF05CC00DF05DC00EF02CEC0D
:102FE80023F009C05BF00AC05CF00BC05DF0120072
:102FF8005BC05BF05CC05CF05DC05DF0120030C08F
:1030080034F0356A366A2F34343601E3358034506B
:10301800396E33C034F0356A366A3234343601E3F7
:1030280035803450386E3950D8B40BD03850395CAC
:10303800D8B00ED0395000083824346E180E3464D5
:1030480007D031C02EF032C02FF033C030F012005C
:103058003850D8B40BD03950385CD8B00ED038506E
:1030680000083924346E180E346407D02EC02EF0B0
:103078002FC02FF030C030F01200060E376E30BE71
:10308800378E33BE378C2F8EFF0E2E16FF0E2F165F
:10309800000E3016328EFF0E3116FF0E3216000E5D
:1030A80033163850395CD8B01BD0D8903136323608
:1030B8003336380639503818D8B40DD0370637C0EB
:1030C80034F0070E3416D8B406D0EFD7D890303283
:1030D8002F322E32392A38503918D8B41FD0F6D7A3
:1030E8003950385CD8B01AD0D8902E362F363036B2
:1030F800390639503818D8B40DD0370637C034F0EF
:10310800070E3416D8B406D0EFD7D89033323232FF
:103118003132382A38503918D8A4F7D737AE0CD0FE
:10312800FF0E2E1AFF0E2F1AFF0E301A010E2E2632
:10313800000E2F22000E302237AC0CD0FF0E311AB1
:10314800FF0E321AFF0E331A010E3126000E3222FC
:10315800000E3322000E376E2E5031262F503222A9
:103168003050332233AE0ED0FF0E311AFF0E321A12
:10317800FF0E331A010E3126000E3222000E3322C2
:10318800010E376E31C001F032C002F033C003F0D7
:1031980039C004F037C005F0CFEC26F001C02EF09E
:1031A80002C02FF003C030F01200FB0E926E93683D
:1031B800000E946E000E956E000E966E000E896ECF
:1031C800000E8A6E000E8B6E000E8C6E000E8D6ED9
:1031D800000EC26EC168F28EF28CF086F298F098FA
:1031E800F19E7EEC2AF0100E0001AB6F270EAC6F3B
:1031F800000EAD6F000EAE6F20EC2AF03DEC21F012
:10320800000ED76E000ED66ED59CD59AD596D5846D
:10321800D582D580000ECF6E000ECE6E000E7E6E6B
:10322800000E01017E6F010E7D6F810ECD6ECD8087
:10323800CD92CD9ACD989D80000EB36E000EB26EE1
:10324800000E0001E16F000E0101806F010E7F6F1B
:10325800410EB16EB180B192B19AB198A082000EC0
:103268000001E06F5FD059EC2BF0070E0101456FAC
:10327800580E0101446F590EE82EFED7442FFCD793
:10328800452FFAD74ED044EC2CF04CD06EEC0FF012
:103298000A0E0101446FBC0EE82EFED7442FFCD75E
:1032A80000F040D064EC2CF0070E0101456F580E79
:1032B8000101446F590EE82EFED7442FFCD7452F45
:1032C800FAD72FD079EC24F0040E0101456FCF0E08
:1032D8000101446F010EE82EFED7442FFCD7452F7D
:1032E800FAD71FD0BBEC20F0040E0101456FCF0EBA
:1032F8000101446F010EE82EFED7442FFCD7452F5D
:10330800FAD70FD092EC2BF0040E0101456FCF0EC7
:103318000101446F010EE82EFED7442FFCD7452F3C
:10332800FAD700D00001E051000AD8B49CD7010AAE
:10333800D8B4A9D7030AD8B4A9D7010AD8B4B2D740
:10334800070AD8B4BFD7010AD8B4CCD7030AD8B46F
:10335800D9D7E8D7A0C0A4F00001A56BA66B0001DF
:103368009F350001A43701E3A5810001A4510001A4
:10337800AC6F0001AC51D8A40AD0000E00019E6FBA
:10338800000E9F6F000EA06F000EA16F1200A3C069
:10339800A4F00001A56BA66B0001A2350001A437BB
:1033A80001E3A5810001A4510001AB6F0001AB51FD
:1033B800D8A40AD0000E00019E6F000E9F6F000E69
:1033C800A06F000EA16F120000019F8FFF0E000179
:1033D8009E17FF0E00019F17000E0001A0170001A5
:1033E800A28FFF0E0001A117FF0E0001A217000E09
:1033F8000001A317000E0001A76F000EA86F000EB2
:10340800A96F000EAA6F7F0E0001AC5F0001AB51DF
:10341800980F0001AC5F180E0001AB6F0001D89047
:10342800A737A837A937AA370001A15100019E5D27
:103438000001A25100019F590001A3510001A059A8
:10344800D8A00ED00001A15100019E5F0001A25139
:1034580000019F5B0001A3510001A05B0001A7814F
:103468000001D8909E379F37A0370001AB2FD6D7E1
:103478000001ACAF1AD00001AC51800A970FD8B048
:103488000AD0000E00019E6F000E9F6F000EA06F05
:10349800000EA16F12000001D890AA33A933A833F7
:1034A800A7330001AC3FF7D71BD0170E0001AC655E
:1034B80012D0000E00019E6F000E9F6F000EA06FCD
:1034C800000EA16F12000001D890A737A837A937BE
:1034D800AA370001AC070001AC510001D8A4F3D70A
:1034E800A7C09EF0A8C09FF0A9C0A0F0AAC0A1F0F4
:1034F80012000001A035A1350001A96F0001A951F2
:10350800D8A40AD0000E00019E6F000E9F6F000E17
:10351800A06F000EA16F12000001A335A4350001B1
:10352800A86F0001A851D8A40AD0000E00019E6F10
:10353800000E9F6F000EA06F000EA16F1200000119
:10354800A08FFF0E00019E17FF0E9F17FF0EA017FA
:10355800000EA1170001A38FFF0E0001A117FF0E97
:10356800A217FF0EA317000EA417000E0001A46FE8
:10357800000EA56F000EA66F000EA76F7F0E00014C
:10358800A95F0001A851A00F0001A95F200E00014A
:10359800A86F0001D890A437A537A637A737000130
:1035A800A15100019E5D0001A25100019F59000137
:1035B800A3510001A0590001A4510001A159D8A0AC
:1035C80012D00001A15100019E5F0001A25100012B
:1035D8009F5B0001A3510001A05B0001A451000101
:1035E800A15B0001A4810001D8909E379F37A037C6
:1035F800A1370001A82FCDD70001A9AF1AD000012B
:10360800A951800A9F0FD8B00AD0000E00019E6F02
:10361800000E9F6F000EA06F000EA16F1200000138
:10362800D890A733A633A533A4330001A93FF7D711
:103638001BD01F0E0001A96512D0000E00019E6F5D
:10364800000E9F6F000EA06F000EA16F1200000108
:10365800D890A437A537A637A7370001A9070001D6
:10366800A9510001D8A4F3D7A4C09EF0A5C09FF02B
:10367800A6C0A0F0A7C0A1F01200000E706E6450A2
:1036880065106610D8A41CD0000E016E000E026EE4
:10369800000E036E67C004F068C005F069C006F04C
:1036A800C4EC27F0D8A005D0000E01016C6F210EE4
:1036B8006B6F000E646E000E656E000E666E120073
:1036C800675068106910D8A407D0000E646E800E89
:1036D800656E3F0E666E120066AE41D067C03AF066
:1036E80068C03BF069C03CF038EC22F03AC071F099
:1036F8003BC072F03CC073F03DC074F071C009F07B
:1037080072C00AF073C00BF074C00CF050EC2AF0D1
:103718006750091807E168500A1804E169500B1846
:10372800D8B40CD0000E01016C6F210E6B6F000E27
:10373800646E000E656E000E666E12007150010B0D
:10374800706E64C001F065C002F066C003F032EC30
:103758002CF001C064F002C065F003C066F064C0DC
:1037680046F065C047F066C048F020EC1FF046C040
:103778006AF047C06BF048C06CF06AC015F06BC0C7
:1037880016F06CC017F067C018F068C019F069C06F
:103798001AF0B2EC22F015C06DF016C06EF017C02A
:1037A8006FF06DC05BF06EC05CF06FC05DF00FEC49
:1037B80017F05BC064F05CC065F05DC066F07050E7
:1037C800D8B40FD064C001F065C002F066C003F041
:1037D80032EC2CF001C064F002C065F003C066F062
:1037E800120064C064F065C065F066C066F012003F
:1037F800B4C0B8F00001B96BBA6B0001B335000171
:10380800B83701E3B9810001B8510001BB6F00016D
:10381800BB51D8A40AD0000E0001B26F000E0001FF
:10382800B36F000E0001B46F1200B7C0B8F000010A
:10383800B96BBA6B0001B6350001B83701E3B9813D
:103848000001B8510001C06F0001C051D8A40AD0CE
:10385800000E0001B26F000E0001B36F000E0001F0
:10386800B46F12000001C0517B0F0001BB27B4C028
:10387800C0F00001B7510001C01B800E0001C01745
:103888000001B38F0001B68FFF0E0001B517FF0EC0
:103898000001B617000E0001B717000E0001BC6F3B
:1038A800000E0001BD6F000E0001BE6F070E000183
:1038B800BF6F0001B2A10CD00001B5510001BC27B7
:1038C8000001B6510001BD230001B7510001BE231C
:1038D8000001D890B433B333B2330001D890B53770
:1038E800B637B7370001BF2FE4D7090E0001BF6F05
:1038F8000001B2A10CD00001B5510001BC270001A4
:10390800B6510001BD230001B7510001BE230001DB
:10391800D890B433B333B2330001D890BE33BD333B
:10392800BC330001BF2FE4D7BCC09EF0BDC09FF0E0
:10393800BEC0A0F0BBC0A1F0C0C0A2F0AFEC1FF0A9
:103948009EC0B2F09FC0B3F0A0C0B4F01200A8C0EF
:10395800ACF00001AD6BAE6B0001A7350001AC37D0
:1039680001E3AD810001AC510001B36F0001B35117
:10397800D8A40AD0000E0001A66F000E0001A76FA0
:10398800000E0001A86F1200ABC0ACF00001AD6BD7
:10399800AE6B0001AA350001AC3701E3AD8100012F
:1039A800AC510001B46F0001B451D8A40AD0000E84
:1039B8000001A66F000E0001A76F000E0001A86F9E
:1039C8001200000E0001B06F000E0001B16F000E72
:1039D8000001B26F0001B451890F0001B35FA8C0A4
:1039E800B4F00001AB510001B41B800E0001B41704
:1039F8000001A78FFF0E0001A617FF0E0001A717F1
:103A0800000E0001A8170001AA8FFF0E0001A917D8
:103A1800FF0E0001AA17000E0001AB17180E0001D7
:103A2800AF6F0001D890B037B137B2370001A95154
:103A38000001A65D0001AA510001A7590001AB5180
:103A48000001A859D8A00ED00001A9510001A65F15
:103A58000001AA510001A75B0001AB510001A85B5E
:103A68000001B0810001D890A637A737A837000118
:103A7800AF2FD7D7B0C09EF0B1C09FF0B2C0A0F0B2
:103A8800B3C0A1F0B4C0A2F0AFEC1FF09EC0A6F086
:103A98009FC0A7F0A0C0A8F0120009C10BF1010156
:103AA8000C6B0D6B0101083501010B3701E30C812B
:103AB80001010B510101156F01011551D8A40AD05C
:103AC800000E0101076F000E086F000E096F000E4F
:103AD8000A6F1200170E01010B6F07C10CF108C124
:103AE8000DF109C10EF101010B2901010F6F05D07C
:103AF8000101D8900E330D330C3301010F2FF8D785
:103B080001010C510101106F0101088FFF0E010125
:103B18000717FF0E01010817000E0101091701011F
:103B280007510101116F010108510101126F0101D3
:103B380009510101136F0101146B8E0E0101155F0C
:103B4800010115AF1AD001011551800A8F0FD8B0A5
:103B58000AD0000E0101076F000E086F000E096FF2
:103B6800000E0A6F12000101D89014331333123378
:103B780011330101153FF7D71BD0170E0101156549
:103B880012D0000E0101076F000E086F000E096FBA
:103B9800000E0A6F12000101D8901137123713373F
:103BA800143701011507010115510101D8A4F3D7F4
:103BB800010110510101D8B409D00101141F131FCC
:103BC800121F116D000E12231323142311C107F1C4
:103BD80012C108F113C109F114C10AF1120003C09E
:103BE80007F0086A096A0234073601E308800750BB
:103BF8000F6E0F50D8A409D0000E016E000E026E91
:103C0800000E036E000E046E120006C007F0086A6C
:103C1800096A0534073601E3088007500E6E0E5016
:103C2800D8A409D0000E016E000E026E000E036EBD
:103C3800000E046E1200028EFF0E0116FF0E021611
:103C4800000E0316058EFF0E0416FF0E0516000E55
:103C58000616000E0A6E000E0B6E000E0C6E000E9D
:103C68000D6E7F0E0F5E0E50980F0F5E180E0E6EC3
:103C7800D8900A360B360C360D360450015C0550C8
:103C8800025806500358D8A007D00450015E0550CA
:103C9800025A0650035A0A80D89001360236033673
:103CA8000E2EE6D70FAE16D00F50800A970FD8B059
:103CB80009D0000E016E000E026E000E036E000E9B
:103CC800046E1200D8900D320C320B320A320F3EBD
:103CD800F9D715D0170E0F640FD0000E016E000E25
:103CE800026E000E036E000E046E1200D8900A36A3
:103CF8000B360C360D360F060F50D8A4F7D70AC06E
:103D080001F00BC002F00CC003F00DC004F012006B
:103D1800033404340C6E0C50D8A409D0000E016E84
:103D2800000E026E000E036E000E046E12000634C2
:103D380007340B6E0B50D8A409D0000E016E000E8C
:103D4800026E000E036E000E046E1200038EFF0E4C
:103D58000116FF0E0216FF0E0316000E0416068E3D
:103D6800FF0E0416FF0E0516FF0E0616000E0716A8
:103D7800000E076E000E086E000E096E000E0A6E29
:103D88007F0E0C5E0B50A00F0C5E200E0B6ED890B1
:103D98000736083609360A360450015C05500258C1
:103DA8000650035807500458D8A009D00450015EA3
:103DB8000550025A0650035A0750045A0780D890F3
:103DC80001360236033604360B2EE1D70CAE16D078
:103DD8000C50800A9F0FD8B009D0000E016E000E5B
:103DE800026E000E036E000E046E1200D8900A32A6
:103DF8000932083207320C3EF9D715D01F0E0C6471
:103E08000FD0000E016E000E026E000E036E000E43
:103E1800046E1200D8900736083609360A360C06A2
:103E28000C50D8A4F7D707C001F008C002F009C0A9
:103E380003F00AC004F0120048AE0CD0000E0101D5
:103E48006C6F210E6B6F000E466E000E476E000EF3
:103E5800486E1200465047104810D8A40CD0000EE7
:103E680001016C6F220E6B6F000E466E000E476EDE
:103E7800000E486E1200000E186E000E196E400EED
:103E88001A6E490E046E000E056E46C001F047C05A
:103E980002F048C003F00CEC28F001C015F002C095
:103EA80016F003C017F0B2EC22F015C02EF016C0C1
:103EB8002FF017C030F0000E316E800E326EBF0E3C
:103EC800336E03EC18F02EC046F02FC047F030C018
:103ED80048F04906D8A04A0646C03AF047C03BF029
:103EE80048C03CF0830E3D6EFE0E3E6E000E406EE6
:103EF800080E3F6EE2EC24F03AC046F03BC047F0B3
:103F08003CC048F0720E186E310E196E3F0E1A6ED4
:103F180049C009F04AC00AF076EC2BF009C015F048
:103F28000AC016F00BC017F0B2EC22F015C02EF044
:103F380016C02FF017C030F046C031F047C032F03D
:103F480048C033F003EC18F02EC046F02FC047F0FD
:103F580030C048F012000001A1510001D8B408D0C7
:103F680000019E5100019F110001A011D8A411D099
:103F7800000E00019E6F000E00019F6F000E0001F1
:103F8800A06F12000001A12B0001D890A0339F332D
:103F98009E33000E00019E150001A36F000E000164
:103FA8009F150001A46FFE0E0001A0150001A56F6A
:103FB8000001A3510001A4110001A511D8B411D02A
:103FC800E1D70001A12B010E00019E27000E000180
:103FD8009F23000E0001A0230001D890A0339F3337
:103FE8009E33000E00019E150001A36F000E000114
:103FF8009F150001A46FFF0E0001A0150001A56F19
:104008000001A3510001A4110001A511D8B408D0E2
:10401800D8D70001A1070001D8909E379F37A03755
:1040280000019FBF04D0020E0001A161F2D7000178
:10403800A1B102D000019F9F0001D890A1330001D7
:10404800A1510001A0130001A2510001D8B402D06F
:104058000001A08F9EC09EF09FC09FF0A0C0A0F05E
:104068001200000E0001896F000E886F75C08CF079
:1040780076C08DF0000E00018B6F000E8A6F6CD039
:104088000F0E00018C150001866F0001876B88C038
:1040980009F089C00AF076EC2BF009C080F00AC05C
:1040A80081F00BC082F080C067F081C068F082C0E8
:1040B80069F0000E646E200E656E410E666E41EC6E
:1040C8001BF064C083F065C084F066C085F083C0CF
:1040D80018F084C019F085C01AF086C009F087C0AE
:1040E8000AF076EC2BF009C015F00AC016F00BC0E8
:1040F80017F0B2EC22F015C031F016C032F017C03C
:1041080033F08AC009F08BC00AF076EC2BF009C0B6
:104118002EF00AC02FF00BC030F003EC18F02EC0C0
:104128003AF02FC03BF030C03CF038EC22F03AC0F7
:104138008AF03BC08BF08CC007F08DC008F0000EF1
:104148000A6E100E096E54EC28F007C08CF008C0F7
:104158008DF00001884B892B00018C5100018D11D5
:10416800D8A48ED78AC075F08BC076F0120065D0BF
:10417800800E8BEC2CF0470E01011C6FFF0E010125
:104188001D6F09EC00F0C00E8BEC2CF0360E01010F
:104198001C6FFF0E01011D6F46C11EF147C11FF1C3
:1041A80009EC00F01200800E8BEC2CF0580E010187
:1041B8001C6FFF0E01011D6F48C11EF149C11FF19F
:1041C80009EC00F0C00E8BEC2CF0690E01011C6F9D
:1041D800FF0E01011D6F4AC11EF14BC11FF109EC11
:1041E80000F01200800E8BEC2CF07A0E01011C6F8F
:1041F800FF0E01011D6F4CC11EF14DC11FF109ECED
:1042080000F0C00E8BEC2CF08B0E01011C6FFF0E22
:1042180001011D6F4EC11EF14FC11FF109EC00F0E5
:104228001200800E8BEC2CF0AC0E01011C6FFF0EFF
:1042380001011D6F09EC00F0F4D785C19EF086C11D
:104248009FF0000E0001A16F030EA06F26EC27F06F
:1042580000019F51000AD8A4E4D700019E51000A2A
:10426800D8B486D7010AD8B49ED7030AD8B4BAD727
:10427800D8D7ADEC2CF0000E0001A06F520E9F6F46
:104288009FEC2CF0000E0001A06F800E9F6F9FEC3A
:104298002CF0000E0001A06F010E9F6F9FEC2CF018
:1042A800A9EC2CF00A0E0001A16FBC0EE82EFED777
:1042B800A12FFCD700F0ADEC2CF0000E0001A06F90
:1042C800520E9F6F9FEC2CF0000E0001A06F800E25
:1042D8009F6F9FEC2CF0000E0001A06F030E9F6FE4
:1042E8009FEC2CF0A9EC2CF0ADEC2CF0000E0001AA
:1042F800A06F520E9F6F9FEC2CF0000E0001A06F74
:104308008F0E9F6F9FEC2CF0000E0001A06F020E25
:104318009F6F9FEC2CF0A9EC2CF0ADEC2CF0000E6C
:104328000001A06F520E9F6F9FEC2CF0000E000151
:10433800A06F810E9F6F9FEC2CF0000E0001A06F04
:104348009F699FEC2CF0A9EC2CF0ADEC2CF0000E42
:104358000001A06F520E9F6F9FEC2CF0000E000121
:10436800A06FB40E9F6F9FEC2CF0A9EC2CF01200FC
:10437800ADEC2CF0000E0001A06F530E9F6F9FEC68
:104388002CF0010EE0EC2BF00001CE6F010EE0ECFA
:104398002BF00001CA6F010EE0EC2BF00001CF6F8B
:1043A800010EE0EC2BF00001CB6F010EE0EC2BF0DE
:1043B8000001D06F010EE0EC2BF00001CC6F010E74
:1043C800E0EC2BF00001D16F000EE0EC2BF00001C7
:1043D800CD6FA9EC2CF00001CE51CAC0A1F00001AC
:1043E800A26BA1C0A2F00001A16B0001A111000104
:1043F800C26F0001A2510001C36F0001CF51CBC0B1
:10440800A1F00001A26BA1C0A2F00001A16B000104
:10441800A1110001C46F0001A2510001C56F000184
:10442800D051CCC0A1F00001A26BA1C0A2F0000144
:10443800A16B0001A1110001C66F0001A25100018A
:10444800C76F0001D151CDC0A1F00001A26BA1C07E
:10445800A2F00001A16B0001A1110001C86F0001C9
:10446800A2510001C96F12003CC03EF03F6A406A89
:104478003B343E3601E33F803E50486E4850D8A456
:1044880009D0000E3A6E000E3B6E000E3C6E000E18
:104498003D6E1200170E3E6E3AC03FF03BC040F032
:1044A8003CC041F03E28426E04D0D89041324032A0
:1044B8003F32422EFAD73F50436E3B8EFF0E3A16DC
:1044C800FF0E3B16000E3C163A50446E3B50456EAC
:1044D8003C50466E476A8E0E485E48AE16D048502D
:1044E800800A8F0FD8B009D0000E3A6E000E3B6ECE
:1044F800000E3C6E000E3D6E1200D89047324632D8
:1045080045324432483EF9D715D0170E48640FD0CB
:10451800000E3A6E000E3B6E000E3C6E000E3D6EB5
:104528001200D89044364536463647364806485035
:10453800D8A4F7D74350D8B408D0471E461E451E06
:10454800446C000E45224622472244C03AF045C03A
:104558003BF046C03CF047C03DF0120017C01BF0CE
:104568001C6A1D6A16341B3601E31C801B501E6E24
:104578001E50D8A407D0000E156E000E166E000E41
:10458800176E12001AC01BF01C6A1D6A19341B36FC
:1045980001E31C801B50236E2350D8A407D0000EC3
:1045A800156E000E166E000E176E120023507B0F4C
:1045B8001E2617C023F01A50231A800E2316168EB3
:1045C800198EFF0E1816FF0E1916000E1A16000E79
:1045D8001F6E000E206E000E216E070E226E15A0B3
:1045E80006D018501F26195020221A502122D89080
:1045F800173216321532D890183619361A36222E36
:10460800EED7090E226E15A006D018501F26195095
:1046180020221A502122D890173216321532D890FB
:10462800213220321F32222EEED71FC001F020C0C7
:1046380002F021C003F01EC004F023C005F0CFEC47
:1046480026F001C015F002C016F003C017F01200E2
:104658000BC00FF0106A116A0A340F3601E310809C
:104668000F50166E1650D8A407D0000E096E000E13
:104678000A6E000E0B6E12000EC00FF0106A116A5F
:104688000D340F3601E310800F50176E1750D8A461
:1046980007D0000E096E000E0A6E000E0B6E120097
:1046A800000E136E000E146E000E156E1750890F53
:1046B800165E0BC017F00E50171A800E17160A8ECA
:1046C800FF0E0916FF0E0A16000E0B160D8EFF0EB2
:1046D8000C16FF0E0D16000E0E16180E126ED89040
:1046E8001336143615360C50095C0D500A580E5006
:1046F8000B58D8A007D00C50095E0D500A5A0E501E
:104708000B5A1380D89009360A360B36122EE7D783
:1047180013C001F014C002F015C003F016C004F075
:1047280017C005F0CFEC26F001C009F002C00AF06E
:1047380003C00BF0120053C001F054C002F055C082
:1047480003F0590E046E000E056E0CEC28F05AAEFC
:1047580010D055AE07D0000E536E800E546EBF0EAB
:10476800556E1200000E536E000E546E000E556EFC
:1047780012005A5004E1150E595CD8A007D053C056
:1047880053F054C054F055C055F0120053C03AF0DD
:1047980054C03BF055C03CF038EC22F03AC049F028
:1047A8003BC04AF03CC04BF03DC04CF015EC29F042
:1047B80049C056F04AC057F04BC058F053C001F0FA
:1047C80054C002F055C003F056C004F057C005F0BD
:1047D80058C006F0C4EC27F0D8B015D056C02EF05B
:1047E80057C02FF058C030F0000E316E800E326E78
:1047F800BF0E336E03EC18F02EC053F02FC054F0E8
:1048080030C055F0120056C053F057C054F058C08D
:1048180055F01200B5EC2CF0000E036E530E026E2C
:10482800A4EC2CF0010E0CEC2CF00001CE6F010E64
:104838000CEC2CF00001CA6F010E0CEC2CF00001FE
:10484800CF6F010E0CEC2CF00001CB6F010E0CECBD
:104858002CF00001D06F010E0CEC2CF00001CC6F95
:10486800010E0CEC2CF00001D16F000E0CEC2CF0BA
:104878000001CD6FB1EC2CF00001CE51CAC004F09C
:10488800056A04C005F0046A04100001C26F0550EF
:104898000001C36F0001CF51CBC004F0056A04C00A
:1048A80005F0046A04100001C46F05500001C56FCB
:1048B8000001D051CCC004F0056A04C005F0046AB8
:1048C80004100001C66F05500001C76F0001D151E7
:1048D800CDC004F0056A04C005F0046A04100001A4
:1048E800C86F05500001C96F1200ADEC2CF0000E26
:1048F8000001A06FD00E9F6F9FEC2CF0000E0001FE
:10490800A06F000E9F6F9FEC2CF0A9EC2CF0ADEC83
:104918002CF0000E0001A06FD10E9F6F9FEC2CF0C1
:10492800000E0001C16F050E0001C16501D010D055
:104938000001C151010D580EF324D96E010EF42067
:10494800DA6E010EE0EC2BF0DF6E0001C12BEBD725
:10495800000EE0EC2BF001015E6FA9EC2CF0800E4C
:104968008BEC2CF0E50E01011C6FFE0E01011D6F92
:104978005DC11EF101011F6B5CC120F10101216BBA
:104988005EC122F10101236B09EC00F0C00E8BEC33
:104998002CF0FC0E01011C6FFE0E01011D6F5AC1A7
:1049A8001EF101011F6B59C120F10101216B58C192
:1049B80022F10101236B09EC00F012003FC00FF057
:1049C80040C010F0000E126E030E116E1FEC2CF09A
:1049D8003DC041F03EC042F00F50412610504222E7
:1049E80041C0F6FF42C0F7FF0900F5CF43F00900C8
:1049F800F5CF44F00A00F5CF45F03ED043C018F09B
:104A080044C019F045C01AF03AC015F03BC016F082
:104A18003CC017F0B2EC22F015C02EF016C02FF0F3
:104A280017C030F0000E126E030E116E3F06D8A0AC
:104A380040063FC00FF040C010F01FEC2CF03DC006
:104A480041F03EC042F00F5041261050422241C072
:104A5800F6FF42C0F7FF0900F5CF31F00900F5CFA6
:104A680032F00A00F5CF33F003EC18F02EC043F013
:104A78002FC044F030C045F03F504010D8A4BED7F6
:104A880043C03AF044C03BF045C03CF0120000017E
:104A9800B7AF1DD0B5C0BBF0B6C0BCF0B7C0BDF055
:104AA8000001BB1FBC1FBD1FBB2B000EBC23BD23B9
:104AB800000E0001BB250001B56F000E0001BC21EE
:104AC8000001B66F800E0001BD210001B76F000123
:104AD800BAAF1DD0B8C0BBF0B9C0BCF0BAC0BDF009
:104AE8000001BB1FBC1FBD1FBB2B000EBC23BD2379
:104AF800000E0001BB250001B86F000E0001BC21AB
:104B08000001B96F800E0001BD210001BA6F000ECF
:104B18000001B51B000E0001B61B800E0001B71B7B
:104B2800000E0001B81B000E0001B91B800E000129
:104B3800BA1B0001B8510001B55D0001B95100016F
:104B4800B6590001BA510001B759D8B002D0D8906F
:104B58001200D8801200465047104810D8A407D039
:104B6800000E466E000E476E000E486E120048504A
:104B78007F0B4B6E4C6AD8904B364C364B504926BF
:104B88004C504A2247AE03D04B6A4B2A01D04B6A9D
:104B98004B504926000E4A224AAE0CD0000E0101A5
:104BA8006C6F220E6B6F000E466E000E476E000E85
:104BB800486E12004ABE16D04A04D8A013D0000E80
:104BC80001016C6F220E6B6F48AE06D0FF0E466E69
:104BD8007F0E476EFF0EECD7FF0E466E7F0E476EB8
:104BE8007F0EE6D74A344A304C6E49304B6E4850F7
:104BF8004B18800B4B18486E49C04BF0010E4B16F2
:104C08004B324B3247504B187F0B4B18476E46C000
:104C180046F047C047F048C048F01200000E0001B7
:104C2800A96F0001A7AF08D00001A66DA71FD8B0D3
:104C3800A72B010E0001A96F0001A5AF08D0000144
:104C4800A46DA51FD8B0A52B010E0001A91B000E4D
:104C58000001AB6F000EAA6F0001A6510001A71159
:104C6800D8B42CD0010E0001A86F06D00001D8904E
:104C7800A637A7370001A82B0001A7AFF7D7000177
:104C8800D890AA37AB370001A6510001A45D0001F6
:104C9800A7510001A559D8A00AD00001A6510001CA
:104CA800A45F0001A7510001A55B0001AA810001D2
:104CB800D890A733A6330001A82FE1D70001A95146
:104CC8000001D8B405D00001AA6DAB1FD8B0AB2B3A
:104CD800AAC0A4F0ABC0A5F01200000E0001A66F98
:104CE800000EA76F000EA86F000EA96F0001A25159
:104CF8000001A3110001A4110001A511D8B442D0EC
:104D0800010E0001AA6F08D00001D890A237A3377E
:104D1800A437A5370001AA2B0001A5AFF5D70001DC
:104D2800D890A637A737A837A9370001A2510001A4
:104D38009E5D0001A35100019F590001A45100018B
:104D4800A0590001A5510001A159D8A012D0000115
:104D5800A25100019E5F0001A35100019F5B000169
:104D6800A4510001A05B0001A5510001A15B000155
:104D7800A6810001D890A533A433A333A233000140
:104D8800AA2FCDD7A6C09EF0A7C09FF0A8C0A0F0BC
:104D9800A9C0A1F012000450D8B405D001500210E7
:104DA8000310D8A40CD0000E016E000E026E000E87
:104DB800036E1200042AD890033202320132000E28
:104DC8000114066E000E0214076EFE0E0314086E20
:104DD800065007100810D8B40CD0ECD7042A010EDE
:104DE8000126000E0222000E0322D890033202325E
:104DF8000132000E0114066E000E0214076EFF0E3B
:104E08000314086E065007100810D8B406D0E6D769
:104E18000406D89001360236033602BE03D0020ECD
:104E28000460F6D704A0029ED890043204500312FE
:104E38000550D8A4038E01C001F002C002F003C0DF
:104E480003F01200000E0001A36F00019FAF08D00D
:104E580000019E6D9F1FD8B09F2B010E0001A36F0C
:104E68000001A1AF05D00001A06DA11FD8B0A12BF2
:104E78000001A0510001A111D8B426D0010E0001F3
:104E8800A26F06D00001D890A037A1370001A22B4D
:104E98000001A1AFF7D70001A05100019E5D0001FC
:104EA800A15100019F59D8A008D00001A0510001CC
:104EB8009E5F0001A15100019F5B0001D890A133C2
:104EC800A0330001A22FE7D70001A3510001D8B4F5
:104ED80005D000019E6D9F1FD8B09F2B9EC09EF0ED
:104EE8009FC09FF012000001AF510001B0110001F6
:104EF800B1110001B211D8B43AD0010E0001B36F5C
:104F080008D00001D890AF37B037B137B2370001B9
:104F1800B32B0001B2AFF5D70001AF510001AB5D73
:104F28000001B0510001AC590001B1510001AD5967
:104F38000001B2510001AE59D8A010D00001AF5104
:104F48000001AB5F0001B0510001AC5B0001B15141
:104F58000001AD5B0001B2510001AE5B0001D890C9
:104F6800B233B133B033AF330001B32FD5D7ABC0B1
:104F7800ABF0ACC0ACF0ADC0ADF0AEC0AEF012005E
:104F880003AE16D001C007F002C008F003C009F054
:104F9800071E081E091E072A000E08220922000EF5
:104FA8000724016E000E0820026E800E0920036E91
:104FB80006AE16D004C007F005C008F006C009F018
:104FC800071E081E091E072A000E08220922000EC5
:104FD8000724046E000E0820056E800E0920066E58
:104FE800000E011A000E021A800E031A000E041A8F
:104FF800000E051A800E061A0450015C055002586E
:1050080006500358D8B002D0D8901200D8801200A9
:10501800015002100310D8A40FD004C0D9FF05C056
:10502800DAFF000EDE6E000EDD6E000E016E000E61
:10503800026E000E036E120003507F0B066E076AA5
:10504800D8900636073604C0D9FF05C0DAFF06C077
:10505800DEFF07C0DDFF02AE03D0066A062A01D0D4
:10506800066A065004C0D9FF05C0DAFFDE12000E3A
:10507800DD1204C0D9FF05C0DAFF820EDE26FF0E5E
:10508800DD2203800382038403860388038A039C4A
:10509800029E01C001F002C002F003C003F012003A
:1050A800000E0C6E0AAE06D0096C0A1ED8B00A2A89
:1050B800010E0C6E08AE06D0076C081ED8B0082A80
:1050C800010E0C1A000E0E6E000E0D6E09500A101D
:1050D800D8B41CD0010E0B6E04D0D89009360A360D
:1050E8000B2A0AAEFAD7D8900D360E360950075C4F
:1050F8000A500858D8A005D00950075E0A50085A27
:105108000D80D8900A3209320B2EEDD70C50D8B446
:1051180004D00D6C0E1ED8B00E2A0DC007F00EC0BC
:1051280008F01200000E096E000E0A6E000E0B6EDB
:10513800000E0C6E0550061007100810D8B42AD0BF
:10514800010E0D6E06D0D89005360636073608369D
:105158000D2A08AEF8D7D89009360A360B360C3621
:105168000550015C0650025807500358085004586F
:10517800D8A009D00550015E0650025A0750035ABC
:105188000850045A0980D89008320732063205328E
:105198000D2EE1D709C001F00AC002F00BC003F0E0
:1051A8000CC004F012008E0E0001AE6F08D0000192
:1051B800D890A933A833A733A6330001AE2B000E2D
:1051C8000001A6150001AA6F000E0001A715000135
:1051D800AB6F000E0001A8150001AC6FFF0E0001B7
:1051E800A9150001AD6F0001AA510001AB11000122
:1051F800AC110001AD11D8A4DAD7A6C09EF0A7C0A3
:105208009FF0A8C0A0F0AEC0A1F0000E0001A26FF0
:10521800AFEC1FF09EC0A6F09FC0A7F0A0C0A8F0FA
:105228001200000E526E8E0E516E4CAE11D04C1EF6
:105238004B1E4A1E496C000E4A224B224C22010E7C
:10524800526E06D0D8904C324B324A324932512AEB
:10525800000E49144D6E000E4A144E6E000E4B148B
:105268004F6EFF0E4C14506E4D504E104F10501094
:10527800D8A4E8D749C001F04AC002F04BC003F0F7
:1052880051C004F052C005F0CFEC26F001C049F03F
:1052980002C04AF003C04BF01200000E066E02AEC8
:1052A80006D0016C021ED8B0022A010E066E04AEAA
:1052B80004D0036C041ED8B0042A03500410D8B4D8
:1052C80018D0010E056E04D0D89003360436052A8E
:1052D80004AEFAD70350015C04500258D8A004D099
:1052E8000350015E0450025AD89004320332052E4E
:1052F800F1D70650D8B404D0016C021ED8B0022AE7
:1053080001C001F002C002F01200B5EC2CF0000E52
:10531800036ED00E026EA4EC2CF0000E036E000E8D
:10532800026EA4EC2CF0B1EC2CF0B5EC2CF0000ED5
:10533800036ED10E026EA4EC2CF0000E046E050E66
:10534800046401D00ED00450010D580EF324D96E18
:10535800010EF420DA6E010E0CEC2CF0DF6E042A3C
:10536800EED7000E0CEC2CF001015E6FB1EC2CF0C6
:1053780012001250131014101510D8B424D0010EB6
:10538800166E06D0D8901236133614361536162AED
:1053980015AEF8D712500E5C13500F581450105811
:1053A80015501158D8A008D012500E5E13500F5A3D
:1053B8001450105A1550115AD8901532143213320D
:1053C8001232162EE7D70EC00EF00FC00FF010C025
:1053D80010F011C011F0120000019F6F00019F51E1
:1053E800F00B00019E6F8C500F0B8C6E00019E51CC
:1053F8008C108C6E8C96190EE82EFED78C86190EA2
:10540800E82EFED700019F39F00B00019F6F0001C5
:105418009F51F00B00019E6F8C500F0B8C6E00019A
:105428009E518C108C6E8C96190EE82EFED78C86A9
:10543800190EE82EFED71200000EC76E280EC66E93
:10544800000EC56E800E00019E6F960E9F6F980E1F
:10545800A06F000EA16FABC0AFF0ACC0B0F0ADC094
:10546800B1F0AEC0B2F0020ED8900001AF37B0373D
:10547800B137B237E82EF8D7AFC0A2F0B0C0A3F06A
:10548800B1C0A4F0B2C0A5F071EC26F000019E05F1
:10549800C86E9486948812008E0E116E06D0D8902D
:1054A8000C320B320A320932112A000E09140D6E21
:1054B800000E0A140E6E000E0B140F6EFF0E0C1465
:1054C800106E0D500E100F101010D8A4E8D709C098
:1054D80001F00AC002F00BC003F011C004F0000E86
:1054E800056ECFEC26F001C009F002C00AF003C037
:1054F8000BF01200310E0001A16FB20EE82EFED79C
:10550800A12FFCD700F0330E8BEC2CF0330E8BEC74
:105518002CF0320E8BEC2CF0280E8BEC2CF00F0EAE
:105528008BEC2CF0060E8BEC2CF0010E8BEC2CF097
:10553800310E0001A16FB20EE82EFED7A12FFCD7C5
:1055480000F01200026E0250F00B016E8C500F0B2F
:105558008C6E01508C108C6E8C96190EE82EFED72E
:105568008C86190EE82EFED70238F00B026E025018
:10557800F00B016E8C500F0B8C6E01508C108C6EE2
:105588008C96190EE82EFED78C86190EE82EFED7BB
:1055980012000101195101011A1101011B11D8B49E
:1055A80009D0000E0101191B000E01011A1B800E03
:1055B80001011B1B16C10AF117C10BF118C10CF12F
:1055C80019C10DF11AC10EF11BC10FF1B8EC14F09D
:1055D8000AC116F10BC117F10CC118F11200720EB5
:1055E800F66E590EF76E000EF86E0900F5CF85F1CC
:1055F8000900F5CF86F101EE46F03F0EEE6AE806A7
:10560800FDE100EEC2F0200EEE6AE806FDE17E6ADA
:105618007D6A7C6A7B6A7A6A7F907F92000EF86E58
:105628000001D9EF18F0000E0001A96F0001A7AF23
:1056380008D00001A66DA71FD8B0A72B010E000146
:10564800A96FA6C09EF0A7C09FF00001A06B8E0EA8
:105658000001A16FA9C0A2F0AFEC1FF09EC0A6F098
:105668009FC0A7F0A0C0A8F012003D503E103F1008
:10567800D8B406D0000E3D1A000E3E1A800E3F1A0E
:105688003AC02EF03BC02FF03CC030F03DC031F0A6
:105698003EC032F03FC033F003EC18F02EC03AF0B1
:1056A8002FC03BF030C03CF01200800E8BEC2CF089
:1056B800E90E01011C6FFF0E01011D6F09EC00F0DE
:1056C800C00E8BEC2CF0BCEC21F0D80E01011C6F45
:1056D800FF0E01011D6FC2C01EF1C3C01FF109EC0E
:1056E80000F01200000E0C6E0AAE06D0096C0A1EFD
:1056F800D8B00A2A010E0C6E09C001F00AC002F0E7
:10570800036A8E0E046E0CC005F0CFEC26F001C0C3
:1057180009F002C00AF003C00BF01200800E8BECF7
:105728002CF0CE0E01011C6FFE0E01011D6F09EC5D
:1057380000F0C00E8BEC2CF0130E01011C6FFF0E55
:1057480001011D6F7BC11EF17CC11FF109EC00F046
:1057580012000001AC510001AE03F3CFB0F0F4CF5A
:10576800B1F00001AC510001AF03F3500001B127C3
:105778000001AD510001AE03F3500001B127B0C0E4
:10578800ACF0B1C0ADF0120000019E5100019F11B4
:105798000001A011D8B409D0000E00019E1B000E14
:1057A80000019F1B800E0001A01B9EC09EF09FC0A1
:1057B8009FF0A0C0A0F0120000019F6F70EC2CF0C9
:1057C800C58670EC2CF0C9CFA0F070EC2CF000016D
:1057D8009F510001D8A402D0C58A01D0C59AC588B6
:1057E8000001A05112000001A06F000E00019F6F80
:1057F8003A0E0001A06107D02F0E0001A06503D06A
:10580800010E00019F6F9FC09EF000019E311200A3
:10581800026E7AEC2CF0C5867AEC2CF0C9CF03F036
:105828007AEC2CF00250D8A402D0C58A01D0C59ACF
:10583800C588035012000F501102F3CF13F0F4CFB4
:1058480014F00F501202F350142610501102F350A6
:10585800142613C00FF014C010F0120001500210EB
:105868000310D8B406D0000E011A000E021A800EDA
:10587800031A01C001F002C002F003C003F01200D5
:10588800F29E8094010E8BEC2CF0800E8BEC2CF0A9
:10589800BC0E01011C6FFF0E01011D6F09EC00F029
:1058A800FFD7036E000E026E3A0E036005D02F0E6E
:1058B800036402D0010E026E02C001F00130120032
:1058C800800E8BEC2CF09C0E01011C6FFF0E010169
:1058D8001D6F09EC00F01200C7B4FED7C5CF9EF0CB
:1058E8001F0E00019E17D8B41200F6D7C7B4FED712
:1058F800C5CF01F01F0E0116D8B41200F7D700016A
:10590800A06F8C840001A051F0EC29F01200000176
:10591800A06F8C940001A051F0EC29F01200036EE6
:105928008C840350A6EC2AF01200036E8C9403506A
:10593800A6EC2AF0120070EC2CF09FC0C9FF1200F0
:105948007AEC2CF002C0C9FF120070EC2CF0C58470
:10595800120070EC2CF0C58012007AEC2CF0C58493
:0C59680012007AEC2CF0C5801200FFFF4A
:10FDB60000010000000A00000064000000E80300E3
:10FDC6000010270000A086010040420F0080969890
:10FDD6000000E1F50500CA9A3B00803FCDCC3DD737
:10FDE600233C12833AB7D138C62737388635C0D672
:10FDF60033CC2B32708930E7DB2EE53C1E42A20D58
:10FE060000803F00204100C842007A44401C465012
:10FE1600C34724744997184BBCBE4C6B6E4E0315F2
:10FE26005079AD60F3497101000000100000000038
:10FE3600010000001000000000010000001000009A
:10FE460000000100000010313233413435364237AC
:10FE56003839432A3023440050352108050217005B
:10FE6600803F72313FFE753E58633D951D3CC5AEE1
:10FE76003A79213994803793A73556153400000016
:10FE860000803FF0FFBEE2A93E8376BEAE2B3E3C2D
:10FE9600C3BDD2133D78D3BB4725752042257520B7
:10FEA600202020202020202020202020202020006C
:10FEB6004325752052257520202020202020202033
:10FEC6002020202020202000546F74616C204F7069
:10FED60065726174696F6E20202020202020004406
:10FEE6006174653A20253032782F253032782F25F7
:10FEF60030327820200054696D653A2025303278FA
:10FF06003A253032783A2530327820200054696D0F
:10FF1600653A2025642073202020202020200030F0
