:0400000007EF00F016
:10000800538261ED03F094EF07F03B0E0001856F1A
:10001800000E0001866FBDD1250E00018D19D8B4E0
:1000280005D000018D5167EC08F0B3D1000E000136
:100038008C6F000E8B6F000E00018A6F04D00001D8
:100048008A85394A3A2A39C0F6FF3AC0F7FF0800CC
:10005800F550300AD8B4F3D739C0F6FF3AC0F7FFE5
:100068000800F55022EC08F0D8A042D0000E00019C
:100078008C6F000E8B6F8BC02DF08CC02EF0000E95
:10008800306E0A0E2F6EE9EC07F02DC08BF02EC0F3
:100098008CF0D00E0001806FFF0E0001816F39C017
:1000A800F6FF3AC0F7FF0800F5500001826F836B36
:1000B8000001805100018227000181510001832342
:1000C8000001825100018B270001835100018C231C
:1000D800394A3A2A39C0F6FF3AC0F7FF0800F55006
:1000E80022EC08F0D8A004D0C6D700018A8F18D017
:1000F80039C0F6FF3AC0F7FF394A3A2A0800F5CF67
:100108008DF000018D51000AD8B41200640AD8B4E9
:1001180007D00D0AD8B404D0110AD8B4E6D739D11B
:1001280000018ABF19D085C0D9FF86C0DAFFDECFAB
:1001380088F0DDCF89F0020E00018527000E8623A6
:10014800000189AF53D0030E00018A130001886DA6
:10015800891FD8B0892B4AD085C0D9FF86C0DAFF5D
:10016800DECF88F0DDCF89F0020E00018527000E72
:1001780086233CD0010E00018D6F050E00018D19FC
:10018800D8B43DD000018D51020D2E0EF324F66E29
:10019800FE0EF420F76E0900F5500001885D090095
:1001A800F55000018959D8A02AD000018D2BE5D738
:1001B800010E00018D6F040E00018D19D8B41FD0F7
:1001C80000018D51020D380EF324F66EFE0EF42058
:1001D800F76E0900F5500001885D0900F55000012F
:1001E8008959D8A00CD000018D2BE5D700018A5180
:1001F800800B000AD8B4BED7800AD8B4D9D700017A
:100208008B5100018C11D8B40BD08AC080F0030E3A
:1002180000018017D8B404D000018B07D8A08C0740
:10022800800E00018DBF7F0E0001806F00018B5191
:1002380000018D5D00018C51800A00018059D8B001
:100248000BD000018D5100018B5F000E00018DBFA6
:10025800FF0E00018C5B05D0000E00018C6F000EB4
:100268008B6F00018AA518D08AC080F0030E0001A8
:100278008017D8B403D02D0E67EC08F000018B511D
:1002880000018C11D8B425D0300E67EC08F00001BD
:100298008B07D8A08C07F2D700018B5100018C1175
:1002A800D8B40DD0200E67EC08F000018B07D8A059
:1002B8008C0700018B5100018C11D8A4F3D78AC098
:1002C80080F0030E00018017D8B403D02D0E67EC20
:1002D80008F08DC087F057D000018751020D2E0E0F
:1002E800F324F66EFE0EF420F76E0900F5CF2FF01A
:1002F8000A00F5CF30F088C02DF089C02EF08CECC4
:1003080006F02DC034F02EC035F0000E376E0A0E00
:10031800366E52EC07F03450300F00018D6F2FD03D
:1003280088C02DF089C02EF000018751020D380ECB
:10033800F324F66EFE0EF420F76E0900F5CF2FF0C9
:100348000A00F5CF30F08CEC06F02D500F0B0001B1
:10035800846F00018451010DEA0EF324F66EFE0E3F
:10036800F420F76E0800F5CF8DF009D000018A510E
:10037800800B000AD8B4B0D7800AD8B4D1D700010E
:100388008D5167EC08F00001870700018729D8A480
:10039800EDD739C0F6FF3AC0F7FF394A3A2A0800C4
:1003A800F5CF8DF000018D51D8B4120035D60F0E5F
:1003B800146E000E156E74D1250E1C18D8B404D016
:1003C8001C5073EC08F06CD1000E1B6E000E1A6EF8
:1003D800000E196E03D019840D4A0E2A0DC0F6FFBF
:1003E8000EC0F7FF0800F550300AD8B4F4D70DC096
:1003F800F6FF0EC0F7FF0800F55031EC08F0D8A062
:1004080035D0000E1B6E000E1A6E1AC001F01BC00C
:1004180002F0000E046E0A0E036EFCEC07F001C039
:100428001AF002C01BF0D00E0F6EFF0E106E0DC03A
:10043800F6FF0EC0F7FF0800F550116E126A0F5054
:1004480011261050122211501A2612501B220D4A42
:100458000E2A0DC0F6FF0EC0F7FF0800F55031EC6C
:1004680008F0D8A003D0D1D7198E17D00DC0F6FF49
:100478000EC0F7FF0D4A0E2A0800F5CF1CF01C50DD
:10048800000AD8B41200640AD8B407D00D0AD8B448
:1004980004D0110AD8B4E8D703D119BE15D014C0B6
:1004A800D9FF15C0DAFFDECF17F0DDCF18F0020E46
:1004B8001426000E152218AE44D0030E1912176C1C
:1004C800181ED8B0182A3DD014C0D9FF15C0DAFFBD
:1004D800DECF17F0DDCF18F0020E1426000E15221D
:1004E80030D0010E1C6E050E1C18D8B432D01C502A
:1004F800020D2E0EF324F66EFE0EF420F76E0900A0
:10050800F550175C0900F5501858D8A022D01C2ABD
:10051800EAD7010E1C6E040E1C18D8B41AD01C5051
:10052800020D380EF324F66EFE0EF420F76E090065
:10053800F550175C0900F5501858D8A00AD01C2AA5
:10054800EAD71950800B000AD8B4CBD7800AD8B4A0
:10055800E0D71A501B10D8B409D019C00FF0030EF9
:100568000F16D8B403D01A06D8A01B06800E1CBEDE
:100578007F0E0F6E1A501C5C1B50800A0F58D8B0A3
:1005880007D01C501A5E000E1CBEFF0E1B5A04D06A
:10059800000E1B6E000E1A6E19A414D019C00FF0AD
:1005A800030E0F16D8B403D02D0E73EC08F01A50B2
:1005B8001B10D8B41ED0300E73EC08F01A06D8A061
:1005C8001B06F5D71A501B10D8B40AD0200E73ECAE
:1005D80008F01A06D8A01B061A501B10D8A4F6D784
:1005E80019C00FF0030E0F16D8B403D02D0E73ECFC
:1005F80008F01CC016F050D01650020D2E0EF32431
:10060800F66EFE0EF420F76E0900F5CF03F00A002F
:10061800F5CF04F017C001F018C002F0B5EC06F0F1
:1006280001C008F002C009F0000E0B6E0A0E0A6E37
:1006380073EC07F00850300F1C6E2BD017C001F078
:1006480018C002F01650020D380EF324F66EFE0E96
:10065800F420F76E0900F5CF03F00A00F5CF04F097
:10066800B5EC06F001500F0B136E1350010DEA0E96
:10067800F324F66EFE0EF420F76E0800F5CF1CF09A
:1006880008D01950800B000AD8B4B6D7800AD8B45D
:10069800D5D71C5073EC08F016061628D8A4F1D745
:1006A8000DC0F6FF0EC0F7FF0D4A0E2A0800F5CF61
:1006B8001CF01C50D8B412007FD60600FACF1EF0EA
:1006C800FBCF1FF0E9CF20F0EACF21F0E1CF22F0F5
:1006D800E2CF23F0D9CF24F0DACF25F0F3CF26F0FC
:1006E800F4CF27F0F6CF28F0F7CF29F0F8CF2AF08B
:1006F800F5CF2BF0F0B03ED055D0000E506E000E66
:10070800526E000E516E4CD0F28AD58E000ED76E06
:10071800000ED66E2BEC06F042C04FF041C04EF0F2
:10072800010E79EC08F0020E1AD05168526838D0E0
:10073800050E506E514A522A1F0E8118D8A430D087
:10074800FBD7060E0CD0040E0AD02BEC06F042C0E4
:1007580049F041C048F0010E79EC08F0030E506EE4
:10076800E4D7010E79EC08F0010E506E516852681A
:10077800D59E16D081500F0AD8B4C6D7100AD8B45F
:10078800D7D7300AD8B4DDD7100AD8B4DCD7700A66
:10079800D8B4DBD7800AD8B4E4D7200AD8B4ADD708
:1007A800F0902BD0F2A410D0D59E2BEC06F042C0CE
:1007B80049F041C048F0010E79EC08F0030E506E84
:1007C80051685268F29419D0800E79EC08F0E60E60
:1007D8000D6EFF0E0E6EDBEC01F0000E2C6E630E3C
:1007E8002C6401D0F1D7210E1D6E760EE82EFED7AF
:1007F8001D2EFCD700D02C2AF2D72BC0F5FF2AC01B
:10080800F8FF29C0F7FF28C0F6FF27C0F4FF26C06D
:10081800F3FF25C0DAFF24C0D9FF23C0E2FF22C0BE
:10082800E1FF21C0EAFF20C0E9FF1FC0FBFF1EC097
:10083800FAFF539211006DD0800E6DEC08F02E0E69
:10084800396EFF0E3A6E09EC00F0C00E6DEC08F040
:100858000C0E396EFF0E3A6E09EC00F01200800E95
:100868006DEC08F0720E396EFF0E3A6E09EC00F06E
:10087800C00E6DEC08F0610E396EFF0E3A6E09EC91
:1008880000F01200800E6DEC08F0500E396EFF0E6D
:100898003A6E09EC00F0C00E6DEC08F03F0E396EB0
:1008A800FF0E3A6E09EC00F01200800E6DEC08F0B5
:1008B800830E396EFF0E3A6E09EC00F0C00E6DEC37
:1008C80008F0A50E396EFF0E3A6E09EC00F0120022
:1008D800800E6DEC08F0940E396EFF0E3A6E09EC3E
:1008E80000F0C00E6DEC08F0B60E396EFF0E3A6ED1
:1008F80009EC00F01200800E6DEC08F0F40E396E71
:10090800FF0E3A6E51C03BF052C03CF009EC00F0CB
:10091800F2D751C02DF052C02EF0000E306E050EE9
:100928002F6EF3EC05F02E50000AD8A4E4D72D5012
:10093800000AD8B481D7010AD8B491D7030AD8B429
:10094800A1D7010AD8B4B1D7070AD8B4C1D7D3D729
:1009580092689368000E946E000E956E000E966E67
:10096800000E896E000E8A6E000E8B6E000E8C6E65
:10097800000E8D6E000EC26EC168F086F19E2CECE2
:1009880007F0100E3A6E270E3B6E000E3C6E000EFE
:100998003D6E5EEC06F0000ED76E000ED66ED59C4E
:1009A800D59AD596D584D582D580F28E000E506E14
:1009B80015D0ADEC07F028D040EC08F025D0B3EC0A
:1009C80005F022D04BEC08F01FD017EC05F01CD036
:1009D8001FEC04F019D0D6EC07F016D05050000ADE
:1009E800D8B4E7D7010AD8B4E7D7030AD8B4E7D709
:1009F800010AD8B4E7D7070AD8B4E7D7010AD8B4A8
:100A0800E7D7030AD8B4E7D7030E0001916F8A0E1F
:100A18000001906F550EE82EFED7902FFCD7912F2E
:100A2800FAD700D0DBD78DEC08F0000E2F6ED00E71
:100A38002E6E7FEC08F0000E2F6E000E2E6E7FECEF
:100A480008F089EC08F08DEC08F0000E2F6ED10E3E
:100A58002E6E7FEC08F0000E00018E6F050E00016F
:100A68008E6501D010D000018E51010D410EF32486
:100A7800D96E000EF420DA6E010EC3EC07F0DF6EBB
:100A880000018E2BEBD7000EC3EC07F0476E89EC04
:100A980008F0800E6DEC08F0A60E396EFE0E3A6E68
:100AA80046C03BF03C6A45C03DF03E6A47C03FF057
:100AB800406A09EC00F0C00E6DEC08F0BD0E396E0E
:100AC800FE0E3A6E43C03BF03C6A42C03DF03E6ABF
:100AD80041C03FF0406A09EC00F01200000E356E8C
:100AE800000E366E000E376E000E386E3150321022
:100AF80033103410D8B42AD0010E396E06D0D890ED
:100B08003136323633363436392A34AEF8D7D890BF
:100B1800353636363736383631502D5C32502E5809
:100B280033502F5834503058D8A009D031502D5E4A
:100B380032502E5A33502F5A3450305A3580D8906C
:100B48003432333232323132392EE1D735C02DF0DA
:100B580036C02EF037C02FF038C030F012002AD03F
:100B6800800E6DEC08F0780E396EFE0E3A6E09ECC8
:100B780000F0000E4B6E010E4A6E1200800E6DECF6
:100B880008F0600E396EFE0E3A6E09EC00F0000EA9
:100B98004B6E020E4A6E1200800E6DEC08F0470E86
:100BA800396EFE0E3A6E09EC00F0000E4B6E000E28
:100BB8004A6E12004AC08EF04BC08FF000018F5170
:100BC800000AD8A4120000018E51000AD8B4C8D770
:100BD800010AD8B4D3D7030AD8A41200DDD7000E6F
:100BE800326E2EAE06D02D6C2E1ED8B02E2A010ED7
:100BF800326E30AE04D02F6C301ED8B0302A2F5051
:100C08003010D8B418D0010E316E04D0D8902F36D9
:100C18003036312A30AEFAD72F502D5C30502E584E
:100C2800D8A004D02F502D5E30502E5AD890303294
:100C38002F32312EF1D73250D8B404D02D6C2E1E5D
:100C4800D8B02E2A2DC02DF02EC02EF0120095EC13
:100C580008F0000E036ED00E026E84EC08F0000E51
:100C6800036E000E026E84EC08F091EC08F095EC2F
:100C780008F0000E036ED10E026E84EC08F0000E30
:100C8800046E050E046401D00ED00450010D410E0F
:100C9800F324D96E000EF420DA6E010E0FEC08F082
:100CA800DF6E042AEED7000E0FEC08F0476E91ECC9
:100CB80008F01200000EC76E280EC66E000EC56E34
:100CC800800E2D6E960E2E6E980E2F6E000E306EC4
:100CD8003AC080F03BC081F03CC082F03DC083F058
:100CE800020ED89000018037813782378337E82E8B
:100CF800F8D780C031F081C032F082C033F083C0B1
:100D080034F072EC05F02D04C86E948694881200B5
:100D1800000E336E000E326E2F503010D8B41CD037
:100D2800010E316E04D0D8902F363036312A30AECD
:100D3800FAD7D890323633362F502D5C30502E5893
:100D4800D8A005D02F502D5E30502E5A3280D89022
:100D580030322F32312EEDD732C02DF033C02EF085
:100D68001200000E066E000E056E03500410D8B473
:100D78001CD0010E076E04D0D89003360436072A1B
:100D880004AEFAD7D890053606360350015C0450F5
:100D98000258D8A005D00350015E0450025A0580BD
:100DA800D89004320332072EEDD705C001F006C0F3
:100DB80002F012002E6E2E50F00B2D6E8C500F0B81
:100DC8008C6E2D508C108C6E8C96190EE82EFED7DA
:100DD8008C86190EE82EFED72E38F00B2E6E2E506C
:100DE800F00B2D6E8C500F0B8C6E2D508C108C6E62
:100DF8008C96190EE82EFED78C86190EE82EFED793
:100E08001200026E0250F00B016E8C500F0B8C6EAC
:100E180001508C108C6E8C96190EE82EFED78C869D
:100E2800190EE82EFED70238F00B026E0250F00BB6
:100E3800016E8C500F0B8C6E01508C108C6E8C9642
:100E4800190EE82EFED78C86190EE82EFED7120052
:100E5800310E306EB20EE82EFED7302EFCD700D001
:100E6800330E6DEC08F0330E6DEC08F0320E6DECBD
:100E780008F0280E6DEC08F00F0E6DEC08F0060E69
:100E88006DEC08F0010E6DEC08F0310E306EB20E0C
:100E9800E82EFED7302EFCD700D01200365037107F
:100EA800D8B418D0010E386E04D0D89036363736FC
:100EB800382A37AEFAD73650345C37503558D8A070
:100EC80004D03650345E3750355AD89037323632DF
:100ED800382EF1D734C034F035C035F012000A503E
:100EE8000B10D8B418D0010E0C6E04D0D8900A3666
:100EF8000B360C2A0BAEFAD70A50085C0B5009586F
:100F0800D8A004D00A50085E0B50095AD8900B326A
:100F18000A320C2EF1D708C008F009C009F01200F7
:100F2800320EF66E110EF76E000EF86E0900F5CF50
:100F380051F00900F5CF52F000EE41F0100EEE6AC4
:100F4800E806FDE153905392000EF86E0001ACEFF5
:100F580004F0800E6DEC08F0FB0E396EFE0E3A6E52
:100F680009EC00F0C00E6DEC08F01D0E396EFF0E96
:100F78003A6E81CF3BF03C6A09EC00F012002E6E0D
:100F880055EC08F0C58655EC08F0C9CF2FF055ECA4
:100F980008F02E50D8A402D0C58A01D0C59AC588B9
:100FA8002F501200800E6DEC08F08F0E396EFE0E79
:100FB8003A6E09EC00F0C00E6DEC08F0D40E396EF4
:100FC800FE0E3A6E09EC00F012002D502F02F3CFFE
:100FD80031F0F4CF32F02D503002F35032262E503B
:100FE8002F02F350322631C02DF032C02EF01200FD
:100FF80001500302F3CF05F0F4CF06F001500402CC
:10100800F350062602500302F350062605C001F0ED
:1010180006C002F01200026E5EEC08F0C5865EECB7
:1010280008F0C9CF03F05EEC08F00250D8A402D053
:10103800C58A01D0C59AC588035012002F6E000ECC
:101048002E6E3A0E2F6005D02F0E2F6402D0010E9F
:101058002E6E2EC02DF02D301200036E000E026E83
:101068003A0E036005D02F0E036402D0010E026E03
:1010780002C001F001301200800E6DEC08F0D70EAE
:10108800396EFF0E3A6E09EC00F0F29EFFD7800E23
:101098006DEC08F0C70E396EFF0E3A6E09EC00F0E1
:1010A8001200C7B4FED7C5CF2DF01F0E2D16D8B429
:1010B8001200F7D7C7B4FED7C5CF01F01F0E01162F
:1010C800D8B41200F7D72F6E8C842F50DEEC06F0C0
:1010D80012002F6E8C942F50DEEC06F01200036E77
:1010E8008C84035005EC07F01200036E8C940350B7
:1010F80005EC07F0120055EC08F02EC0C9FF1200ED
:101108005EEC08F002C0C9FF120055EC08F0C58477
:10111800120055EC08F0C58012005EEC08F0C5849A
:0C11280012005EEC08F0C5801200FFFF12
:10FE1C00003132334134353642373839432A3023B6
:10FE2C00440001000A006400E803102701001000E0
:10FE3C00000100105035210805021752756E6E69CD
:10FE4C006E677E7E7E2020202020202020202020F7
:10FE5C002020200052756E6E696E677E7E202020F9
:10FE6C0020202020202020202020200052756E6E83
:10FE7C00696E677E2020202020202020202020203A
:10FE8C00202000546F74616C204F7065726174692E
:10FE9C006F6E2020202020202000446174653A20C1
:10FEAC00253032782F253032782F253032782020AB
:10FEBC000054696D653A20253032783A2530327815
:10FECC003A2530327820200054696D653A2037731A
:10FEDC002020202020202020202020202000303115
:10FEEC003233343536373839616263646566007392
:10FEFC0074616E6462792020202020202020200054
:10FF0C00546F74616C3A2031302020202020202046
:10FF1C0000504F5254423A202564202020202020AB
:10FF2C002000426F74746C6520436F756E742020D2
:10FF3C00202000594F502D4341502D4C424C3A201B
:10FF4C0030202000594F502D4341502B4C424C3AFD
:10FF5C002031202000594F502B4341502D4C424C06
:10FF6C003A2031202000594F502B4341502B4C420A
:10FF7C004C3A203320200045534B412B4341502B0E
:10FF8C004C424C3A2031200045534B412D434150BB
:10FF9C002B4C424C3A2031200045534B412B4341D2
:10FFAC00502D4C424C3A2031200045534B412D43AF
:10FFBC0041502D4C424C3A203220004F70657261FA
:10FFCC0074696F6E20446F6E652100454D45524734
:10FFDC00454E43592053544F500062616420696E62
:10FFEC0074657272757074004552524F523A2025E6
:03FFFC006400009E
:020000040020DA
:08000000FFFFFFFFFFFFFFFF00
:020000040030CA
:0E000000FF021F1EFF8381FF0FC00FE00F40A5
:00000001FF
