:0400000007EF00F016
:100008007E8206ED04F07EEF11F09E0E0001AE6FC9
:10001800000E0001AF6F1DD2250E0001B519D8B42E
:1000280005D00001B5518EEC12F013D2000E00017C
:10003800B46F000EB36F000E0001B26F05D000015F
:10004800B28500019C4B9D2B9CC0F6FF9DC0F7FF1D
:100058000800F550300AD8B4F2D79CC0F6FF9DC00E
:10006800F7FF0800F55006EC12F0D8A09AD0000E61
:100078000001B46F000EB36FB3C090F0B4C091F03C
:10008800000E0001936F0A0E926FD4EC11F090C02D
:10009800B3F091C0B4F0D00E0001A46FFF0E0001C0
:1000A800A56F9CC0F6FF9DC0F7FF0800F550000142
:1000B800A66FA76B0001A4510001A6270001A55156
:1000C8000001A7230001A6510001B3270001A75191
:1000D8000001B42300019C4B9D2B9CC0F6FF9DC0E2
:1000E800F7FF0800F55006EC12F0D8A05AD0C4D794
:1000F8000001B28F72D00001B3510001AB5D000165
:10010800B4510001AC59D8B009D00001AB5100017D
:10011800B35F0001AC510001B45B09D0000E0001CF
:10012800B46F000EB36F03D0200E8EEC12F00001F6
:10013800B307D8A0B4070001B329F6E10001B42938
:10014800D8B40BD0F1D7A8C0D9FFA9C0DAFFDF50C7
:100158008EEC12F00001A84BA92B0001AB07D8A028
:10016800AC070001AB29EFE10001AC29D8B471D18B
:10017800EAD7AEC0D9FFAFC0DAFFDF500001B56FD4
:10018800020E0001AE27000EAF23B50E0001A86FC6
:10019800000E0001A96F000E0001AC6F010EAB6FDD
:1001A800AAD79CC0F6FF9DC0F7FF00019C4B9D2B72
:1001B8000800F5CFB5F00001B551000AD8B4120017
:1001C800630AD8B4D6D7070AD8B407D00D0AD8B46A
:1001D80004D0110AD8B48CD7D8D70001B2BF19D02F
:1001E800AEC0D9FFAFC0DAFFDECFB0F0DDCFB1F0DF
:1001F800020E0001AE27000EAF230001B1AF53D0AD
:10020800030E0001B2130001B06DB11FD8B0B12BBD
:100218004AD0AEC0D9FFAFC0DAFFDECFB0F0DDCF35
:10022800B1F0020E0001AE27000EAF233CD0010E44
:100238000001B56F050E0001B519D8B43DD0000115
:10024800B551020DF60EF324F66EFD0EF420F76E8E
:100258000900F5500001B05D0900F5500001B159E1
:10026800D8A02AD00001B52BE5D7010E0001B56F43
:10027800040E0001B519D8B41FD00001B551020D04
:10028800000EF324F66EFE0EF420F76E0900F5500A
:100298000001B05D0900F5500001B159D8A00CD09B
:1002A8000001B52BE5D70001B251800B000AD8B484
:1002B800BED7800AD8B4D9D70001B3510001B41110
:1002C800D8B40BD0B2C0A4F0030E0001A417D8B460
:1002D80004D00001B307D8A0B407800E0001B5BF51
:1002E8007F0E0001A46F0001B3510001B55D00014C
:1002F800B451800A0001A459D8B00BD00001B551FF
:100308000001B35F000E0001B5BFFF0E0001B45B32
:1003180005D0000E0001B46F000EB36F0001B2A546
:1003280018D0B2C0A4F0030E0001A417D8B403D0AB
:100338002D0E8EEC12F00001B3510001B411D8B4A7
:1003480025D0300E8EEC12F00001B307D8A0B40708
:10035800F2D70001B3510001B411D8B40DD0200E6A
:100368008EEC12F00001B307D8A0B4070001B35116
:100378000001B411D8A4F3D7B2C0A4F0030E000151
:10038800A417D8B403D02D0E8EEC12F0B5C0ADF082
:100398005AD00001AD51020DF60EF324F66EFD0E93
:1003A800F420F76E0900F5CF92F00A00F5CF93F02C
:1003B800B0C090F0B1C091F0FAEC0EF090C097F098
:1003C80091C098F0000E00019A6F0A0E996FE1EC47
:1003D8000FF000019751300F0001B56F30D0B0C059
:1003E80090F0B1C091F00001AD51020D000EF32460
:1003F800F66EFE0EF420F76E0900F5CF92F00A00B3
:10040800F5CF93F0FAEC0EF0000190510F0B0001BC
:10041800AA6F0001AA51010DFC0EF324F66EFE0E20
:10042800F420F76E0800F5CFB5F009D00001B251FD
:10043800800B000AD8B4ADD7800AD8B4D0D7000151
:10044800B5518EEC12F00001AD070001AD29D8A41A
:10045800EDD79CC0F6FF9DC0F7FF00019C4B9D2B7C
:100468000800F5CFB5F00001B551D8B41200D4D5C5
:100478000F0E196E000E1A6EB8D1250E2018D8B4BA
:1004880004D020509EEC12F0B0D1000E1F6E000E6A
:100498001E6E000E1D6E03D01D840D4A0E2A0DC05F
:1004A800F6FF0EC0F7FF0800F550300AD8B4F4D7AD
:1004B8000DC0F6FF0EC0F7FF0800F55053EC12F020
:1004C800D8A076D0000E1F6E000E1E6E1EC001F062
:1004D8001FC002F0000E046E0A0E036E2EEC12F01E
:1004E80001C01EF002C01FF0D00E0F6EFF0E106E7E
:1004F8000DC0F6FF0EC0F7FF0800F550116E126A26
:100508000F5011261050122211501E2612501F2271
:100518000D4A0E2A0DC0F6FF0EC0F7FF0800F55071
:1005280053EC12F0D8A044D0D1D71D8E5BD01E500A
:10053800165C1F501758D8B005D016501E5E1750BD
:100548001F5A08D0000E1F6E000E1E6E03D0200E1C
:100558009EEC12F01E06D8A01F061E28F8E11F28E0
:10056800D8B40AD0F4D714C0D9FF15C0DAFFDF50C9
:100578009EEC12F0144A152A1606D8A0170616285B
:10058800F2E11728D8B431D1EED719C0D9FF1AC073
:10059800DAFFDF50206E020E1926000E1A22200EF6
:1005A800146E000E156E000E176E010E166EBFD774
:1005B8000DC0F6FF0EC0F7FF0D4A0E2A0800F5CF52
:1005C80020F02050000AD8B41200630AD8B4DDD74E
:1005D800070AD8B407D00D0AD8B404D0110AD8B481
:1005E800A4D7DDD71DBE15D019C0D9FF1AC0DAFFB0
:1005F800DECF1BF0DDCF1CF0020E1926000E1A22EA
:100608001CAE44D0030E1D121B6C1C1ED8B01C2A35
:100618003DD019C0D9FF1AC0DAFFDECF1BF0DDCFFD
:100628001CF0020E1926000E1A2230D0010E206E80
:10063800050E2018D8B432D02050020DF60EF3243F
:10064800F66EFD0EF420F76E0900F5501B5C0900EC
:10065800F5501C58D8A022D0202AEAD7010E206EC7
:10066800040E2018D8B41AD02050020D000EF3241E
:10067800F66EFE0EF420F76E0900F5501B5C0900BB
:10068800F5501C58D8A00AD0202AEAD71D50800B54
:10069800000AD8B4CBD7800AD8B4E0D71E501F10B0
:1006A800D8B409D01DC00FF0030E0F16D8B403D06C
:1006B8001E06D8A01F06800E20BE7F0E0F6E1E508D
:1006C800205C1F50800A0F58D8B007D020501E5EFB
:1006D800000E20BEFF0E1F5A04D0000E1F6E000E23
:1006E8001E6E1DA414D01DC00FF0030E0F16D8B433
:1006F80003D02D0E9EEC12F01E501F10D8B41ED041
:10070800300E9EEC12F01E06D8A01F06F5D71E501C
:100718001F10D8B40AD0200E9EEC12F01E06D8A0E6
:100728001F061E501F10D8A4F6D71DC00FF0030EC9
:100738000F16D8B403D02D0E9EEC12F020C018F07E
:1007480050D01850020DF60EF324F66EFD0EF4206C
:10075800F76E0900F5CF03F00A00F5CF04F01BC0CF
:1007680001F01CC002F0A0EC10F001C008F002C0BB
:1007780009F0000E0B6E0A0E0A6E3DEC11F00850DF
:10078800300F206E2BD01BC001F01CC002F0185097
:10079800020D000EF324F66EFE0EF420F76E09002B
:1007A800F5CF03F00A00F5CF04F0A0EC10F00150EB
:1007B8000F0B136E1350010DFC0EF324F66EFE0E94
:1007C800F420F76E0800F5CF20F008D01D50800BFC
:1007D800000AD8B4B6D7800AD8B4D5D720509EEC32
:1007E80012F018061828D8A4F1D70DC0F6FF0EC0CD
:1007F800F7FF0D4A0E2A0800F5CF20F02050D8B494
:1008080012003BD60600FACF82F0FBCF83F0E9CF87
:1008180084F0EACF85F0E1CF86F0E2CF87F0D9CF38
:1008280088F0DACF89F0F3CF8AF0F4CF8BF0F6CFE7
:100838008CF0F7CF8DF0F8CF8EF0F5CF8FF0F0B0C9
:1008480092D0A9D0000E0001C76F000E0001C96F39
:10085800000EC86F9ED0F28AD58E000ED76E000E9D
:10086800D66EADEC0FF0BBC07DF0BAC07CF0010EC7
:10087800A4EC12F0020E69D00001C869C96989D0D8
:10088800050E0001C76F0001C84BC92B1F0E811848
:10089800D8A47FD0FBD77DC063F0646A52EC09F01E
:1008A80063C073F064C074F073C001F074C002F0E8
:1008B800000E046E3C0E036E2EEC12F001C080F0A8
:1008C80002C081F07CC063F0646A52EC09F06350A6
:1008D800000180250001C56F6450000181210001DD
:1008E800C66F77C063F0646A52EC09F063C073F0B6
:1008F80064C074F073C001F074C002F0000E046E9E
:100908003C0E036E2EEC12F001C080F002C081F0A4
:1009180076C063F0646A52EC09F0635000018025E8
:100928000001C16F6450000181210001C26F060EF1
:100938000CD0040E0AD0ADEC0FF0BBC077F0BAC0F3
:1009480076F0010EA4EC12F0030E0001C76F94D7E5
:10095800010EA4EC12F0010E0001C76F0001C86976
:10096800C969D59E16D081500F0AD8B474D7100A19
:10097800D8B486D7300AD8B48ED7100AD8B4D9D705
:10098800700AD8B4D8D7800AD8B4E2D7200AD8B425
:1009980059D7F0902ED0F2A412D0D59EADEC0FF01E
:1009A800BBC077F0BAC076F0010EA4EC12F0030ECB
:1009B8000001C76F0001C869C969F2941AD0800E96
:1009C800A4EC12F0E70E0D6EFF0E0E6E3CEC02F07A
:1009D800000E756E630E756401D0F1D7210E00010B
:1009E800806F760EE82EFED7802FFCD700F0752A90
:1009F800F1D78FC0F5FF8EC0F8FF8DC0F7FF8CC010
:100A0800F6FF8BC0F4FF8AC0F3FF89C0DAFF88C005
:100A1800D9FF87C0E2FF86C0E1FF85C0EAFF84C036
:100A2800E9FF83C0FBFF82C0FAFF7E9211004950A4
:100A38004A104B10D8A407D0000E496E800E4A6E9B
:100A48003F0E4B6E1200720E016E310E026E440E96
:100A5800036E49C004F04AC005F04BC006F070ECC4
:100A68000EF0D8B00BD0000E796E220E786EFF0E05
:100A7800496E7F0E4A6E7F0E4B6E120049C001F020
:100A88004AC002F04BC003F0490E046E3A0E056EE0
:100A9800C40E066E70EC0EF0D8B00BD0000E796E56
:100AA800220E786E000E496E000E4A6E000E4B6ED6
:100AB80012004BAE02D0010E01D0000E516E515003
:100AC800D8B40ED049C001F04AC002F04BC003F0C0
:100AD80041EC12F001C049F002C04AF003C04BF0EB
:100AE80049C00DF04AC00EF04BC00FF0AA0E106EB0
:100AF800B80E116E3F0E126E4AEC0AF00DC049F0A6
:100B08000EC04AF00FC04BF049C041F04AC042F055
:100B18004BC043F037EC0BF041C04CF042C04DF0F5
:100B280043C04EF04CC028F04DC029F04EC02AF00A
:100B3800D0EC09F028C04FF029C050F049C028F087
:100B48004AC029F04BC02AF04FC009F050C00AF043
:100B58009DEC11F009C02BF00AC02CF00BC02DF051
:100B68005EEC11F028C049F029C04AF02AC04BF0C9
:100B780049C028F04AC029F04BC02AF00F0E2B6E4E
:100B8800FE0E2C6E000E2E6E090E2D6E0FEC0CF064
:100B980028C034F029C035F02AC036F04FC037F0ED
:100BA80050C038F078EC0CF034C049F035C04AF049
:100BB80036C04BF05150D8B425D049280EE17F0EED
:100BC8004A180BE17F0E4B18D8A407D0000E496EC7
:100BD800000E4A6E000E4B6E1200000E096E800E5B
:100BE8000A6E3F0E0B6E49C00CF04AC00DF04BC0A8
:100BF8000EF0C4EC0AF009C049F00AC04AF00BC074
:100C08004BF0120049C049F04AC04AF04BC04BF0C3
:100C180012001EC022F0236A246A1D34223601E322
:100C280023802250276E21C022F0236A246A2034B0
:100C3800223601E323802250266E2750D8B40BD0E9
:100C48002650275CD8B00ED0275000082624226EE4
:100C5800180E226407D01FC01CF020C01DF021C050
:100C68001EF012002650D8B40BD02750265CD8B0FE
:100C78000ED0265000082724226E180E226407D0B2
:100C88001CC01CF01DC01DF01EC01EF01200060E78
:100C9800256E1EBE258E21BE258C1D8EFF0E1C16B0
:100CA800FF0E1D16000E1E16208EFF0E1F16FF0EBD
:100CB8002016000E21162650275CD8B01BD0D890DD
:100CC8001F3620362136260627502618D8B40DD0D0
:100CD800250625C022F0070E2216D8B406D0EFD775
:100CE800D8901E321D321C32272A26502718D8B415
:100CF8001FD0F6D72750265CD8B01AD0D8901C360B
:100D08001D361E36270627502618D8B40DD02506BE
:100D180025C022F0070E2216D8B406D0EFD7D890F7
:100D2800213220321F32262A26502718D8A4F7D776
:100D380025AE0CD0FF0E1C1AFF0E1D1AFF0E1E1A30
:100D4800010E1C26000E1D22000E1E2225AC0CD002
:100D5800FF0E1F1AFF0E201AFF0E211A010E1F2662
:100D6800000E2022000E2122000E256E1C501F2688
:100D78001D5020221E50212221AE0ED0FF0E1F1A18
:100D8800FF0E201AFF0E211A010E1F26000E202228
:100D9800000E2122010E256E1FC001F020C002F0B6
:100DA80021C003F027C004F025C005F037EC0DF092
:100DB80001C01CF002C01DF003C01EF01200000E9E
:100DC8005E6E525053105410D8A41BD0000E016E02
:100DD800000E026E000E036E55C004F056C005F0FA
:100DE80057C006F070EC0EF0D8A004D0000E796E53
:100DF800210E786E000E526E000E536E000E546E69
:100E08001200555056105710D8A407D0000E526E35
:100E1800800E536E3F0E546E120054AE40D055C033
:100E280028F056C029F057C02AF0D0EC09F028C0A5
:100E38005FF029C060F02AC061F02BC062F05FC08B
:100E480009F060C00AF061C00BF062C00CF072ECEF
:100E580010F05550091807E156500A1804E1575088
:100E68000B18D8B40BD0000E796E210E786E000ED8
:100E7800526E000E536E000E546E12005F50010B3E
:100E88005E6E52C001F053C002F054C003F041EC52
:100E980012F001C052F002C053F003C054F052C027
:100EA80034F053C035F054C036F042EC08F034C08A
:100EB80058F035C059F036C05AF058C00DF059C036
:100EC8000EF05AC00FF055C010F056C011F057C0C0
:100ED80012F04AEC0AF00DC05BF00EC05CF00FC0D7
:100EE8005DF05BC049F05CC04AF05DC04BF01BECA4
:100EF80005F049C052F04AC053F04BC054F05E5060
:100F0800D8B40FD052C001F053C002F054C003F05F
:100F180041EC12F001C052F002C053F003C054F08B
:100F2800120052C052F053C053F054C054F0120093
:100F380083D0800E96EC12F02F0E00019C6FFF0EEE
:100F480000019D6F09EC00F0C00E96EC12F01E0E29
:100F580000019C6FFF0E00019D6F09EC00F012006C
:100F6800800E96EC12F0730E00019C6FFF0E0001CC
:100F78009D6F09EC00F0C00E96EC12F0620E0001B5
:100F88009C6FFF0E00019D6F09EC00F01200800EAF
:100F980096EC12F0510E00019C6FFF0E00019D6F40
:100FA80009EC00F0C00E96EC12F0400E00019C6FA8
:100FB800FF0E00019D6F09EC00F01200800E96EC08
:100FC80012F0840E00019C6FFF0E00019D6F09EC6A
:100FD80000F0C00E96EC12F0A60E00019C6FFF0EFA
:100FE80000019D6F09EC00F01200800E96EC12F0E3
:100FF800950E00019C6FFF0E00019D6F09EC00F03B
:10100800C00E96EC12F0B70E00019C6FFF0E0001A7
:101018009D6F09EC00F01200800E96EC12F0F50EB0
:1010280000019C6FFF0E00019D6FC8C09EF0C9C0F3
:101038009FF009EC00F0F0D7C8C090F0C9C091F05B
:10104800000E0001936F050E926F8EEC0DF00001FB
:101058009151000AD8A4E0D700019051000AD8B4F1
:1010680068D7010AD8B47CD7030AD8B490D7010A44
:10107800D8B4A4D7070AD8B4B8D7CED736AE0BD0D1
:10108800000E796E210E786E000E346E000E356EED
:10109800000E366E1200345035103610D8A40BD01E
:1010A800000E796E220E786E000E346E000E356ECC
:1010B800000E366E1200000E106E000E116E400EFD
:1010C800126E370E046E000E056E34C001F035C086
:1010D80002F036C003F028EC0EF001C00DF002C09B
:1010E8000EF003C00FF04AEC0AF00DC01CF00EC061
:1010F8001DF00FC01EF0000E1F6E800E206EBF0E7A
:10110800216E0DEC06F01CC034F01DC035F01EC079
:1011180036F03706D8A0380634C028F035C029F094
:1011280036C02AF02D0E2B6EFE0E2C6E000E2E6E83
:10113800080E2D6E0FEC0CF028C034F029C035F0E5
:101148002AC036F0720E106E310E116E3F0E126EFE
:1011580037C009F038C00AF09DEC11F009C00DF055
:101168000AC00EF00BC00FF04AEC0AF00DC01CF0DC
:101178000EC01DF00FC01EF034C01FF035C020F0A7
:1011880036C021F00DEC06F01CC034F01DC035F05F
:101198001EC036F0120092689368000E946E000E1E
:1011A800956E000E966E000E896E000E8A6E000E09
:1011B8008B6E000E8C6E000E8D6E000EC26EC168B6
:1011C800F086F19EC9EC10F0100E00019D6F270EFD
:1011D8009E6F000E9F6F000EA06F42EC10F0000E85
:1011E800D76E000ED66ED59CD59AD596D584D58265
:1011F800D580F28E000E0001C76F2AD018EC11F0CE
:101208003ED062EC12F03BD0DFEC0DF038D06FEC42
:1012180012F035D0A6EC0BF032D09CEC07F02FD0B2
:10122800C5C0B8F0C6C0B9F00001B81FB91FB84BA7
:10123800B92B0001C1510001B8250001B66F0001AA
:10124800C2510001B9210001B76FB9EC11F017D0F4
:101258000001C751000AD8B4D1D7010AD8B4D1D7F0
:10126800030AD8B4D1D7010AD8B4D1D7070AD8B459
:10127800D1D7010AD8B4D1D7030AD8B4D1D7030E2D
:101288000001B96F8A0E0001B86F550EE82EFED71F
:10129800B82FFCD7B92FFAD700D0DAD7000E6E6E68
:1012A800000E6D6E63C071F064C072F0000E706E57
:1012B800000E6F6E68D00F0E71146B6E6C6A6DC085
:1012C80009F06EC00AF09DEC11F009C065F00AC083
:1012D80066F00BC067F065C055F066C056F067C091
:1012E80057F0000E526E200E536E410E546EE3EC12
:1012F80006F052C068F053C069F054C06AF068C084
:1013080010F069C011F06AC012F06BC009F06CC02F
:101318000AF09DEC11F009C00DF00AC00EF00BC0E8
:101328000FF04AEC0AF00DC01FF00EC020F00FC0FD
:1013380021F06FC009F070C00AF09DEC11F009C0EF
:101348001CF00AC01DF00BC01EF00DEC06F01CC00E
:1013580028F01DC029F01EC02AF0D0EC09F028C0E2
:101368006FF029C070F071C001F072C002F0000E79
:10137800046E100E036EB8EC0EF001C071F002C0DE
:1013880072F06D4A6E2A71507210D8A494D76FC04B
:1013980063F070C064F012002AC02CF02D6A2E6A27
:1013A80029342C3601E32D802C50366E3650D8A4C3
:1013B80009D0000E286E000E296E000E2A6E000E4F
:1013C8002B6E1200170E2C6E28C02DF029C02EF09F
:1013D8002AC02FF02C28306E04D0D8902F322E320D
:1013E8002D32302EFAD72D50316E298EFF0E281649
:1013F800FF0E2916000E2A162850326E2950336E19
:101408002A50346E356A8E0E365E36AE16D0365099
:10141800800A8F0FD8B009D0000E286E000E296EF2
:10142800000E2A6E000E2B6E1200D8903532343220
:1014380033323232363EF9D715D0170E36640FD014
:10144800000E286E000E296E000E2A6E000E2B6EFE
:101458001200D890323633363436353636063650A2
:10146800D8A4F7D73150D8B408D0351E341E331E4F
:10147800326C000E33223422352232C028F033C0B9
:1014880029F034C02AF035C02BF012000FC013F039
:10149800146A156A0E34133601E314801350166E5D
:1014A8001650D8A407D0000E0D6E000E0E6E000E5A
:1014B8000F6E120012C013F0146A156A1134133635
:1014C80001E3148013501B6E1B50D8A407D0000EE4
:1014D8000D6E000E0E6E000E0F6E12001B507B0F6D
:1014E80016260FC01BF012501B1A800E1B160E8EEC
:1014F800118EFF0E1016FF0E1116000E1216000E9A
:10150800176E000E186E000E196E070E1A6E0DA0DB
:1015180006D0105017261150182212501922D890B0
:101528000F320E320D32D8901036113612361A2E6E
:10153800EED7090E1A6E0DA006D0105017261150BE
:10154800182212501922D8900F320E320D32D8902C
:101558001932183217321A2EEED717C001F018C0F8
:1015680002F019C003F016C004F01BC005F037ECF8
:101578000DF001C00DF002C00EF003C00FF0120014
:101588000BC00FF0106A116A0A340F3601E310809D
:101598000F50166E1650D8A407D0000E096E000E14
:1015A8000A6E000E0B6E12000EC00FF0106A116A60
:1015B8000D340F3601E310800F50176E1750D8A462
:1015C80007D0000E096E000E0A6E000E0B6E120098
:1015D800000E136E000E146E000E156E1750890F54
:1015E800165E0BC017F00E50171A800E17160A8ECB
:1015F800FF0E0916FF0E0A16000E0B160D8EFF0EB3
:101608000C16FF0E0D16000E0E16180E126ED89040
:101618001336143615360C50095C0D500A580E5006
:101628000B58D8A007D00C50095E0D500A5A0E501E
:101638000B5A1380D89009360A360B36122EE7D784
:1016480013C001F014C002F015C003F016C004F076
:1016580017C005F037EC0DF001C009F002C00AF020
:1016680003C00BF0120041C001F042C002F043C0B9
:1016780003F0470E046E000E056E28EC0EF048AE1F
:1016880010D043AE07D0000E416E800E426EBF0EE2
:10169800436E1200000E416E000E426E000E436E45
:1016A8001200485004E1150E475CD8A007D041C08D
:1016B80041F042C042F043C043F0120041C028F05C
:1016C80042C029F043C02AF0D0EC09F028C037F016
:1016D80029C038F02AC039F02BC03AF036EC0FF0A8
:1016E80037C044F038C045F039C046F041C001F079
:1016F80042C002F043C003F044C004F045C005F006
:1017080046C006F070EC0EF0D8B015D044C01CF0FE
:1017180045C01DF046C01EF0000E1F6E800E206EE4
:10172800BF0E216E0DEC06F01CC041F01DC042F04A
:101738001EC043F0120044C041F045C042F046C00C
:1017480043F01200B8EC12F0000E0001926FD00EB8
:10175800916FAAEC12F0000E0001926F000E916FCB
:10176800AAEC12F0B4EC12F0B8EC12F0000E000182
:10177800926FD10E916FAAEC12F0000E0001B66FB5
:10178800050E0001B66501D010D00001B651010D5B
:10179800BA0EF324D96E000EF420DA6E010EEFECC7
:1017A80011F0DF6E0001B62BEBD7000EEFEC11F055
:1017B8000001C06FB4EC12F0800E96EC12F0A70E88
:1017C80000019C6FFE0E00019D6FBFC09EF00001DE
:1017D8009F6BBEC0A0F00001A16BC0C0A2F00001C9
:1017E800A36B09EC00F0C00E96EC12F0BE0E0001DF
:1017F8009C6FFE0E00019D6FBCC09EF000019F6BA8
:10180800BBC0A0F00001A16BBAC0A2F00001A36B9D
:1018180009EC00F012002DC001F02EC002F0000EFD
:10182800046E030E036E2EEC12F02BC02FF02CC0AA
:1018380030F001502F26025030222FC0F6FF30C062
:10184800F7FF0900F5CF31F00900F5CF32F00A00B3
:10185800F5CF33F03ED031C010F032C011F033C0B4
:1018680012F028C00DF029C00EF02AC00FF04AEC83
:101878000AF00DC01CF00EC01DF00FC01EF0000EC7
:10188800046E030E036E2D06D8A02E062DC001F09F
:101898002EC002F02EEC12F02BC02FF02CC030F02E
:1018A80001502F26025030222FC0F6FF30C0F7FF1C
:1018B8000900F5CF1FF00900F5CF20F00A00F5CF99
:1018C80021F00DEC06F01CC031F01DC032F01EC036
:1018D80033F02D502E10D8A4BED731C028F032C016
:1018E80029F033C02AF01200345035103610D8A42D
:1018F80007D0000E346E000E356E000E366E1200E4
:1019080036507F0B396E3A6AD89039363A363950A4
:1019180037263A50382235AE03D0396A392A01D0F1
:10192800396A39503726000E382238AE0BD0000EEF
:10193800796E220E786E000E346E000E356E000E33
:10194800366E120038BE15D03804D8A012D0000E5A
:10195800796E220E786E36AE06D0FF0E346E7F0E8C
:10196800356EFF0EEDD7FF0E346E7F0E356E7F0E8F
:10197800E7D7383438303A6E3730396E3650391840
:10198800800B3918366E37C039F0010E39163932E6
:101998003932355039187F0B3918356E34C034F068
:1019A80035C035F036C036F01200000E0001986FD1
:1019B800000E996F000E9A6F000E9B6F00019451F4
:1019C800000195110001961100019711D8B442D079
:1019D800010E00019C6F08D00001D890943795370C
:1019E8009637973700019C2B000197AFF5D7000178
:1019F800D890983799379A379B370001945100014E
:101A0800905D000195510001915900019651000126
:101A180092590001975100019359D8A012D00001A2
:101A280094510001905F000195510001915B000104
:101A380096510001925B000197510001935B0001F0
:101A480098810001D89097339633953394330001E9
:101A58009C2FCDD798C090F099C091F09AC092F081
:101A68009BC093F012000450D8B405D00150021066
:101A78000310D8A40CD0000E016E000E026E000EEA
:101A8800036E1200042AD890033202320132000E8B
:101A98000114066E000E0214076EFE0E0314086E83
:101AA800065007100810D8B40CD0ECD7042A010E41
:101AB8000126000E0222000E0322D89003320232C1
:101AC8000132000E0114066E000E0214076EFF0E9E
:101AD8000314086E065007100810D8B406D0E6D7CD
:101AE8000406D89001360236033602BE03D0020E31
:101AF8000460F6D704A0029ED89004320450031262
:101B08000550D8A4038E01C001F002C002F003C042
:101B180003F01200000E0001956F000191AF08D08C
:101B28000001906D911FD8B0912B010E0001956FA7
:101B3800000193AF05D00001926D931FD8B0932B8D
:101B48000001925100019311D8B426D0010E000172
:101B5800946F06D00001D890923793370001942BE8
:101B6800000193AFF7D7000192510001905D000189
:101B7800935100019159D8A008D000019251000159
:101B8800905F000193510001915B0001D89093335D
:101B980092330001942FE7D7000195510001D8B482
:101BA80005D00001906D911FD8B0912B90C090F096
:101BB80091C091F0120033D0800E96EC12F0790E9D
:101BC80000019C6FFE0E00019D6F09EC00F0000EF5
:101BD8000001C46F010EC36F1200800E96EC12F064
:101BE800610E00019C6FFE0E00019D6F09EC00F074
:101BF800000E0001C46F020EC36F1200800E96EC37
:101C080012F0480E00019C6FFE0E00019D6F09EC5A
:101C180000F0000E0001C46F000EC36F1200C3C0B5
:101C2800B6F0C4C0B7F00001B751000AD8A412003A
:101C38000001B651000AD8B4BFD7010AD8B4CDD72D
:101C4800030AD8A41200DAD7015002100310D8A44E
:101C58000FD004C0D9FF05C0DAFF000EDE6E000EFB
:101C6800DD6E000E016E000E026E000E036E120095
:101C780003507F0B066E076AD8900636073604C0F5
:101C8800D9FF05C0DAFF06C0DEFF07C0DDFF02AEE0
:101C980003D0066A062A01D0066A065004C0D9FF96
:101CA80005C0DAFFDE12000EDD1204C0D9FF05C040
:101CB800DAFF820EDE26FF0EDD2203800382038414
:101CC80003860388038A039C029E01C001F002C0B8
:101CD80002F003C003F0120003AE16D001C007F0F3
:101CE80002C008F003C009F0071E081E091E072AD3
:101CF800000E08220922000E0724016E000E08209B
:101D0800026E800E0920036E06AE16D004C007F0DE
:101D180005C008F006C009F0071E081E091E072A9C
:101D2800000E08220922000E0724046E000E082067
:101D3800056E800E0920066E000E011A000E021AAA
:101D4800800E031A000E041A000E051A800E061AD9
:101D58000450015C0550025806500358D8B002D010
:101D6800D8901200D8801200000E066E04AE06D07D
:101D7800036C041ED8B0042A010E066E02AE06D00B
:101D8800016C021ED8B0022A010E061A000E086E57
:101D9800000E076E03500410D8B41CD0010E056E57
:101DA80004D0D89003360436052A04AEFAD7D89062
:101DB800073608360350015C04500258D8A005D0F5
:101DC8000350015E0450025A0780D890043203324F
:101DD800052EEDD70650D8B404D0076C081ED8B02D
:101DE800082A07C001F008C002F01200000E000126
:101DF800956F000E946F0001925100019311D8B4B1
:101E08002CD0010E0001966F06D00001D8909237B1
:101E180093370001962B000193AFF7D70001D890B4
:101E280094379537000192510001905D000193515C
:101E380000019159D8A00AD0000192510001905F89
:101E4800000193510001915B000194810001D89039
:101E5800933392330001962FE1D794C090F095C048
:101E680091F01200000E406E8E0E3F6E3AAE11D009
:101E78003A1E391E381E376C000E382239223A2293
:101E8800010E406E06D0D8903A32393238323732A5
:101E98003F2A000E37143B6E000E38143C6E000EBD
:101EA80039143D6EFF0E3A143E6E3B503C103D1007
:101EB8003E10D8A4E8D737C001F038C002F039C0C6
:101EC80003F03FC004F040C005F037EC0DF001C04E
:101ED80037F002C038F003C039F01200B8EC12F045
:101EE800000E0001926FD00E916FAAEC12F0000E56
:101EF8000001926F000E916FAAEC12F0B4EC12F090
:101F0800B8EC12F0000E0001926FD10E916FAAEC9E
:101F180012F0000E0001936F050E0001936501D0C9
:101F280010D000019351010DBA0EF324D96E000EA2
:101F3800F420DA6E010EEFEC11F0DF6E0001932B46
:101F4800EBD7000EEFEC11F00001C06FB4EC12F00B
:101F58001200C0EC12F0000E036ED00E026EAFEC51
:101F680012F0000E036E000E026EAFEC12F0BCEC25
:101F780012F0C0EC12F0000E036ED10E026EAFEC40
:101F880012F0000E046E050E046401D00ED0045049
:101F9800010DBA0EF324D96E000EF420DA6E010E8C
:101FA8001BEC12F0DF6E042AEED7000E1BEC12F0C9
:101FB8000001C06FBCEC12F0120000019951000141
:101FC8009A11D8B426D0010E00019B6F06D00001EB
:101FD800D89099379A3700019B2B00019AAFF7D711
:101FE800000199510001975D00019A51000198592B
:101FF800D8A008D0000199510001975F00019A51BB
:102008000001985B0001D8909A33993300019B2F07
:10201800E7D797C097F098C098F012000001916F29
:1020280000019151F00B0001906F8C500F0B8C6EDA
:10203800000190518C108C6E8C96190EE82EFED7EC
:102048008C86190EE82EFED700019139F00B00019D
:10205800916F00019151F00B0001906F8C500F0BA4
:102068008C6E000190518C108C6E8C96190EE82E97
:10207800FED78C86190EE82EFED71200000EC76E0A
:10208800280EC66E000EC56E800E0001906F960E6B
:10209800916F980E926F000E936F9DC0A1F09EC035
:1020A800A2F09FC0A3F0A0C0A4F0020ED890000137
:1020B800A137A237A337A437E82EF8D7A1C094F0E8
:1020C800A2C095F0A3C096F0A4C097F0D9EC0CF08C
:1020D80000019005C86E9486948812008E0E116EC9
:1020E80006D0D8900C320B320A320932112A000E6F
:1020F80009140D6E000E0A140E6E000E0B140F6EEE
:10210800FF0E0C14106E0D500E100F101010D8A4E6
:10211800E8D709C001F00AC002F00BC003F011C0F3
:1021280004F0000E056E37EC0DF001C009F002C096
:102138000AF003C00BF01200000E066E000E056ECA
:1021480003500410D8B41CD0010E076E04D0D890E8
:1021580003360436072A04AEFAD7D8900536063671
:102168000350015C04500258D8A005D00350015E0A
:102178000450025A0580D89004320332072EEDD756
:1021880005C001F006C002F01200310E0001936F85
:10219800B20EE82EFED7932FFCD700F0330E96EC44
:1021A80012F0330E96EC12F0320E96EC12F0280E66
:1021B80096EC12F00F0E96EC12F0060E96EC12F05A
:1021C800010E96EC12F0310E0001936FB20EE82E5C
:1021D800FED7932FFCD700F01200026E0250F00BCE
:1021E800016E8C500F0B8C6E01508C108C6E8C967F
:1021F800190EE82EFED78C86190EE82EFED7023867
:10220800F00B026E0250F00B016E8C500F0B8C6EAF
:1022180001508C108C6E8C96190EE82EFED78C8689
:10222800190EE82EFED71200800E96EC12F00D0E55
:1022380000019C6FFF0E00019D6F09EC00F0C00EBD
:1022480096EC12F072EC0FF0D50E00019C6FFE0EAA
:1022580000019D6FBAC09EF000019F6BBAC0A0F04C
:102268000001A16BBAC0A2F00001A36B09EC00F059
:1022780012000A500B10D8B418D0010E0C6E04D0FE
:10228800D8900A360B360C2A0BAEFAD70A50085CDF
:102298000B500958D8A004D00A50085E0B50095AB0
:1022A800D8900B320A320C2EF1D708C008F009C0BA
:1022B80009F012002B502C102D10D8B406D0000EA7
:1022C8002B1A000E2C1A800E2D1A28C01CF029C0BB
:1022D8001DF02AC01EF02BC01FF02CC020F02DC00E
:1022E80021F00DEC06F01CC028F01DC029F01EC01E
:1022F8002AF01200880EF66E250EF76E000EF86EA4
:102308000900F5CFC8F00900F5CFC9F000EEBAF022
:102318000E0EEE6AE806FDE100EE76F0080EEE6AB3
:10232800E806FDE17E907E92000EF86E0001CFEF88
:1023380008F0000E0C6E0AAE06D0096C0A1ED8B062
:102348000A2A010E0C6E09C001F00AC002F0036AE5
:102358008E0E046E0CC005F037EC0DF001C009F0CC
:1023680002C00AF003C00BF01200800E96EC12F0C7
:10237800900E00019C6FFE0E00019D6F09EC00F0AD
:10238800C00E96EC12F0EA0E00019C6FFE0E0001E2
:102398009D6FB6C09EF0B7C09FF009EC00F0120028
:1023A8000001905100019203F3CF94F0F4CF95F01F
:1023B8000001905100019303F3500001952700019B
:1023C800915100019203F3500001952794C090F0B9
:1023D80095C091F012000001916F7BEC12F0C58658
:1023E8007BEC12F0C9CF92F07BEC12F00001915116
:1023F8000001D8A402D0C58A01D0C59AC5880001B9
:10240800925112000001926F000E0001916F3A0E76
:102418000001926107D02F0E0001926503D0010ED2
:102428000001916F91C090F0000190311200026E8E
:1024380085EC12F0C58685EC12F0C9CF03F085EC67
:1024480012F00250D8A402D0C58A01D0C59AC58816
:102458000350120001500302F3CF05F0F4CF06F049
:1024680001500402F350062602500302F3500626D8
:1024780005C001F006C002F012000150021003105E
:10248800D8B406D0000E011A000E021A800E031AE4
:1024980001C001F002C002F003C003F01200036E95
:1024A800000E026E3A0E036005D02F0E036402D0B0
:1024B800010E026E02C001F001301200800E96EC8F
:1024C80012F0D80E00019C6FFF0E00019D6F09EC01
:1024D80000F0F29EFFD7800E96EC12F0C80E0001B5
:1024E8009C6FFF0E00019D6F09EC00F01200C7B44D
:1024F800FED7C5CF90F01F0E00019017D8B4120078
:10250800F6D7C7B4FED7C5CF01F01F0E0116D8B451
:102518001200F7D70001926F8C840001925112ECDF
:1025280010F012000001926F8C940001925112EC8D
:1025380010F01200036E8C840350F1EC10F01200BE
:10254800036E8C940350F1EC10F012007BEC12F047
:1025580091C0C9FF120085EC12F002C0C9FF120039
:102568007BEC12F0C58412007BEC12F0C5801200DF
:1025780085EC12F0C584120085EC12F0C5801200BB
:02258800FFFF53
:10FDE400003132334134353642373839432A3023EF
:10FDF400440001000A006400E80310270100100019
:10FE0400000100105035210805021700803F7231AF
:10FE14003FFE753E58633D951D3CC5AE3A79213988
:10FE240094803793A73556153400000000803FF0C6
:10FE3400FFBEE2A93E8376BEAE2B3E3CC3BDD213C9
:10FE44003D78D3BB52756E6E696E677E7E7E2020D0
:10FE54002020202020202020202020200052756EE9
:10FE64006E696E677E7E20202020202020202020A6
:10FE7400202020200052756E6E696E677E2020203F
:10FE8400202020202020202020202000546F746176
:10FE94006C204F7065726174696F6E202020202081
:10FEA400202000446174653A20253032782F2530B3
:10FEB40032782F2530327820200054696D653A203D
:10FEC400253032783A253032783A2530327820207D
:10FED400005365633A202530327820256320256459
:10FEE40020202020200054696D653A202564207369
:10FEF4002020202020202000303132333435363782
:10FF04003839616263646566007374616E64627932
:10FF140020202020202020202000546F74616C3A7F
:10FF24002031302020202020202000426F74746C67
:10FF34006520436F756E742020202000594F502D8A
:10FF44004341502D4C424C3A2030202000594F5010
:10FF54002D4341502B4C424C3A2031202000594F24
:10FF6400502B4341502D4C424C3A20312020005913
:10FF74004F502B4341502B4C424C3A20332020000D
:10FF840045534B412B4341502B4C424C3A2031209A
:10FF94000045534B412D4341502B4C424C3A2031A8
:10FFA400200045534B412B4341502D4C424C3A20A9
:10FFB40031200045534B412D4341502D4C424C3A86
:10FFC400203220004F7065726174696F6E20446F37
:10FFD4006E652100454D455247454E4359205354C3
:10FFE4004F500062616420696E746572727570743A
:0CFFF400004552524F523A202564000094
:020000040020DA
:08000000FFFFFFFFFFFFFFFF00
:020000040030CA
:0E000000FF021F1EFF8381FF0FC00FE00F40A5
:00000001FF
