:0400000007EF00F016
:100008007E82F4ED01F0D3EF16F0E60E0101056FE4
:10001800000E0101066FD5D1250E01010D19D8B4C6
:1000280005D001010D516DEC18F0CBD1000E010186
:100038000C6F000E0B6F000E01010A6F05D0010155
:100048000A850001E44BE52BE4C0F6FFE5C0F7FFA5
:100058000800F550300AD8B4F2D7E4C0F6FFE5C07E
:10006800F7FF0800F550E1EC17F0D8A048D0000ED3
:1000780001010C6F000E0B6F0BC1D8F00CC1D9F049
:10008800000E0001DB6F0A0EDA6FAFEC17F0D8C074
:100098000BF1D9C00CF1D00E0101006FFF0E010168
:1000A800016FE4C0F6FFE5C0F7FF0800F550010155
:1000B800026F036B01010051010102270101015187
:1000C800010103230101025101010B270101035121
:1000D80001010C230001E44BE52BE4C0F6FFE5C069
:1000E800F7FF0800F550E1EC17F0D8A008D0C4D706
:1000F80001010A8F20D0C00E01010A131CD0E4C0F0
:10010800F6FFE5C0F7FF0001E44BE52B0800F5CF4B
:100118000DF101010D51000AD8B41200640AD8B4D7
:100128000AD00D0AD8B407D01C0AD8B4E4D70D0AEF
:10013800D8B4DED746D10AC100F1C00E01010017BC
:10014800D8A419D005C1D9FF06C1DAFFDECF08F15E
:10015800DDCF09F1020E01010527000E062301017A
:1001680009AF53D0030E01010A130101086D091FDD
:10017800D8B0092B4AD005C1D9FF06C1DAFFDECFB6
:1001880008F1DDCF09F1020E01010527000E062353
:100198003CD0010E01010D6F050E01010D19D8B4F7
:1001A80040D001010D51020D560EF324F66EFE0EDD
:1001B800F420F76E0900F5500101085D0900F550BB
:1001C80001010959D8A02DD001010D2BE5D7010E49
:1001D80001010D6F040E01010D19D8B422D00101DF
:1001E8000D51020D600EF324F66EFE0EF420F76E2C
:1001F8000900F5500101085D0900F5500101095990
:10020800D8A00FD001010D2BE5D701010A51C00B71
:10021800000AD8B4BED7800AD8B4D9D7400AD8B40F
:10022800B8D701010B5101010C11D8B40BD00AC188
:1002380000F1030E01010017D8B404D001010B0727
:10024800D8A00C07800E01010DBF7F0E0101006FC1
:1002580001010B5101010D5D01010C51800A0101E1
:100268000059D8B00BD001010D5101010B5F000EF0
:1002780001010DBFFF0E01010C5B05D0000E01014D
:100288000C6F000E0B6F01010AA518D00AC100F10E
:10029800030E01010017D8B403D02D0E6DEC18F031
:1002A80001010B5101010C11D8B425D0300E6DECB1
:1002B80018F001010B07D8A00C07F2D701010B5168
:1002C80001010C11D8B40DD0200E6DEC18F001010D
:1002D8000B07D8A00C0701010B5101010C11D8A480
:1002E800F3D70AC100F1030E01010017D8B403D0F7
:1002F8002D0E6DEC18F00DC107F15DD0010107510D
:10030800020D560EF324F66EFE0EF420F76E090069
:10031800F5CFDAF00A00F5CFDBF008C1D8F009C153
:10032800D9F0F0EC14F0D8C0DFF0D9C0E0F0000E3E
:100338000001E26F0A0EE16F9CEC15F00001DF513D
:10034800300F01010D6F33D008C1D8F009C1D9F0C1
:1003580001010751020D600EF324F66EFE0EF42023
:10036800F76E0900F5CFDAF00A00F5CFDBF0F0EC14
:1003780014F00001D8510F0B0101046F0101045161
:10038800010D2F0EF324F66EFF0EF420F76E080011
:10039800F5CF0DF10CD001010A51C00B000AD8B4F9
:1003A800ADD7800AD8B4D0D7400AD8B4A7D70101AE
:1003B8000D516DEC18F00101070701010729D8A4B8
:1003C800EAD7E4C0F6FFE5C0F7FF0001E44BE52BF0
:1003D8000800F5CF0DF101010D51D8B412001CD65B
:1003E8000600FACFCAF0FBCFCBF0E9CFCCF0EACFCA
:1003F800CDF0E1CFCEF0E2CFCFF0D9CFD0F0DACF49
:10040800D1F0F3CFD2F0F4CFD3F0F6CFD4F0F7CFCA
:10041800D5F0F8CFD6F0F5CFD7F0F0B00AD135D176
:10042800898468EC15F093C07BF092C07AF0000ED6
:10043800796E000E786E79BE06D0795014E1050EFB
:10044800785CD8B010D0D8907834D96E7934DA6E18
:10045800800ED926000EDA22000EDE6E000EDD6E4A
:10046800784A792AE8D7010E83EC18F0020E0001C9
:10047800C96F450E0001C86FA90EE82EFED7C82F18
:10048800FCD7C92FFAD700D0800E83EC18F0EB0EFA
:100498000D6EFF0E0E6EAEEC05F00001ED69EE6913
:1004A800020EB6D00001ED4BEE2B050E0001C76F12
:1004B8001F0E8118D8A4E7D0FBD77CC0C8F07DC038
:1004C800C9F00001C81FC91FC84BC92B0001B3518F
:1004D8000001C8250001C36F0001B4510001C92102
:1004E8000001C46F0001ED69EE69060E91D00001AC
:1004F800ED69EE69040E8CD08994F29AD59E68EC69
:1005080015F093C077F092C076F07BC063F0646A10
:1005180034EC0DF063C074F064C075F074C001F081
:1005280075C002F0000E046E3C0E036E09EC18F064
:1005380001C0C8F002C0C9F07AC063F0646A34EC44
:100548000DF063500001C8257C6E64500001C9217C
:100558007D6E77C063F0646A34EC0DF063C074F0AC
:1005680064C075F074C001F075C002F0000E046E2E
:100578003C0E036E09EC18F001C0C8F002C0C9F0C7
:1005880076C063F0646A34EC0DF063500001C8254E
:100598000001B36F64500001C9210001B46F010E5E
:1005A80083EC18F00001ED69EE69030E31D004EC1C
:1005B80010F0800E83EC18F0C00E0D6EFE0E0E6E5D
:1005C8008AC00FF08BC010F08CC011F08DC012F0F3
:1005D800AEEC05F0C00E83EC18F0A80E0D6EFE0E02
:1005E8000E6E8EC00FF08FC010F090C011F091C049
:1005F80012F0AEEC05F047D08994F29ED59E010E1C
:1006080083EC18F0010E04D00001ED69EE69000ECC
:100618000001C76F38D0000E026E080E016E79EC2B
:1006280013F031D0000E026E120E016E79EC13F049
:100638002AD081380F0B0001C86FC96B0001C9515E
:10064800000AD8A420D00001C851000AD8B4E8D6BE
:10065800010AD8B427D7030AD8B42FD7010AD8B4C7
:1006680046D7070AD8B448D7010AD8B4A0D7020A8F
:10067800D8B4D1D70C0AD8B4D5D7070AD8B4BCD7C0
:10068800020AD8B4C1D7F09076D0F2A45AD089948F
:10069800D59E68EC15F093C077F092C076F07BC0D9
:1006A80063F0646A34EC0DF063C074F064C075F0F4
:1006B80074C001F075C002F0000E046E3C0E036EAB
:1006C80009EC18F001C0C8F002C0C9F07AC063F0A4
:1006D800646A34EC0DF063500001C8257C6E6450E8
:1006E8000001C9217D6E77C063F0646A34EC0DF0B7
:1006F80063C074F064C075F074C001F075C002F096
:10070800000E046E3C0E036E09EC18F001C0C8F030
:1007180002C0C9F076C063F0646A34EC0DF063502F
:100728000001C8250001B36F64500001C921000110
:10073800B46F030E0001C76F0001ED69EE69F29412
:100748001AD0800E83EC18F0D50E0D6EFF0E0E6ECB
:10075800AEEC05F0000E736E630E736401D0F1D732
:10076800210E0001C86F760EE82EFED7C82FFCD7E1
:1007780000F0732AF1D7D7C0F5FFD6C0F8FFD5C06F
:10078800F7FFD4C0F6FFD3C0F4FFD2C0F3FFD1C047
:10079800DAFFD0C0D9FFCFC0E2FFCEC0E1FFCDC0A5
:1007A800EAFFCCC0E9FFCBC0FBFFCAC0FAFF7E92CC
:1007B80011008AC010F18BC011F18CC012F18DC0EC
:1007C80013F18EC014F18FC015F190C016F191C0CD
:1007D80017F1F29EB2EC0DF000018BBF39D1000188
:1007E8008B5105E1120E00018A5DD8A031D1000EAF
:1007F8000001B66F010EB56F00018BBF0DD02D0E35
:1008080000018A5D010E00018B59D8A005D0000EA9
:100818000001BE6F010EBD6F00018A510001B95D74
:100828000001BA51800A0001EC6F00018B51800A67
:100838000001EC59D8B004D08AC0B9F08BC0BAF026
:1008480000018BBF83D000018B5105E11F0E000111
:100858008A5DD8A07BD00001BB510001BC11D8A48F
:1008680070D08CC0E0F08DC0E1F0F8EC16F0E0C07C
:10087800A7F0E1C0A8F0E2C0A9F090C0E0F091C0F4
:10088800E1F0F8EC16F0E0C0A1F0E1C0A2F0E2C09F
:10089800A3F0000E0101066F000E0101076F400E64
:1008A8000101086FA1C0E3F0A2C0E4F0A3C0E5F025
:1008B800A7C0E0F0A8C0E1F0A9C0E2F078EC0AF027
:1008C800E0C009F1E1C00AF1E2C00BF141EC11F01E
:1008D8000101D8B005D0000E0001B06F010E2BD079
:1008E800A1C0E3F0A2C0E4F0A3C0E5F0A7C0E0F027
:1008F800A8C0E1F0A9C0E2F078EC0AF0E0C006F187
:10090800E1C007F1E2C008F1000E0101096F400ED5
:1009180001010A6F3F0E01010B6F41EC11F001015B
:10092800D8B005D0000E0001B06F020E04D0000E42
:100938000001B06F000EAF6F000E0001BC6F010E1A
:10094800BB6F000E0001B86F010E80D000018BBF95
:1009580008D000018B5104E11E0E00018A5DD8B059
:10096800F7D00001B7510001B811D8B4F1D012C1C5
:10097800E0F013C1E1F0F8EC16F0E0C0AAF0E1C035
:10098800ABF0E2C0ACF016C1E0F017C1E1F0F8EC52
:1009980016F0E0C0A4F0E1C0A5F0E2C0A6F0CD0ECC
:1009A8000101066F4C0E0101076F400E0101086F2F
:1009B800A4C0E3F0A5C0E4F0A6C0E5F0AAC0E0F04A
:1009C800ABC0E1F0ACC0E2F078EC0AF0E0C009F1AD
:1009D800E1C00AF1E2C00BF141EC11F00101D8B01D
:1009E80005D0000E0001AE6F010E2BD0A4C0E3F0BD
:1009F800A5C0E4F0A6C0E5F0AAC0E0F0ABC0E1F005
:100A0800ACC0E2F078EC0AF0E0C006F1E1C007F112
:100A1800E2C008F1000E0101096F400E01010A6FE2
:100A28003F0E01010B6F41EC11F00101D8B005D068
:100A3800000E0001AE6F020E04D0000E0001AE6F72
:100A4800000EAD6F000E0001B86F000EB76F80D0BA
:100A58000001B5510001B611D8B47AD00001804B1D
:100A6800812B000ED76E000ED66E020E0001AF1954
:100A78000001B011D8B407D0020E0001AD19000171
:100A8800AE11D8A40BD00001864B872B000E0001B5
:100A9800D96F0A0ED86F08EC12F032D00001AF05FA
:100AA8000001B011D8B406D00001AD050001AE11A7
:100AB800D8A40BD00001824B832B000E0001D96F04
:100AC8000A0ED86F66EC12F01BD00001BD51000170
:100AD800BE11D8B40BD00001844B852B000E000149
:100AE800D96F0E0ED86F66EC12F00AD00001884B51
:100AF800892B000E0001D96F120ED86F08EC12F086
:100B0800000E0001B66F000EB56F000E0001B86F41
:100B1800000EB76F000E0001BC6F000EBB6F000E19
:100B28000001BE6F000EBD6F800E75EC18F0FB0E55
:100B38000001E46FFF0E0001E56FB9C0E6F0BAC02E
:100B4800E7F009EC00F0000E0001BA6F000EB96F73
:100B5800F28E12000F0E186E000E196E84D1250E3B
:100B68002018D8B404D020507DEC18F07CD1000EA9
:100B78001F6E000E1E6E000E1D6E03D01D840D4AE2
:100B88000E2A0DC0F6FF0EC0F7FF0800F550300A18
:100B9800D8B4F4D70DC0F6FF0EC0F7FF0800F55023
:100BA8003FEC18F0D8A038D0000E1F6E000E1E6E55
:100BB8001EC001F01FC002F0000E046E0A0E036E84
:100BC80009EC18F001C01EF002C01FF0D00E136E21
:100BD800FF0E146E0DC0F6FF0EC0F7FF0800F550AB
:100BE800156E166A135015261450162215501E2617
:100BF80016501F220D4A0E2A0DC0F6FF0EC0F7FF31
:100C08000800F5503FEC18F0D8A006D0D1D71D8EBB
:100C18001DD0C00E1D121AD00DC0F6FF0EC0F7FF72
:100C28000D4A0E2A0800F5CF20F02050000AD8B44B
:100C38001200640AD8B40AD00D0AD8B407D01C0A26
:100C4800D8B4E7D70D0AD8B4E2D70DD11DC013F038
:100C5800C00E1316D8A415D018C0D9FF19C0DAFFD2
:100C6800DECF1BF0DDCF1CF0020E1826000E192275
:100C78001CAE44D0030E1D121B6C1C1ED8B01C2ABF
:100C88003DD018C0D9FF19C0DAFFDECF1BF0DDCF89
:100C98001CF0020E1826000E192230D0010E206E0C
:100CA800050E2018D8B435D02050020D560EF32466
:100CB800F66EFE0EF420F76E0900F5501B5C090075
:100CC800F5501C58D8A025D0202AEAD7010E206E4E
:100CD800040E2018D8B41DD02050020D600EF32445
:100CE800F66EFE0EF420F76E0900F5501B5C090045
:100CF800F5501C58D8A00DD0202AEAD71D50C00B9B
:100D0800000AD8B4CBD7800AD8B4E0D7400AD8B400
:100D1800C5D71E501F10D8B409D01DC013F0030E3C
:100D28001316D8B403D01E06D8A01F06800E20BE06
:100D38007F0E136E1E50205C1F50800A1358D8B0C7
:100D480007D020501E5E000E20BEFF0E1F5A04D092
:100D5800000E1F6E000E1E6E1DA414D01DC013F0D1
:100D6800030E1316D8B403D02D0E7DEC18F01E50C8
:100D78001F10D8B41ED0300E7DEC18F01E06D8A077
:100D88001F06F5D71E501F10D8B40AD0200E7DECD0
:100D980018F01E06D8A01F061E501F10D8A4F6D79C
:100DA8001DC013F0030E1316D8B403D02D0E7DEC1E
:100DB80018F020C01AF053D01A50020D560EF32422
:100DC800F66EFE0EF420F76E0900F5CF03F00A0068
:100DD800F5CF04F01BC001F01CC002F05BEC16F06C
:100DE80001C008F002C009F0000E0B6E0A0E0A6E70
:100DF8001AEC17F00850300F206E2ED01BC001F0EF
:100E08001CC002F01A50020D600EF324F66EFE0E9E
:100E1800F420F76E0900F5CF03F00A00F5CF04F0CF
:100E28005BEC16F001500F0B176E1750010D2F0ECB
:100E3800F324F66EFF0EF420F76E0800F5CF20F0CD
:100E48000BD01D50C00B000AD8B4B6D7800AD8B44E
:100E5800D5D7400AD8B4B0D720507DEC18F01A0680
:100E68001A28D8A4EED70DC0F6FF0EC0F7FF0D4A1A
:100E78000E2A0800F5CF20F02050D8B412006FD603
:100E880049504A104B10D8A407D0000E496E800E66
:100E98004A6E3F0E4B6E1200720E016E310E026EDC
:100EA800440E036E49C004F04AC005F04BC006F07A
:100EB8001EEC14F0D8B00CD0000E0001B26F220E58
:100EC800B16FFF0E496E7F0E4A6E7F0E4B6E120099
:100ED80049C001F04AC002F04BC003F0490E046E4D
:100EE8003A0E056EC40E066E1EEC14F0D8B00CD087
:100EF800000E0001B26F220EB16F000E496E000E97
:100F08004A6E000E4B6E12004BAE02D0010E01D09D
:100F1800000E516E5150D8B40ED049C001F04AC0ED
:100F280002F04BC003F01CEC18F001C049F002C0FD
:100F38004AF003C04BF049C00DF04AC00EF04BC058
:100F48000FF0AA0E106EB80E116E3F0E126EA8ECBE
:100F58000EF00DC049F00EC04AF00FC04BF049C06A
:100F680041F04AC042F04BC043F095EC0FF041C04D
:100F78004CF042C04DF043C04EF04CC028F04DC07C
:100F880029F04EC02AF02EEC0EF028C04FF029C0F0
:100F980050F049C028F04AC029F04BC02AF04FC091
:100FA80009F050C00AF078EC17F009C02BF00AC01D
:100FB8002CF00BC02DF03BEC17F028C049F029C0ED
:100FC8004AF02AC04BF049C028F04AC029F04BC06B
:100FD8002AF06F0E2B6EFE0E2C6E000E2E6E090E72
:100FE8002D6ED8EC10F028C034F029C035F02AC096
:100FF80036F04FC037F050C038F0A5EC11F034C0CF
:1010080049F035C04AF036C04BF05150D8B425D01D
:1010180049280EE17F0E4A180BE17F0E4B18D8A421
:1010280007D0000E496E000E4A6E000E4B6E12007D
:10103800000E096E800E0A6E3F0E0B6E49C00CF052
:101048004AC00DF04BC00EF022EC0FF009C049F079
:101058000AC04AF00BC04BF0120049C049F04AC020
:101068004AF04BC04BF012001EC022F0236A246ADB
:101078001D34223601E323802250276E21C022F03E
:10108800236A246A2034223601E323802250266E04
:101098002750D8B40BD02650275CD8B00ED0275094
:1010A80000082624226E180E226407D01FC01CF0E8
:1010B80020C01DF021C01EF012002650D8B40BD05D
:1010C8002750265CD8B00ED0265000082724226E60
:1010D800180E226407D01CC01CF01DC01DF01EC0D5
:1010E8001EF01200060E256E1EBE258E21BE258C12
:1010F8001D8EFF0E1C16FF0E1D16000E1E16208ECE
:10110800FF0E1F16FF0E2016000E21162650275C14
:10111800D8B01BD0D8901F36203621362606275047
:101128002618D8B40DD0250625C022F0070E2216A1
:10113800D8B406D0EFD7D8901E321D321C32272AD9
:1011480026502718D8B41FD0F6D72750265CD8B019
:101158001AD0D8901C361D361E362706275026185A
:10116800D8B40DD0250625C022F0070E2216D8B413
:1011780006D0EFD7D890213220321F32262A2650A7
:101188002718D8A4F7D725AE0CD0FF0E1C1AFF0ECF
:101198001D1AFF0E1E1A010E1C26000E1D22000E1F
:1011A8001E2225AC0CD0FF0E1F1AFF0E201AFF0EB0
:1011B800211A010E1F26000E2022000E2122000EE9
:1011C800256E1C501F261D5020221E50212221AEA4
:1011D8000ED0FF0E1F1AFF0E201AFF0E211A010E45
:1011E8001F26000E2022000E2122010E256E1FC090
:1011F80001F020C002F021C003F027C004F025C090
:1012080005F022EC13F001C01CF002C01DF003C071
:101218001EF01200000E5E6E525053105410D8A4E7
:101228001CD0000E016E000E026E000E036E55C03B
:1012380004F056C005F057C006F01EEC14F0D8A014
:1012480005D0000E0001B26F210EB16F000E526E74
:10125800000E536E000E546E120055505610571063
:10126800D8A407D0000E526E800E536E3F0E546EF7
:10127800120054AE41D055C028F056C029F057C0CE
:101288002AF02EEC0EF028C05FF029C060F02AC0CA
:1012980061F02BC062F05FC009F060C00AF061C065
:1012A8000BF062C00CF02DEC16F05550091807E150
:1012B80056500A1804E157500B18D8B40CD0000E39
:1012C8000001B26F210EB16F000E526E000E536E08
:1012D800000E546E12005F50010B5E6E52C001F09A
:1012E80053C002F054C003F01CEC18F001C052F0D7
:1012F80002C053F003C054F052C034F053C035F06C
:1013080054C036F01EEC0BF034C058F035C059F01C
:1013180036C05AF058C00DF059C00EF05AC00FF040
:1013280055C010F056C011F057C012F0A8EC0EF0DE
:101338000DC05BF00EC05CF00FC05DF05BC049F003
:101348005CC04AF05DC04BF044EC07F049C052F075
:101358004AC053F04BC054F05E50D8B40FD052C0BE
:1013680001F053C002F054C003F01CEC18F001C0A7
:1013780052F002C053F003C054F0120052C052F0B1
:1013880053C053F054C054F01200FB0E926E936891
:10139800000E946E000E956E000E966E000E896E0D
:1013A800000E8A6E000E8B6E000E8C6E000E8D6E17
:1013B800000EC26EC168F28EF086F298F098F19E27
:1013C80084EC16F0100E0001E56F270EE66F000E94
:1013D800E76F000EE86FFDEC15F0B5EC0CF0000EB1
:1013E800D76E000ED66ED59CD59AD596D584D58263
:1013F800D580000E0001C76F5FD05BEC17F0070EB9
:1014080001010F6F580E01010E6F590EE82EFED71D
:101418000E2FFCD70F2FFAD74ED02EEC18F04CD049
:10142800DDEC03F00A0E01010E6FBC0EE82EFED7AC
:101438000E2FFCD700F040D04EEC18F0070E01013B
:101448000F6F580E01010E6F590EE82EFED70E2FA2
:10145800FCD70F2FFAD72FD06FEC10F0040E010134
:101468000F6FCF0E01010E6F010EE82EFED70E2F63
:10147800FCD70F2FFAD71FD033EC0CF0040E010164
:101488000F6FCF0E01010E6F010EE82EFED70E2F43
:10149800FCD70F2FFAD70FD094EC17F0040E0101E8
:1014A8000F6FCF0E01010E6F010EE82EFED70E2F23
:1014B800FCD70F2FFAD700D00001C751000AD8B4C3
:1014C8009CD7010AD8B4A9D7030AD8B4A9D7010A66
:1014D800D8B4B2D7070AD8B4BFD7010AD8B4CCD782
:1014E800030AD8B4D9D7E8D7E2C0E6F00001E76B21
:1014F800E86B0001E1350001E63701E3E78100010F
:10150800E6510101046F01010451D8A40AD0000E6C
:101518000001E06F000E0001E16F000E0001E26FB4
:101528001200E5C0E6F00001E76BE86B0001E43566
:101538000001E63701E3E7810001E6510101056F8B
:1015480001010551D8A40AD0000E0001E06F000E79
:101558000001E16F000E0001E26F1200000E0101B0
:10156800016F000E0101026F000E0101036F0101FE
:101578000551890F0101045FE2C005F10001E55141
:101588000101051B800E010105170001E18FFF0E07
:101598000001E017FF0E0001E117000E0001E2173D
:1015A8000001E48FFF0E0001E317FF0E0001E417AE
:1015B800000E0001E517180E0101006F0101D89017
:1015C8000137023703370001E3510001E05D0001F4
:1015D800E4510001E1590001E5510001E259D8A0A8
:1015E8000ED00001E3510001E05F0001E451000169
:1015F800E15B0001E5510001E25B010101810001AD
:10160800D890E037E137E2370101002FD7D701C181
:10161800D8F002C1D9F003C1DAF004C1DBF005C18A
:10162800DCF0ADEC0BF0D8C0E0F0D9C0E1F0DAC0E6
:10163800E2F0120036AE0CD0000E0001B26F210E9F
:10164800B16F000E346E000E356E000E366E12004D
:10165800345035103610D8A40CD0000E0001B26FEB
:10166800220EB16F000E346E000E356E000E366E0F
:101678001200000E106E000E116E400E126E370E24
:10168800046E000E056E34C001F035C002F036C09D
:1016980003F066EC14F001C00DF002C00EF003C0B8
:1016A8000FF0A8EC0EF00DC01CF00EC01DF00FC01E
:1016B8001EF0000E1F6E800E206EBF0E216E38ECDD
:1016C80008F01CC034F01DC035F01EC036F03706D7
:1016D800D8A0380634C028F035C029F036C02AF022
:1016E8008D0E2B6EFE0E2C6E000E2E6E080E2D6EBD
:1016F800D8EC10F028C034F029C035F02AC036F0F4
:10170800720E106E310E116E3F0E126E37C009F058
:1017180038C00AF078EC17F009C00DF00AC00EF0D6
:101728000BC00FF0A8EC0EF00DC01CF00EC01DF0A1
:101738000FC01EF034C01FF035C020F036C021F0B5
:1017480038EC08F01CC034F01DC035F01EC036F06F
:1017580012000001DB510001D8B408D00001D851B3
:101768000001D9110001DA11D8A411D0000E00012E
:10177800D86F000E0001D96F000E0001DA6F120059
:101788000001DB2B0001D890DA33D933D833000EAF
:101798000001D8150001DD6F000E0001D915000108
:1017A800DE6FFE0E0001DA150001DF6F0001DD516A
:1017B8000001DE110001DF11D8B411D0E1D700011A
:1017C800DB2B010E0001D827000E0001D923000EE3
:1017D8000001DA230001D890DA33D933D833000E68
:1017E8000001D8150001DD6F000E0001D9150001B8
:1017F800DE6FFF0E0001DA150001DF6F0001DD5119
:101808000001DE110001DF11D8B408D0D8D70001DB
:10181800DB070001D890D837D937DA370001D9BFAC
:1018280004D0020E0001DB61F2D70001DBB102D067
:101838000001D99F0001D890DB330001DB51000182
:10184800DA130001DC510001D8B402D00001DA8FAC
:10185800D8C0D8F0D9C0D9F0DAC0DAF0120065D013
:10186800800E75EC18F0510E0001E46FFF0E0001B8
:10187800E56F09EC00F0C00E75EC18F0400E0001A1
:10188800E46FFF0E0001E56F80C0E6F081C0E7F06D
:1018980009EC00F01200800E75EC18F0620E0001E1
:1018A800E46FFF0E0001E56F82C0E6F083C0E7F049
:1018B80009EC00F0C00E75EC18F0730E0001E46F2F
:1018C800FF0E0001E56F84C0E6F085C0E7F009EC83
:1018D80000F01200800E75EC18F0840E0001E46F21
:1018E800FF0E0001E56F86C0E6F087C0E7F009EC5F
:1018F80000F0C00E75EC18F0950E0001E46FFF0EB5
:101908000001E56F88C0E6F089C0E7F009EC00F057
:101918001200800E75EC18F0B60E0001E46FFF0E91
:101928000001E56F09EC00F0F4D7EDC0D8F0EEC087
:10193800D9F0000E0001DB6F030EDA6FCDEC13F067
:101948000001D951000AD8A4E4D70001D851000AEF
:10195800D8B486D7010AD8B49ED7030AD8B4BAD760
:10196800D8D797EC18F0000E0001DA6F520ED96F35
:1019780089EC18F0000E0001DA6F800ED96F89EC3F
:1019880018F0000E0001DA6F010ED96F89EC18F01B
:1019980093EC18F00A0E0001DB6FBC0EE82EFED7A0
:1019A800DB2FFCD700F097EC18F0000E0001DA6F7F
:1019B800520ED96F89EC18F0000E0001DA6F800E14
:1019C800D96F89EC18F0000E0001DA6F030ED96F99
:1019D80089EC18F093EC18F097EC18F0000E000161
:1019E800DA6F520ED96F89EC18F0000E0001DA6F29
:1019F8008F0ED96F89EC18F0000E0001DA6F020E15
:101A0800D96F89EC18F093EC18F097EC18F0000EE9
:101A18000001DA6F520ED96F89EC18F0000E000140
:101A2800DA6F810ED96F89EC18F0000E0001DA6FB9
:101A3800D96989EC18F093EC18F097EC18F0000EBF
:101A48000001DA6F520ED96F89EC18F0000E000110
:101A5800DA6FB40ED96F89EC18F093EC18F0120015
:101A6800000E6E6E000E6D6E63C071F064C072F091
:101A7800000E706E000E6F6E68D00F0E71146B6ED4
:101A88006C6A6DC009F06EC00AF078EC17F009C0F6
:101A980068F00AC069F00BC06AF068C055F069C008
:101AA80056F06AC057F0000E526E200E536E410E6B
:101AB800546E0EEC09F052C065F053C066F054C085
:101AC80067F065C010F066C011F067C012F06BC017
:101AD80009F06CC00AF078EC17F009C00DF00AC0E4
:101AE8000EF00BC00FF0A8EC0EF00DC01FF00EC0EA
:101AF80020F00FC021F06FC009F070C00AF078EC38
:101B080017F009C01CF00AC01DF00BC01EF038EC1D
:101B180008F01CC028F01DC029F01EC02AF02EECC9
:101B28000EF028C06FF029C070F071C001F072C0CB
:101B380002F0000E046E100E036EAEEC14F001C03D
:101B480071F002C072F06D4A6E2A71507210D8A4FA
:101B580094D76FC063F070C064F0120097EC18F06F
:101B6800000E0001DA6F530ED96F89EC18F0010EE0
:101B7800CAEC17F000019D6F010ECAEC17F00001C6
:101B8800996F010ECAEC17F000019E6F010ECAECA6
:101B980017F000019A6F010ECAEC17F000019F6F51
:101BA800010ECAEC17F000019B6F010ECAEC17F08A
:101BB8000001A06F000ECAEC17F000019C6F93ECB7
:101BC80018F000019D5199C0DBF00001DC6BDBC00F
:101BD800DCF00001DB6B0001DB1100018A6F000102
:101BE800DC5100018B6F00019E519AC0DBF00001AF
:101BF800DC6BDBC0DCF00001DB6B0001DB110001FA
:101C08008C6F0001DC5100018D6F00019F519BC05A
:101C1800DBF00001DC6BDBC0DCF00001DB6B0001FA
:101C2800DB1100018E6F0001DC5100018F6F000194
:101C3800A0519CC0DBF00001DC6BDBC0DCF00001D4
:101C4800DB6B0001DB110001906F0001DC5100012A
:101C5800916F12002AC02CF02D6A2E6A29342C3676
:101C680001E32D802C50366E3650D8A409D0000ED2
:101C7800286E000E296E000E2A6E000E2B6E1200C2
:101C8800170E2C6E28C02DF029C02EF02AC02FF078
:101C98002C28306E04D0D8902F322E322D32302E90
:101CA800FAD72D50316E298EFF0E2816FF0E2916F1
:101CB800000E2A162850326E2950336E2A50346E80
:101CC800356A8E0E365E36AE16D03650800A8F0FC5
:101CD800D8B009D0000E286E000E296E000E2A6EAC
:101CE800000E2B6E1200D890353234323332323235
:101CF800363EF9D715D0170E36640FD0000E286E71
:101D0800000E296E000E2A6E000E2B6E1200D8905F
:101D1800323633363436353636063650D8A4F7D709
:101D28003150D8B408D0351E341E331E326C000E24
:101D380033223422352232C028F033C029F034C08F
:101D48002AF035C02BF012000FC013F0146A156A80
:101D58000E34133601E314801350166E1650D8A4AF
:101D680007D0000E0D6E000E0E6E000E0F6E1200E4
:101D780012C013F0146A156A1134133601E3148083
:101D880013501B6E1B50D8A407D0000E0D6E000E0A
:101D98000E6E000E0F6E12001B507B0F16260FC022
:101DA8001BF012501B1A800E1B160E8E118EFF0E82
:101DB8001016FF0E1116000E1216000E176E000EEA
:101DC800186E000E196E070E1A6E0DA006D0105070
:101DD80017261150182212501922D8900F320E329D
:101DE8000D32D8901036113612361A2EEED7090E4B
:101DF8001A6E0DA006D01050172611501822125036
:101E08001922D8900F320E320D32D890193218326A
:101E180017321A2EEED717C001F018C002F019C0F9
:101E280003F016C004F01BC005F022EC13F001C04B
:101E38000DF002C00EF003C00FF012000BC00FF03F
:101E4800106A116A0A340F3601E310800F50166EBB
:101E58001650D8A407D0000E096E000E0A6E000EA8
:101E68000B6E12000EC00FF0106A116A0D340F3697
:101E780001E310800F50176E1750D8A407D0000E3A
:101E8800096E000E0A6E000E0B6E1200000E136E25
:101E9800000E146E000E156E1750890F165E0BC0DB
:101EA80017F00E50171A800E17160A8EFF0E091615
:101EB800FF0E0A16000E0B160D8EFF0E0C16FF0EE7
:101EC8000D16000E0E16180E126ED8901336143614
:101ED80015360C50095C0D500A580E500B58D8A0F6
:101EE80007D00C50095E0D500A5A0E500B5A138039
:101EF800D89009360A360B36122EE7D713C001F0F0
:101F080014C002F015C003F016C004F017C005F0A5
:101F180022EC13F001C009F002C00AF003C00BF074
:101F2800120041C001F042C002F043C003F0470E66
:101F3800046E000E056E66EC14F048AE10D043AE89
:101F480007D0000E416E800E426EBF0E436E120027
:101F5800000E416E000E426E000E436E1200485095
:101F680004E1150E475CD8A007D041C041F042C03B
:101F780042F043C043F0120041C028F042C029F0AB
:101F880043C02AF02EEC0EF028C037F029C038F0F4
:101F98002AC039F02BC03AF02CEC15F037C044F0C9
:101FA80038C045F039C046F041C001F042C002F0E7
:101FB80043C003F044C004F045C005F046C006F035
:101FC8001EEC14F0D8B015D044C01CF045C01DF06C
:101FD80046C01EF0000E1F6E800E206EBF0E216ED2
:101FE80038EC08F01CC041F01DC042F01EC043F0A0
:101FF800120044C041F045C042F046C043F0120010
:102008009FEC18F0000E036E530E026E8EEC18F063
:10201800010EF6EC17F000019D6F010EF6EC17F0BB
:102028000001996F010EF6EC17F000019E6F010E8A
:10203800F6EC17F000019A6F010EF6EC17F00001AC
:102048009F6F010EF6EC17F000019B6F010EF6EC86
:1020580017F00001A06F000EF6EC17F000019C6F5E
:102068009BEC18F000019D5199C004F0056A04C06A
:1020780005F0046A041000018A6F055000018B6F97
:1020880000019E519AC004F0056A04C005F0046A74
:10209800041000018C6F055000018D6F00019F51E5
:1020A8009BC004F0056A04C005F0046A041000012E
:1020B8008E6F055000018F6F0001A0519CC004F085
:1020C800056A04C005F0046A04100001906F055009
:1020D8000001916F120097EC18F0000E0001DA6F02
:1020E800D00ED96F89EC18F0000E0001DA6F000EDF
:1020F800D96F89EC18F093EC18F097EC18F0000EF3
:102108000001DA6FD10ED96F89EC18F0000E0001CA
:10211800EC6F050E0001EC6501D010D00001EC5108
:10212800010D920EF324D96E000EF420DA6E010E22
:10213800CAEC17F0DF6E0001EC2BEBD7000ECAECEF
:1021480017F00001986F93EC18F0800E75EC18F0FA
:10215800EF0E0001E46FFE0E0001E56F97C0E6F098
:102168000001E76B96C0E8F00001E96B98C0EAF05F
:102178000001EB6B09EC00F0C00E75EC18F0060ED0
:102188000001E46FFF0E0001E56F94C0E6F0000166
:10219800E76B93C0E8F00001E96B92C0EAF0000138
:1021A800EB6B09EC00F012002DC001F02EC002F01C
:1021B800000E046E030E036E09EC18F02BC02FF00E
:1021C8002CC030F001502F26025030222FC0F6FFCD
:1021D80030C0F7FF0900F5CF31F00900F5CF32F034
:1021E8000A00F5CF33F03ED031C010F032C011F004
:1021F80033C012F028C00DF029C00EF02AC00FF02D
:10220800A8EC0EF00DC01CF00EC01DF00FC01EF0A3
:10221800000E046E030E036E2D06D8A02E062DC0E8
:1022280001F02EC002F009EC18F02BC02FF02CC0E2
:1022380030F001502F26025030222FC0F6FF30C058
:10224800F7FF0900F5CF1FF00900F5CF20F00A00CD
:10225800F5CF21F038EC08F01CC031F01DC032F089
:102268001EC033F02D502E10D8A4BED731C028F090
:1022780032C029F033C02AF01200010108AF1DD086
:1022880006C1E9F007C1EAF008C1EBF00001E91F57
:10229800EA1FEB1FE92B000EEA23EB23000E0001D7
:1022A800E9250101066F000E0001EA210101076F0F
:1022B800800E0001EB210101086F01010BAF1DD059
:1022C80009C1E9F00AC1EAF00BC1EBF00001E91F0E
:1022D800EA1FEB1FE92B000EEA23EB23000E000197
:1022E800E9250101096F000E0001EA2101010A6FC9
:1022F800800E0001EB2101010B6F000E0101061B8E
:10230800000E0101071B800E0101081B000E0101D0
:10231800091B000E01010A1B800E01010B1B0101A4
:1023280009510101065D01010A5101010759010125
:102338000B5101010859D8B002D0D8901200D880AA
:102348001200345035103610D8A407D0000E346E61
:10235800000E356E000E366E120036507F0B396E49
:102368003A6AD89039363A36395037263A503822B0
:1023780035AE03D0396A392A01D0396A395037263F
:10238800000E382238AE0CD0000E0001B26F220EBB
:10239800B16F000E346E000E356E000E366E1200F0
:1023A80038BE16D03804D8A013D0000E0001B26F82
:1023B800220EB16F36AE06D0FF0E346E7F0E356E2C
:1023C800FF0EECD7FF0E346E7F0E356E7F0EE6D70C
:1023D800383438303A6E3730396E36503918800B09
:1023E8003918366E37C039F0010E3916393239329C
:1023F800355039187F0B3918356E34C034F035C074
:1024080035F036C036F01200D8C0DDF0D9C0DEF0A5
:10241800000E796E000E786E79BE06D0795051E1C3
:10242800140E785CD8B012008B82000E0001C06FC9
:10243800000EBF6F07D0530EE82EFED700F0000144
:10244800BF4BC02B0001DD510001BF5D0001C05131
:10245800800A0001DA6F0001DE51800A0001DA59B2
:10246800D8A0E9D78B92000E0001C06F000EBF6F95
:1024780007D0530EE82EFED700F00001BF4BC02B4B
:10248800DDC0DAF0DEC0DBF00001DA1FDB1FDA4B5B
:10249800DB2BC80E0001DA27000EDB230001DA511E
:1024A8000001BF5D0001C051800A0001DC6F00011E
:1024B800DB51800A0001DC59D8A0DBD7784A792A99
:1024C800ABD71200D8C0DDF0D9C0DEF0000E796EAF
:1024D800000E786E79BE06D0795051E1140E785C02
:1024E800D8B012008B80000E0001C06F000EBF6FC5
:1024F80007D0530EE82EFED700F00001BF4BC02BCB
:102508000001DD510001BF5D0001C051800A0001DA
:10251800DA6F0001DE51800A0001DA59D8A0E9D744
:102528008B90000E0001C06F000EBF6F07D0530ED6
:10253800E82EFED700F00001BF4BC02BDDC0DAF05B
:10254800DEC0DBF00001DA1FDB1FDA4BDB2BC80E25
:102558000001DA27000EDB230001DA510001BF5D1C
:102568000001C051800A0001DC6F0001DB51800AC4
:102578000001DC59D8A0DBD7784A792AABD71200FA
:10258800000E0001E06F000EE16F000EE26F000E1A
:10259800E36F0001DC510001DD110001DE110001D3
:1025A800DF11D8B442D0010E0001E46F08D0000159
:1025B800D890DC37DD37DE37DF370001E42B000148
:1025C800DFAFF5D70001D890E037E137E237E337DE
:1025D8000001DC510001D85D0001DD510001D9592D
:1025E8000001DE510001DA590001DF510001DB5919
:1025F800D8A012D00001DC510001D85F0001DD51E4
:102608000001D95B0001DE510001DA5B0001DF51F6
:102618000001DB5B0001E0810001D890DF33DE338D
:10262800DD33DC330001E42FCDD7E0C0D8F0E1C0C2
:10263800D9F0E2C0DAF0E3C0DBF012000450D8B4FD
:1026480005D0015002100310D8A40CD0000E016E62
:10265800000E026E000E036E1200042AD890033298
:1026680002320132000E0114066E000E0214076ECB
:10267800FE0E0314086E065007100810D8B40CD0CC
:10268800ECD7042A010E0126000E0222000E0322B6
:10269800D890033202320132000E0114066E000E89
:1026A8000214076EFF0E0314086E06500710081078
:1026B800D8B406D0E6D70406D890013602360336D9
:1026C80002BE03D0020E0460F6D704A0029ED89082
:1026D8000432045003120550D8A4038E01C001F03F
:1026E80002C002F003C003F0120001C006F002C0ED
:1026F80007F0000E796E000E786E79BE06D079501C
:1027080047E1140E785CD8B012008B82000E0001ED
:10271800C06F000EBF6F07D0530EE82EFED700F033
:102728000001BF4BC02B06500001BF5D0001C05126
:10273800800A036E0750800A0358D8A0EDD78B9201
:10274800000E0001C06F000EBF6F07D0530EE82EB9
:10275800FED700F00001BF4BC02B06C003F007C036
:1027680004F0031E041E034A042AC80E0326000EA2
:10277800042203500001BF5D0001C051800A056EAC
:102788000450800A0558D8A0E1D7784A792AB5D7E5
:102798001200000E0001DD6F0001D9AF08D0000162
:1027A800D86DD91FD8B0D92B010E0001DD6F0001FB
:1027B800DBAF05D00001DA6DDB1FD8B0DB2B0001E1
:1027C800DA510001DB11D8B426D0010E0001DC6F0C
:1027D80006D00001D890DA37DB370001DC2B000186
:1027E800DBAFF7D70001DA510001D85D0001DB51FA
:1027F8000001D959D8A008D00001DA510001D85FEA
:102808000001DB510001D95B0001D890DB33DA33DA
:102818000001DC2FE7D70001DD510001D8B405D055
:102828000001D86DD91FD8B0D92BD8C0D8F0D9C0DD
:10283800D9F0120003AE16D001C007F002C008F0AC
:1028480003C009F0071E081E091E072A000E0822E9
:102858000922000E0724016E000E0820026E800E69
:102868000920036E06AE16D004C007F005C008F0B4
:1028780006C009F0071E081E091E072A000E0822B6
:102888000922000E0724046E000E0820056E800E33
:102898000920066E000E011A000E021A800E031A95
:1028A800000E041A000E051A800E061A0450015C68
:1028B8000550025806500358D8B002D0D8901200DC
:1028C800D8801200015002100310D8A40FD004C001
:1028D800D9FF05C0DAFF000EDE6E000EDD6E000EB9
:1028E800016E000E026E000E036E120003507F0B85
:1028F800066E076AD8900636073604C0D9FF05C0A9
:10290800DAFF06C0DEFF07C0DDFF02AE03D0066AAD
:10291800062A01D0066A065004C0D9FF05C0DAFFAE
:10292800DE12000EDD1204C0D9FF05C0DAFF820EE8
:10293800DE26FF0EDD2203800382038403860388DC
:10294800038A039C029E01C001F002C002F003C08A
:1029580003F01200000E066E04AE06D0036C041ECF
:10296800D8B0042A010E066E02AE06D0016C021E13
:10297800D8B0022A010E061A000E086E000E076E65
:1029880003500410D8B41CD0010E056E04D0D890A2
:1029980003360436052A04AEFAD7D8900736083627
:1029A8000350015C04500258D8A005D00350015EC2
:1029B8000450025A0780D89004320332052EEDD70E
:1029C8000650D8B404D0076C081ED8B0082A07C02F
:1029D80001F008C002F01200000E0001DE6F000EC8
:1029E800DD6F0001DA510001DB11D8B42CD0010EE3
:1029F8000001DC6F06D00001D890DA37DB37000120
:102A0800DC2B0001DBAFF7D70001D890DD37DE37CC
:102A18000001DA510001D85D0001DB510001D959EC
:102A2800D8A00AD00001DA510001D85F0001DB51BB
:102A38000001D95B0001DD810001D890DB33DA3376
:102A48000001DC2FE1D7DDC0D8F0DEC0D9F01200DC
:102A5800000E406E8E0E3F6E3AAE11D03A1E391EF1
:102A6800381E376C000E382239223A22010E406E89
:102A780006D0D8903A323932383237323F2A000EEF
:102A880037143B6E000E38143C6E000E39143D6E40
:102A9800FF0E3A143E6E3B503C103D103E10D8A439
:102AA800E8D737C001F038C002F039C003F03FC0A2
:102AB80004F040C005F022EC13F001C037F002C06A
:102AC80038F003C039F012009FEC18F0000E036EC6
:102AD800D00E026E8EEC18F0000E036E000E026E21
:102AE8008EEC18F09BEC18F09FEC18F0000E036EBB
:102AF800D10E026E8EEC18F0000E046E050E046402
:102B080001D00ED00450010D920EF324D96E000EA0
:102B1800F420DA6E010EF6EC17F0DF6E042AEED719
:102B2800000EF6EC17F00001986F9BEC18F01200FD
:102B38000001E1510001E211D8B426D0010E0001D4
:102B4800E36F06D00001D890E137E2370001E32BAC
:102B58000001E2AFF7D70001E1510001DF5D00019C
:102B6800E2510001E059D8A008D00001E15100016C
:102B7800DF5F0001E2510001E05B0001D890E23321
:102B8800E1330001E32FE7D7DFC0DFF0E0C0E0F07A
:102B980012000001D96F0001D951F00B0001D86F64
:102BA8008C500F0B8C6E0001D8518C108C6E8C964B
:102BB800190EE82EFED78C86190EE82EFED70001D6
:102BC800D939F00B0001D96F0001D951F00B000180
:102BD800D86F8C500F0B8C6E0001D8518C108C6EF6
:102BE8008C96190EE82EFED78C86190EE82EFED785
:102BF8001200000EC76E280EC66E000EC56E800E3F
:102C08000001D86F960ED96F980EDA6F000EDB6F41
:102C1800E5C0E9F0E6C0EAF0E7C0EBF0E8C0ECF0A8
:102C2800020ED8900001E937EA37EB37EC37E82E87
:102C3800F8D7E9C0DCF0EAC0DDF0EBC0DEF0ECC0AC
:102C4800DFF0C4EC12F00001D805C86E94869488B1
:102C580012008E0E116E06D0D8900C320B320A324A
:102C68000932112A000E09140D6E000E0A140E6E98
:102C7800000E0B140F6EFF0E0C14106E0D500E107C
:102C88000F101010D8A4E8D709C001F00AC002F04C
:102C98000BC003F011C004F0000E056E22EC13F017
:102CA80001C009F002C00AF003C00BF01200000EC8
:102CB800066E000E056E03500410D8B41CD0010E29
:102CC800076E04D0D89003360436072A04AEFAD724
:102CD800D890053606360350015C04500258D8A037
:102CE80005D00350015E0450025A0580D890043282
:102CF8000332072EEDD705C001F006C002F012001E
:102D0800310E0001DB6FB20EE82EFED7DB2FFCD7A9
:102D180000F0330E75EC18F0330E75EC18F0320E27
:102D280075EC18F0280E75EC18F00F0E75EC18F00D
:102D3800060E75EC18F0010E75EC18F0310E000156
:102D4800DB6FB20EE82EFED7DB2FFCD700F01200A7
:102D5800026E0250F00B016E8C500F0B8C6E0150FE
:102D68008C108C6E8C96190EE82EFED78C86190E58
:102D7800E82EFED70238F00B026E0250F00B016EFF
:102D88008C500F0B8C6E01508C108C6E8C96190E1B
:102D9800E82EFED78C86190EE82EFED71200460EB6
:102DA800F66E310EF76E000EF86E0900F5CFEDF0F5
:102DB8000900F5CFEEF001EE10F00E0EEE6AE8060F
:102DC800FDE100EE80F0480EEE6AE806FDE100EE57
:102DD80076F0080EEE6AE806FDE17E907E92000E1F
:102DE800F86E0001C9EF09F0000E0001E36F000161
:102DF800E1AF08D00001E06DE11FD8B0E12B010E72
:102E08000001E36FE0C0D8F0E1C0D9F00001DA6B4F
:102E18008E0E0001DB6FE3C0DCF0ADEC0BF0D8C028
:102E2800E0F0D9C0E1F0DAC0E2F012000A500B106D
:102E3800D8B418D0010E0C6E04D0D8900A360B36D0
:102E48000C2A0BAEFAD70A50085C0B500958D8A0C8
:102E580004D00A50085E0B50095AD8900B320A3237
:102E68000C2EF1D708C008F009C009F012002B5049
:102E78002C102D10D8B406D0000E2B1A000E2C1AC8
:102E8800800E2D1A28C01CF029C01DF02AC01EF083
:102E98002BC01FF02CC020F02DC021F038EC08F01A
:102EA8001CC028F01DC029F01EC02AF01200800E98
:102EB80075EC18F0F30E0001E46FFF0E0001E56FEA
:102EC80009EC00F0C00E75EC18F0B2EC0DF0E20E53
:102ED8000001E46FFF0E0001E56F8AC0E6F08BC0C9
:102EE800E7F009EC00F01200000E0C6E0AAE06D0F6
:102EF800096C0A1ED8B00A2A010E0C6E09C001F02E
:102F08000AC002F0036A8E0E046E0CC005F022ECB3
:102F180013F001C009F002C00AF003C00BF0120060
:102F2800800E75EC18F0D80E0001E46FFE0E00015B
:102F3800E56F09EC00F0C00E75EC18F01D0E0001ED
:102F4800E46FFF0E0001E56FC3C0E6F0C4C0E7F010
:102F580009EC00F012000001D8510001DA03F3CFA8
:102F6800DCF0F4CFDDF00001D8510001DB03F350B1
:102F78000001DD270001D9510001DA03F3500001F7
:102F8800DD27DCC0D8F0DDC0D9F012000001D96F10
:102F98005AEC18F0C5865AEC18F0C9CFDAF05AEC9A
:102FA80018F00001D9510001D8A402D0C58A01D077
:102FB800C59AC5880001DA5112000001DA6F000EC7
:102FC8000001D96F3A0E0001DA6107D02F0E000117
:102FD800DA6503D0010E0001D96FD9C0D8F000011D
:102FE800D8311200026E64EC18F0C58664EC18F053
:102FF800C9CF03F064EC18F00250D8A402D0C58AF7
:1030080001D0C59AC5880350120001500302F3CFBE
:1030180005F0F4CF06F001500402F35006260250E2
:103028000302F350062605C001F006C002F01200A4
:10303800015002100310D8B406D0000E011A000E79
:10304800021A800E031A01C001F002C002F003C088
:1030580003F01200F29E8094010E75EC18F0800EB9
:1030680075EC18F0C60E0001E46FFF0E0001E56F65
:1030780009EC00F0FFD7036E000E026E3A0E0360F3
:1030880005D02F0E036402D0010E026E02C001F0BB
:1030980001301200800E75EC18F0A60E0001E46FE6
:1030A800FF0E0001E56F09EC00F01200C7B4FED76F
:1030B800C5CFD8F01F0E0001D817D8B41200F6D724
:1030C800C7B4FED7C5CF01F01F0E0116D8B4120041
:1030D800F7D70001DA6F8C840001DA51CDEC15F0D6
:1030E80012000001DA6F8C940001DA51CDEC15F072
:1030F8001200036E8C840350ACEC16F01200036EC1
:103108008C940350ACEC16F012005AEC18F0D9C0AD
:10311800C9FF120064EC18F002C0C9FF12005AEC93
:1031280018F0C58412005AEC18F0C580120064EC3F
:1031380018F0C584120064EC18F0C5801200FFFF77
:10FE4400003132334134353642373839432A30238E
:10FE5400440001000A006400E803102701001000B8
:10FE6400000100105035210805021700803F72314F
:10FE74003FFE753E58633D951D3CC5AE3A79213928
:10FE840094803793A73556153400000000803FF066
:10FE9400FFBEE2A93E8376BEAE2B3E3CC3BDD21369
:10FEA4003D78D3BB4725752042257520202020208E
:10FEB40020202020202020202020200043257520E1
:10FEC40052257520202020202020202020202020A2
:10FED40020202000546F74616C204F70657261742F
:10FEE400696F6E2020202020202000446174653A30
:10FEF40020253032782F253032782F253032782063
:10FF0400200054696D653A20253032783A25303224
:10FF1400783A2530327820200054696D653A2025DE
:10FF240064207320202020202020003031323334FC
:10FF3400353637383961626364656600546F7461BD
:10FF44006C3A2025642020202020202000426F7459
:10FF5400746C6520436F756E742020202000594F07
:10FF64005020572F204341503A2025642020005927
:10FF74004F50204E4F204341503A2025642020000A
:10FF840045534B4120572F204341503A20256420AC
:10FF94000045534B41204E4F204341503A202564A5
:10FFA40020004F7065726174696F6E20446F6E65D6
:10FFB40021004552523A204241442042544C434E7F
:10FFC4005400454D455247454E43592053544F50D4
:10FFD400004552523A20424144204953520025647C
:10FFE4002020202020200072756E6E696E670073D9
:0BFFF40074616E6462790025640000F7
:020000040020DA
:08000000FFFFFFFFFFFFFFFF00
:020000040030CA
:0E000000FF021F1EFF8381FF0FC00FE00F40A5
:00000001FF
